:020000040800F2
:1000000000500020896300082535000829350008C4
:1000100000000000000000000000000000000000E0
:100020000000000000000000000000002D35000866
:1000300000000000000000003135000835350008E0
:10004000D9630008D9630008D9630008D9630008A0
:10005000D9630008D9630008D9630008D963000890
:1000600000000000D9630008D9630008D9630008C4
:10007000D9630008D9630008D96300084135000836
:10008000D9630008D9630008D963000800000000A4
:10009000D9630008D9630008D9630008D963000850
:1000A000D9630008D9630008D9630008D963000840
:1000B000D9630008D96300080000000000000000B8
:1000C00008B5054B054803331B1A062B03D9044B0F
:1000D000002B00D0984708BD880000208800002031
:1000E000000000000648074908B5091A8910CB0F1F
:1000F0005918491003D0044B002B00D0984708BD75
:1001000088000020880000200000000010B5074C87
:100110002378002B09D1FFF7D3FF054B002B02D02A
:10012000044800E000BF0123237010BD88000020B8
:1001300000000000A86C000808B5094B002B03D094
:100140000848094900E000BF08480368002B02D1B5
:10015000FFF7C8FF08BD064B002BF9D09847F7E71B
:1001600000000000A86C00088C000020880000201F
:1001700000000000002243088B4274D303098B4225
:100180005FD3030A8B4244D3030B8B4228D3030C67
:100190008B420DD3FF22090212BA030C8B4202D309
:1001A0001212090265D0030B8B4219D300E0090A31
:1001B000C30B8B4201D3CB03C01A5241830B8B423A
:1001C00001D38B03C01A5241430B8B4201D34B0323
:1001D000C01A5241030B8B4201D30B03C01A524188
:1001E000C30A8B4201D3CB02C01A5241830A8B420D
:1001F00001D38B02C01A5241430A8B4201D34B02F6
:10020000C01A5241030A8B4201D30B02C01A524159
:10021000CDD2C3098B4201D3CB01C01A524183090D
:100220008B4201D38B01C01A524143098B4201D347
:100230004B01C01A524103098B4201D30B01C01A72
:100240005241C3088B4201D3CB00C01A52418308EC
:100250008B4201D38B00C01A524143088B4201D319
:100260004B00C01A5241411A00D201465241104679
:100270007047FFE701B5002000F00CF802BDC04652
:100280000029F7D003B5FFF775FF0EBC4243891A6A
:100290001847C0467047C0468446101C62468C46CC
:1002A000191C634600E0C0461FB500F0A7FF0028F8
:1002B00001D40021C8421FBD10B500F0EBFE404242
:1002C000013010BD10B500F099FF002801DB0020BF
:1002D00010BD012010BDC04610B500F08FFF0028F2
:1002E00001DD002010BD012010BDC04610B500F09A
:1002F00015FF002801DC002010BD012010BDC04604
:1003000010B500F00BFF002801DA002010BD01201D
:1003100010BDC046002B11D1002A0FD1002900D1F9
:10032000002802D00021C943081C07B4024802A1DA
:100330004018029003BDC0465DFFFFFF03B468464E
:1003400001B5029800F040F8019B9E4602B00CBC3B
:100350007047C04638B500220C4B041C0D1CFFF73B
:10036000CFFF002804D1201C291C01F0C1FD38BD9D
:10037000064B0022201C291C01F040FA01F0B8FDB8
:1003800080231B069C466044F1E7C0460000E04124
:10039000F0B583B0161C1F1C0090019101F094FE73
:1003A000041C0D1C221C2B1C301C391C01F062FE8D
:1003B000009A019B121A8B410899201C0A604B601D
:1003C000291C03B0F0BDC046F0B5141C83B01D1C41
:1003D0000090019101F070FF221C2B1C061C0F1CC9
:1003E00001F048FE009A019B121A8B410899301CBB
:1003F0000A604B60391C03B0F0BDC046F0B54546FD
:1004000057464E4694464C000A03C90FE0B488464E
:100410000E1C1903470FC500480A6146490F0143E6
:100420006046520A1743C0005A00640D520DDB0F9C
:100430008446984500D1A7E0A01A002800DC01E11D
:10044000002A3DD163460B4300D0D4E06B0700D1B6
:1004500088E00F232B40042B00D183E02A1DAA4201
:10046000AD4180236D427F191B043B404646151C5D
:10047000002B00D17CE0CC4B01349C4200D1FDE04C
:100480003A1CCA4BED081A40500764055202054356
:10049000120B640D002112030B0D1B056405120BDA
:1004A0001A436308C24CF60714401C4364006408F6
:1004B0003443281C211C1CBC90469946A246F0BD22
:1004C000B94B9C42C2D080231B041943382800DD5D
:1004D000ECE01F2800DD21E120220E1C6346121AE9
:1004E0009640C340334366469640321C561EB24186
:1004F00013430A1CC240EB1A9D42B6411D1CBA1A96
:100500007642971B3B0200D497E07A02560A002EEF
:1005100000D1B6E0301C01F08FFD031C083B1F2BFF
:1005200000DDB7E09E40371C28262A1C361AF24010
:10053000161C9D403E439C4200DDB2E01C1B621C29
:100540001F2A00DDD8E01F23291C1C1B331CA540DB
:10055000A340D1406C1EA541D64019430D43371C22
:10056000002473E780231B043B40464600D082E70B
:100570008D4BED0878070543FA089C4232D01203F0
:100580006405120B640D85E7A31A002B00DC94E0D0
:10059000002A3CD0844A944200D157E780221204BA
:1005A0001143382B00DC05E163461943481E8141A5
:1005B0000022C8B24019A8429B41051CD2195B42D7
:1005C000D7183B0239D5784B01349C4200D14CE11D
:1005D0000120764A6B083A4028401843D507054366
:1005E000570833E72B1C134348D080231B031A43BF
:1005F0001203120B4EE70138002878D16346EE1A39
:10060000B5429B417A1A5B42D71A351C7AE7021C25
:100610000A4300D11AE7013B002B00D0F2E0401959
:10062000A8429B41CA195B42D718051CC9E7131C95
:10063000334300D118E1171C351C46466B0700D028
:1006400007E795E700287AD1621C5205520D012A6E
:1006500000DCFBE06246AA1A9542B6419146781A40
:100660007242861A320200D493E06246551BAC45B2
:100670008041CF1B40423E1A984648E700220025A1
:1006800008E7281C01F0D8FC2030031C083B1F2B76
:1006900000DC47E7283885402E1C00259C4200DC02
:1006A0004CE7424AE41A1640371CCFE6634619432A
:1006B0004B1E99410022CBB21DE7002B00D0F2E087
:1006C000601C43055B0D012B00DCA4E0364B984217
:1006D00000D121E163465C19AC429B41CF195B42DA
:1006E000FA186408D50725435708041CAEE62E4BBC
:1006F0009C4200D0EAE6A9E6211C331C1F39CB40FE
:10070000191C202A00D182E03F231C1BA640354340
:100710006E1EB54100270D4300248EE7031C0E1CFE
:10072000203BDE40202874D040231B1A99400B1C2C
:1007300062461343591E8B4100223343DBE6002CF3
:1007400050D0194CA24200D1A8E080242404404299
:100750002743382800DDD9E01F2800DD39E12024B7
:100760003E1C241AA640B0462E1CA146C640444654
:1007700026434C46A5406C1EA541C7403543604604
:10078000451BCF1BAC45894149427F1A141C984632
:10079000B8E64B464D46334300D0B8E60026002766
:1007A00000240025E4E6C046FF070000FFFF7FFFAE
:1007B000FFFF0F801F2B5BDC2022081CD21A904009
:1007C000814660469246D8404A461043814652468A
:1007D00060469040021C501E8241484610430A1C4D
:1007E000DA40E7E63C1C2C4358D0C043002851D1E6
:1007F0006046451BAC458041CF1B40423F1A141C4C
:1008000098467FE68F4A944200D0CAE61EE600264C
:100810007DE700238CE73B1C2B43002C00D0BDE080
:10082000002B00D1F5E063460B4300D10EE6634692
:100830005B19AB428041CA19404217183A0200D4F2
:10084000FCE0814A1D1C17400134FFE53A1C2A4395
:10085000002C51D1002A00D085E062460A4303D023
:100860000F1C65469846F1E50026002700257FE627
:10087000181C0A1C2038C240202B00D1A7E04020C1
:10088000C01A8140081C63461843411E884110432A
:1008900000228FE66B4CA24200D05AE70F1C65463F
:1008A000141C9846D2E5002C3AD1381C284371D04C
:1008B000DB43002B18D0634882426BD0382B00DD1D
:1008C0009DE01F2B00DDA7E020203C1CC01A8440C7
:1008D000A1462C1C8246DC404846044350468540D5
:1008E000681E8541DF402543654465459B417F186F
:1008F0005B42FF18141C64E6002A19D162460A43C1
:1009000077D00F1C654698464E4C9FE53D436F1EC1
:10091000BD410027EDB232E7041C0027002527E681
:100920004848824236D0802000045B420743C5E736
:1009300062460A4349D08024ED087807FA08240368
:100940002843224209D0CE08264206D162464F07EC
:10095000381CD20810439846321CD200470F174368
:10096000C500384C72E562460A4300D16EE5624626
:10097000AE1AB5429241781A5242821A100200D43D
:1009800055E66246551BAC458041CA1B4042171ACA
:1009900098465BE50F1C6546141C57E5002B34D0C8
:1009A00063460B4311D08024ED087807FA0824032E
:1009B00028432242D1D0CB082342CED162464F07F2
:1009C000381CD20810431A1CC7E71E4C3EE5002015
:1009D00059E7041C3E1C203CE640341C20282BD048
:1009E0004026301A87403D436F1EBD4100272543F6
:1009F000C5E680270026FF03124C0025B8E53D43DD
:100A00006F1EBD410027EDB26EE70F1C65460D4C11
:100A10001CE50F1C654619E51C1C381C203CE040F9
:100A2000041C202B0CD04020C31A9F403D436F1E56
:100A3000BD410027254357E70027D4E71D1CFCE5EF
:100A40000027F3E7FF070000FFFF7FFFF0B55F46D9
:100A500056464D464446F0B40F0387B098464D00C5
:100A60003B0BCC0F061C924681469B466D0D0194B4
:100A70006BD0664B9D4235D080275B467F031F437A
:100A8000F3009946624BFF00400F9C46074300234A
:100A9000BB46002665440093424617035000D20F20
:100AA00053463F0B400D904600D172E0574A9042AA
:100AB00067D080235B031F435346554A5B0FFF00FB
:100AC0001F43944653460021DB0060444246624087
:100AD00092462D1A0E430F2E00D9A1E04D48B600C4
:100AE000805987465B461E4300D076E000239B4634
:100AF0009946023308260093CEE799464346BB4603
:100B000001930091009B022B6BD1019B9A4600211F
:100B100053460122002789461A403C4B00213F03DF
:100B20000C0D24053F0B27433B4C1B0527401F435F
:100B30007F00D2077F0817434846391C07B03CBCEA
:100B400090469946A246AB46F0BD03433ED05B4675
:100B5000002B00D19CE1584601F06EFA2823311C8D
:100B60001B1A021C5F46D940083A97400B1C96405E
:100B70003B439B46B1460023284D00262D1A009387
:100B80008AE7524603213A43A0D1002700230221DD
:100B90009CE752463A4315D0002F00D185E1381C1E
:100BA00001F04AFA021C28215046891A131CC84039
:100BB0005146083B99409F400B1C074317480021B2
:100BC000801A83E70027002301217FE700239B464B
:100BD00099460133042600935EE703230C26009315
:100BE0005AE7032B00D13CE2012B00D0BFE11A1CD5
:100BF000019B1A4000210023002789468EE700232D
:100C00008027994600223F03004B87E7FF0700003B
:100C100001FCFFFFC06C0008FFFF0F800DFCFFFF11
:100C2000BB4500D951E100D14CE14A460392002274
:100C30005C469046013D180E3F0238431B0201936B
:100C4000030C994603041B0C4946061C201C1F1C60
:100C50000093FFF78FFA021C7A4302904946201C4A
:100C6000171CFFF70DFB039B09041B0C19438F4254
:100C70000CD9029B8919013B8E4200D952E18F4267
:100C800000D84FE1029B8919023B0293CC1B201C28
:100C90004946FFF76FFA009F834647434946201CA9
:100CA000FFF7EEFA039A0B041404240C23439F422B
:100CB0000DD95A469B19013A9E4200D930E19F4214
:100CC00000D82DE10222524294469B19E344029A35
:100CD000DB1B17045A463A439346019C170C220C1F
:100CE000101C04925A4611042204120C141C090C04
:100CF0007C4305924A43414347436118100C09184D
:100D00008C4203D980204002844667440C0C1204B4
:100D10000804120C3C198118A34200D2E5E000D16E
:100D2000DFE01F1B43465C1AA04592415242BF1AA6
:100D3000B74200D10EE1381C4946FFF71BFA009B71
:100D4000029043434946381C9846FFF799FA230C12
:100D50000F041F43B8450CD9029BBF19013BBE428B
:100D600000D9FBE0B84500D8F8E0029BBF19023B70
:100D700002934346FF1A4946381CFFF7FBF9009BD4
:100D8000039043434946381C9846FFF779FA2404F8
:100D90000904240C214388450CD9039B8919013B84
:100DA0008E4200D9DCE0884500D8D9E0039B891940
:100DB000023B03934346C91A029B039A1B04059CFA
:100DC0001A43100C13049146221C049F1B0C5A4317
:100DD00044437B437843E318170CDB199C4203D947
:100DE00080246402A44660441C0C12041B04120CF0
:100DF00000199B18814200D296E000D1FCE04A46DF
:100E000001231A4391469B4BEB18002B00DC99E021
:100E10004A4652070AD00F2249460A40042A05D002
:100E20000431494592418946524293445A46D2017F
:100E300006D55A46904B1A4080239346DB00EB18A8
:100E40008E4A934200DD62E64A465946D208490777
:100E500011435A4689465702514601225B053F0B12
:100E60005B0D0A405AE680205A460003024208D031
:100E7000074206D107433F0399463F0B4246804B4A
:100E80004CE65F4607433F033F0B221C7C4B45E685
:100E900001F0D2F8031C2030272800DC5EE6083B76
:100EA0009E400023B346994665E6504601F0C4F8DB
:100EB000021C2032272A00DC75E657460838874096
:100EC00000237BE6994500D2AFE65A4659465408BE
:100ED0004A46C8075208024303924A46D207904640
:100EE000A9E60027884500D31CE7019F5A46BC4667
:100EF000E044B845BF417F42BF19FF18013ABE42E6
:100F000006D2BC425FD800D19FE03F1B934609E761
:100F1000B742FAD1019B4345F3D9371B934601E70A
:100F20009346D4E60293B1E64A468919013A8E42C5
:100F300018D99146814200D061E7019A9A4200D0C7
:100F40005DE760E74F4F7F1B382F13DD01225346CB
:100F50001A404FE601235B42994654E7029308E7A3
:100F6000039327E788423CD874D0914647E7019B1A
:100F70009A4648E71F2F44DC434B4A469C465B4653
:100F80006544FA40AB4013434A46AA40151C6A1E0A
:100F900095415A46FA402B43171C5A0709D00F2295
:100FA0001A40042A05D01A1D9A429B415B42FF1841
:100FB000131C3A023ED55346012200211A40002755
:100FC00001238946AAE502235B429C46019AE34439
:100FD0009446E04490459B415B429B19DF193F1BBF
:100FE000A0E6019F4A467C00BC42BF417F42BF1938
:100FF000023AC91901949CE7002B95D10022019275
:101000009BE75A46214B5B1BDA40202F27D0204B11
:101010009C465B466544AB4049460B43591E8B4199
:101020001343072200271A4007D00F2200271A4037
:10103000042AB8D17A077F023F0BDB081343994695
:10104000012253461A40002368E54145BBD8934628
:10105000002767E6019C9C42C3D391466DE70023BD
:10106000DAE780275B463F031F433F033F0B019AAC
:10107000034B53E5FF030000FFFFFFFEFE070000E8
:10108000FF07000002FCFFFF1E040000E2FBFFFF61
:101090003E040000F0B55F464D4644465646F0B467
:1010A0001F035C00DB0F99461B4B0E034D00C90F5D
:1010B0008446360B6D0D8B4690463F0B640D9D426A
:1010C0000CD0154B9C4210D00123A54214D0181C03
:1010D0003CBC90469946A246AB46F0BD311C01236C
:1010E0000143F4D10C4B9C42EED13A430123002A38
:1010F000EDD10123A542EAD1BE42E8D1C445E6D1F3
:10110000CB4506D0002DE2D13043031C581E83414D
:10111000DDE70023DBE7C046FF070000F0B55746D8
:1011200045464E46E0B40F034E00C90F8A46324989
:101130001D035C0084463F0B760D90462D0B640D1D
:10114000DB0F8E420FD08C4239D0002E10D13843A5
:10115000414241418946002C27D12A4325D1002014
:1011600000290ED108E0391C01432ED1B44226D00B
:10117000002C0BD09A450DD05346594201231943F8
:10118000081C1CBC90469946A246F0BD2A43F3D0E9
:101190009A45F1D1A642EFDC1ADA50464142484165
:1011A000012341421943081CEBE74A46002AE1D0DB
:1011B00058425841012241421143081CE1E7291CD1
:1011C000114302D1002EC2D0D4E702204042D8E71A
:1011D000AF42D1D809D00020AF42D2D250464142CE
:1011E0004841012340421843CBE7C445C4D80020FE
:1011F000C445F3D3C5E7C046FF070000F0B55F461E
:101200004D46444656468046F0B4061C0803000B83
:1012100084462C484C001F035D00C90F640D8B46AB
:1012200091463F0B6D0DDB0F844212D0854225D0D5
:10123000002C14D161460E4370424641002D35D03A
:10124000002E21D058425841012143420B43181C23
:101250000EE06146022031430AD1A5420ED0002D96
:1012600012D13A4310D15B46594201231943081C5D
:101270003CBC90469946A246AB46F0BD391C0220C4
:101280001143F5D1002CD5D09B45ECD1AC42EADC22
:1012900005DBBC45E7D80FD00020BC45E8D2584656
:1012A00041424841414201200843E1E73A43C7D166
:1012B0000020002EDCD1D6E7C845D4D80020C84590
:1012C000EDD3D5E7FF070000F0B55F4656464D4623
:1012D0004446F0B4051C061C080387B099464F002D
:1012E000030BCC0F92469B467F0D019467D06C4B4D
:1012F0009F4236D080205B4640031843C0006B0FEE
:101300001843684B83469C4600239846EE0067448A
:1013100000934B4649461D03C90F5B0052462D0BF7
:101320005B0D894600D16EE05D498B4264D0802020
:101330005C4940038C4600210543ED00500F0543F6
:10134000D20063444846FF187B1C9A46009B6040CD
:1013500002900B430F2B00D9ACE053489B00C358BD
:101360009F465B461D4300D082E008230093002384
:101370009B46023300269846CBE7029B01934346E7
:10138000022B59D1012400250026019B1C40444B0F
:1013900000212D030A0D12052D0B1543434A1B0591
:1013A00015401D436D00E4076D082543301C291CC2
:1013B00007B03CBC90469946A246AB46F0BD2B43D5
:1013C0004ED05B46002B00D185E1584600F034FE3C
:1013D000021C2823291C9B1A161C5846D940083E7B
:1013E000B0400B1CB54003439B462E1C0023304FDE
:1013F0000093BF1A98468CE7514629432ED1002509
:10140000002202219EE75146294323D0002D00D11E
:1014100054E1281C00F010FE031C28215046C91A74
:101420001A1CC8405146083A914095400A1C054391
:101430001F480021C31A85E7032B00D1C2E1012B0D
:1014400000D06DE14446019B00251C40E4B200231E
:1014500000269DE700250022012173E7032171E7A3
:101460000423009300239B4601330026984650E74F
:101470000C230093093B98464BE7802500242D035D
:101480000026074B84E74B46AB46161C0193884663
:1014900075E7029BAB46161C019388466FE7C04672
:1014A000FF07000001FCFFFF006D0008FFFF0F8039
:1014B0000DFCFFFF330C3604360C9C46331C140C19
:1014C0001204120C534398466346534399466346AD
:1014D00063430193331C41466343090C4B445B183F
:1014E000994505D9802040028146019949440191DE
:1014F000190C039141460904090C1B045B18049361
:101500002B0C9846331C2D04290C4B43604600934A
:101510004346654658435E43009B4D431B0C99462A
:10152000AE194E448446B54203D980235B029946E6
:10153000CC44350C2B1C0398634484460593009BD4
:1015400036041B041B0CF3189C4460460390584659
:101550000504060C280C84465043351C8146604621
:10156000654344434846000C8346724314195C4467
:10157000A24203D98022520293465D44220CAD1848
:101580004A461204120C24044046A41862464A43F8
:101590007143464360460096464670438046100CB1
:1015A00084468844E044414505D9802149028C465F
:1015B00000996144009101980399844661449942DD
:1015C0009B415B4299460598434684461204120C9F
:1015D0001B049B1863449C46AB4683429B41404698
:1015E0000A19CC44A2428941E344CC45B6415C4649
:1015F000000C8046494276425B426418334398446B
:101600008C428941AB459B4149425B4219430D1CC9
:10161000009B4544EE187602E50D2E43B346049B2D
:1016200056021E43731E9E415B46D20D3243660234
:101630001643DB010AD50123334076081E435B467F
:10164000DB071E435B465B089B465746634BFB1814
:10165000002B5ADD720709D00F223240042A05D030
:10166000321DB242B6417642B344161C5A46D201EC
:1016700006D55A465A4B1A4080239346DB00FB1886
:10168000584A934234DD0124029B00251C40002669
:10169000554B7DE680205B460003034208D005429F
:1016A00006D105432D032D0B4C46161C4E4B6FE601
:1016B0005D4605432D032D0B4B4B69E6504600F06C
:1016C000BBFC031C2033272B00DCA6E6554608385C
:1016D00085400022ACE6281C00F0AEFC021C203243
:1016E000272A00DC75E6083885400026AB467DE6F3
:1016F0005A46F608520716435A4601245502029AE2
:101700005B052D0B5B0D144042E6384DED1B382D6B
:101710000ADD0124029B00251C400026002337E639
:10172000019B5746029391E71F2D25DC304B321C5D
:101730009C466744BE405B46BB40371CEA407E1E69
:10174000B74113433B431E1C5B46EB401D1C730714
:1017500009D00F233340042B05D0331DB342B641CB
:101760007642AD191E1C2B0220D50124029B0025B8
:101770001C40002601230BE65A461E4BDB1BDA40B9
:10178000131C202D1CD01C4A94465A466744BA406C
:10179000171C3E43721E96411E430723002533400B
:1017A00007D00F2300253340042BD6D16B076D02E1
:1017B0002D0B0124F6081E43029B1C400023E7E585
:1017C0000027E6E780255B4601242D031D43019B8E
:1017D0002D0323401C1C2D0B034BD9E5FF030000F8
:1017E000FFFFFFFEFE070000FF07000002FCFFFFF7
:1017F0001E040000E2FBFFFF3E040000F0B54D4672
:1018000044465F465646F0B40E1C111C3203520A81
:10181000470F1743C5001A035800DB0F9946520AB9
:101820004B0F83B01A43CB000193CF4B7400F60FDC
:10183000640DB046400D984200D1E8E001234946CE
:1018400059400B1C9E4200D1B1E0261A002E00DC4C
:101850001CE1002842D1131C01990B4300D0E6E0A3
:101860006B0700D18EE00F232B40042B00D189E0C1
:101870002A1DAA42AD418023012641466D427F19AF
:101880001B043B400E40151C002B00D183E0B64BDF
:1018900001349C4200D116E13A1CB44BED081A40C9
:1018A0005007640552020543120B640D0021120318
:1018B0000B0D1B056405120B1A436308AC4CF607AD
:1018C00014401C43640064083443281C211C03B0EA
:1018D0003CBC90469946A246AB46F0BDA24B9C420A
:1018E000BED080231B041A43382E00DD03E11F2ED7
:1018F00000DD3FE12020831B9946131C49468B40A5
:101900009C46019B6046F34003430198F2408840A7
:10191000011C481E81410B43EB1A9D4280411D1C56
:10192000BA1A4042171A3B0200D4A8E07A02560ABB
:10193000002E00D1CAE0301C00F07EFB031C083BE7
:101940001F2B00DDCBE02822291C121AD1409E401B
:101950000A1C9D4032439C4200DDC8E01C1B671CF2
:101960001F2F00DDEDE01F23291C1C1B131CA540AD
:10197000A340F9406C1EA541FA4019430D43171CC2
:1019800000246DE78023012642461B043B4016409D
:10199000002B00D07BE7744BED0878070543FA086D
:1019A0009C423BD012036405120B640D7EE7231AA0
:1019B0009A46002B00DCA5E0002844D06A48844207
:1019C00000D14DE78020000402435346382B00DC51
:1019D0001CE1019B1A43511E8A41D1B200224919D0
:1019E000A94280410D1CD219404217183B0246D52E
:1019F0005D4B01349C4200D169E101205B4A6B08D8
:101A00003A4028401843D5070543570828E7131CD8
:101A100001990B4300D111E74B4613E72B1C1343ED
:101A200051D080231B031A431203120B3EE7013EE1
:101A3000002E00D080E0691A8D429B41BA1A5B42A9
:101A4000D71A0D1C6FE7101C019B184300D107E744
:101A500001235B429C46E2445346002B00D002E146
:101A6000019BD2195919A9429B415B42D7180D1C01
:101A7000BCE76346034300D128E1071C65466B07BA
:101A800000D0F0E6012643461E4084E7002E00D039
:101A900081E0601C4005400D012800DC07E1019950
:101AA000681A84466545B641B81A7642861B3002EC
:101AB00000D4A1E08C464D1BAC458941D21B494264
:101AC000561A984634E700220025EFE6281C00F05D
:101AD000B3FA2030031C083B1F2B00DC33E7021C49
:101AE000283A95402A1C00259C4200DC36E71F4F0F
:101AF000E41A1740B4E6019B1A43511E8A41D3B23F
:101B0000002209E7002B00D001E1601C43055B0DBA
:101B1000012B00DCB0E0144B984200D11EE1019B88
:101B2000D2195919A9429B415B42D2184908D507DD
:101B30000D435708041C93E60B4B9C4200D0D3E6A0
:101B40008EE6211C131C1F39CB40191C202F00D1FD
:101B50008EE03F231C1BA24015436A1E95410027BF
:101B60000D4300248BE7C046FF070000FFFF7FFF07
:101B7000FFFF0F80331C101C203BD840202E79D053
:101B800040239B1B9A40131C019A1343591E8B41FF
:101B900000220343C0E6002C53D0C74CA04200D122
:101BA000B0E08024714289462404274349463829FD
:101BB00000DDCDE01F2900DD59E120243E1C611A23
:101BC0008E408A46B04649462E1CCE405146B44609
:101BD0008D4064464646494626436C1EA541CF408B
:101BE00035430199D71B8C464D1BAC45924152425F
:101BF000BF1A041C984696E663466546334300D0F8
:101C000096E60026002700240025C4E61F2B61DC91
:101C10002020C31A9B46131C59468B4051469946B7
:101C2000019BCB409C464B46604603439C465B462B
:101C3000019999406346481E814119435346DA4051
:101C4000CDE63C1C2C435DD0F1438946002955D19B
:101C50000199D21B8C464D1BAC4589414942571A0C
:101C6000041C98465FE69448844200D0ADE6F7E550
:101C7000002271E7002387E73B1C2B43002C00D098
:101C8000DAE0002B00D113E1131C01990B4300D1C2
:101C9000E6E54919A9429B41D2195B42D7183B029C
:101CA00000D421E1854B0D1C1F40041CD8E5381CD5
:101CB0002843002C40D1002800D083E0101C01995B
:101CC000084303D0171C0D1C9846C9E500260027C1
:101CD000002560E65046131C2038C340181C5346AC
:101CE000202B00D1C1E0402351465B1A9A40019954
:101CF00011434A1E91410022014370E66E4CA042FE
:101D000000D053E7171C019D041C9846A8E5002C41
:101D100028D13C1C2C4300D18AE0DB439A46002B9F
:101D200000D082E0019BD2199C4665449D428941C6
:101D300049425718041C59E600285BD1101C019930
:101D4000084300D1A4E0171C0D1C98465A4C87E5A7
:101D50003D436F1EBD410027EDB242E7041C002742
:101D6000002518E6544CA04262D0534680245B42C2
:101D70009A46240427435346382B00DD8EE01F2B60
:101D800000DD9DE02024E31A9B463B1C59468B4016
:101D9000514699462B1CCB409C464B4664462343F8
:101DA0009C465B469D4063466C1EA541CF401D434B
:101DB000019BBF189C4665449D4292415242BF1808
:101DC000041C13E6101C0199084300D148E5681A69
:101DD000844685428041BE1A4042301A060200D431
:101DE00047E68C464D1BAC458941D21B4942571AE8
:101DF000984635E5101C0199084334D080247807B3
:101E0000ED08FF0824032843274208D0D6082642BD
:101E100005D1C90852070A43101C371C9846FF0019
:101E2000420F1743C500244C1AE5234CA042A2D10F
:101E3000171C019D041C13E5002B35D0131C0199C0
:101E40000B4310D080247807ED08FF0824032843B3
:101E50002742E4D0D3082342E1D1C90852070A43FC
:101E6000101C1F1CDBE7144CFAE400223FE74C4631
:101E70003E1C203CE6404946341C202932D04026F6
:101E8000761AB7403D436F1EBD4100272543A8E6A3
:101E900080270026FF03084C00257CE53D436F1E8C
:101EA000BD410027EDB283E7171C019D024CD7E42A
:101EB000171C019DD4E4C046FF070000FFFF7FFF11
:101EC00054463B1C203CE3401C1C5346202B0DD0A9
:101ED000402351465B1A9F403D436F1EBD41002782
:101EE000254365E70027CDE70D1CC8E50027F3E78C
:101EF0000B0330B5134C1A0B4B00051C5B0DC90FBF
:101F00000020A34210DD104883420EDC80200F4CDD
:101F100040030243E41A1F2C0ADD0D48C31ADA40BD
:101F2000131C48424340581830BD0A4BC818FBE701
:101F3000281CE040084CA44663449A40131C034309
:101F4000EFE7C046FE0300001D040000330400005C
:101F500013040000FFFFFF7FEDFBFFFF38B5041EF9
:101F600016D0C50F00D04442201C00F065F8174B76
:101F70001B1A0A2821DC021C211C153291400A1C64
:101F80000B21081AC4405B052403240B5B0D03E0FE
:101F900000250023002400220021101C24030A0D28
:101FA0001205240B14430A4A1B0514401C43640009
:101FB000ED0764082C43211C38BD0B3884405B05B9
:101FC0002403240B5B0D0022E6E7C0461E0400003C
:101FD000FFFF0F8010B5041E10D000F02DF8144A3A
:101FE000121A0A281ADC0B23211C1B1AD94015309F
:101FF0000B03520584401B0B520D01E0002200230D
:1020000000211B03201C1C0B0B0D1B052343094C3B
:102010001205234013435B00590810BD031C0B3B02
:102020009C40520523031B0B520D0024E8E7C046D9
:102030001E040000FFFF0F801C2101231B04984297
:1020400001D3000C10391B0A984201D3000A083949
:102050001B09984201D30009043902A2105C401800
:102060007047C046040302020101010100000000A4
:1020700000000000F0B54F46464605042D0C2C1C10
:10208000C0B41704160C3F0C9946030C7C437543EF
:102090005F4373437D19260CAD199C46AF4203D9AB
:1020A00080235B029846C4444B4651434343240477
:1020B0002E0C240C2D0466442C1959188919201C47
:1020C0000CBC90469946F0BDF0B544465F46564676
:1020D0004D46F0B41C1C85B0002900DAA9E00F1CA5
:1020E0000021061C8846101C191C002C00DA97E001
:1020F000341C3D1C82468946B94273D870D049468B
:10210000504600F085F98346391C301C00F080F9F8
:102110005B46181A031C8346203B9C4600D59CE076
:102120000023002251460092019363469940019199
:1021300051468140019B0091BB4200D983E000D110
:102140007EE0009A019B341C3D1CA41A9D4163460D
:10215000002B00DA9AE0002600270296039701364A
:102160009E400396012686400296002800D171E029
:102170000099019AD30799464B464E081E435708CB
:10218000002301220CE0AF4201D1A6420AD8A41BD1
:10219000BD4124196D410138A4185D41002806D0C5
:1021A000AF42F0D9013824196D410028F8D120221E
:1021B000029E039F5B46524236196F4199185AD4CA
:1021C000281CC8402C1C5B46DC40002968DB041C32
:1021D0008C40231C59468840021CB61A9F4103E0DC
:1021E000B0428CD90026002741464B1E994100235E
:1021F00000910193009A019B002554429D41331C9C
:102200006340181C3B1C6B40191C009B019CC018B0
:10221000614105B03CBC90469946A246AB46F0BD34
:102220004346DB430C1C9846131C00215842A14135
:102230005EE7002746428F4101214942884652E726
:10224000B14200D87DE700260027029603970028B8
:1022500000D08DE7029E039FC6E720215346091A4E
:10226000CB400022191C0023009201934B4683406F
:102270000B4301935CE75A4620239B1A2A1C9A4081
:10228000201C131C5A46D04018439BE720260027E9
:10229000331A0026029603970127DF40039761E770
:1022A0005B4620215D46C91A031CAC40CB40191C7B
:1022B000231C0B438EE7C046F0B545464E465746B5
:1022C000E0B4041C82B00D1C914698468B4262D843
:1022D0005FD04146484600F09BF8291C061C201C94
:1022E00000F096F82023311A5B428A46C81865D45C
:1022F0004B4683401F1C4B468B401E1CAF4258D898
:1023000055D0A41BBD41002800DA77E0002200234D
:102310000092019301328240019201238B4000938D
:1023200000293CD0FB079846404672087B080243D0
:10233000012600270CE0AB4201D1A2420AD8A41A20
:102340009D4124196D410139A4197D41002906D010
:10235000AB42F0D9013924196D410029F8D120226E
:102360000098019953465242001969419E183AD487
:102370002F1CF7405346DD40002E29DB3C1CB440A7
:10238000231C5446A7403A1C801A994100900191A1
:1023900005E082429DD90023002400930194009817
:1023A000019902B01CBC90469946A246F0BDA342DA
:1023B000A7D90022002300920193B1E720224B46C7
:1023C000521AD3401A1C43468B401F1C174392E7F6
:1023D000534620245646E41A3B1CB540E3401C1CDF
:1023E0002B1C2343CDE7524620239B1A2A1C9A40DC
:1023F000271C131C5246D7401F43BBE72023002253
:10240000581A0023009201930132C240019284E7DE
:1024100010B5002903D1FFF70FFE203002E0081CA1
:10242000FFF70AFE10BDC04610B59AB000240D9407
:102430000E940F9410941194129413941494159470
:102440001694179418941994089409940A940B9468
:102450000C940094019402940394049405940694BB
:102460000794144A1168144B0B40802109010B4357
:10247000136010230D930F3B13931494A0231B029E
:10248000159316940DA802F09DFC0F230893099450
:102490000A940B940C9408A8002102F035FF0A233B
:1024A000FF330093029405940694684603F02EF8D7
:1024B0001AB010BD00700040FFE7FFFFF0B55F46A7
:1024C00056464D464446F0B491B002F04BF8FFF743
:1024D000ABFF00F0B3FD00F045FE00F0A7FE00F0FA
:1024E000D1FE00F08BFFBB4A116840230B43136001
:1024F00000F0D0FFB84801F033F9B848012101F0ED
:102500004BFC01F09BFC642002F04EF8012001F02E
:1025100057FC01F069FC642002F046F8002001F04D
:102520004FFC01F061FC642002F03EF80020002125
:1025300001F08CFDAA4CAB4821686268012301F0D0
:102540006FFD00201E2101F081FDA748216862680F
:10255000012301F065FD01F047FC01F091FD01F060
:102560007BFD01F0ADF9FA20800002F01DF801209A
:1025700001F012F801F0FAF801F004F8002824D173
:1025800001F01EFC0020002101F060FD974C984BEB
:10259000221C03CB03C21B781370964D201C2968A4
:1025A0006A68012301F03CFD0020162101F04EFD78
:1025B000914B221C43CB43C2201C29686A6801232B
:1025C00001F02EFD01F010FCFEE7002399460C936C
:1025D00040339B4660330D9300230993874B089348
:1025E00001F054FD0028FBD001F044FD099B0133AC
:1025F000DA0F9B1801210B409B1A099301F090F907
:1026000001F026FB041C0D1C01F028FB0A900B9125
:1026100001F02AFB01F09EFB01F0A2FB061C0F1C3F
:1026200001F0A4F813200AAB9C46604412216144D7
:102630001122624401F084F80FA815210AAB9C46D0
:1026400061441622624401F06BF80898FFF7C2FC5F
:10265000221C2B1CFDF754FE002804D0201C291C32
:10266000FDF778FE0890089B654A94466344181C61
:10267000FFF7B0FC221C2B1CFDF724FE002801D123
:10268000002300E00123002B63D101F01FF84B462B
:10269000002BA5D10020002101F0D8FC099B002BC4
:1026A00013D013230AAA944663441A78122363446E
:1026B0001B780FA9097800911521614409780191CF
:1026C0005048514903F0B6FE12E013230AAA94467B
:1026D00063441A78122363441B780FA90978009188
:1026E00015216144097801914648484903F0A2FE4A
:1026F000404D444829686A68012301F091FC00209C
:10270000162101F0A3FC00F0DBFF384CFFF7F0FBD3
:10271000021C201C3E4903F08DFE201C29686A68BB
:10272000012301F07DFC00202C2101F08FFC301CE6
:10273000391CFFF7DDFB021C201C364903F07AFE32
:10274000201C29686A68012301F06AFC01F04CFB37
:1027500046E70898FFF73EFC021C0B1C201C291CB6
:10276000FFF74CF800222C4BFEF770F9041C0D1CEF
:1027700000222A4BFDF7BAFD002808D0201C291C96
:102780000022264BFFF73AF80690079103E000235A
:102790000024069307944B46002B00D093E00020C2
:1027A000002101F053FC099B002B39D013230AAA06
:1027B000944663441A78122363441B780FA909785E
:1027C000009115216144097801910E480E4903F0EA
:1027D00031FE38E000300140A0060020EC06002069
:1027E00018000020406D0008486D0008E40000203B
:1027F000506D0008100000205C6D0008CD8B0100BA
:1028000048260000A4000020686D00087C6D0008C8
:10281000906D0008A06D00080024C3400000F03F48
:1028200013230AAA944663441A78122363441B783C
:102830000FA9097800911521614409780191EB48AD
:10284000EB4903F0F7FDEB4DE84829686A6801237E
:1028500001F0E6FB0020162101F0F8FB069807992D
:10286000FFF746FB0590FFF779FB021C0B1C06984F
:102870000799FEF7C3FF0022DF4BFEF725FDDF4C73
:10288000FFF736FB031C201CDD49059A03F0D2FD3F
:10289000201C29686A68012301F0C2FB00202C215A
:1028A00001F0D4FB301C391CFFF722FB021C201C5A
:1028B000D44903F0BFFD201C29686A68012301F098
:1028C000AFFB01F091FA0C9B002B00D0A8E16B4606
:1028D0009C8E17250AAB9C46654400950123019305
:1028E00063330293C848211C0022623B02F0F2F8D5
:1028F0002B78012B15D116330AAA94466344002283
:102900001A7000930123019363330293BE48211C84
:10291000623B02F00DF8052001F046FEA2230D9364
:1029200012E017220AAB9C46624401231370009206
:10293000019363330293B448211C0022623B01F0EF
:10294000F7FF052001F030FEA84F13230AAA944692
:1029500063441A78122363441B780FA90978009105
:102960001521614409780191381CA84903F062FDE2
:102970003B7817240AAA9446644423706B469B8EC6
:10298000009401250195642602969F480593191C21
:102990005A46022301F0CCFF052001F005FE5A46FD
:1029A000013292B293467B7823700094019502968F
:1029B00095480599022301F0BBFF052001F0F4FDC5
:1029C0005A46013292B29046FB78237000940195EA
:1029D00002968D480599022301F0AAFF052001F017
:1029E000E3FD4246013292B290463B792370009457
:1029F0000195029684480599022301F099FF05206C
:102A000001F0D2FD4246531C9AB29046BB79237026
:102A10000094019502967C480599022301F088FFF5
:102A2000052001F0C1FD4246531C9AB29046FB7945
:102A3000237000940195029673480599022301F0D2
:102A400077FF052001F0B0FD4246531C9AB2904634
:102A50007B7A23700094019502966B4805990223B6
:102A600001F066FF052001F09FFD434601339BB254
:102A70009846BB7A237000940195029662480599A6
:102A80004246022301F054FF052001F08DFD43462C
:102A900001339BB2984606980799FFF729FA071C5D
:102AA000FFF75CFA021C0B1C06980799FEF7A6FEBE
:102AB0000022514BFEF708FC504B9B46FFF718FADB
:102AC000031C584652493A1C03F0B4FC0A980B996F
:102AD0000022504BFDF7BAFF4F4FFFF709FA021CD7
:102AE000381C4E4903F0A6FC5B461B78237000940B
:102AF00001950296444805994246022301F018FFC9
:102B0000052001F051FD434601339BB298465B46D8
:102B10005B7823700094019502963B4805994246E4
:102B2000022301F005FF052001F03EFD434601337D
:102B30009BB298465B46DB78237000940195029621
:102B4000314805994246022301F0F2FE052001F0CA
:102B50002BFD43465A1C93B298463B782370009451
:102B600001950296284805994246022301F0E0FEAD
:102B7000052001F019FD43465A1C93B298467B7814
:102B800023700094019502961F480599424602233E
:102B900001F0CEFE052001F007FD43465F1CBFB2E9
:102BA00000239846237000940195029616480599D3
:102BB0003A1C022301F0BCFE052001F0F5FC0137B0
:102BC000BFB2434623700094019502960E480599C2
:102BD0003A1C022301F0ACFE052001F0E5FC013FA8
:102BE000BBB29B460C9B01330C93CAE0A4000020AF
:102BF0007C6D00081000002000002440E40000204C
:102C0000B06D0008A06D000838070020686D00084E
:102C1000C46D00080000594024010020D06D000858
:102C200017240AAB9C466444002323706B469B8E9A
:102C30005A46053292B20094012501956426029607
:102C4000F1481F1C191C022301F072FE052001F03F
:102C5000ABFC5B469A1D92B2009401950296EA483D
:102C60000597391C022301F063FE052001F09CFC4E
:102C70000C9B01330C9306980799FFF739F9071C51
:102C8000FFF76CF9021C0B1C06980799FEF7B6FDBE
:102C90000022DE4BFEF718FBDD4B9A46FFF728F9C2
:102CA000031C5046DB493A1C03F0C4FB0A980B99FD
:102CB0000022D94BFDF7CAFED84FFFF719F9021CC5
:102CC000381CD74903F0B6FB53461B782370009499
:102CD00001950296CC4805995A46022301F028FE38
:102CE000052001F061FC5B4601339BB29B465346D5
:102CF0005B782370009401950296C34805995A4663
:102D0000022301F015FE052001F04EFC5B46013365
:102D10009BB29B465346DB78237000940195029644
:102D2000B94805995A46022301F002FE052001F038
:102D30003BFC5B465A1C93B29B463B782370009445
:102D400001950296B04805995A46022301F0F0FD1C
:102D5000052001F029FC5B465A1C93B298467B780B
:102D60002370009401950296A748059942460223D4
:102D700001F0DEFD052001F017FC43465A1C93B21A
:102D80009B464B46013B622B0FD84B46142B09DD6B
:102D9000A020C005C0214901002202F071FD64237A
:102DA000994602E04B460133994600F089FC069AA9
:102DB000079BFDF791FA002801D1FFF711FC4B4664
:102DC000002B01D0FFF70CFC01339946A020C00571
:102DD000C0214901012202F053FD92480F21012236
:102DE00002F04EFD002000F0EBFF0020002101F07A
:102DF0002DF98D4C13230AAA944663441A781223A2
:102E000063441B780FA90978009115216144097862
:102E10000191201C854903F00DFB854D201C29687C
:102E20006A68012301F0FCF80020162101F00EF978
:102E300006980799FFF75CF8041C754F381C7D490C
:102E4000221C03F0F7FA381C29686A68012301F094
:102E5000E7F800F0C9FF201CFFF780F8021C0B1CEC
:102E600006980799FEF7CAFC0022684BFEF72CFA79
:102E7000FFF73EF8031C381C6649221C03F0DAFAFF
:102E80000A980B990022644BFDF7E0FD634B9A46CC
:102E9000FFF72EF8021C5046614903F0CBFA3B784D
:102EA00017240AAA9446644423706B469B8E0094B0
:102EB000012501956426029653480593191C5A462C
:102EC000022301F035FD052001F06EFB5B46013366
:102ED0009AB293467B7823700094019502964A48F3
:102EE0000599022301F024FD052001F05DFB5A46FF
:102EF000531C9AB29346FB78237000940195029676
:102F000041480599022301F013FD052001F04CFB17
:102F10005A46571CBFB2524613782370009401954D
:102F20000296394805993A1C022301F001FD05205B
:102F300001F03AFB0137BFB2524653782370009438
:102F400001950296304805993A1C022301F0F0FCE5
:102F5000052001F029FB0137BFB2242292462270DE
:102F6000009401950296284805993A1C022301F025
:102F7000DFFC052001F018FB0137BFB2524622707A
:102F8000009401950296204805993A1C022301F00D
:102F9000CFFC052001F008FB0137BFB25346237078
:102FA000009401950296184805993A1C022301F0F5
:102FB000BFFC052001F0F8FA0137BFB25346237079
:102FC000009401950296104805993A1C022301F0DD
:102FD000AFFC052001F0E8FA0137BFB25346237079
:102FE000009401950296084805993A1C022301F0C5
:102FF0009FFC052001F0D8FA0137BBB29B460C9B21
:1030000004330C93FFF7ECFA38070020000024404B
:10301000E4000020C46D0008000059402401002095
:10302000D06D000800040050A4000020686D000866
:1030300010000020D86D00087047C046F0B589B078
:10304000224BDA6A01252A43DA62DA6A2A400192BF
:10305000019ADA6A02210A43DA62DB6A0B400293C0
:10306000029B102303930495002405940694A02644
:10307000F605301C03A902F02DFB15480F21012293
:1030800002F0FEFBC0277F01301C391C002202F039
:10309000F7FB0F2303930495059406940C4803A9AA
:1030A00002F018FBC023DB00039304940594301C4A
:1030B00003A902F00FFB0397049505940694301CB6
:1030C00003A902F007FB09B0F0BDC04600100240A2
:1030D0000004005000B587B016488023DB0503606C
:1030E000FA23DB01436000238360FA229200C2606E
:1030F000036102F0DFFC002801D0FFF79DFF802371
:103100005B0102930B4802A902F000FD002801D0E8
:10311000FFF792FF0023009301930648694602F0EF
:1031200001FE002801D0FFF787FF024802F0DCFC17
:1031300007B000BD0806002008B502688023DB0543
:103140009A420CD1064A916B01230B4393630F20E3
:103150000721002202F09AFB0F2002F0C9FB08BDF4
:103160000010024000B583B000230093019319487A
:10317000194A0260C363C0221206426083608363FF
:1031800001220261C3601F3283540132835483627F
:10319000C222FF324262963AFF3A8354283A426191
:1031A000036383614363C36100F0DAFF002801D049
:1031B000FFF742FF0123009380235B010193054841
:1031C000694601F05BF9002801D0FFF735FF03B035
:1031D00000BDC046440600200024014000B587B071
:1031E00000230193029303930493059302680D4B0C
:1031F0009A4215D10C4B5A6B802189000A435A63BD
:10320000D96A01221143D962DB6A13400093009B03
:10321000019203230293A020C00501A902F05AFAEB
:1032200007B000BD002401400010024008B513485B
:10323000134B0360E123DB00436000238360012222
:10324000C260036143618361C361036201F00CFBEF
:10325000002801D0FFF7F0FE0848002101F014FD1E
:10326000002801D0FFF7E8FE0448002101F038FDF6
:10327000002801D0FFF7E0FE08BDC046EC060020A4
:103280000054004008B51348134B0360E123DB00F2
:103290004360002383600122C26003614361836154
:1032A000C361036201F0E0FA002801D0FFF7C4FE19
:1032B0000848002101F0E8FC002801D0FFF7BCFE1F
:1032C0000448002101F00CFD002801D0FFF7B4FEF6
:1032D00008BDC046A006002000780040F0B5474673
:1032E00080B48AB00023059306930793089309934B
:1032F00003683D4A93421DD13C4CE26A02210A43D5
:10330000E262E36A0B400193019BC0239B0005939B
:1033100012230693113B0793023308930133099359
:10332000334805A902F0D6F9A36B80229203134318
:10333000A36354E02F4A93421DD12C4CE26A022130
:103340000A43E262E36A0B400293029BC023DB0163
:10335000059312230693113B07930233089302331C
:103360000993234805A902F0B5F9A36B8022D20383
:103370001343A36333E0204A934230D11B4CE36AEA
:1033800001252B43E362E36A2B400393039BE26A2C
:1033900002210A43E262E36A0B400493049B802308
:1033A0005B000593EE3B9846069307950327089725
:1033B00007260996A020C00505A902F08BF9102365
:1033C000059343460693079508970996084805A96B
:1033D00002F080F9A36B8022D2051343A3630AB0E5
:1033E00004BC9046F0BDC0460054004000100240AE
:1033F00000040050005800400078004008B50D4817
:103400000D4B036082235B00436000238360C36035
:1034100003614361802292008261C361036243625F
:1034200083620733C36202F08FFA002801D0FFF7EE
:1034300003FE08BD840700200030014000B587B0BE
:1034400000230193029303930493059302680F4BA7
:103450009A4218D10E4B5A6B802149010A435A6394
:10346000DA6A01210A43DA62DB6A0B400093009BAF
:10347000E0230193DE3B029301330493A020C005B7
:1034800001A902F027F907B000BDC0460030014095
:103490000010024008B50B480B4B0360E1235B02B0
:1034A000436000238360C36003610C224261836137
:1034B000C3610362436202F003FF002801D0FFF7FB
:1034C000BBFD08BDDC0700200038014000B587B017
:1034D00000230193029303930493059302680E4B18
:1034E0009A4216D10D4B5A6B8021C9010A435A6387
:1034F000D96A02221143D962DB6A13400093009B10
:10350000C02301930292BD3B0493054801A902F038
:10351000E1F807B000BDC04600380140001002408D
:10352000000400507047C046FEE7C0467047C046E2
:103530007047C04608B501F029F802F001FA08BD4D
:1035400008B5024802F05EFB08BDC0460806002030
:1035500008B502688023DB059A4203D100F09CFD88
:1035600000F082FD08BDC046054B596B01220A439D
:103570005A639A6B802149050A439A637047C04693
:1035800000100240A023DB051B699B0501D501202B
:1035900000E000207047C04610B5041C16480F21FB
:1035A000012202F06DF9012C05D1134801210022FE
:1035B00002F066F91EE0022C05D10F48022100221C
:1035C00002F05EF916E0032C05D10B48042100221D
:1035D00002F056F90EE0042C05D10748082100221C
:1035E00002F04EF906E0052C04D103480F21002219
:1035F00002F046F910BDC0460004005038B5041C66
:103600000D1C0022214BFCF757FE002813D0204C44
:103610002068616800221D4BFCF7F0FE20606160AD
:1036200000221C4BFCF76CFE00281FD0002000215C
:10363000206061601AE0201C291C0022154BFCF759
:103640003BFE002812D0144C2068616800220F4B0A
:10365000FCF7D4FE206061600022104BFCF750FEA6
:10366000002803D000200021206061600A4B186808
:1036700059680022074BFDF727FE054B1A685B6867
:10368000FCF7BCFE064B1860596038BD0000F03FE7
:1036900000000020000024406801002000001440C9
:1036A0000800002008B500200349044B1860596049
:1036B0000520FFF771FF08BD0000F03F0800002063
:1036C000014B1868596870470800002008B5FFF7DB
:1036D00059FF002804D10F4A13680133136017E023
:1036E0000C4B1B68002B13DD032B04DC00200A4964
:1036F000FFF784FF09E0043B0D2B04D800200749A5
:10370000FFF77CFF01E0FFF7CDFF0022014B1A60BD
:1037100008BDC046700100200000F03F00002440BA
:10372000044B1B780370044B1B780B70034B1B7806
:1037300013707047890100208A0100207401002065
:10374000044B1B780370044B1B780B70034B1B78E6
:103750001370704788010020800100207F01002045
:10376000014B18607047C04684010020F0B585B059
:10377000434F3868434C009401260196FA256D00AA
:103780000295D0210022012301F0A4F93868631CBE
:10379000009301960295D0210122012301F09AF9AC
:1037A0003868A31C009301960295D02102220123C0
:1037B00001F090F93868E31C009301960295D0213E
:1037C0000322012301F086F93868231D0093019636
:1037D0000295D0210422012301F07CF93868631D91
:1037E000009301960295D0210522012301F072F980
:1037F0003868A31D009301960295D021062201236B
:1038000001F068F9237819098A008A1851000F22FB
:103810001340CB181C490B706378180981004118BC
:1038200048001340C31819490B70A3781909F23DD9
:10383000FF3D29408800091848001340C318144967
:103840000B70237919098800081841001340CB1820
:1038500010490B706379190929408800091848003C
:103860001340C3180C490B70A37918098100411843
:1038700048001340C318094A137005B0F0BDC04694
:1038800084010020780100207F01002080010020B9
:1038900088010020890100208A0100207401002095
:1038A000064B9B689B07FBD5044BD860034B9B687A
:1038B000DB07FBD5014BD868C0B270470030014030
:1038C000F8B5A024E40580235B03A3611E20FFF765
:1038D000E7FF1023A361032000F066FE01241AE035
:1038E000A027FF0580235B03BB61E0B24000603886
:1038F000C0B2FFF7D5FF5520FFF7D2FF074D660096
:103900000002A8535520FFF7CBFF735B18187053C4
:103910001023BB610134062CE2DDF8BDB8010020A4
:10392000F0B5474680B48AB000260023984628E0C8
:10393000A025ED0580246403AC614420FFF7B0FFAF
:103940001027AF61032000F02FFEAC610020FFF7CD
:10395000A7FF5520FFF7A4FFAB4C000220605520C5
:10396000FFF79EFF23689C466044000220605520BC
:10397000FFF796FF23689C4660442060AF61804457
:103980000136632ED4DD40466421FCF7F3FB9E4BE9
:103990001860A025ED0580246403AC615420FFF776
:1039A0007FFF1026AE61032000F0FEFDAC61002019
:1039B000FFF776FF5520FFF773FF944C000220605D
:1039C0005520FFF76DFF23689C466044000220608D
:1039D0005520FFF765FF23689C4660442060AE6178
:1039E000FEF7F8FA041C0D1C894E7089FEF7F2FAF6
:1039F0000022884BFDF768FC021C0B1C201C291CB4
:103A0000FDF7FCFE041C0D1C834B1C605D60B0893F
:103A1000FEF7E0FA021C0B1C201C291CFDF754FCCD
:103A20000022FA239B05FDF74FFC00227B4BFCF79D
:103A3000E5FC00900191B088FEF7CCFA0022784BAB
:103A4000FDF742FC029003913089FEF7C3FA021C95
:103A50000B1C201C291CFDF737FC0022714BFDF7C5
:103A600033FC021C0B1C02980399FCF7C7FC029064
:103A700003917088FEF7AEFA00228223DB05FDF782
:103A800023FC04900591F088FEF7A4FA021C0B1C9D
:103A9000201C291CFDF718FC0022FE239B05FDF7C6
:103AA00013FC021C0B1C04980599FCF7A7FC04905E
:103AB0000591009E019F301C391C0022574BFCF7DA
:103AC0001FFC00285CD1201C291C0022564BFDF74E
:103AD000FBFB021C0B1C201C291CFDF7F5FB002224
:103AE000524BFDF7F1FB0690079100960197301CB1
:103AF000391C0022494BFDF781FE041C0D1C0022DD
:103B0000494BFDF7E1FB221C2B1CFDF7DDFB0022DE
:103B1000FF239B05FDF7D8FB061C0F1C201C291C4E
:103B20000022434BFDF7D0FB221C2B1CFDF7CCFBE6
:103B30000022FF239B05FDF7C7FB041C0D1C00980A
:103B4000019900223B4BFCF7BDFB00281ED00098DA
:103B500001990022384BFCF751FC08900991002292
:103B6000314BFDF7B1FB089A099BFDF7ADFB021C39
:103B70000B1C201C291CFCF741FC041C0D1C05E03F
:103B800000260027341C3D1C0696079700980199D3
:103B9000069A079BFDF732FE284B18605960029881
:103BA0000399321C3B1CFDF729FE061C0F1C244BFD
:103BB0001E605F6004980599221C2B1CFDF71EFEF9
:103BC000041C0D1C1F4B1C605D600F4B1868FEF73A
:103BD00001FA021C0B1C201C291CFDF775FB00229E
:103BE000194BFDF771FB321C3B1CFDF707FE002251
:103BF000FC239B05FDF768FB144B186059600AB065
:103C000004BC9046F0BDC0468C010020A0010020FD
:103C1000B801002000007040A801002000409F4033
:103C2000000010410000A03F000008400000E03DFF
:103C300000001C40007097C0007097409001002069
:103C4000B0010020C80100200000A03E9801002023
:103C5000014B18685968704798010020014B18689B
:103C6000596870479001002070B5002000212D4B4D
:103C700018605960002523E02B4C201C00F066FBE7
:103C8000201CFA21490000F091FB201C00F0F2FBFF
:103C900043001818FEF79EF9244A254BFDF714FB44
:103CA0000022244BFDF710FB234A244BFDF70CFBAD
:103CB0001C4C22686368FCF7A1FB20606160013541
:103CC0000A2DD9DD174E3068716800221C4BFCF7B5
:103CD000BDFE041C0D1C346075600022194BFCF7FE
:103CE00005FB00280AD1201C291C0022164BFCF7DA
:103CF000E9FA002804D00024134D01E00024114DFE
:103D0000201C291C0022104BFDF778FD00220F4BD0
:103D1000FCF79CFE0022074BFDF7D6FA0C4B18600F
:103D2000596070BDD00100204406002066666666BA
:103D300066664A3F00005940006F8104C58FF03F1E
:103D40000000264000A0894000A08440000064409C
:103D5000D8010020014B186859687047D001002035
:103D6000014B186859687047D801002000B587B02A
:103D700017236B441870074A1068009301230193BE
:103D80000933029378210022093B00F0D1FD07B0EE
:103D900000BDC04604060020054B1860012903D170
:103DA000044A054B1A6002E0044A034B1A6070474C
:103DB00004060020EC010020E0010020EC050020BA
:103DC000002309E0064A1268D218002801D1002118
:103DD00000E0FF2111700133024A9342F2D970478B
:103DE000E0010020FF03000010B584B000241CE0B7
:103DF000201C5038C0B2FFF7B9FF0020FFF7B6FF14
:103E00001020FFF7B3FFE3010A4A10680A4A12685C
:103E1000D3180093802301931C3B02937821402206
:103E2000633B00F085FD0134E4B2072CE0D904B017
:103E300010BDC04604060020E001002008B5642043
:103E400000F0B2FBAE20FFF791FF2020FFF78EFFBE
:103E50001020FFF78BFFB020FFF788FFC820FFF787
:103E600085FF0020FFF782FF1020FFF77FFF402033
:103E7000FFF77CFF8120FFF779FFFF20FFF776FF38
:103E8000A120FFF773FFA620FFF770FFA820FFF720
:103E90006DFF3F20FFF76AFFA420FFF767FFD320E5
:103EA000FFF764FF0020FFF761FFD520FFF75EFFFB
:103EB000F020FFF75BFFD920FFF758FF2220FFF724
:103EC00055FFDA20FFF752FF1220FFF74FFFDB20EC
:103ED000FFF74CFF2020FFF749FF8D20FFF746FF3B
:103EE0001420FFF743FFAF20FFF740FF0020FFF74C
:103EF00067FFFFF779FF044B00221A805A800132D6
:103F00005A71012008BDC046E401002043B2002BD5
:103F100027DB3F2925D8134B1B79002B02D05342B6
:103F20005A41D2B2012A0ED1CB08DB01C0180E4B88
:103F30001B68181807231940063B8B40191C03788F
:103F4000194301700DE0CB08DB01C018064B1B685C
:103F5000181807231940063B8B40191C03788B4324
:103F600003707047E4010020E0010020F0B55F46D7
:103F700056464D464446F0B483B000910192274A1C
:103F80001288CEB292197F2A3EDC244A52886946B2
:103F900049788A468B4652443F2A37DC9846814608
:103FA000002529E04B46203B5A4653435B195B00F2
:103FB000019A9F5A00241CE03B1CA3401B040AD515
:103FC000164B188859880019C0B24919C9B242461F
:103FD000FFF79CFF0CE0114B188859880019C0B2FC
:103FE0004919C9B2424653425A41D2B2FFF78EFF35
:103FF0000134A642E0D80135AA45D3D8074B1A8828
:1040000096191E80484602E0002000E0002003B020
:104010003CBC90469946A246AB46F0BDE401002068
:1040200030B583B0041C009101921D1C09E0009979
:10403000019A2B1CFFF79AFF031C2078834203D1BF
:10404000013420780028F2D103B030BD014B188034
:1040500059807047E401002008B5024801F044FD92
:1040600008BDC046080600200122014B1A607047B7
:10407000F00500200022014B1A607047F005002077
:1040800008B5FFF7F7FFFFF725F808BD014B1868E3
:104090007047C046F0050020024A136801331360E0
:1040A0007047C046F405002010B582B0041C084BD0
:1040B00018680849FCF75EF84443019402E0019B4C
:1040C000013B0193019B002BF9D102B010BDC0460A
:1040D0002000002040420F0038B502689368032199
:1040E0000B40012B04D11368DB0703D4002302E04B
:1040F000002300E00123002B2ED19168174B1942B9
:1041000009D0426D102313434365826D012313438D
:104110008365012021E0041C916801230B43936017
:104120000120FFF7C1FF00F039FA051C0EE000F096
:1041300035FA401B0A2809D9626D102313436365C1
:10414000A26D01231343A365012006E023681B68C9
:10415000DB07ECD5002000E0002038BD1700008010
:1041600038B5002800D1E3E0041C436D002B04D1D6
:10417000836550228354FFF731F8636DDB0604D466
:104180002268936804210B4008D0626D102313430A
:10419000636500225023E2540120CAE0606D654946
:1041A000014002200143616591680130014001290D
:1041B00004D11168C90703D4002102E0002100E006
:1041C000012100292DD16168C0200006814207D05D
:1041D0008020C005814203D080200006814209D1A1
:1041E000116989008908116121680A6960680243C0
:1041F0000A610CE011698900890811614E4A106852
:104200004E490140116011686068014311602168E6
:10421000CA6818208243CA602168CA68A06802433D
:10422000CA6045490868464A02400A600868626BED
:10423000520602430A6022689168C90004D491685A
:1042400080204005014391602168C8683D4A0240D2
:10425000CA602068C568E2682169022900D1042388
:104260001A432023E35C5B031A432C23E15C4900DF
:104270000A43236B1343A26991030B43E269D20300
:1042800013432B43C360636AC222FF32934205D0BB
:104290002268D168A06A03430B43D3602123E35C07
:1042A000012B12D11F33E35C002B06D12268D368A7
:1042B000802149020B43D36007E0626D2023134342
:1042C0006365A26D01231343A365E36B012B13D137
:1042D000226811691C4B0B40136122681169236C21
:1042E000606C0343A06C03430B43136122681169A4
:1042F00001230B43136107E023681A69D20703D532
:104300001A6901218A431A612268536907218B4384
:10431000536122685369A16B0B4353610023A3656A
:10432000636D03229343023A13436365002000E068
:10433000012038BDFDFEFFFF08270140FFFFC3FF3E
:10434000FFFFFFFD1902FEFF03FCFFFF10B503682E
:104350009B685B0724D45023C35C012B22D0041C30
:1043600001225023C254C369012B02D0FFF7B4FECF
:1043700000E00020002816D1626D0B4B1340802214
:104380005200134363650023A365B03AA354236826
:10439000343A1A602268916804230B43936002E068
:1043A000022000E0022010BDFEF0FFFFF8B54369D7
:1043B000082B0CD00368DB68DB070AD5426D20238D
:1043C0001343436500225023C25401204FE00826C6
:1043D00000E00C260D1C041C00F0E0F8071C11E0A6
:1043E0006B1C0FD0002D04D000F0D8F8C01BA842E1
:1043F00008D9626D04231343636500225023E254FD
:10440000032034E023681A681642E9D0626D8021E7
:1044100089000A436265D968C022120111421DD188
:104420002022A25C002A19D11A68120716D59A68B0
:1044300052070BD45A680C218A435A60626D0C4BA8
:104440001A400433FF331343636507E0626D202392
:1044500013436365A26D01231343A365A369002B76
:1044600004D123680C221A60002000E00020F8BD6F
:10447000FEFEFFFF0368186C7047C04638B5502336
:10448000C35C012B4CD001225023C25402689368B4
:104490005B0708D5426D2023134343650022502358
:1044A000C25401203DE00D1C041C1E4B496899427A
:1044B0001BD0916A2B685B035B0B0B4393622B68E9
:1044C0005B0308D5184A1368802109040B43136065
:1044D0000A20FFF7E9FD2B689B031CD5124A1368DD
:1044E0008021C9030B43136015E0916A2B685B03BD
:1044F0005B0B994391622B685B0304D50A4A1168F0
:104500000A4B0B4013602B689B0304D5064A1168C5
:10451000074B0B40136000225023E254002000E0C0
:10452000022038BD0110000008270140FFFF7FFF77
:10453000FFFFBFFF10B5041C094B1868FA21890062
:10454000FBF718FE01F0DEF9002806D10138211C26
:10455000002201F09BF9002000E0012010BDC046C0
:104560002000002008B5084A116840230B4313605F
:104570000020FFF7DFFF002803D1FEF7F5FF002042
:1045800000E0012008BDC04600200240024A136836
:10459000013313607047C0465C080020014B186867
:1045A0007047C0465C08002038B5041CFFF7F6FFD2
:1045B000051C631C00D00134FFF7F0FF401B844250
:1045C000FAD838BD03689A69920701D500229A6229
:1045D00003689A69D20703D4996901220A439A6150
:1045E0007047C046F0B5059C05686E68670D802071
:1045F000C0003840054F384386438905890D1204B1
:104600000A431A43144334436C60F0BDFF63FF0355
:1046100070B5041C0E1C151C03689B69DB0617D4BF
:10462000002032E0731C13D0FFF7B8FF401BB042EC
:1046300001D8002E0CD1636C202213436364412304
:10464000E25400232232A354023AA35401201CE076
:1046500023689A699206E5D51022DA61236820253D
:10466000DD61201CFFF7AEFF22685168074B0B404D
:104670005360626C0423134363644123E5540023B5
:104680004222A354023AA354012070BD00E800FE68
:1046900070B5041C0D1C161C1CE0201C291C321CAF
:1046A000FFF7B6FF00281BD16B1C13D0FFF776FF76
:1046B000801BA84201D8002D0CD1636C202213432B
:1046C00063644123E25400232232A354023AA354E8
:1046D000012006E023689B699B07DED5002000E0EF
:1046E000012070BDF8B5061C0C1C171C1D1C16E023
:1046F0006B1C14D0FFF752FF069BC01AA84201D8CA
:10470000002D0CD1736C2022134373644123F254A7
:1047100000232232B354023AB354012008E0336834
:104720009B6923401B1B5A425341BB42E0D00020EF
:10473000F8BDC04670B582B0041C151C1E1CDAB250
:10474000184B009380235B04FFF74CFF201C069955
:10475000079AFFF79DFF00281ED1012E03D1236881
:10476000EDB29D620CE023682A0A9A62201C069929
:10477000079AFFF78DFF002810D12368EDB29D62E4
:10478000079B0093201C80210022069BFFF7AAFFB5
:10479000002804D0012002E0012000E0012002B046
:1047A00070BDC0460020008070B582B0041C151C8E
:1047B0001E1CDAB2174B00930023FFF713FF201CD7
:1047C0000699079AFFF764FF00281ED1012E03D136
:1047D0002368EDB29D620CE023682A0A9A62201CCD
:1047E0000699079AFFF754FF002810D12368EDB20D
:1047F0009D62079B0093201C40210022069BFFF72F
:1048000071FF002804D0012002E0012000E0012017
:1048100002B070BD0020008070B5051C0C1C161C79
:104820001AE0281C211C321CFFF7F2FE002819D1C7
:10483000FFF7B4FE801BA04201D8002C0CD16B6C9A
:10484000202213436B644123EA5400232232AB54E9
:10485000023AAB54012006E02B689B699B06E0D529
:10486000002000E0012070BD10B5002858D0041CC5
:104870004123C35C002B04D100224033C254FEF715
:104880002DFD24224123E2542268136801218B4329
:1048900013602268234B61680B40136122689168A2
:1048A000214B0B409360E368012B06D122688023E3
:1048B0001B02A1680B43936005E0226884231B025E
:1048C000A1680B439360E368022B03D12368802225
:1048D00012015A602268536814490B4353602268DE
:1048E000D168114B0B40D3602168226963691A4378
:1048F000A3691B021343CB602268E369216A0B435F
:1049000013602268116801230B4313600023636462
:1049100020214122A15423630132A354002000E04E
:10492000012010BDFFFFFFF0FF7FFFFF00800002AE
:10493000F0B587B0071C0C1C039204930CAB40CB62
:104940001D884123C35C202B00D0B3E0002E01D092
:10495000002D04D180239B007B640120B5E040231F
:10496000C35C012B00D1A7E001224023C254FFF712
:1049700015FE05900090381C8021090201221923A0
:10498000FFF7B0FE002800D098E021224123FA541E
:104990001F320133FA5400237B647E627D857B6382
:1049A0000E9B0093059B0193381C211C039A049BCA
:1049B000FFF7C0FE002804D000224023FA54012053
:1049C00083E07B8D9BB2FF2B0BD9FF233B8500231C
:1049D0000093381C211CFF2280235B04FFF702FE9A
:1049E0000BE07A8D92B23A85D2B200230093381C44
:1049F000211C80239B04FFF7F5FD381C0E99059AB6
:104A0000FFF746FE00285BD13B687A6A12789A620B
:104A10007B6A01337B627B8D013B9BB27B853B8D47
:104A2000013B9BB23B857A8D92B2002A27D0002BA6
:104A300025D1059B0093381C802100220E9BFFF797
:104A400051FE00283ED17B8D9BB2FF2B0BD9FF235B
:104A50003B8500230093381C211CFF2280235B042C
:104A6000FFF7C0FD0BE07A8D92B23A85D2B20023F7
:104A70000093381C211C80239B04FFF7B3FD7B8D22
:104A80009BB2002BB9D1381C0E99059AFFF7C4FED2
:104A9000002819D13B682022DA6139684C680C4B38
:104AA00023404B604123FA5400232232BB54023A84
:104AB000BB540AE0022008E0022006E0012004E0E6
:104AC000012002E0012000E0012007B0F0BDC04657
:104AD00000E800FEF0B5574680B484B0071C0C1CFB
:104AE000029203930AAB40CB1D884123C35C202B69
:104AF00000D0B6E0002E01D0002D04D180239B0011
:104B00007B640120B8E04023C35C012B00D1AAE004
:104B100001224023C254FFF741FD82460090381C19
:104B20008021090201221923FFF7DCFD002800D0B3
:104B30009BE022224123FA541E320133FA5400230F
:104B40007B647E627D857B630C9B0093534601935F
:104B5000381C211C029A039BFFF726FE002804D074
:104B600000224023FA54012086E07B8D9BB2FF2B6C
:104B70000BD9FF233B85424B0093381C211CFF229D
:104B800080235B04FFF72EFD0BE07A8D92B23A850D
:104B9000D2B23B4B0093381C211C80239B04FFF7AF
:104BA00021FD53460093381C042100220C9BFFF783
:104BB00099FD00285BD13B685B6A7A6A13707B6A57
:104BC00001337B623B8D013B9BB23B857A8D013A81
:104BD00092B27A857A8D92B2002A27D0002B25D105
:104BE00053460093381C802100220C9BFFF77AFD6E
:104BF00000283ED17B8D9BB2FF2B0BD9FF233B8539
:104C000000230093381C211CFF2280235B04FFF744
:104C1000E9FC0BE07A8D92B23A85D2B20023009380
:104C2000381C211C80239B04FFF7DCFC7B8D9BB28E
:104C3000002BB6D1381C0C995246FFF7EDFD002829
:104C400019D13B682022DA6139684C680D4B23404A
:104C50004B604123FA5400232232BB54023ABB5426
:104C60000AE0022008E0022006E0012004E0012022
:104C700002E0012000E0012004B004BC9246F0BD37
:104C80000024008000E800FEF0B54123C35C202B27
:104C900020D12033C35C012B1ED0402401230355B7
:104CA000412524224255066832689A4332600668DC
:104CB00037680A4A3A403260026816683143116028
:104CC000026811680B4313602023435500230355EA
:104CD000002002E0022000E00220F0BDFFEFFFFF15
:104CE000F0B54123C35C202B1ED12033C35C012BC4
:104CF0001CD0402401230355412524224255066837
:104D000032689A43326006683768094A3A400902B5
:104D100011433160026811680B431360202343552F
:104D200000230355002002E0022000E00220F0BD35
:104D3000FFF0FFFF08B51E4BD9680C230B40082B72
:104D400031D00C2B07D0042B23D1194B1B68DB0669
:104D50002BD518482AE08B021B0F174AD05C09029A
:104D6000890F0131124BDB68DB0304D5134B584329
:104D7000FBF700FA1AE00E4B1B68DB0604D50D4B5F
:104D80005843FBF7F7F911E00D4B5843FBF7F2F9E5
:104D90000CE0074B58680004400F013080231B02D1
:104DA0008340181C02E0054800E0054808BDC046E5
:104DB0000010024000093D00EC8E000800127A004D
:104DC0000024F400F0B583B0002800D15CE2041C9C
:104DD000C04BDA680C251540DE6880235B021E405C
:104DE0000368DB0758D5082D03D00C2D09D1002E00
:104DF00007D0B84B1B689B034ED56368002B4BD183
:104E000044E2636880225202934206D1B14A136899
:104E1000802149020B4313601EE0A022D20293427C
:104E20000BD1AC4B1A688021C9020A431A601A6878
:104E3000802149020A431A600EE0A64B1968A64A6F
:104E40000A401A601968802252020A400192019AAF
:104E50001968A24A0A401A606368002B0ED0FFF757
:104E60009DFB071C05E0FFF799FBC01B642800D9D8
:104E70000EE2984B1B689B03F5D50DE0FFF78EFB08
:104E8000071C05E0FFF78AFBC01B642800D901E27C
:104E9000904B1B689B03F5D423689B0764D5E3689C
:104EA0009A0605D58B48026820210A4302608B438D
:104EB000042D03D00C2D25D1002E23D1854A126854
:104EC000520702D5002B00D1E6E1824E7168844A78
:104ED0000A40216909020A437260326809218A4343
:104EE00013433360FFF726FFF3681B061B0F7D4A51
:104EF000D35CD8407C4B18600020FFF71BFB0028D8
:104F000032D0EEE1002B1CD072490A68092082439E
:104F100013430B60FFF742FB061C05E0FFF73EFB67
:104F2000801B022800D9B9E16A4B1B685B07F5D5E5
:104F300068494A686A4B13402269120213434B6066
:104F400012E0644A136801218B431360FFF726FBCC
:104F5000061C05E0FFF722FB801B022800D99FE119
:104F60005C4B1B685B07F5D42368DB0665D5002D19
:104F70002AD1584B1B689B0503D5A369002B00D190
:104F800090E154494A68594B1340226A13434B60DD
:104F90004B681B021B0AE269120613434B60236A2B
:104FA0005B0B0133802212029A40131CCA6812065E
:104FB000120F4C498A5CD3404B4A13600020FFF724
:104FC000B9FA002839D08CE1A369002B22D0414ADC
:104FD0001368802149000B431360FFF7DFFA061CBA
:104FE00005E0FFF7DBFA801B022800D95CE1394BB2
:104FF0001B689B05F5D537494A683C4B1340226A2C
:1050000013434B604B681B021B0AE26912061343F1
:105010004B6012E02F4A1168354B0B401360FFF7CD
:10502000BDFA061C05E0FFF7B9FA801B022800D97B
:105030003CE1284B1B689B05F5D423681B0729D549
:105040006369002B13D0234A116D01230B431365B1
:10505000FFF7A4FA061C05E0FFF7A0FA801B022860
:1050600000D925E11B4B1B6D9B07F5D512E0194AB2
:10507000136D01218B431365FFF790FA061C05E0C1
:10508000FFF78CFA801B022800D913E1114B1B6D2E
:105090009B07F5D423685B0700D491E00D4B9B6B15
:1050A000DB0007D40B4A936B802149050B439363C4
:1050B000012600E000260F4B1B68DB0526D40D4AB5
:1050C0001368802149000B431360FFF767FA071C40
:1050D00018E0C04600100240FFFFFEFFFFFFFBFF8D
:1050E000FFE0FFFFD48E000820000020FF1FFFFF1D
:1050F000FFFEFFFF00700040FFF750FAC01B64285E
:1051000000D9D9E0784B1B68DB05F5D5A368802270
:105110005200934206D1754A136D802149000B431A
:10512000136524E0002B09D1704B196D704A0A40B9
:105130001A65196D6F4A0A401A6518E0A022D2005C
:1051400093420BD1694B1A6D8021C9000A431A653D
:105150001A6D802149000A431A6508E0634B196DF6
:10516000634A0A401A65196D624A0A401A65A368C3
:10517000002B0FD0FFF712FA071C06E0FFF70EFA1C
:10518000C01B5D4B984200D998E0584B1B6D9B05A6
:10519000F4D50EE0FFF702FA071C06E0FFF7FEF970
:1051A000C01B554B984200D98AE0504B1B6D9B05A4
:1051B000F4D4012E04D14D4A916B504B0B409363B4
:1051C000636A002B7ED00C2D46D0022B30D1474A8B
:1051D00011684B4B0B401360FFF7E0F9051C04E02E
:1051E000FFF7DCF9401B02286ED8404B1B689B017F
:1051F000F6D43E49C868434B1840A36AE26A134399
:10520000226B13430343CB600B6880225204134389
:105210000B60FFF7C3F9041C04E0FFF7BFF9001BA4
:10522000022853D8314B1B689B01F6D5002058E06B
:105230002E4A1168324B0B401360FFF7AFF9041C84
:1052400004E0FFF7ABF9001B022841D8274B1B688D
:105250009B01F6D4002044E0012B3BD0234BDA68BD
:1052600080235B021340A16A8B4235D1F0239B035C
:105270001340E16A8B4231D1C0231B041A40236BD7
:105280009A422DD001202CE001202AE0012028E0C4
:10529000032026E0032024E0012022E0032020E078
:1052A00003201EE001201CE003201AE0032018E088
:1052B000032016E0032014E0032012E0032010E096
:1052C00003200EE000200CE003200AE0032008E0A9
:1052D000032006E0012004E0012002E0012000E0BC
:1052E000002003B0F0BDC046007000400010024036
:1052F000FFFEFFFFFFFBFFFF88130000FFFFFFEF34
:10530000FFFFFFFEFFFF02FF70B5002800D1B3E0F2
:10531000644B1B68012213408B420AD2614A136816
:105320000124A3430B431360136823408B4200D036
:10533000A4E003689B0706D55B4AD368F024A34327
:1053400084682343D3600D1C041C0368DB075FD50E
:105350004368022B04D1544A1268920313D48FE09D
:10536000032B04D1504A126892010CD48AE0012B1D
:1053700004D14D4A1268520705D485E04A4A1268A2
:10538000920500D482E04849CA680320824313434F
:10539000CB60FFF703F9061C6368022B0DD105E013
:1053A000FFF7FCF8801B414B984271D83E4BDB68FD
:1053B0000C221340082BF3D12AE0032B0DD105E07A
:1053C000FFF7ECF8801B394B984263D8364BDB680B
:1053D0000C2213400C2BF3D11AE0012B13D105E062
:1053E000FFF7DCF8801B314B984255D82E4BDB6819
:1053F0000C221340042BF3D10AE0FFF7CFF8801BF7
:105400002A4B98424AD8284BDB680C221A42F4D126
:10541000244B1B6801221340AB4209D9214A13686F
:1054200001218B432B43136013680B40AB4237D1F0
:1054300023685B0706D51C4AD1681D4B0B40E16809
:105440000B43D36023681B0707D51749CA68194B5C
:1054500013402269D2001343CB60FFF76BFC124B61
:10546000DB681B061B0F144AD35CD840134B186033
:105470000020FFF75FF814E0012012E0012010E0A7
:1054800001200EE001200CE001200AE0012008E0EC
:10549000032006E0032004E0032002E0032000E0F4
:1054A000012070BD0020024000100240881300005F
:1054B000FFF8FFFFFFC7FFFFD48E00082000002089
:1054C000014B18687047C0462000002008B5FFF760
:1054D000F7FF044BDB685B055B0F034AD35CD840E6
:1054E00008BDC04600100240E48E000808B5FFF772
:1054F000E7FF044BDB689B045B0F034AD35CD84097
:1055000008BDC04600100240E48E000870B5041CBF
:1055100003689B0600D482E0644B9B6BDB0007D4DE
:10552000624A936B802149050B439363012500E098
:1055300000255F4B1B68DB0513D45D4A136880218F
:1055400049000B431360FFF729F8061C05E0FFF73D
:1055500025F8801B642800D99FE0554B1B68DB05AC
:10556000F5D5524B1A68C0239B031A4061680B4063
:1055700093420AD0C0239B020A1C1A409A4204D1CB
:105580004A4B1B689B0300D589E0484B1A6DC0232A
:105590009B02134025D0C02292021140994220D094
:1055A00023689B061DD5414B186D424A0240196D78
:1055B00080263603314319651E6D3F493140196518
:1055C0001A65C3050DD5FEF7E9FF061C05E0FEF7D9
:1055D000E5FF801B394B984263D8344B1B6D9B050C
:1055E000F5D56268C0239B02111C1940994208D16D
:1055F0002E480168324B1940C0239B031A400A43CE
:1056000002602A4A116DC0239B02606803400B436D
:105610001365012D03D1916B2A4B0B4093632368D3
:10562000DB0706D5214AD36C03218B43A1680B43CA
:10563000D36423689B0706D51C4AD36C0C218B438B
:10564000E1680B43D36423685B0706D5174AD16C26
:105650001D4B0B4021690B43D36423681B0706D500
:10566000124AD16C194B0B4061690B43D364236818
:10567000DB0506D50D4AD16C0E4B0B40A1690B43DF
:10568000D36423681B060ED50849CA6C104B13401F
:10569000E2691343CB64002006E0032004E001200C
:1056A00002E0032000E0002070BDC0460010024070
:1056B00000700040FFFFFCFFFFFFF7FF88130000B2
:1056C000FFFFCFFFFFFFFFEFFFF3FFFFFFCFFFFF66
:1056D000FFFFF3FFF0B54F464646C0B483B000234A
:1056E000B2E001249C402240914600D1ABE04D68DD
:1056F000022D01D0122D0ED1DD080835AE0037582D
:1057000007251D40AD000F22AA4097430A69AA4011
:10571000151C3D4335504D686F1E012F03D9112DC7
:1057200001D0122D13D185685E000327B740BD4319
:105730002F1CCD68B5403D4385604768A7434A6844
:10574000D506ED0F2C1C019A94403C43446005683B
:105750005F000324A446BC40E44325402E1C65465C
:105760004A681540BD4035430560C5682C408D68CA
:10577000BD402C43C4604A68D20064D5384D6E6B7E
:10578000012434436C639C08A51CAD00354EAE5912
:1057900003271F40BD000F27AF40BE43A027FF05D2
:1057A000B8421AD0304FB84215D0304FB84210D05E
:1057B0002F4FB8420BD02F4FB84206D02E4FB842D1
:1057C00001D105270AE0062708E0042706E00327A1
:1057D00004E0022702E0012700E00027AF403D1C63
:1057E00035430234A4001F4EA551244C25684A4677
:1057F000D4432E1C26404A68D20302D54A4615439C
:105800002E1C1E4D2E606D682E1C26404A68920389
:1058100002D54A4615432E1C184D6E60AD682E1CED
:1058200026404A68D20202D54A4615432E1C134D23
:10583000AE60ED682C404A68920202D54A462A437F
:10584000141C0E4AD46001330A680193141CDC4016
:1058500000D046E703B00CBC90469946F0BDC04668
:1058600000100240000001400004005000080050F9
:10587000000C005000100050001C005000040140BB
:10588000002A01D0816100E08162704770B5002874
:1058900016DAC0B20F230340083B9B089B00124A54
:1058A000944663445A6803242040C000FC34251CFD
:1058B0008540AA438901214081400A435A6011E092
:1058C00083080A4CC0339B001A5903252840C000A6
:1058D000FC352E1C8640B243890129408140081CBA
:1058E0001043185170BDC04618ED00E000E100E023
:1058F0001F2318401E3B8340181C014B1860704743
:1059000000E100E001380A4B98420FD8094A506084
:1059100009490B6A1B021B0AC020000603430B62E5
:105920000023936007331360002000E001207047DC
:10593000FFFFFF0010E000E000ED00E07047C04610
:1059400008B5FFF7FBFF08BD38B500283BD0041CA5
:10595000002383625133C35C002B04D100225033F7
:10596000C254FDF76BFD5121022363542268136872
:1059700040208343136020686368A2681343E26891
:105980001343226913436269134380229200A5697D
:105990002A401343E2691343226A1343A26A134362
:1059A00003602268638B04200340606A03435360F2
:1059B0002268D069054B0340D3610023636501333E
:1059C0006354002000E0012038BDC046FFF7FFFF10
:1059D00003688022D205904208D0154A904205D033
:1059E000144A904202D0144A904203D17022934349
:1059F0004A6813438022D205904208D00C4A904254
:105A000005D00C4A904202D00B4A904203D10B4A77
:105A10001340CA681343802293430A691343036007
:105A20008B68C3620B688362012343617047C04681
:105A3000000400400008014000140140FFFCFFFF8B
:105A400030B5046A036A0125AB4303628369EF350D
:105A5000AB4312011A430A239C4321438261016232
:105A600030BDC04630B5036A1024A3430362856984
:105A7000036A054C2C4012032243A024A3430901CE
:105A800019438261016230BDFF0FFFFF83687022FE
:105A900093431943072319438160704730B58568E4
:105AA000034C2C401B021A4311432143816030BD3B
:105AB000FF00FFFF38B5002814D0041C3923C35C55
:105AC000002B04D100223833C254FDF735FB3925B1
:105AD00002236355211C01C9FFF77AFF0123635597
