:020000040800F2
:1000000000500020953B0008B9130008BD130008FC
:1000100000000000000000000000000000000000E0
:10002000000000000000000000000000C1130008F4
:100030000000000000000000C5130008C9130008FC
:10004000E53B0008E53B0008E53B0008E53B000810
:10005000E53B0008E53B0008E53B0008E53B000800
:1000600000000000E53B0008E53B0008E53B000818
:10007000E53B0008E53B0008E53B0008D513000818
:10008000E53B0008E53B0008E53B000800000000F8
:10009000E53B0008E53B0008E53B0008E53B0008C0
:1000A000E53B0008E53B0008E53B0008E53B0008B0
:1000B000E53B0008E53B00080000000000000000F0
:1000C00008B5054B054803331B1A062B03D9044B0F
:1000D000002B00D0984708BD140000201400002019
:1000E000000000000648074908B5091A8910CB0F1F
:1000F0005918491003D0044B002B00D0984708BD75
:1001000014000020140000200000000010B5074C6F
:100110002378002B09D1FFF7D3FF054B002B02D02A
:10012000044800E000BF0123237010BD140000202C
:1001300000000000443C000808B5094B002B03D028
:100140000848094900E000BF08480368002B02D1B5
:10015000FFF7C8FF08BD064B002BF9D09847F7E71B
:1001600000000000443C000818000020140000209B
:1001700000000000002243088B4274D303098B4225
:100180005FD3030A8B4244D3030B8B4228D3030C67
:100190008B420DD3FF22090212BA030C8B4202D309
:1001A0001212090265D0030B8B4219D300E0090A31
:1001B000C30B8B4201D3CB03C01A5241830B8B423A
:1001C00001D38B03C01A5241430B8B4201D34B0323
:1001D000C01A5241030B8B4201D30B03C01A524188
:1001E000C30A8B4201D3CB02C01A5241830A8B420D
:1001F00001D38B02C01A5241430A8B4201D34B02F6
:10020000C01A5241030A8B4201D30B02C01A524159
:10021000CDD2C3098B4201D3CB01C01A524183090D
:100220008B4201D38B01C01A524143098B4201D347
:100230004B01C01A524103098B4201D30B01C01A72
:100240005241C3088B4201D3CB00C01A52418308EC
:100250008B4201D38B00C01A524143088B4201D319
:100260004B00C01A5241411A00D201465241104679
:100270007047FFE701B5002000F00CF802BDC04652
:100280000029F7D003B5FFF775FF0EBC4243891A6A
:100290001847C0467047C046002B11D1002A0FD125
:1002A000002900D1002802D00021C943081C07B44E
:1002B000024802A14018029003BDC046D9FFFFFFCB
:1002C00003B4684601B5029800F022F8019B9E46EF
:1002D00002B00CBC7047C046F0B583B0161C1F1CA2
:1002E0000090019100F076F8041C0D1C221C2B1CC0
:1002F000301C391C00F044F8009A019B121A8B4103
:100300000899201C0A604B60291C03B0F0BDC04650
:10031000F0B5141C83B01D1C0090019100F052F93F
:10032000221C2B1C061C0F1C00F02AF8009A019BB3
:10033000121A8B410899301C0A604B60391C03B0BB
:10034000F0BDC0461C2101231B04984201D3000CC0
:1003500010391B0A984201D3000A08391B09984238
:1003600001D30009043902A2105C40187047C0464E
:10037000040302020101010100000000000000006E
:10038000F0B54F46464605042D0C2C1CC0B417048E
:10039000160C3F0C9946030C7C4375435F43734333
:1003A0007D19260CAD199C46AF4203D980235B0210
:1003B0009846C4444B465143434324042E0C240C1A
:1003C0002D0466442C1959188919201C0CBC904620
:1003D0009946F0BDF0B544465F4656464D46F0B4EA
:1003E0001C1C85B0002900DAA9E00F1C0021061CA6
:1003F0008846101C191C002C00DA97E0341C3D1CA8
:1004000082468946B94273D870D04946504600F0BA
:1004100085F98346391C301C00F080F95B46181AB8
:10042000031C8346203B9C4600D59CE00023002211
:100430005146009201936346994001915146814093
:10044000019B0091BB4200D983E000D17EE0009A7D
:10045000019B341C3D1CA41A9D416346002B00DA0D
:100460009AE0002600270296039701369E400396E5
:10047000012686400296002800D171E00099019A79
:10048000D30799464B464E081E43570800230122C6
:100490000CE0AF4201D1A6420AD8A41BBD412419E9
:1004A0006D410138A4185D41002806D0AF42F0D953
:1004B000013824196D410028F8D12022029E039FA3
:1004C0005B46524236196F4199185AD4281CC840CD
:1004D0002C1C5B46DC40002968DB041C8C40231C80
:1004E00059468840021CB61A9F4103E0B0428CD99D
:1004F0000026002741464B1E99410023009101939D
:10050000009A019B002554429D41331C6340181CF6
:100510003B1C6B40191C009B019CC018614105B03D
:100520003CBC90469946A246AB46F0BD4346DB43F1
:100530000C1C9846131C00215842A1415EE700277D
:1005400046428F4101214942884652E7B14200D8D4
:100550007DE70026002702960397002800D08DE74C
:10056000029E039FC6E720215346091ACB40002272
:10057000191C0023009201934B4683400B430193C7
:100580005CE75A4620239B1A2A1C9A40201C131C05
:100590005A46D04018439BE720260027331A0026EE
:1005A000029603970127DF40039761E75B4620210E
:1005B0005D46C91A031CAC40CB40191C231C0B43DD
:1005C0008EE7C046F0B545464E465746E0B4041C9B
:1005D00082B00D1C914698468B4262D85FD041464E
:1005E000484600F09BF8291C061C201C00F096F8D9
:1005F0002023311A5B428A46C81865D44B46834093
:100600001F1C4B468B401E1CAF4258D855D0A41B14
:10061000BD41002800DA77E0002200230092019318
:1006200001328240019201238B40009300293CD08B
:10063000FB079846404672087B08024301260027C4
:100640000CE0AB4201D1A2420AD8A41A9D41241960
:100650006D410139A4197D41002906D0AB42F0D982
:10066000013924196D410029F8D1202200980199FF
:1006700053465242001969419E183AD42F1CF74044
:100680005346DD40002E29DB3C1CB440231C54465D
:10069000A7403A1C801A99410090019105E08242DE
:1006A0009DD900230024009301940098019902B081
:1006B0001CBC90469946A246F0BDA342A7D9002291
:1006C000002300920193B1E720224B46521AD340F7
:1006D0001A1C43468B401F1C174392E753462024A5
:1006E0005646E41A3B1CB540E3401C1C2B1C23431C
:1006F000CDE7524620239B1A2A1C9A40271C131C24
:100700005246D7401F43BBE720230022581A00233C
:10071000009201930132C240019284E710B5002992
:1007200003D1FFF70FFE203002E0081CFFF70AFE9E
:1007300010BDC04610B59AB000240D940E940F94CD
:10074000109411941294139414941594169417946D
:1007500018941994089409940A940B940C94009496
:100760000194029403940494059406940794144A03
:100770001168144B0B40802109010B4313601023B7
:100780000D930F3B13931494A0231B0215931694FF
:100790000DA801F0A7FE0F23089309940A940B9467
:1007A0000C9408A8002102F03FF90A23FF330093BC
:1007B000029405940694684602F038FA1AB010BD07
:1007C00000700040FFE7FFFFF0B557464E46C0B44B
:1007D00087B001F057FAFFF7ADFF00F079FB00F0AA
:1007E0000BFC00F06DFC00F097FC00F051FDD94AC5
:1007F000116840230B43136000F096FDD64800F0CB
:1008000047FED648012100F039FF00F089FF64203F
:1008100001F05AFA012000F045FF00F057FF642074
:1008200001F052FA002000F03DFF00F04FFF64207D
:1008300001F04AFA0020002101F07AF8C84CC948BA
:1008400021686268012301F05DF800201E2101F09B
:100850006FF8C54821686268012301F053F800F081
:1008600035FF01F07FF801F069F800F0C1FEFA20D1
:10087000800001F029FA012000F0D8FD00F00EFE02
:1008800000F0CAFD002800D010E300F00BFF0020AC
:10089000002101F04DF8B54CB54B221C03CB03C22F
:1008A0001B781370B34D201C29686A68012301F07E
:1008B00029F80020162101F03BF8AF4B271C07CB8D
:1008C00007C7201C29686A68012301F01BF800F0A3
:1008D000FDFEFA20800001F0F7F9A84B1A8822806B
:1008E0009B78A370201C03F0A5F9A54E82B2FA25CF
:1008F0006D00301C211C2B1C03F03CF8201C03F065
:1009000099F982B2301C211C2B1C03F033F8201CF7
:1009100003F090F982B2301C211C2B1C03F02AF842
:100920009849221C0B1C83CB83C283CB83C203CB8D
:1009300003C2201C03F07EF982B2301C211C2B1C48
:1009400003F018F8DE3DFF3D6D4400950126019649
:10095000642702978C48A0214022022301F04AFC20
:100960002B7823700095019602978748A021412299
:10097000022301F03FFC2B786370009501960297EB
:100980008148A0214222022301F034FC2B78A3707D
:100990000095019602977C48A0214322022301F092
:1009A00029FC2B78E3702378002B03D16F4B5B7805
:1009B000002B13D06D4C0D232371033B6371002377
:1009C000A371201C03F036F982B26D48211CFA2372
:1009D0005B0002F0CFFF00239A4601E001239A4614
:1009E00017246C44009401260196642702976648F8
:1009F000A0214422022301F0FDFB5C4D23782B70E3
:100A00000094019602976048A0214522022301F03C
:100A1000F1FB23786B700094019602975A48A0214D
:100A20004622022301F0E6FB2378AB700094019686
:100A300002975548A0214722022301F0DBFB2378CF
:100A4000EB702B78002B03D1484B5B78002B11D037
:100A5000464C0D232371033B63710023A371201CBB
:100A600003F0E8F882B24648211CFA235B0002F04A
:100A700081FF01E001239A46482489E017256D444F
:100A80000095012399460193642602963E48A021D1
:100A9000221C013301F0AEFB344F2B783B70013444
:100AA000A4B2032001F010F900954B460193029681
:100AB0003548A021221C013301F09CFB2B787B7070
:100AC0000134A4B22E23BB7000954B4601930296CD
:100AD0002D48A021221C013301F08CFB2B78FB70E8
:100AE0000134A4B220233B7100954B46019302963A
:100AF0002548A021221C013301F07CFB2B787B715F
:100B00000134A4B200954B46019302961E48A021E1
:100B1000221C013301F06EFB2B78BB710134A4B2AF
:100B20003B78002B03D1114B5B78002B2ED00F4D5F
:100B30000D23EB71033B2B7200236B72281C03F017
:100B400079F882B20E48291CFA235B0002F012FFEA
:100B50001EE0C046003001404C05002098050020F2
:100B6000080000205C3C0008643C000830000020C5
:100B70006C3C000800000020783C0008843C000821
:100B800088060020883C0008E405002001239A46DE
:100B90005346002B00D171E7C54CC64B99461B88C4
:100BA00023804B469B78A370201C03F043F8C24E71
:100BB00082B2FA256D00301C211C2B1C02F0DAFEDB
:100BC000BE49231C0A1C83CA83C383CA83C303CAC6
:100BD00003C3201C03F02EF882B2301C211C2B1CF6
:100BE00002F0C8FE4B461B8823804B469B78A370BF
:100BF000201C03F01FF882B2301C211C2B1C02F0B9
:100C0000B9FE201C03F016F882B2301C211C2B1CEC
:100C100002F0B0FE201C03F00DF882B2301C211C43
:100C20002B1C02F0A7FEA649231C0A1C83CA83C3FF
:100C300083CA83C303CA03C3201C02F0FBFF82B232
:100C4000301C211C2B1C02F095FEDE3DFF3D6D4447
:100C5000009501260196642702979A48A221402216
:100C6000022301F0C7FA2B782370009501960297B2
:100C70009448A2214122022301F0BCFA2B78637030
:100C80000095019602978F48A2214222022301F08B
:100C9000B1FA2B78A3700095019602978948A2219A
:100CA0004322022301F0A6FA2B78E3702378002B6D
:100CB00003D17F4B5B78002B13D07D4C0D23237128
:100CC000033B63710023A371201C02F0B3FF82B2C7
:100CD0007948211CFA235B0002F04CFE00239A465F
:100CE00001E001239A4617246C44009401260196E2
:100CF000642702977348A2214422022301F07AFA62
:100D00006B4D23782B700094019602976D48A221B9
:100D10004522022301F06EFA23786B70009401964D
:100D200002976848A2214622022301F063FA237841
:100D3000AB700094019602976248A22147220223D9
:100D400001F058FA2378EB702B78002B03D1584B25
:100D50005B78002B11D0564C0D232371033B63713C
:100D60000023A371201C02F065FF82B25248211CAF
:100D7000FA235B0002F0FEFD01E001239A464824BD
:100D80006CE017256D440095012399460193642674
:100D900002964C48A221221C013301F02BFA444F49
:100DA0002B783B700134A4B2032000F08DFF009536
:100DB0004B46019302964348A221221C013301F0C5
:100DC00019FA2B787B700134A4B22E23BB700095E6
:100DD0004B46019302963B48A221221C013301F0AD
:100DE00009FA2B78FB700134A4B220233B710095E3
:100DF0004B46019302963348A221221C013301F095
:100E0000F9F92B787B710134A4B200954B4601931C
:100E100002962C48A221221C013301F0EBF92B7819
:100E2000BB710134A4B23B78002B03D1204B5B781B
:100E3000002B11D01E4D0D23EB71033B2B720023B1
:100E40006B72281C02F0F6FE82B21B48291CFA23A2
:100E50005B0002F08FFD01E001239A465346002B10
:100E60008FD0134E134B1A8832809B78B370301C8E
:100E700002F0E0FE104D82B2FA246400281C311CFE
:100E8000231C02F077FD1049331C0A1C83CA83C35C
:100E900083CA83C303CA03C3301C02F0CBFE82B2F1
:100EA000281C311C231C02F065FDFEE7FEE7C0464E
:100EB00030000020843C000888060020A83C000880
:100EC000C83C0008E4050020E83C00087047C04624
:100ED000F0B589B0224BDA6A01252A43DA62DA6A70
:100EE0002A400192019ADA6A02210A43DA62DB6A35
:100EF0000B400293029B1023039304950024059456
:100F00000694A026F605301C03A901F073FF1548CE
:100F10000F21012202F044F8C0277F01301C391C48
:100F2000002202F03DF80F230393049505940694E4
:100F30000C4803A901F05EFFC023DB000393049477
:100F40000594301C03A901F055FF039704950594FF
:100F50000694301C03A901F04DFF09B0F0BDC04656
:100F6000001002400004005000B587B016488023EE
:100F7000DB050360FA23DB01436000238360FA2270
:100F80009200C260036102F025F9002801D0FFF74A
:100F90009DFF80235B0102930B4802A902F046F9F2
:100FA000002801D0FFF792FF002300930193064829
:100FB000694602F047FA002801D0FFF787FF024890
:100FC00002F022F907B000BDB404002008B50268A1
:100FD0008023DB059A420CD1064A916B01230B4317
:100FE00093630F200721002201F0E0FF0F2002F0A1
:100FF0000FF808BD0010024000B583B00023009335
:1010000001931948194A0260C363C0221206426064
:101010008360836301220261C3601F328354013203
:1010200083548362C222FF324262963AFF3A83546B
:10103000283A4261036383614363C36100F0B8FCF3
:10104000002801D0FFF742FF0123009380235B01BA
:1010500001930548694600F0A1FD002801D0FFF783
:1010600035FF03B000BDC046F0040020002401405D
:1010700000B587B000230193029303930493059373
:1010800002680D4B9A4215D10C4B5A6B8021890096
:101090000A435A63D96A01221143D962DB6A1340B9
:1010A0000093009B019203230293A020C00501A995
:1010B00001F0A0FE07B000BD002401400010024076
:1010C00008B51348134B0360E123DB0043600023A2
:1010D00083600122C260036143618361C361036273
:1010E00000F052FF002801D0FFF7F0FE0848002171
:1010F00001F05AF9002801D0FFF7E8FE044800216A
:1011000001F07EF9002801D0FFF7E0FE08BDC046DF
:10111000980500200054004008B51348134B0360A5
:10112000E123DB004360002383600122C26003618E
:1011300043618361C361036200F026FF002801D090
:10114000FFF7C4FE0848002101F02EF9002801D065
:10115000FFF7BCFE0448002101F052F9002801D03D
:10116000FFF7B4FE08BDC0464C05002000780040E3
:10117000F0B5474680B48AB00023059306930793E1
:101180000893099303683D4A93421DD13C4CE26A9F
:1011900002210A43E262E36A0B400193019BC023F0
:1011A0009B00059312230693113B07930233089388
:1011B00001330993334805A901F01CFEA36B80227B
:1011C00092031343A36354E02F4A93421DD12C4C46
:1011D000E26A02210A43E262E36A0B400293029B45
:1011E000C023DB01059312230693113B07930233BF
:1011F000089302330993234805A901F0FBFDA36B73
:101200008022D2031343A36333E0204A934230D1B8
:101210001B4CE36A01252B43E362E36A2B400393F3
:10122000039BE26A02210A43E262E36A0B400493F1
:10123000049B80235B000593EE3B9846069307953D
:101240000327089707260996A020C00505A901F0E5
:10125000D1FD1023059343460693079508970996F9
:10126000084805A901F0C6FDA36B8022D2051343EF
:10127000A3630AB004BC9046F0BDC04600540040D1
:101280000010024000040050005800400078004068
:1012900008B50D480D4B036082235B0043600023BB
:1012A0008360C36003614361802292008261C361F5
:1012B0000362436283620733C36201F0D5FE0028F4
:1012C00001D0FFF703FE08BD3006002000300140CA
:1012D00000B587B000230193029303930493059311
:1012E00002680F4B9A4218D10E4B5A6B802149016C
:1012F0000A435A63DA6A01210A43DA62DB6A0B4065
:101300000093009BE0230193DE3B0293013304939F
:10131000A020C00501A901F06DFD07B000BDC046C9
:10132000003001400010024008B50B480B4B036031
:10133000E1235B02436000238360C36003610C22EE
:1013400042618361C3610362436202F0BFFB002814
:1013500001D0FFF7BBFD08BD880600200038014022
:1013600000B587B000230193029303930493059380
:1013700002680E4B9A4216D10D4B5A6B8021C9015F
:101380000A435A63D96A02221143D962DB6A1340C5
:101390000093009BC02301930292BD3B0493054838
:1013A00001A901F027FD07B000BDC046003801408B
:1013B00000100240000400507047C046FEE7C046DF
:1013C0007047C0467047C04608B500F06FFC01F09A
:1013D00047FE08BD08B5024801F0A4FF08BDC0469D
:1013E000B404002008B502688023DB059A4203D1CB
:1013F00000F0BEFA00F0AAFA08BDC046054B596BD2
:1014000001220A435A639A6B802149050A439A6371
:101410007047C04600100240A023DB051B699B05F6
:1014200001D5012000E000207047C04610B5041C23
:1014300016480F21012201F0B3FD012C05D11348FC
:101440000121002201F0ACFD1EE0022C05D10F4865
:101450000221002201F0A4FD16E0032C05D10B4867
:101460000421002201F09CFD0EE0042C05D1074868
:101470000821002201F094FD06E0052C04D1034868
:101480000F21002201F08CFD10BDC0460004005069
:10149000014B18607047C04680000020F0B585B051
:1014A000434F3868434C009401260196FA256D009D
:1014B0000295D0210022012300F09CFE3868631CB5
:1014C000009301960295D0210122012300F092FEA3
:1014D0003868A31C009301960295D02102220123B3
:1014E00000F088FE3868E31C009301960295D02135
:1014F0000322012300F07EFE3868231D009301962D
:101500000295D0210422012300F074FE3868631D87
:10151000009301960295D0210522012300F06AFE76
:101520003868A31D009301960295D021062201235D
:1015300000F060FE237819098A008A1851000F22F2
:101540001340CB181C490B706378180981004118AF
:1015500048001340C31819490B70A3781909F23DCC
:10156000FF3D29408800091848001340C31814495A
:101570000B70237919098800081841001340CB1813
:1015800010490B706379190929408800091848002F
:101590001340C3180C490B70A37918098100411836
:1015A00048001340C318094A137005B0F0BDC04687
:1015B00080000020740000207B0000207C000020C0
:1015C000840000208500002086000020700000209C
:1015D000064B9B689B07FBD5044BD860034B9B686D
:1015E000DB07FBD5014BD868C0B270470030014023
:1015F000F8B5A024E40580235B03A3611E20FFF758
:10160000E7FF1023A361032000F05EFB01241AE032
:10161000A027FF0580235B03BB61E0B24000603878
:10162000C0B2FFF7D5FF5520FFF7D2FF074D660088
:101630000002A8535520FFF7CBFF735B18187053B7
:101640001023BB610134062CE2DDF8BD88000020C8
:1016500000B587B017236B441870074A10680093D1
:10166000012301930933029378210022093B00F002
:10167000EFFC07B000BDC046B0040020054B186069
:10168000012903D1044A054B1A6002E0044A034BC6
:101690001A607047B0040020A400002098000020C9
:1016A000A4040020002309E0064A1268D21800288A
:1016B00001D1002100E0FF2111700133024A934261
:1016C000F2D9704798000020FF03000010B584B0E5
:1016D00000241CE0201C5038C0B2FFF7B9FF0020E6
:1016E000FFF7B6FF1020FFF7B3FFE3010A4A1068C7
:1016F0000A4A1268D3180093802301931C3B02937B
:1017000078214022633B00F0A3FC0134E4B2072CB3
:10171000E0D904B010BDC046B004002098000020FD
:1017200008B5642000F0D0FAAE20FFF791FF20202A
:10173000FFF78EFF1020FFF78BFFB020FFF788FF29
:10174000C820FFF785FF0020FFF782FF1020FFF77A
:101750007FFF4020FFF77CFF8120FFF779FFFF200C
:10176000FFF776FFA120FFF773FFA620FFF770FFBA
:10177000A820FFF76DFF3F20FFF76AFFA420FFF7C7
:1017800067FFD320FFF764FF0020FFF761FFD5203C
:10179000FFF75EFFF020FFF75BFFD920FFF758FF50
:1017A0002220FFF755FFDA20FFF752FF1220FFF744
:1017B0004FFFDB20FFF74CFF2020FFF749FF8D2074
:1017C000FFF746FF1420FFF743FFAF20FFF740FF6E
:1017D0000020FFF767FFFFF779FF044B00221A8014
:1017E0005A8001325A71012008BDC0469C00002079
:1017F00043B2002B27DB3F2925D8134B1B79002B45
:1018000002D053425A41D2B2012A0ED1CB08DB0199
:10181000C0180E4B1B68181807231940063B8B4055
:10182000191C0378194301700DE0CB08DB01C018C7
:10183000064B1B68181807231940063B8B40191CE0
:1018400003788B43037070479C00002098000020B1
:10185000F0B55F4656464D464446F0B483B000911D
:101860000192274A1288CEB292197F2A3EDC244A7E
:101870005288694649788A468B4652443F2A37DC6B
:1018800098468146002529E04B46203B5A46534363
:101890005B195B00019A9F5A00241CE03B1CA3408B
:1018A0001B040AD5164B188859880019C0B249196B
:1018B000C9B24246FFF79CFF0CE0114B18885988CB
:1018C0000019C0B24919C9B2424653425A41D2B274
:1018D000FFF78EFF0134A642E0D80135AA45D3D8E0
:1018E000074B1A8896191E80484602E0002000E047
:1018F000002003B03CBC90469946A246AB46F0BDE2
:101900009C00002030B583B0041C009101921D1C86
:1019100009E00099019A2B1CFFF79AFF031C20781D
:10192000834203D1013420780028F2D103B030BDC6
:10193000014B1880598070479C00002008B5024870
:1019400001F062FC08BDC046B40400200122014B36
:101950001A607047A80400200022014B1A607047EB
:10196000A804002008B5FFF7F7FFFFF7FDFA08BD50
:10197000024A1368013313607047C046AC0400206C
:1019800010B582B0041C084B18680849FEF7F2FB3A
:101990004443019402E0019B013B0193019B002B16
:1019A000F9D102B010BDC0461000002040420F0027
:1019B00038B5002800D1E3E0041C436D002B04D1AE
:1019C000836550228354FFF753FB636DDB0604D419
:1019D0002268936804210B4008D0626D10231343E2
:1019E000636500225023E2540120CAE0606D65491E
:1019F00001400220014361659168013001400129E5
:101A000004D11168C90703D4002102E0002100E0DD
:101A1000012100292DD16168C0200006814207D034
:101A20008020C005814203D080200006814209D178
:101A3000116989008908116121680A696068024397
:101A40000A610CE011698900890811614E4A106829
:101A50004E490140116011686068014311602168BE
:101A6000CA6818208243CA602168CA68A068024315
:101A7000CA6045490868464A02400A600868626BC5
:101A8000520602430A6022689168C90004D4916832
:101A900080204005014391602168C8683D4A0240AA
:101AA000CA602068C568E2682169022900D1042360
:101AB0001A432023E35C5B031A432C23E15C4900B7
:101AC0000A43236B1343A26991030B43E269D203D8
:101AD00013432B43C360636AC222FF32934205D093
:101AE0002268D168A06A03430B43D3602123E35CDF
:101AF000012B12D11F33E35C002B06D12268D3687F
:101B0000802149020B43D36007E0626D2023134319
:101B10006365A26D01231343A365E36B012B13D10E
:101B2000226811691C4B0B40136122681169236CF8
:101B3000606C0343A06C03430B431361226811697B
:101B400001230B43136107E023681A69D20703D509
:101B50001A6901218A431A612268536907218B435C
:101B6000536122685369A16B0B4353610023A36542
:101B7000636D03229343023A13436365002000E040
:101B8000012038BDFDFEFFFF08270140FFFFC3FF16
:101B9000FFFFFFFD1902FEFF03FCFFFF38B55023D6
:101BA000C35C012B4CD001225023C25402689368BD
:101BB0005B0708D5426D2023134343650022502361
:101BC000C25401203DE00D1C041C1E4B4968994283
:101BD0001BD0916A2B685B035B0B0B4393622B68F2
:101BE0005B0308D5184A1368802109040B4313606E
:101BF0000A20FFF7C5FE2B689B031CD5124A136809
:101C00008021C9030B43136015E0916A2B685B03C5
:101C10005B0B994391622B685B0304D50A4A1168F8
:101C20000A4B0B4013602B689B0304D5064A1168CE
:101C3000074B0B40136000225023E254002000E0C9
:101C4000022038BD0110000008270140FFFF7FFF80
:101C5000FFFFBFFF10B5041C094B1868FA2189006B
:101C6000FEF788FA01F0DEF9002806D10138211CC0
:101C7000002201F09BF9002000E0012010BDC046C9
:101C80001000002008B5084A116840230B43136078
:101C90000020FFF7DFFF002803D1FFF7AFFB002094
:101CA00000E0012008BDC04600200240024A13683F
:101CB000013313607047C04608070020014B1868C5
:101CC0007047C0460807002038B5041CFFF7F6FF30
:101CD000051C631C00D00134FFF7F0FF401B844259
:101CE000FAD838BD03689A69920701D500229A6232
:101CF00003689A69D20703D4996901220A439A6159
:101D00007047C046F0B5059C05686E68670D802079
:101D1000C0003840054F384386438905890D1204B9
:101D20000A431A43144334436C60F0BDFF63FF035E
:101D300070B5041C0E1C151C03689B69DB0617D4C8
:101D4000002032E0731C13D0FFF7B8FF401BB042F5
:101D500001D8002E0CD1636C20221343636441230D
:101D6000E25400232232A354023AA35401201CE07F
:101D700023689A699206E5D51022DA612368202546
:101D8000DD61201CFFF7AEFF22685168074B0B4056
:101D90005360626C0423134363644123E5540023BE
:101DA0004222A354023AA354012070BD00E800FE71
:101DB00070B5041C0D1C161C1CE0201C291C321CB8
:101DC000FFF7B6FF00281BD16B1C13D0FFF776FF7F
:101DD000801BA84201D8002D0CD1636C2022134334
:101DE00063644123E25400232232A354023AA354F1
:101DF000012006E023689B699B07DED5002000E0F8
:101E0000012070BDF8B5061C0C1C171C1D1C16E02B
:101E10006B1C14D0FFF752FF069BC01AA84201D8D2
:101E2000002D0CD1736C2022134373644123F254B0
:101E300000232232B354023AB354012008E033683D
:101E40009B6923401B1B5A425341BB42E0D00020F8
:101E5000F8BDC04670B582B0041C151C1E1CDAB259
:101E6000184B009380235B04FFF74CFF201C06995E
:101E7000079AFFF79DFF00281ED1012E03D123688A
:101E8000EDB29D620CE023682A0A9A62201C069932
:101E9000079AFFF78DFF002810D12368EDB29D62ED
:101EA000079B0093201C80210022069BFFF7AAFFBE
:101EB000002804D0012002E0012000E0012002B04F
:101EC00070BDC0460020008070B582B0041C151C97
:101ED0001E1CDAB2174B00930023FFF713FF201CE0
:101EE0000699079AFFF764FF00281ED1012E03D13F
:101EF0002368EDB29D620CE023682A0A9A62201CD6
:101F00000699079AFFF754FF002810D12368EDB215
:101F10009D62079B0093201C40210022069BFFF737
:101F200071FF002804D0012002E0012000E0012020
:101F300002B070BD0020008070B5051C0C1C161C82
:101F40001AE0281C211C321CFFF7F2FE002819D1D0
:101F5000FFF7B4FE801BA04201D8002C0CD16B6CA3
:101F6000202213436B644123EA5400232232AB54F2
:101F7000023AAB54012006E02B689B699B06E0D532
:101F8000002000E0012070BD10B5002858D0041CCE
:101F90004123C35C002B04D100224033C254FFF71D
:101FA000E7F824224123E2542268136801218B437D
:101FB00013602268234B61680B40136122689168AB
:101FC000214B0B409360E368012B06D122688023EC
:101FD0001B02A1680B43936005E0226884231B0267
:101FE000A1680B439360E368022B03D1236880222E
:101FF00012015A602268536814490B4353602268E7
:10200000D168114B0B40D3602168226963691A4380
:10201000A3691B021343CB602268E369216A0B4367
:1020200013602268116801230B431360002363646B
:1020300020214122A15423630132A354002000E057
:10204000012010BDFFFFFFF0FF7FFFFF00800002B7
:10205000F0B587B0071C0C1C039204930CAB40CB6B
:102060001D884123C35C202B00D0B3E0002E01D09B
:10207000002D04D180239B007B640120B5E0402328
:10208000C35C012B00D1A7E001224023C254FFF71B
:1020900015FE05900090381C8021090201221923A9
:1020A000FFF7B0FE002800D098E021224123FA5427
:1020B0001F320133FA5400237B647E627D857B638B
:1020C0000E9B0093059B0193381C211C039A049BD3
:1020D000FFF7C0FE002804D000224023FA5401205C
:1020E00083E07B8D9BB2FF2B0BD9FF233B85002325
:1020F0000093381C211CFF2280235B04FFF702FEA3
:102100000BE07A8D92B23A85D2B200230093381C4C
:10211000211C80239B04FFF7F5FD381C0E99059ABE
:10212000FFF746FE00285BD13B687A6A12789A6214
:102130007B6A01337B627B8D013B9BB27B853B8D50
:10214000013B9BB23B857A8D92B2002A27D0002BAF
:1021500025D1059B0093381C802100220E9BFFF7A0
:1021600051FE00283ED17B8D9BB2FF2B0BD9FF2364
:102170003B8500230093381C211CFF2280235B0435
:10218000FFF7C0FD0BE07A8D92B23A85D2B2002300
:102190000093381C211C80239B04FFF7B3FD7B8D2B
:1021A0009BB2002BB9D1381C0E99059AFFF7C4FEDB
:1021B000002819D13B682022DA6139684C680C4B41
:1021C00023404B604123FA5400232232BB54023A8D
:1021D000BB540AE0022008E0022006E0012004E0EF
:1021E000012002E0012000E0012007B0F0BDC04660
:1021F00000E800FEF0B5574680B484B0071C0C1C04
:10220000029203930AAB40CB1D884123C35C202B71
:1022100000D0B6E0002E01D0002D04D180239B0019
:102220007B640120B8E04023C35C012B00D1AAE00D
:1022300001224023C254FFF741FD82460090381C22
:102240008021090201221923FFF7DCFD002800D0BC
:102250009BE022224123FA541E320133FA54002318
:102260007B647E627D857B630C9B00935346019368
:10227000381C211C029A039BFFF726FE002804D07D
:1022800000224023FA54012086E07B8D9BB2FF2B75
:102290000BD9FF233B85424B0093381C211CFF22A6
:1022A00080235B04FFF72EFD0BE07A8D92B23A8516
:1022B000D2B23B4B0093381C211C80239B04FFF7B8
:1022C00021FD53460093381C042100220C9BFFF78C
:1022D00099FD00285BD13B685B6A7A6A13707B6A60
:1022E00001337B623B8D013B9BB23B857A8D013A8A
:1022F00092B27A857A8D92B2002A27D0002B25D10E
:1023000053460093381C802100220C9BFFF77AFD76
:1023100000283ED17B8D9BB2FF2B0BD9FF233B8541
:1023200000230093381C211CFF2280235B04FFF74D
:10233000E9FC0BE07A8D92B23A85D2B20023009389
:10234000381C211C80239B04FFF7DCFC7B8D9BB297
:10235000002BB6D1381C0C995246FFF7EDFD002832
:1023600019D13B682022DA6139684C680D4B234053
:102370004B604123FA5400232232BB54023ABB542F
:102380000AE0022008E0022006E0012004E001202B
:1023900002E0012000E0012004B004BC9246F0BD40
:1023A0000024008000E800FEF0B54123C35C202B30
:1023B00020D12033C35C012B1ED0402401230355C0
:1023C000412524224255066832689A4332600668E5
:1023D00037680A4A3A403260026816683143116031
:1023E000026811680B4313602023435500230355F3
:1023F000002002E0022000E00220F0BDFFEFFFFF1E
:10240000F0B54123C35C202B1ED12033C35C012BCC
:102410001CD040240123035541252422425506683F
:1024200032689A43326006683768094A3A400902BE
:1024300011433160026811680B4313602023435538
:1024400000230355002002E0022000E00220F0BD3E
:10245000FFF0FFFF08B51E4BD9680C230B40082B7B
:1024600031D00C2B07D0042B23D1194B1B68DB0672
:102470002BD518482AE08B021B0F174AD05C0902A3
:10248000890F0131124BDB68DB0304D5134B584332
:10249000FDF770FE1AE00E4B1B68DB0604D50D4BF2
:1024A0005843FDF767FE11E00D4B5843FDF762FE00
:1024B0000CE0074B58680004400F013080231B02DA
:1024C0008340181C02E0054800E0054808BDC046EE
:1024D0000010024000093D00105E000800127A0062
:1024E0000024F400F0B583B0002800D15CE2041CA5
:1024F000C04BDA680C251540DE6880235B021E4065
:102500000368DB0758D5082D03D00C2D09D1002E08
:1025100007D0B84B1B689B034ED56368002B4BD18B
:1025200044E2636880225202934206D1B14A1368A2
:10253000802149020B4313601EE0A022D202934285
:102540000BD1AC4B1A688021C9020A431A601A6881
:10255000802149020A431A600EE0A64B1968A64A78
:102560000A401A601968802252020A400192019AB8
:102570001968A24A0A401A606368002B0ED0FFF760
:102580009DFB071C05E0FFF799FBC01B642800D9E1
:102590000EE2984B1B689B03F5D50DE0FFF78EFB11
:1025A000071C05E0FFF78AFBC01B642800D901E285
:1025B000904B1B689B03F5D423689B0764D5E368A5
:1025C0009A0605D58B48026820210A4302608B4396
:1025D000042D03D00C2D25D1002E23D1854A12685D
:1025E000520702D5002B00D1E6E1824E7168844A81
:1025F0000A40216909020A437260326809218A434C
:1026000013433360FFF726FFF3681B061B0F7D4A59
:10261000D35CD8407C4B18600020FFF71BFB0028E0
:1026200032D0EEE1002B1CD072490A6809208243A7
:1026300013430B60FFF742FB061C05E0FFF73EFB70
:10264000801B022800D9B9E16A4B1B685B07F5D5EE
:1026500068494A686A4B13402269120213434B606F
:1026600012E0644A136801218B431360FFF726FBD5
:10267000061C05E0FFF722FB801B022800D99FE122
:102680005C4B1B685B07F5D42368DB0665D5002D22
:102690002AD1584B1B689B0503D5A369002B00D199
:1026A00090E154494A68594B1340226A13434B60E6
:1026B0004B681B021B0AE269120613434B60236A34
:1026C0005B0B0133802212029A40131CCA68120667
:1026D000120F4C498A5CD3404B4A13600020FFF72D
:1026E000B9FA002839D08CE1A369002B22D0414AE5
:1026F0001368802149000B431360FFF7DFFA061CC3
:1027000005E0FFF7DBFA801B022800D95CE1394BBA
:102710001B689B05F5D537494A683C4B1340226A34
:1027200013434B604B681B021B0AE26912061343FA
:102730004B6012E02F4A1168354B0B401360FFF7D6
:10274000BDFA061C05E0FFF7B9FA801B022800D984
:102750003CE1284B1B689B05F5D423681B0729D552
:102760006369002B13D0234A116D01230B431365BA
:10277000FFF7A4FA061C05E0FFF7A0FA801B022869
:1027800000D925E11B4B1B6D9B07F5D512E0194ABB
:10279000136D01218B431365FFF790FA061C05E0CA
:1027A000FFF78CFA801B022800D913E1114B1B6D37
:1027B0009B07F5D423685B0700D491E00D4B9B6B1E
:1027C000DB0007D40B4A936B802149050B439363CD
:1027D000012600E000260F4B1B68DB0526D40D4ABE
:1027E0001368802149000B431360FFF767FA071C49
:1027F00018E0C04600100240FFFFFEFFFFFFFBFF96
:10280000FFE0FFFFF85D000810000020FF1FFFFF42
:10281000FFFEFFFF00700040FFF750FAC01B642866
:1028200000D9D9E0784B1B68DB05F5D5A368802279
:102830005200934206D1754A136D802149000B4323
:10284000136524E0002B09D1704B196D704A0A40C2
:102850001A65196D6F4A0A401A6518E0A022D20065
:1028600093420BD1694B1A6D8021C9000A431A6546
:102870001A6D802149000A431A6508E0634B196DFF
:10288000634A0A401A65196D624A0A401A65A368CC
:10289000002B0FD0FFF712FA071C06E0FFF70EFA25
:1028A000C01B5D4B984200D998E0584B1B6D9B05AF
:1028B000F4D50EE0FFF702FA071C06E0FFF7FEF979
:1028C000C01B554B984200D98AE0504B1B6D9B05AD
:1028D000F4D4012E04D14D4A916B504B0B409363BD
:1028E000636A002B7ED00C2D46D0022B30D1474A94
:1028F00011684B4B0B401360FFF7E0F9051C04E037
:10290000FFF7DCF9401B02286ED8404B1B689B0187
:10291000F6D43E49C868434B1840A36AE26A1343A1
:10292000226B13430343CB600B6880225204134392
:102930000B60FFF7C3F9041C04E0FFF7BFF9001BAD
:10294000022853D8314B1B689B01F6D5002058E074
:102950002E4A1168324B0B401360FFF7AFF9041C8D
:1029600004E0FFF7ABF9001B022841D8274B1B6896
:102970009B01F6D4002044E0012B3BD0234BDA68C6
:1029800080235B021340A16A8B4235D1F0239B0365
:102990001340E16A8B4231D1C0231B041A40236BE0
:1029A0009A422DD001202CE001202AE0012028E0CD
:1029B000032026E0032024E0012022E0032020E081
:1029C00003201EE001201CE003201AE0032018E091
:1029D000032016E0032014E0032012E0032010E09F
:1029E00003200EE000200CE003200AE0032008E0B2
:1029F000032006E0012004E0012002E0012000E0C5
:102A0000002003B0F0BDC04600700040001002403E
:102A1000FFFEFFFFFFFBFFFF88130000FFFFFFEF3C
:102A2000FFFFFFFEFFFF02FF70B5002800D1B3E0FB
:102A3000644B1B68012213408B420AD2614A13681F
:102A40000124A3430B431360136823408B4200D03F
:102A5000A4E003689B0706D55B4AD368F024A34330
:102A600084682343D3600D1C041C0368DB075FD517
:102A70004368022B04D1544A1268920313D48FE0A6
:102A8000032B04D1504A126892010CD48AE0012B26
:102A900004D14D4A1268520705D485E04A4A1268AB
:102AA000920500D482E04849CA6803208243134358
:102AB000CB60FFF703F9061C6368022B0DD105E01C
:102AC000FFF7FCF8801B414B984271D83E4BDB6806
:102AD0000C221340082BF3D12AE0032B0DD105E083
:102AE000FFF7ECF8801B394B984263D8364BDB6814
:102AF0000C2213400C2BF3D11AE0012B13D105E06B
:102B0000FFF7DCF8801B314B984255D82E4BDB6821
:102B10000C221340042BF3D10AE0FFF7CFF8801BFF
:102B20002A4B98424AD8284BDB680C221A42F4D12F
:102B3000244B1B6801221340AB4209D9214A136878
:102B400001218B432B43136013680B40AB4237D1F9
:102B500023685B0706D51C4AD1681D4B0B40E16812
:102B60000B43D36023681B0707D51749CA68194B65
:102B700013402269D2001343CB60FFF76BFC124B6A
:102B8000DB681B061B0F144AD35CD840134B18603C
:102B90000020FFF75FF814E0012012E0012010E0B0
:102BA00001200EE001200CE001200AE0012008E0F5
:102BB000032006E0032004E0032002E0032000E0FD
:102BC000012070BD00200240001002408813000068
:102BD000FFF8FFFFFFC7FFFFF85D000810000020AF
:102BE000014B18687047C0461000002008B5FFF779
:102BF000F7FF044BDB685B055B0F034AD35CD840EF
:102C000008BDC04600100240085E000808B5FFF786
:102C1000E7FF044BDB689B045B0F034AD35CD8409F
:102C200008BDC04600100240085E000870B5041CD4
:102C300003689B0600D482E0644B9B6BDB0007D4E7
:102C4000624A936B802149050B439363012500E0A1
:102C500000255F4B1B68DB0513D45D4A1368802198
:102C600049000B431360FFF729F8061C05E0FFF746
:102C700025F8801B642800D99FE0554B1B68DB05B5
:102C8000F5D5524B1A68C0239B031A4061680B406C
:102C900093420AD0C0239B020A1C1A409A4204D1D4
:102CA0004A4B1B689B0300D589E0484B1A6DC02333
:102CB0009B02134025D0C02292021140994220D09D
:102CC00023689B061DD5414B186D424A0240196D81
:102CD00080263603314319651E6D3F493140196521
:102CE0001A65C3050DD5FEF7E9FF061C05E0FEF7E2
:102CF000E5FF801B394B984263D8344B1B6D9B0515
:102D0000F5D56268C0239B02111C1940994208D175
:102D10002E480168324B1940C0239B031A400A43D6
:102D200002602A4A116DC0239B02606803400B4376
:102D30001365012D03D1916B2A4B0B4093632368DC
:102D4000DB0706D5214AD36C03218B43A1680B43D3
:102D5000D36423689B0706D51C4AD36C0C218B4394
:102D6000E1680B43D36423685B0706D5174AD16C2F
:102D70001D4B0B4021690B43D36423681B0706D509
:102D8000124AD16C194B0B4061690B43D364236821
:102D9000DB0506D50D4AD16C0E4B0B40A1690B43E8
:102DA000D36423681B060ED50849CA6C104B134028
:102DB000E2691343CB64002006E0032004E0012015
:102DC00002E0032000E0002070BDC0460010024079
:102DD00000700040FFFFFCFFFFFFF7FF88130000BB
:102DE000FFFFCFFFFFFFFFEFFFF3FFFFFFCFFFFF6F
:102DF000FFFFF3FFF0B54F464646C0B483B0002353
:102E0000B2E001249C402240914600D1ABE04D68E5
:102E1000022D01D0122D0ED1DD080835AE00375835
:102E200007251D40AD000F22AA4097430A69AA401A
:102E3000151C3D4335504D686F1E012F03D9112DD0
:102E400001D0122D13D185685E000327B740BD4322
:102E50002F1CCD68B5403D4385604768A7434A684D
:102E6000D506ED0F2C1C019A94403C434460056844
:102E70005F000324A446BC40E44325402E1C654665
:102E80004A681540BD4035430560C5682C408D68D3
:102E9000BD402C43C4604A68D20064D5384D6E6B87
:102EA000012434436C639C08A51CAD00354EAE591B
:102EB00003271F40BD000F27AF40BE43A027FF05DB
:102EC000B8421AD0304FB84215D0304FB84210D067
:102ED0002F4FB8420BD02F4FB84206D02E4FB842DA
:102EE00001D105270AE0062708E0042706E00327AA
:102EF00004E0022702E0012700E00027AF403D1C6C
:102F000035430234A4001F4EA551244C25684A467F
:102F1000D4432E1C26404A68D20302D54A461543A4
:102F20002E1C1E4D2E606D682E1C26404A68920392
:102F300002D54A4615432E1C184D6E60AD682E1CF6
:102F400026404A68D20202D54A4615432E1C134D2C
:102F5000AE60ED682C404A68920202D54A462A4388
:102F6000141C0E4AD46001330A680193141CDC401F
:102F700000D046E703B00CBC90469946F0BDC04671
:102F80000010024000000140000400500008005002
:102F9000000C005000100050001C005000040140C4
:102FA000002A01D0816100E08162704770B500287D
:102FB00016DAC0B20F230340083B9B089B00124A5D
:102FC000944663445A6803242040C000FC34251C06
:102FD0008540AA438901214081400A435A6011E09B
:102FE00083080A4CC0339B001A5903252840C000AF
:102FF000FC352E1C8640B243890129408140081CC3
:103000001043185170BDC04618ED00E000E100E02B
:103010001F2318401E3B8340181C014B186070474B
:1030200000E100E001380A4B98420FD8094A50608D
:1030300009490B6A1B021B0AC020000603430B62EE
:103040000023936007331360002000E001207047E5
:10305000FFFFFF0010E000E000ED00E07047C04619
:1030600008B5FFF7FBFF08BD38B500283BD0041CAE
:10307000002383625133C35C002B04D10022503300
:10308000C254FEF725F951210223635422681368C4
:1030900040208343136020686368A2681343E2689A
:1030A0001343226913436269134380229200A56986
:1030B0002A401343E2691343226A1343A26A13436B
:1030C00003602268638B04200340606A03435360FB
:1030D0002268D069054B0340D36100236365013347
:1030E0006354002000E0012038BDC046FFF7FFFF19
:1030F00003688022D205904208D0154A904205D03C
:10310000144A904202D0144A904203D17022934351
:103110004A6813438022D205904208D00C4A90425C
:1031200005D00C4A904202D00B4A904203D10B4A80
:103130001340CA681343802293430A691343036010
:103140008B68C3620B688362012343617047C0468A
:10315000000400400008014000140140FFFCFFFF94
:1031600030B5046A036A0125AB4303628369EF3516
:10317000AB4312011A430A239C432143826101623B
:1031800030BDC04630B5036A1024A343036285698D
:10319000036A054C2C4012032243A024A3430901D7
:1031A00019438261016230BDFF0FFFFF8368702207
:1031B00093431943072319438160704730B58568ED
:1031C000034C2C401B021A4311432143816030BD44
:1031D000FF00FFFF38B5002814D0041C3923C35C5E
:1031E000002B04D100223833C254FDF7EFFE3925FD
:1031F00002236355211C01C9FFF77AFF01236355A0
:10320000002000E0012038BD0268D16801230B4393
:10321000D3600268936807210B40062B03D0116826
:1032200001230B43136000207047C04610B53822BD
:10323000825C012A6AD00B1C041C012138228154B3
:1032400001310132815401688868314A02408A6044
:103250001968402945D00AD810294CD002D8002935
:1032600049D04BE0202946D0302944D046E060299F
:103270002DD002D8502920D040E0702904D08022DF
:10328000920191420CD039E099685A68DB68206855
:10329000FFF794FF2268916877230B4393602DE03A
:1032A00099685A68DB682068FFF788FF226893688E
:1032B0008021C9010B43936020E05968DA682068D7
:1032C000FFF74EFF20685021FFF770FF16E05968A6
:1032D000DA682068FFF756FF20686021FFF766FF75
:1032E0000CE05968DA682068FFF73AFF206840214F
:1032F000FFF75CFF02E02068FFF758FF0122392347
:10330000E2540022013BE254002000E0022010BD04
:103310008800FFFF7047C0467047C0467047C046F0
:103320007047C04610B5041C03681A69920715D58A
:10333000DA68920712D5032252421A6101230376FA
:1033400003689B699B0702D0FFF7E6FF04E0FFF7E5
:10335000E1FF201CFFF7E2FF0023237623681A69B0
:10336000520719D5DA68520716D5052252421A615A
:103370000223237623689A69C0239B001A4203D054
:10338000201CFFF7C9FF05E0201CFFF7C3FF201C2E
:10339000FFF7C4FF0023237623681A69120717D5A5
:1033A000DA68120714D5092252421A6104232376DF
:1033B0002368DB699B0703D0201CFFF7ADFF05E006
:1033C000201CFFF7A7FF201CFFF7A8FF0023237690
:1033D00023681A69D20619D5DA68D20616D51122E1
:1033E00052421A61082323762368DA69C0239B00BE
:1033F0001A4203D0201CFFF78FFF05E0201CFFF7C7
:1034000089FF201CFFF78AFF0023237623681A69AF
:10341000D20708D5DA68D20705D5022252421A61CE
:10342000201CFDF7DFFF23681A69520608D5DA6809
:10343000520605D5412252421A61201CFFF770FF47
:1034400010BDC046F0B54F464646C0B43823C35CF5
:10345000012B1DD0382501274755392602238355D6
:1034600004686268A368984670239A430B681A43FD
:103470009146802342469A43131C49680B434A46AF
:10348000626002689360875500234355002000E086
:1034900002200CBC90469946F0BDC046F8B5051C0C
:1034A00083680269134342691343C2691A4301687E
:1034B0000868BF4B034013430B602A685168BD4B3B
:1034C0000B40E9680B435360AB692A68BA498A42EA
:1034D00001D0296A0B439068B84901400B439360BF
:1034E0002B68B74A934214D1B64AD26C03210A40E2
:1034F000012A08D0002A04D0022A4BD0032A04D083
:1035000005E0012251E004224FE008224DE01022A4
:103510004BE0AD4A934216D1AA4AD26C0C210A4024
:10352000042A0AD002D8002A05D00AE0082A33D09B
:103530000C2A04D005E0002237E0042235E00822FE
:1035400033E0102231E0A14A934227D0A04A9342AF
:1035500026D0994A934225D19A4AD16CC0221201B1
:103560000A408021C9008A420ED002D8002A09D020
:103570000EE0802109018A4216D0C02109018A4249
:1035800004D005E0002210E004220EE008220CE046
:1035900010220AE0022208E0022206E0002204E0F3
:1035A000002202E0102200E0022283498B4240D137
:1035B000022A0FD002D8002A08D016E0042A10D020
:1035C000082A12D180200002002413E0FFF70EFB2E
:1035D00000240FE07B4B1B68DB0609D57D480024E7
:1035E00008E0FEF737FF002404E00020012401E09A
:1035F00079480024002800D111E16A6853009B1823
:10360000834200D902E11303834200D200E1070E96
:10361000060250080021801979410023FCF73CFE86
:103620006E4BC2186E4B9A4200D9F3E02B68D860FB
:10363000F5E080231B02E969994266D1082A53D834
:103640009200684B9B589F46FFF7D0FA40006B688A
:103650005B08C0186968FCF78DFD0004000C0024AD
:1036600044E0FFF7D3FA40006B685B08C018696854
:10367000FCF780FD0004000C002437E0514B1B6870
:10368000DB060BD56B685808574B9C46604469684D
:10369000FCF770FD0004000C002427E06B6858085C
:1036A000524B9C4660446968FCF764FD0004000CC2
:1036B00000241BE0FEF7CEFE40006B685B08C018DC
:1036C0006968FCF757FD0004000C00240EE06B68ED
:1036D000580880235B029C4660446968FCF74AFDF9
:1036E0000004000C002401E001240020404A031CD7
:1036F000103B934200D98FE00F22031C93431040EC
:10370000400818432B68D86089E0082A74D89200D2
:10371000384B9B589F46FFF769FA6B685B08C018E7
:103720006968FCF727FD0004000C002466E0FFF741
:103730006DFA6B685B08C0186968FCF71BFD000434
:10374000000C00245AE01F4B1B68DB060BD56B688E
:103750005808204B9C4660446968FCF70BFD000448
:10376000000C00244AE06B6858081B4B9C466044E0
:103770006968FCF7FFFC0004000C00243EE0FEF743
:1037800069FE6B685B08C0186968FCF7F3FC00040D
:10379000000C002432E06B68580880231B029C4612
:1037A00060446968FCF7E6FC0004000C002425E096
:1037B000F369FFEFFFCFFFFF00480040FFF4FFFF7A
:1037C000003801400010024000440040004C00401E
:1037D0000050004000093D000024F40000FDFFFF00
:1037E000FFFC0F00B05D000800127A000048E801FD
:1037F000EFFF0000D45D0008012400200A4A031CEA
:10380000103B93420AD82B68D86008E0012406E0F8
:10381000012404E0012402E0012400E0012400234B
:103820002B666B66201CF8BDEFFF0000436ADB07C8
:1038300006D5026851682C4B0B40816A0B435360DC
:10384000436A9B0706D502685168284B0B40C16A42
:103850000B435360436A5B0706D502685168244BEB
:103860000B40016B0B435360436A1B0706D502688C
:103870005168204B0B40416B0B435360436ADB069E
:1038800006D5026891681C4B0B40816B0B4393601B
:10389000436A9B0606D502689168184B0B40C16BC2
:1038A0000B439360436A5B0612D502685168144B60
:1038B0000B40016C0B43536080235B03026C9A4204
:1038C00006D1026851680F4B0B40416C0B435360AB
:1038D000436A1B0606D501684A680B4B1340826C8D
:1038E00013434B607047C046FFFFFDFFFFFFFEFF25
:1038F000FFFFFBFFFF7FFFFFFFEFFFFFFFDFFFFF8C
:10390000FFFFEFFFFFFF9FFFFFFFF7FFF0B5474609
:1039100080B4061C0C1C171C9846069D1BE06B1CF3
:1039200019D0FEF7CBF94346C01AA84201D8002DA2
:1039300011D1326811680E4B0B40136032689368E6
:1039400001218B43936020237367B36700225033B8
:10395000F254032008E03368DB6923401B1B5A4202
:103960005341BB42DBD0002004BC9046F0BDC046B2
:103970005FFEFFFFF0B585B0041C0F1C161C1D1C5C
:10398000436F202B5DD100295DD0002A5DD08023BC
:103990005B0182689A4204D10369002B01D1CB07F5
:1039A00055D47023E35C012B53D001227023E254E1
:1039B0000023E36721336367FEF780F90390502308
:1039C000E6520233E65280235B01A2689A4204D198
:1039D0002369002B03D000261FE000261DE03E1CBB
:1039E00000271AE00095201C80210022039BFFF78E
:1039F0008DFF00282FD1002F06D122683388DB05E8
:103A0000DB0D9362023603E023683A789A6201374D
:103A10005222A35A013B9BB2A3525223E35A9BB2B8
:103A2000002BDFD10095201C40210022039BFFF7D3
:103A30006DFF002811D12023636700225033E25428
:103A40000CE002200AE0012008E0012006E001204D
:103A500004E0022002E0032000E0032005B0F0BDF6
:103A600030B583B0041C0023C367FEF727F9051C9B
:103A700023681B681B070AD5134B0093201C802169
:103A8000890300222B1CFFF741FF002816D1236871
:103A90001B685B070AD50C4B0093201C8021C903CF
:103AA00000222B1CFFF732FF002809D12023636777
:103AB000A36700225033E254002002E0032000E01C
:103AC000032003B030BDC046FFFFFF0110B5002842
:103AD0002DD0041C436F002B04D100227033C2543C
:103AE000FDF73EFC242363672268136801218B43A2
:103AF0001360201CFFF7D2FC012819D0636A002B49
:103B000002D0201CFFF792FE22685168094B0B403F
:103B10005360226893682A218B439360226811685E
:103B200001230B431360201CFFF79AFF00E00120E4
:103B300010BDC046FFB7FFFF104B1A688021490037
:103B40000A431A60D9680E4A0A40DA6019680D4AB9
:103B50000A401A609A6801218A439A6019680A4AE1
:103B60000A401A60D968094A0A40DA6000221A61DC
:103B700080221205064B9A607047C0460010024032
:103B80000C40FF88F6FFF6FEFFFFFBFFFFFF02FF82
:103B900000ED00E00D488546002103E00C4B5B582A
:103BA000435004310B480C4B42189A42F6D30B4A4F
:103BB00002E0002313600432094B9A42F9D3FFF765
:103BC000BBFF00F011F8FCF7FFFDFEE700500020FE
:103BD0002C5E0008000000201400002014000020CB
:103BE0000C070020FEE700000E4B70B500251E1CE0
:103BF0000D4CE41AA410A54204D0AB00F35898472A
:103C00000135F8E700F01EF8084B00251E1C084C93
:103C1000E41AA410A54204D0AB00F358984701352C
:103C2000F8E770BD245E0008245E0008245E0008EA
:103C3000285E00080023C25C0133002AFBD1581E15
:103C400070470000F8B5C046F8BC08BC9E467047F7
:0C3C5000F8B5C046F8BC08BC9E467047A2
:103C5C004C30373100000000544553542E2E0000D8
:103C6C006C6F67206D6F646500000000646F776E89
:103C7C006C6F61642E2E2E000D0A00006C6F672095
:103C8C0062616E6B20312073746172740D0A2A2A82
:103C9C002A2A2A2A2A2A2A2A2A0D0A002A2A2A2ADF
:103CAC002A2A2A2A2A2A0D0A6C6F672062616E6BF7
:103CBC0020312066696E6973680D0A006C6F67208D
:103CCC0062616E6B20322073746172740D0A2A2A41
:103CDC002A2A2A2A2A2A2A2A2A0D0A002A2A2A2A9F
:103CEC002A2A2A2A2A2A0D0A6C6F672062616E6BB7
:103CFC0020322066696E6973680D0A0000000000AE
:103D0C0000000000000000000000000000000000A7
:103D1C000000000000000000000000000000000097
:103D2C000000000C000C000C000C000C000C000C33
:103D3C00000C000C000C000C0000000C000C00002F
:103D4C00000000000000001B001B001B001B001BE0
:103D5C000000000000000000000000000000000057
:103D6C00000000000000000000008019801980197C
:103D7C008019C07FC07F80190033C07FC07F0033A3
:103D8C000033003300330000000000000000001E70
:103D9C00003F807580650074003C001E00078005A4
:103DAC00806580658075003F001E000400040000E3
:103DBC000000007000D840D8C0D880D9007300062D
:103DCC00000C801BC036C066C046C00680030000D5
:103DDC00000000000000001E003F003300330033E1
:103DEC00001E000CC03CC066806380618063C03ED6
:103DFC00801C0000000000000000000C000C000CF7
:103E0C00000C000C0000000000000000000000008E
:103E1C000000000000000000000000008000000115
:103E2C000003000600060004000C000C000C000C43
:103E3C00000C000C000400060006000300018000CA
:103E4C00002000100018000C000C000400060006F6
:103E5C0000060006000600060004000C000C00180A
:103E6C00001000200000000C002D003F001E00334D
:103E7C000000000000000000000000000000000036
:103E8C000000000000000000000000000000000C1A
:103E9C00000C000C000CC0FFC0FF000C000C000C50
:103EAC00000C0000000000000000000000000000FA
:103EBC0000000000000000000000000000000000F6
:103ECC00000000000000000C000C000400040008BE
:103EDC0000000000000000000000000000000000D6
:103EEC000000001E001E000000000000000000008A
:103EFC0000000000000000000000000000000000B6
:103F0C000000000000000000000000000000000C99
:103F1C00000C000000000000000000030003000380
:103F2C000006000600060006000C000C000C000C3D
:103F3C000018001800180000000000000000001E0F
:103F4C00003F0033806180618061806D806D806195
:103F5C00806180610033003F001E00000000000003
:103F6C0000000006000E001E0036002600060006AB
:103F7C00000600060006000600060006000600000B
:103F8C00000000000000001E003F80738061806113
:103F9C00800100030006000C001800300060807FD8
:103FAC00807F0000000000000000001C003E006349
:103FBC0000630003000E000E00038001800180618D
:103FCC008073003F001E000000000000000000068F
:103FDC00000E000E001E001E001600360036006695
:103FEC00807F807F000600060006000000000000B5
:103FFC000000007F007F006000600060006E007FAA
:10400C0080638001800180618073003F001E00008E
:10401C00000000000000001E003F80338061006043
:10402C00006E007F80738061806180618033003F0F
:10403C00001E0000000000000000807F807F8001D7
:10404C000003000300060006000C000C000C000826
:10405C000018001800180000000000000000001EEE
:10406C00003F8063806180610021001E003F806101
:10407C00806180618061003F001E00000000000034
:10408C000000001E003F00738061806180618073BE
:10409C00803F801D800180610073003F001E000086
:1040AC000000000000000000000000000000000CF8
:1040BC00000C000000000000000000000000000CDC
:1040CC00000C0000000000000000000000000000D8
:1040DC0000000000000C000C0000000000000000BC
:1040EC000000000C000C000400040008000000009C
:1040FC000000000080008003000E003800600038D3
:10410C00000E800380000000000000000000000092
:10411C0000000000000000000000807F807F000095
:10412C000000807F807F0000000000000000000085
:10413C0000000000000000000000000000400070C3
:10414C00001C000780010007001C007000400000EC
:10415C0000000000000000000000001F803FC07144
:10416C00C060C000C00180030007000E000C000CF2
:10417C000000000C000C0000000000000000001EFD
:10418C00003F803180718063806F806D806D806FA7
:10419C00806700600032003E001C00000000000040
:1041AC000000000E000E001B001B001B001B8031CA
:1041BC008031803F803F8031C060C060C0600000B3
:1041CC00000000000000007C007E006300630063C0
:1041DC000063007E007E0063806180618063007FED
:1041EC00007E0000000000000000001E003F803137
:1041FC0080610060006000600060006000608061B1
:10420C008031003F001E0000000000000000007C18
:10421C00007F006380638061806180618061806168
:10422C00806100630063007E007C000000000000E1
:10423C000000807F807F0060006000600060007F75
:10424C00007F0060006000600060807F807F000065
:10425C00000000000000807F807F00600060006034
:10426C000060007F007F0060006000600060006004
:10427C0000600000000000000000001E003F8031C4
:10428C008061006000600060806380638061806199
:10429C008031803F001E00000000000000008061A3
:1042AC0080618061806180618061807F807F8061BE
:1042BC00806180618061806180610000000000008D
:1042CC000000003F003F000C000C000C000C000C28
:1042DC00000C000C000C000C000C003F003F000018
:1042EC00000000000000800180018001800180013D
:1042FC008001800180018001806180618073003FBA
:10430C00001E0000000000000000C060806100631F
:10431C0000660066006C0078007C00660066006336
:10432C0080618061C060000000000000000000603F
:10433C000060006000600060006000600060006071
:10434C00006000600060807F807F00000000000043
:10435C000000C071C071C07BC07AC06AC06AC06EF8
:10436C00C064C060C060C060C060C060C06000005D
:10437C000000000000008071807180798079807964
:10438C00806D806D806D80658067806780678063DD
:10439C0080630000000000000000001E003F00339E
:1043AC0080618061806180618061806180618061F9
:1043BC000033003F001E0000000000000000007EE3
:1043CC00007F80638061806180618063007F007EFC
:1043DC0000600060006000600060000000000000F1
:1043EC000000001E003F00338061806180618061AD
:1043FC0080618061806580670033803F401E0000D3
:10440C00000000000000007E007F806380618061FE
:10441C008063007F007E00660063006380618061C2
:10442C00C0600000000000000000000E001F803182
:10443C00803100300038001E0007800380618061ED
:10444C008031003F001E0000000000000000C0FF93
:10445C00C0FF000C000C000C000C000C000C000C3D
:10446C00000C000C000C000C000C00000000000004
:10447C000000806180618061806180618061806109
:10448C0080618061806180618073003F001E00004C
:10449C00000000000000C060C060C060803180314E
:1044AC008031001B001B001B001B000E000E000EB9
:1044BC0000040000000000000000C0C0C0C0C0C06C
:1044CC00C0C0C0C0C0CC804C804C805E805280523A
:1044DC008073806180610000000000000000C0C09B
:1044EC00806080610033003B001E000C000C001E3D
:1044FC00001F003B80718061C0C000000000000004
:10450C000000C0C08061806100330033001E001EBB
:10451C00000C000C000C000C000C000C000C00003B
:10452C00000000000000803F803F8001000300037A
:10453C000006000C000C0018001800300060807F92
:10454C00807F000000000000000F000F000C000C2A
:10455C00000C000C000C000C000C000C000C000CEF
:10456C00000C000C000C000C000F000F00000018D9
:10457C0000180018000C000C000C000C00060006C3
:10458C00000600060003000300030000000000000A
:10459C00001E001E000600060006000600060006AF
:1045AC0000060006000600060006000600060006CF
:1045BC00001E001E0000000C000C001E0012003338
:1045CC0000338061806100000000000000000000EA
:1045DC0000000000000000000000000000000000CF
:1045EC0000000000000000000000000000000000BF
:1045FC000000000000000000E0FF00000000003898
:10460C000018000C0000000000000000000000007A
:10461C00000000000000000000000000000000008E
:10462C0000000000000000000000001F803F8061BF
:10463C008001801F803F80618063807FC0380000D4
:10464C000000000000000060006000600060006E70
:10465C00007F807380618061806180618073007FE6
:10466C00006E0000000000000000000000000000D0
:10467C000000001E003F807380610060006080615C
:10468C008073003F001E000000000000000080014D
:10469C00800180018001801D803F8073806180617A
:1046AC00806180618073803F801D000000000000ED
:1046BC0000000000000000000000001E003F00731E
:1046CC008061807F807F00608071003F001E000051
:1046DC00000000000000C007C00F000C000C807F21
:1046EC00807F000C000C000C000C000C000C000C6B
:1046FC00000C0000000000000000000000000000A2
:10470C00801D803F807380618061806180618073D7
:10471C00803F801D80018063007F003E00000060B0
:10472C00006000600060006F807F8071806180613C
:10473C008061806180618061806100000000000008
:10474C0000000006000600000000003E003E0006CF
:10475C000006000600060006000600060006000023
:10476C00000000000006000600000000003E003EB5
:10477C0000060006000600060006000600060006FD
:10478C0000060046007E003C0000006000600060F7
:10479C000060806100630066006C007C0076006342
:1047AC0000638061C0600000000000000000003E5B
:1047BC00003E000600060006000600060006000685
:1047CC0000060006000600060006000000000000BF
:1047DC000000000000000000000080DDC0FFC0CE23
:1047EC00C0CCC0CCC0CCC0CCC0CCC0CCC0CC0000E9
:1047FC000000000000000000000000000000006F3E
:10480C00807F807180618061806180618061806166
:10481C0080610000000000000000000000000000AB
:10482C000000001E003F80738061806180618061A8
:10483C008073003F001E000000000000000000001C
:10484C0000000000006E007F8073806180618061D9
:10485C0080618073007F006E00600060006000600B
:10486C000000000000000000801D803F807380610C
:10487C008061806180618073803F801D8001800138
:10488C0080018001000000000000000000000067B3
:10489C00803F0039003000300030003000300030F4
:1048AC0000300000000000000000000000000000CC
:1048BC000000001E803F80610060007F803F80010F
:1048CC008061007F001E000000000000000000005E
:1048DC00000800180018007F007F0018001800184E
:1048EC00001800180018801F800F00000000000046
:1048FC000000000000000000000080618061806109
:10490C0080618061806180618063807F803D000078
:10491C000000000000000000000000000000C0606B
:10492C00803180318031001B001B001B000E000EFB
:10493C000006000000000000000000000000000065
:10494C00000080DD80DD80DD0055005500550077CE
:10495C000077002200220000000000000000000090
:10496C00000000000000806100330033001E000CCA
:10497C00000C001E003300338061000000000000BA
:10498C000000000000000000806180618031003375
:10499C000033001B001B001B000E000E000E001C41
:1049AC00007C007000000000000000000000C07FD0
:1049BC00C07F800100030006000C00180030C07F8F
:1049CC00C07F000000000000800380070006000686
:1049DC00000600060006000E001C001C000E00065F
:1049EC00000600060006000680078003000600068D
:1049FC00000600060006000600060006000600067B
:104A0C00000600060006000600060006000600066A
:104A1C000038003C000C000C000C000C000C000ECC
:104A2C0000070007000E000C000C000C000C000C22
:104A3C00003C0038000000000000000000000000F6
:104A4C0000008038807F004700000000000000005C
:104A5C00000000000000000000000000000000004A
:104A6C00000000000000000000000000000000003A
:104A7C00000000000000000000000000000000002A
:104A8C00000000000000000000000000E003E00354
:104A9C00E003E003E003E003E003E003C003C00332
:104AAC00C001C001C001C001C00100000000000035
:104ABC00E003E003E0030000000000000000000041
:104ACC003C1E3C1E3C1E3C1E3C1E3C1E3C1E000064
:104ADC0000000000000000000000000000000000CA
:104AEC0000000000000000000000000000000000BA
:104AFC0000000000CE01CE03DE039E039C039C0746
:104B0C00FF3FFF7F3807380F780F780F780EFFFFC5
:104B1C00FFFFF01EF01CE01CE03CE03DE039000023
:104B2C000000000000000000FC03FE0FEE1FE01E62
:104B3C00E01EE01EE01EE01FE00FE007F003FC01AA
:104B4C00FE01FE01FE01FE01FE01FE01FE3DFC3FE9
:104B5C00F00FE001E001000000000000033E07F749
:104B6C008FE78EE79EE3BCE3B8E7F8E7F0F7E03FAA
:104B7C00C001FF03FF07F307F30FF31EF33CF338F9
:104B8C00F3787FF03FE00000000000000000000020
:104B9C00E007F80F780F781F781F781F780FF00F49
:104BAC00E00F801FC37FC3FBE7F3F7F1F7F0FFF0D3
:104BBC007FF03EF87F7CFF3FEF1F000000000000FD
:104BCC0000000000E003E003E003E003E003C003A7
:104BDC00C001000000000000000000000000000008
:104BEC0000000000000000000000000000000000B9
:104BFC0000000000000000003F007C00F001E0011C
:104C0C00C003C00780078007800F000F000F000F44
:104C1C00000F000F000F800F80078007C007C00334
:104C2C00E001F0017C003F000F000000007E001F3F
:104C3C00C007C003E001F001F000F000F8007800BC
:104C4C0078007800780078007800F800F000F00028
:104C5C00F001E001C003C007001F007E00780000D7
:104C6C00E003C003C001CE39FF3F7F3F2003700338
:104C7C00F807780F3C1F3806000000000000000009
:104C8C000000000000000000000000000000000018
:104C9C000000000000000000000000000000000008
:104CAC00C001C001C001C001C001C001C001FFFFB3
:104CBC00FFFFC001C001C001C001C001C001000064
:104CCC0000000000000000000000000000000000D8
:104CDC0000000000000000000000000000000000C8
:104CEC0000000000000000000000E003E003E0030F
:104CFC00E003E001E001E001C001800300000000DE
:104D0C000000000000000000000000000000000097
:104D1C000000FE3FFE3F000000000000000000000D
:104D2C000000000000000000000000000000000077
:104D3C000000000000000000000000000000000067
:104D4C000000000000000000000000000000000057
:104D5C000000E003E003E003E003000000000000BB
:104D6C00000000000F000F001E001E003C003C0065
:104D7C0078007800F000F000E001E001C003C0030F
:104D8C0080078007000F000F001E001E003C003C37
:104D9C000078007800F00000F007F80F7C1F3E3E12
:104DAC001E3C1F7C1F7C0F780F780F780F780F78C4
:104DBC000F780F781F7C1F7C1E3C3E3E7C1FF80F2B
:104DCC00F00700000000000000000000F000F007F9
:104DDC00F03FF03FF001F001F001F001F001F001C3
:104DEC00F001F001F001F001F001F001F001F0012F
:104DFC00F001FF3FFF3F000000000000000000003A
:104E0C00E00FF83F7C3C3C003E003E003E003C0086
:104E1C003C007C00F800F001E003C0078007000FA5
:104E2C00001E003E003CFE3FFE3F00000000000064
:104E3C0000000000F00FF81F7C1C3E003E003E00FE
:104E4C003C003C00F800F00FF80F7C003E001E0008
:104E5C001E001E001E003E007C1CF81FE01F000000
:104E6C0000000000000000007800F800F800F801D5
:104E7C00F803F807F807780F781E781E783C7878D6
:104E8C007878FFFFFFFF78007800780078007800D2
:104E9C00780000000000000000000000FC1FFC1F58
:104EAC00FC1F001E001E001E001E001EE01FF81F2F
:104EBC00FC007C003E003E001E003E003E003C001C
:104ECC007C1CF81FE01F0000000000000000000028
:104EDC00FC01FE078E0F001F001E003E003C003C34
:104EEC00F83DFC3F3E7F1F7E0F3C0F3C0F3C0F3CC0
:104EFC000F3E1F1E3E1FFC0FF003000000000000C1
:104F0C0000000000FF3FFF3FFF3F0F001E001E0090
:104F1C003C0038007800F000F000E001E001C00334
:104F2C00C0038007800F800F000F001F001F0000C0
:104F3C000000000000000000F807FC0F3E1F1E1EC2
:104F4C001E3E1E3E1E1E3C1FF80FF007F80FFC1EE7
:104F5C003E3E1F3C1F7C0F7C0F7C1F3C3E3FFC1FCA
:104F6C00F00700000000000000000000F007F80F40
:104F7C007C1E3E3C1E3C1F7C1F7C1F7C1F7C1F3CF0
:104F8C003F3EFF1FEF071F001E001E003E003C00AF
:104F9C00F838F03FE01F00000000000000000000A7
:104FAC00000000000000000000000000E003E0032F
:104FBC00E003E0030000000000000000000000001F
:104FCC000000E003E003E003E00300000000000049
:104FDC0000000000000000000000000000000000C5
:104FEC00E003E003E003E003000000000000000029
:104FFC00000000000000E003E003E003E003E00138
:10500C00E001E001C003800300000000000000008C
:10501C000000000003000F003F00FC00F003C00F75
:10502C00003F00FE003FC00FF003FC003F000F00EC
:10503C000300000000000000000000000000000061
:10504C000000000000000000000000000000000054
:10505C00FFFFFFFF000000000000FFFFFFFF00004C
:10506C000000000000000000000000000000000034
:10507C0000000000000000000000000000E000F84C
:10508C00007E801FE007F8017E001F007E00F80103
:10509C00E007801F007E00F800E000000000000028
:1050AC0000000000F01FFC3F3E381F381F381E0068
:1050BC001E003C007800F000E001C003C003C007F4
:1050CC00C007000000000000C007C007C0070000B8
:1050DC000000000000000000F803FE0F1E1F0F3E32
:1050EC007F3CFF78EF79C773C7F38FF38FF38FF3A0
:1050FC009FF39FF3FF73FF7BF779003C1C1FFC0FA2
:10510C00F803000000000000000000000000000098
:10511C000000E003E003F007F007F007780F780FCA
:10512C007C0E3C1E3C1E3E3CFE3FFF3F1F780F7822
:10513C000FF007F007F00000000000000000000076
:10514C00000000000000F83FFC3F3E3C1E3C1E3CB3
:10515C001E3C3E3C7C3CF03FF83F7E3C1F3C1F3CE1
:10516C000F3C0F3C1F3CFE3FF83F000000000000CE
:10517C0000000000000000000000FF01FF07871F77
:10518C00003E003C007C00780078007800780078C5
:10519C00007C007C003E003F831FFF07FF010000E6
:1051AC000000000000000000000000000000F07F84
:1051BC00FC7F7E781F781F780F780F780F780F7828
:1051CC000F780F780F780F781F781E787E78F87F1D
:1051DC00E07F000000000000000000000000000064
:1051EC000000FF3FFF3F003E003E003E003E003E01
:1051FC00003EFE3FFE3F003E003E003E003E003EB5
:10520C00003EFF3FFF3F00000000000000000000D8
:10521C00000000000000FF1FFF1F001E001E001EEC
:10522C00001E001E001EFF1FFF1F001E001E001E82
:10523C00001E001E001E001E001E000000000000CC
:10524C0000000000000000000000FE03FF0F871F9D
:10525C00003E007C007C007800F800F87FF87FF8B6
:10526C000F780F7C0F7C0F3E8F1FFF0FFE0300008B
:10527C0000000000000000000000000000001F7C87
:10528C001F7C1F7C1F7C1F7C1F7C1F7C1F7CFF7F57
:10529C00FF7F1F7C1F7C1F7C1F7C1F7C1F7C1F7C47
:1052AC001F7C000000000000000000000000000057
:1052BC000000FF3FFF3FE003E003E003E003E003F7
:1052CC00E003E003E003E003E003E003E003E003BA
:1052DC00E003FF3FFF3F0000000000000000000063
:1052EC00000000000000FC1FFC1F7C007C007C0008
:1052FC007C007C007C007C007C007C007C007C00C2
:10530C0078007800F838F03FC03F00000000000043
:10531C00000000000000000000001F3C1E3C3C3C54
:10532C00783CF03CE03DE03FC03F803FC03FE03F79
:10533C00F03DF03C783C7C3C3E3C1F3C0F3C00007C
:10534C000000000000000000000000000000003E13
:10535C00003E003E003E003E003E003E003E003E51
:10536C00003E003E003E003E003E003E003EFF3F41
:10537C00FF3F0000000000000000000000000000E3
:10538C0000001FF81FFC1FFC3FFE3FFE3FFE7FFF8F
:10539C0077FF77FFF7F7E7F7E7F3E7F3C7F307F0E4
:1053AC0007F007F007F0000000000000000000000C
:1053BC000000000000000F7C0F7C0F7E0F7F0F7F22
:1053CC008F7F8F7FCF7FEF7BEF79FF79FF78FF782F
:1053DC007F783F783F781F781F780000000000002E
:1053EC0000000000000000000000F007FC1F3E3E23
:1053FC001F7C0F780F780FF80FF80FF80FF80FF8D5
:10540C000FF80F780F781F7C3E3EFC1FF007000052
:10541C000000000000000000000000000000FC3F45
:10542C00FF3F1F3E0F3E0F3E0F3E0F3E1F3E3F3EC7
:10543C00FC3FF03F003E003E003E003E003E003E82
:10544C00003E000000000000000000000000000012
:10545C000000F007FC1F3E3E1F7C0F780F780FF802
:10546C000FF80FF80FF80FF80FF80F780F781F7C64
:10547C003E3EFC1FF8077C003F000F0003000000BD
:10548C00000000000000F03FFC3F7E3C3E3C1E3C18
:10549C001E3C3E3C3C3CFC3CF03FE03FF03DF83CCD
:1054AC007C3C3E3C1E3C1F3C0F3C000000000000BE
:1054BC0000000000000000000000FC07FE1F0E3E74
:1054CC00003C003C003C003EC01FF80FFE037F0078
:1054DC001F000F000F001F203E3CFC3FF01F000080
:1054EC000000000000000000000000000000FFFFB2
:1054FC00FFFFE003E003E003E003E003E003E0036D
:10550C00E003E003E003E003E003E003E003E00377
:10551C00E00300000000000000000000000000009C
:10552C0000000F7C0F7C0F7C0F7C0F7C0F7C0F7CA2
:10553C000F7C0F7C0F7C0F7C0F7C0F7C1E3C1E3C69
:10554C003E3EFC1FF00700000000000000000000C1
:10555C0000000000000007F007F007F80F780F7C40
:10556C001E3C1E3C1E3E3C1E3C1F781F780FF80F45
:10557C00F007F007F007E003E00300000000000074
:10558C000000000000000000000003E003F003F046
:10559C0007F0E7F3E7F3E7F3E773F77BF77FFF7FBA
:1055AC007F7F7F7F7E7F7E3F3E3E3E3E3E3E0000C5
:1055BC00000000000000000000000000000007F8E0
:1055CC000F7C1E3E3E3E3C1FF80FF007E007E00349
:1055DC00E003F007F80F7C0F7C1E3E3C1F780F7821
:1055EC000FF00000000000000000000000000000B0
:1055FC00000007F807780F7C1E3C1E3E3C1F780FFE
:10560C00F80FF007E003E003E003E003E003E0033E
:10561C00E003E003E00300000000000000000000D5
:10562C00000000000000FF7FFF7F0F001F003E0006
:10563C007C00F800F000E001E003C007800F000FD1
:10564C00001E003E007CFF7FFF7F0000000000007A
:10565C0000000000FF078007800780078007800795
:10566C0080078007800780078007800780078007F6
:10567C0080078007800780078007800780078007E6
:10568C008007FF07FF07000000780078003C003C13
:10569C00001E001E000F000F80078007C003C00310
:1056AC00E001E001F000F000780078003C003C00E4
:1056BC001E001E000F000F0007000000F07FF0001E
:1056CC00F000F000F000F000F000F000F000F0004E
:1056DC00F000F000F000F000F000F000F000F0003E
:1056EC00F000F000F000F000F000F07FF07F000020
:1056FC00C000C001C001E003E003F007F007780729
:10570C00780F380F3C1E3C1E1E3C1E3C0F380F7889
:10571C0007780000000000000000000000000000FE
:10572C00000000000000000000000000000000006D
:10573C00000000000000000000000000000000005D
:10574C000000000000000000000000000000FFFF4F
:10575C00FFFF000000000000F0000000000000004F
:10576C00000000000000000000000000000000002D
:10577C00000000000000000000000000000000001D
:10578C00000000000000000000000000000000000D
:10579C000000000000000000F80FFC3F7C3C3E00C5
:1057AC003E003E00FE07FE1F3E3E3E7C3E783E7CA9
:1057BC007E7CFF3FCF1F00000000000000000000B7
:1057CC00003C003C003C003C003C003CF83DFE3FF3
:1057DC003E3F1F3E0F3C0F3C0F3C0F3C0F3C0F3C21
:1057EC001F3C1E3C3E3FFC3FF03B00000000000015
:1057FC00000000000000000000000000000000009D
:10580C00FE03FF0F871F003E003E003C007C007C27
:10581C00007C003C003E003E871FFF0FFE03000093
:10582C0000000000000000001F001F001F001F00F0
:10583C001F001F00FF07FF1F3F3E1F3C1F7C1F7CEC
:10584C001F7C1F781F781F7C1F7C3F3C7F3EFF1FF7
:10585C00DF0F00000000000000000000000000004E
:10586C000000000000000000F803FC0F3E1F1E3E6D
:10587C001F3C1F7CFF7FFF7F007C007C003C003EB8
:10588C00071FFF0FFE0300000000000000000000D7
:10589C00FF01E103C003C007C007C007FF7FFF7F04
:1058AC00C007C007C007C007C007C007C007C007B4
:1058BC00C007C007C007C007C007000000000000F9
:1058CC0000000000000000000000000000000000CC
:1058DC00EF07FF1F7F3E1F3C1F7C1F7C1F781F782C
:1058EC001F781F7C1F7C3F3C7F3EFF1FDF0F1E007D
:1058FC001E001E007C38F83F003C003C003C003C85
:10590C00003C003CFC3DFE3F9E3F1F3F1F3E1F3CAA
:10591C001F3C1F3C1F3C1F3C1F3C1F3C1F3C1F3CA3
:10592C001F3C00000000000000000000F001F0012E
:10593C000000000000000000E07FE07FE001E001DB
:10594C00E001E001E001E001E001E001E001E00143
:10595C00E001E001E0010000000000000000000098
:10596C00F800F8000000000000000000F83FF83FCD
:10597C00F800F800F800F800F800F800F800F8005B
:10598C00F800F800F800F800F800F800F800F00053
:10599C00F071E07F003C003C003C003C003C003CD3
:1059AC001F3C3E3C7C3CF83CF03DE03DC03FC03FE2
:1059BC00E03FF03DF83C7C3C3E3C1F3C1F3C000073
:1059CC000000000000000000F07FF001F001F00189
:1059DC00F001F001F001F001F001F001F001F00133
:1059EC00F001F001F001F001F001F001F001F00123
:1059FC00F0010000000000000000000000000000AA
:105A0C0000000000000000009EF7FFFFFFFFFFFFFB
:105A1C00E7FBE7F9C7F1C7F1C7F1C7F1C7F1C7F168
:105A2C00C7F1C7F1C7F10000000000000000000042
:105A3C00000000000000000000000000FC3DFE3FE4
:105A4C009E3F1F3F1F3E1F3C1F3C1F3C1F3C1F3CEB
:105A5C001F3C1F3C1F3C1F3C1F3C00000000000073
:105A6C00000000000000000000000000000000002A
:105A7C00F007FC1F3E3E1F3C1F7C0F780F780F7801
:105A8C000F780F781F7C1F3C3E3EFC1FF007000078
:105A9C0000000000000000000000000000000000FA
:105AAC0000000000F83DFE3F3E3F1F3E0F3C0F3C08
:105ABC000F3C0F3C0F3C0F3C1F3C1E3E3E3FFC3F3F
:105ACC00F83F003C003C003C003C003C0000000067
