:020000040800F2
:1000000000500020B5290008E10C0008E50C0008AC
:1000100000000000000000000000000000000000E0
:10002000000000000000000000000000E90C0008D3
:100030000000000000000000ED0C0008F10C0008BA
:10004000052A0008052A0008052A0008052A0008D4
:10005000052A0008052A0008052A0008052A0008C4
:1000600000000000052A0008052A0008052A0008EB
:10007000052A0008052A0008052A0008052A0008A4
:10008000052A0008052A0008052A000800000000CB
:10009000052A0008052A0008052A0008052A000884
:1000A000052A0008052A0008052A0008052A000874
:1000B000052A0008052A00080000000000000000D2
:1000C00008B5054B054803331B1A062B03D9044B0F
:1000D000002B00D0984708BD040000200400002039
:1000E000000000000648074908B5091A8910CB0F1F
:1000F0005918491003D0044B002B00D0984708BD75
:1001000004000020040000200000000010B5074C8F
:100110002378002B09D1FFF7D3FF054B002B02D02A
:10012000044800E000BF0123237010BD040000203C
:1001300000000000542A000808B5094B002B03D02A
:100140000848094900E000BF08480368002B02D1B5
:10015000FFF7C8FF08BD064B002BF9D09847F7E71B
:1001600000000000542A00080800002004000020BD
:1001700000000000002243088B4274D303098B4225
:100180005FD3030A8B4244D3030B8B4228D3030C67
:100190008B420DD3FF22090212BA030C8B4202D309
:1001A0001212090265D0030B8B4219D300E0090A31
:1001B000C30B8B4201D3CB03C01A5241830B8B423A
:1001C00001D38B03C01A5241430B8B4201D34B0323
:1001D000C01A5241030B8B4201D30B03C01A524188
:1001E000C30A8B4201D3CB02C01A5241830A8B420D
:1001F00001D38B02C01A5241430A8B4201D34B02F6
:10020000C01A5241030A8B4201D30B02C01A524159
:10021000CDD2C3098B4201D3CB01C01A524183090D
:100220008B4201D38B01C01A524143098B4201D347
:100230004B01C01A524103098B4201D30B01C01A72
:100240005241C3088B4201D3CB00C01A52418308EC
:100250008B4201D38B00C01A524143088B4201D319
:100260004B00C01A5241411A00D201465241104679
:100270007047FFE701B5002000F00CF802BDC04652
:100280000029F7D003B5FFF775FF0EBC4243891A6A
:100290001847C0467047C046002B11D1002A0FD125
:1002A000002900D1002802D00021C943081C07B44E
:1002B000024802A14018029003BDC046D9FFFFFFCB
:1002C00003B4684601B5029800F022F8019B9E46EF
:1002D00002B00CBC7047C046F0B583B0161C1F1CA2
:1002E0000090019100F058F8041C0D1C221C2B1CDE
:1002F000301C391C00F026F8009A019B121A8B4121
:100300000899201C0A604B60291C03B0F0BDC04650
:10031000F0B5141C83B01D1C0090019100F034F95D
:10032000221C2B1C061C0F1C00F00CF8009A019BD1
:10033000121A8B410899301C0A604B60391C03B0BB
:10034000F0BDC046F0B54F46464605042D0C2C1CAA
:10035000C0B41704160C3F0C9946030C7C4375433C
:100360005F4373437D19260CAD199C46AF4203D9F8
:1003700080235B029846C4444B46514343432404C4
:100380002E0C240C2D0466442C1959188919201C94
:100390000CBC90469946F0BDF0B544465F465646C3
:1003A0004D46F0B41C1C85B0002900DAA9E00F1CF2
:1003B0000021061C8846101C191C002C00DA97E04E
:1003C000341C3D1C82468946B94273D870D04946D8
:1003D000504600F085F98346391C301C00F080F946
:1003E0005B46181A031C8346203B9C4600D59CE0C4
:1003F00000230022514600920193634699400191E7
:1004000051468140019B0091BB4200D983E000D15D
:100410007EE0009A019B341C3D1CA41A9D4163465A
:10042000002B00DA9AE00026002702960397013697
:100430009E400396012686400296002800D171E076
:100440000099019AD30799464B464E081E43570818
:10045000002301220CE0AF4201D1A6420AD8A41B1E
:10046000BD4124196D410138A4185D41002806D012
:10047000AF42F0D9013824196D410028F8D120226B
:10048000029E039F5B46524236196F4199185AD417
:10049000281CC8402C1C5B46DC40002968DB041C7F
:1004A0008C40231C59468840021CB61A9F4103E029
:1004B000B0428CD90026002741464B1E99410023AB
:1004C00000910193009A019B002554429D41331CE9
:1004D0006340181C3B1C6B40191C009B019CC018FE
:1004E000614105B03CBC90469946A246AB46F0BD82
:1004F0004346DB430C1C9846131C00215842A14183
:100500005EE7002746428F4101214942884652E773
:10051000B14200D87DE70026002702960397002805
:1005200000D08DE7029E039FC6E720215346091A9B
:10053000CB400022191C0023009201934B468340BC
:100540000B4301935CE75A4620239B1A2A1C9A40CE
:10055000201C131C5A46D04018439BE72026002736
:10056000331A0026029603970127DF40039761E7BD
:100570005B4620215D46C91A031CAC40CB40191CC8
:10058000231C0B438EE7C046F0B545464E46574602
:10059000E0B4041C82B00D1C914698468B4262D890
:1005A0005FD04146484600F09BF8291C061C201CE1
:1005B00000F096F82023311A5B428A46C81865D4A9
:1005C0004B4683401F1C4B468B401E1CAF4258D8E5
:1005D00055D0A41BBD41002800DA77E0002200239B
:1005E0000092019301328240019201238B400093DB
:1005F00000293CD0FB079846404672087B0802431E
:10060000012600270CE0AB4201D1A2420AD8A41A6D
:100610009D4124196D410139A4197D41002906D05D
:10062000AB42F0D9013924196D410029F8D12022BB
:100630000098019953465242001969419E183AD4D4
:100640002F1CF7405346DD40002E29DB3C1CB440F4
:10065000231C5446A7403A1C801A994100900191EE
:1006600005E082429DD90023002400930194009864
:10067000019902B01CBC90469946A246F0BDA34227
:10068000A7D90022002300920193B1E720224B4614
:10069000521AD3401A1C43468B401F1C174392E743
:1006A000534620245646E41A3B1CB540E3401C1C2C
:1006B0002B1C2343CDE7524620239B1A2A1C9A4029
:1006C000271C131C5246D7401F43BBE720230022A0
:1006D000581A0023009201930132C240019284E72C
:1006E00010B5002903D100F007F8203002E0081C03
:1006F00000F002F810BDC0461C2101231B049842E3
:1007000001D3000C10391B0A984201D3000A0839A2
:100710001B09984201D30009043902A2105C401859
:100720007047C046040302020101010100000000FD
:1007300000000000FEE7C04600B59BB0294A1168E2
:10074000294B0B40802109010B43136002230D93B9
:10075000012210920F3211921693002317931893CF
:1007600080231B0419930DA801F0D8F9002803D0A9
:100770001E489821FFF7DEFF0F2308930C3B0993D7
:100780009D330A9300230B930C9308A8002101F0DA
:10079000A5FC002803D01548A621FFF7CBFF0A23AC
:1007A000FF3300930023029305930693684601F0FC
:1007B00093FD002803D00D48B021FFF7BBFF01F0E7
:1007C00065FDFA218900FFF7D5FC02F093F80420BB
:1007D00002F0ACF8012040420021002202F058F85B
:1007E0001BB000BD00700040FFE7FFFF6C2A00084F
:1007F00008B501F031F9FFF79FFF00F00FF800F0A6
:100800004FF800F0A7F800F0D9F800F00BF900F06D
:10081000A1F900F023FA00F0DFF9FEE7F0B589B0A6
:100820001D4BDA6A01252A43DA62DA6A2A4001920C
:10083000019ADA6A02210A43DA62DB6A0B40029308
:10084000029B16480D31002202F01CF8A026F60586
:10085000C0277F01301C391C002202F013F80F233F
:10086000039304950024059406940C4803A901F011
:1008700033FFC023DB00039304940594301C03A9C9
:1008800001F02AFF0397049505940694301C03A9F0
:1008900001F022FF09B0F0BD00100240000400503A
:1008A00000B583B019481A4B03600023036480220B
:1008B000D20542608360C36301220261C3600362A8
:1008C0004362C362C222FF3282620363BE3AFF3ACE
:1008D0004261436383618363C36100F047FA002888
:1008E00003D00C484D21FFF725FF012300938023FF
:1008F0005B0101930548694600F02AFB002803D0FC
:1009000004485621FFF716FF03B000BD2000002069
:1009100000240140782A000800B587B002680B4B1C
:100920009A4210D10A4A536B802189000B435363CA
:10093000012301930233029300230393A020C005F7
:1009400001A901F0C9FE07B000BDC0460024014066
:100950000010024008B51548154B0360154B436065
:10096000002383600122C260036143618361C3612C
:10097000036200F049FB002803D00F484421FFF731
:10098000D9FE0A48002100F0A3FB002803D00A4842
:100990004B21FFF7CFFE0548002100F0C5FB0028E2
:1009A00003D005485221FFF7C5FE08BDCC0000204A
:1009B0000054004009050000842A000808B51548C5
:1009C000154B0360154B4360002383600122C26016
:1009D000036143618361C361036200F015FB00287A
:1009E00003D00F486521FFF7A5FE0A48002100F05B
:1009F0006FFB002803D00A486C21FFF79BFE0548D7
:100A0000002100F091FB002803D005487321FFF777
:100A100091FE08BD180100200058004009050000A3
:100A2000842A000808B51548154B0360154B436030
:100A3000002383600122C260036143618361C3615B
:100A4000036200F0E1FA002803D00F488621FFF787
:100A500071FE0A48002100F03BFB002803D00A4841
:100A60008D21FFF767FE0548002100F05DFB00289F
:100A700003D005489421FFF75DFE08BD80000020EB
:100A80000078004009050000842A0008F0B587B00E
:100A900003682B4A934215D1C0239B000193122374
:100AA0000293113B039302330493013305932548CA
:100AB00001A901F011FE244A936B802189030B43A5
:100AC00093633BE0214A934215D1C023DB0101939C
:100AD00012230293113B03930233049302330593D1
:100AE000184801A901F0F8FD174A936B8021C9034A
:100AF0000B43936322E0164A93421FD180235B008D
:100B000001931227029701260396032504950724D3
:100B10000594A020C00501A901F0DEFD102301937A
:100B20000297039604950594064801A901F0D4FDA7
:100B3000054A936B8021C9050B43936307B0F0BD51
:100B400000540040000400500010024000580040D3
:100B50000078004008B50D480D4B036082235B0010
:100B6000436000238360C360036143618361C361A9
:100B70000362436283620733C36200F0FFFA002816
:100B800003D004484521FFF7D5FD08BD64010020CE
:100B900000300140902A000800B587B002680C4B75
:100BA0009A4213D10B4A536B802149010B43536383
:100BB000F0230193EE3B029300230393032204925C
:100BC0000593A020C00501A901F086FD07B000BD76
:100BD000003001400010024000B587B01648802365
:100BE000DB050360002343608360C360036100F0A2
:100BF0008DFB002803D011483E21FFF79BFD802389
:100C00005B0102930C4802A900F09AFB002803D074
:100C10000A484421FFF78EFD002300930193064804
:100C2000694600F01DFC002803D004484B21FFF763
:100C300081FD07B000BDC046BC0100209C2A000811
:100C400002688023DB059A4204D1034A916B012399
:100C50000B4393637047C0460010024008B50C4830
:100C60000C4B0360E1235B02436000238360C3609D
:100C700003610C2242618361C3610362436200F03D
:100C80009FFE002803D004484421FFF753FD08BD10
:100C9000F401002000380140A82A000800B587B000
:100CA00002680C4B9A4212D10B4A536B8021C90146
:100CB0000B435363C0230193BE3B02930023039372
:100CC000032204920593054801A901F005FD07B030
:100CD00000BDC04600380140001002400004005032
:100CE0007047C046FEE7C0467047C0467047C046E2
:100CF00008B500F0C1FE01F02BFE08BD08B50E4B93
:100D0000596B01220A435A639A6B802149050A43B1
:100D10009A63052040420021002201F0B9FD022023
:100D200040420021002201F0B3FD01204042002199
:100D3000002201F0ADFD08BD0010024010B582B0E8
:100D4000041C084B18680849FFF714FA444301943F
:100D500002E0019B013B0193019B002BF9D102B002
:100D600010BDC0460000002040420F0038B50028EA
:100D700000D1DFE0041C836D002B04D1C365542235
:100D80008354FFF7C9FDA36DDB0604D42268936882
:100D900004210B4008D0A26D10231343A365002249
:100DA0005423E2540120C6E0A06D634901400220B3
:100DB0000143A165916801300140012904D1116806
:100DC000C90703D4002102E0002100E0012100292D
:100DD0002DD16168C0200006814207D08020C00567
:100DE000814203D080200006814209D11169890027
:100DF0008908116121680A69606802430A610CE090
:100E000011698900890811614C4A10684C490140F8
:100E1000116011686068014311602168CA68182078
:100E20008243CA602168CA68A0680243CA60434915
:100E30000868444A02400A600868A26B52060243EE
:100E40000A6022689168C90004D491688020400536
:100E5000014391602168C8683B4A0240CA6020682B
:100E6000C568E2682169022900D104231A43236A74
:100E700059030A43236B59000A43636B1343A26966
:100E800091030B43E269D20313432B43C360A36A6C
:100E9000C222FF32934205D02268D168E06A034340
:100EA0000B43D360636A012B11D1236A002B06D157
:100EB0002268D368802149020B43D36007E0A26D0A
:100EC00020231343A365E26D01231343E365236CE1
:100ED000012B13D1226811691C4B0B40136122684E
:100EE0001169636CA06C0343E06C03430B43136113
:100EF0002268116901230B43136107E023681A6913
:100F0000D20703D51A6901218A431A6122685369FD
:100F100007218B43536122685369E16B0B43536193
:100F20000023E365A36D03229343023A1343A365B1
:100F3000002000E0012038BDFDFEFFFF0827014032
:100F4000FFFFC3FFFFFFFFFD1902FEFF03FCFFFFD2
:100F500038B55423C35C012B4CD001225423C25416
:100F6000026893685B0708D5826D2023134383656D
:100F700000225423C25401203DE00D1C041C1E4BD2
:100F8000496899421BD0916A2B685B035B0B0B434A
:100F900093622B685B0308D5184A13688021090403
:100FA0000B4313600A20FFF7C9FE2B689B031CD577
:100FB000124A13688021C9030B43136015E0916A3C
:100FC0002B685B035B0B994391622B685B0304D531
:100FD0000A4A11680A4B0B4013602B689B0304D527
:100FE000064A1168074B0B40136000225423E25459
:100FF000002000E0022038BD011000000827014059
:10100000FFFF7FFFFFFFBFFF10B5002858D0041C73
:101010004123C35C002B04D100224033C254FFF7AC
:1010200035FD24224123E2542268136801218B43B9
:1010300013602268234B61680B401361226891683A
:10104000214B0B409360E368012B06D1226880237B
:101050001B02A1680B43936005E0226884231B02F6
:10106000A1680B439360E368022B03D123688022BD
:1010700012015A602268536814490B435360226876
:10108000D168114B0B40D3602168226963691A4310
:10109000A3691B021343CB602268E369216A0B43F7
:1010A00013602268116801230B43136000236364FB
:1010B00020214122A15423630132A354002000E0E7
:1010C000012010BDFFFFFFF0FF7FFFFF0080000247
:1010D000F0B54123C35C202B20D12033C35C012B0E
:1010E0001ED0402401230355412524224255066881
:1010F00032689A433260066837680A4A3A4032607A
:101100000268166831431160026811680B4313606E
:101110002023435500230355002002E0022000E075
:101120000220F0BDFFEFFFFFF0B54123C35C202B91
:101130001ED12033C35C012B1CD040240123035556
:10114000412524224255066832689A433260066877
:101150003768094A3A400902114331600268116850
:101160000B4313602023435500230355002002E066
:10117000022000E00220F0BDFFF0FFFF38B500289C
:101180003CD0041C5123C35C002B04D100225033FB
:10119000C254FFF701FD51210223635422681368F2
:1011A00040208343136020686368A2681343E268A9
:1011B0001343226913436269134380229200A56995
:1011C0002A401343E2691343226A1343A26A13437A
:1011D00003602268638B04200340606A034353600A
:1011E0002368E26A1A612268D069054B0340D36123
:1011F0000023636501336354002000E0012038BD03
:10120000FFF7FFFF03688022D20590420AD01E4AF2
:10121000904209D01D4A904208D01D4A904207D101
:10122000012206E0012204E0012202E0012200E0A6
:101230000022002A03D0702293434A68134380227D
:10124000D20590420AD0104A904209D00F4A9042EB
:1012500008D00F4A904207D1012206E0012204E0A3
:10126000012202E0012200E00022002A03D0094A04
:101270001340CA68134303608B68C3620B688362C0
:10128000012343617047C04600040040000801404C
:1012900000140140FFFCFFFF30B5046A036A01251A
:1012A000AB4303628369EF35AB4312011A430A2350
:1012B0009C4321438261016230BDC04630B5036A60
:1012C0001024A34303628569036A054C2C40120372
:1012D0002243A024A343090119438261016230BD66
:1012E000FF0FFFFF836870229343693A114319434C
:1012F0008160704730B58568034C2C401B021A434F
:1013000011432143816030BDFF00FFFF38B5002845
:1013100014D0041C3523C35C002B04D100223433C9
:10132000C254FFF78DFC352502236355211C01C9EA
:10133000FFF768FF01236355002000E0012038BD5E
:1013400010B53422825C012A00D184E00B1C041CFD
:1013500001213422815401310132815401688868AD
:101360003E4A02408A601A68402A4FD00AD8102AA2
:101370005BD002D8002A53D065E0202A5AD0302A08
:101380005DD060E0702A14D004D8502A2AD0602A98
:1013900032D058E0802149018A4204D0802189015D
:1013A0008A4212D04FE02268936807218B439360F2
:1013B00049E099685A68DB682068FFF79BFF22685C
:1013C000916877230B4393603DE099685A68DB6826
:1013D0002068FFF78FFF226893688021C9010B43C3
:1013E000936030E05968DA682068FFF755FF20689D
:1013F0005021FFF777FF26E05968DA682068FFF789
:101400005DFF20686021FFF76DFF1CE05968DA6816
:101410002068FFF741FF20684021FFF763FF12E0DB
:1014200020680021FFF75EFF0DE020681021FFF724
:1014300059FF08E020682021FFF754FF03E02068EF
:101440003021FFF74FFF01223523E2540022013BF8
:10145000E254002000E0022010BDC0468800FFFFDB
:10146000F0B53423C35C012B1ED0342201258554F2
:10147000352402230355066873687027BB437360E5
:10148000066873680F683B4373600668B36880271B
:10149000BB43B3600668B7684B683B43B360055510
:1014A00000238354002000E00220F0BDF8B5051CA5
:1014B00083680269134342691343C2691A4301688E
:1014C0000868BD4B034013430B602A685168BB4B4F
:1014D0000B40E9680B435360AB692A68B8498A42FC
:1014E00001D0296A0B439068B64901400B439360D1
:1014F0002B68B54A934214D1B44BDB6C03221340E2
:10150000012B08D0002B04D0022B4BD0032B04D08E
:1015100005E0012451E004244FE008244DE01024AC
:101520004BE0AB4A934216D1A84BDB6C0C22134024
:10153000042B0AD002D8002B05D00AE0082B33D0A8
:101540000C2B04D005E0002437E0042435E0082407
:1015500033E0102431E09F4A934227D09E4A9342C1
:1015600026D0974A934225D1984BDA6CC0231B01B1
:1015700013408022D20093420ED002D8002B09D013
:101580000EE080221201934216D0C0221201934233
:1015900004D005E0002410E004240EE008240CE050
:1015A00010240AE0022408E0022406E0002404E0FB
:1015B000002402E0102400E00224022000F070FF6A
:1015C0002E687F4B9E4240D1022C0FD002D8002CB7
:1015D00008D016E0042C10D0082C12D10024802052
:1015E000000213E000F058FE00240FE0774B1B6868
:1015F000DB0609D50024794808E000F027FD002427
:1016000004E00124002001E000247548002800D1F6
:10161000F5E06A6853009B18834200D9C6E01303C3
:10162000834200D2C4E0070E060250080021801950
:1016300079410023FEF730FE6A4BC2186A4B9A428A
:1016400000D9B7E02B68D860D9E080231B02EA6993
:101650009A4258D1082C4BD8A400644B1B599F4682
:1016600040006B685B08C0186968FEF783FD80B2B4
:1016700000243FE000F020FE40006B685B08C018CB
:101680006968FEF777FD80B2002433E04F4B1B689A
:10169000DB060AD56B685808554B9C466044696860
:1016A000FEF768FD80B2002424E06B685808514BB7
:1016B0009C4660446968FEF75DFD80B2002419E035
:1016C00000F0C4FC40006B685B08C0186968FEF756
:1016D00051FD80B200240DE06B68580880235B0246
:1016E0009C4660446968FEF745FD80B2002401E035
:1016F000012400200F23021C9A430007400F1043CF
:101700002B68D8607BE0082C78D8A4003A4B1B5992
:101710009F4600F0C1FD69684B08C018FEF72AFD1E
:101720000004000CF060002469E000F0C5FD696869
:101730004B08C018FEF71EFD0004000CF0600024EA
:101740005DE0224B1B68DB060BD569684808234B1C
:101750009C466044FEF70EFD0004000CF06000247F
:101760004DE0696848081E4B9C466044FEF702FD48
:101770000004000CF060002441E000F067FC6968A0
:101780004B08C018FEF7F6FC0004000CF0600024C3
:1017900035E06968480880231B029C466044FEF7D8
:1017A000E9FC0004000CF060002428E0012426E09D
:1017B000012424E0012422E0F369FFEFFFCFFFFFC3
:1017C00000480040FFF4FFFF0038014000100240D5
:1017D00000440040004C00400050004000093D0023
:1017E0000024F40000FDFFFFFFFC0F00B42A0008F6
:1017F00000127A000048E801D82A00080124201CC1
:10180000F8BDC046436ADB0706D5026851682C4B19
:101810000B40816A0B435360436A9B0706D50268FD
:101820005168284B0B40C16A0B435360436A5B0706
:1018300006D502685168244B0B40016B0B43536083
:10184000436A1B0706D502685168204B0B40416B69
:101850000B435360436ADB0606D5026891681C4B54
:101860000B40816B0B439360436A9B0606D502686D
:101870009168184B0B40C16B0B439360436A5B0646
:1018800012D502685168144B0B40016C0B43536036
:1018900080235B03026C9A4206D1026851680F4BA9
:1018A0000B40416C0B435360436A1B0606D501682D
:1018B0004A680B4B1340826C13434B607047C04621
:1018C000FFFFFDFFFFFFFEFFFFFFFBFFFF7FFFFFAF
:1018D000FFEFFFFFFFDFFFFFFFFFEFFFFFFF9FFFB8
:1018E000FFFFF7FFF0B5474680B4061C0C1C171C21
:1018F0009846069D1DE06B1C1BD0002D05D000F006
:10190000C3F84346C01AA84213D9326811680F4B76
:101910000B4013603268936801218B43936020234E
:101920006922B3540132B35400224833F2540320E5
:1019300008E03368DB6923401B1B5A425341BB421A
:10194000D9D0002004BC9046F0BDC0465FFEFFFF2A
:1019500030B583B0041C0023C36600F095F8051C65
:1019600023681B681B070AD5144B0093201C802199
:10197000890300222B1CFFF7B5FF002818D123682C
:101980001B685B070AD50D4B0093201C8021C903FF
:1019900000222B1CFFF7A6FF00280BD12023692271
:1019A000A3540132A35400224833E254002002E041
:1019B000032000E0032003B030BDC046FFFFFF015D
:1019C00010B500282FD0041C6923C35C002B04D160
:1019D00000226833C254FFF761F924226923E254DC
:1019E0002268136801218B431360636A002B02D0C5
:1019F000201CFFF707FF201CFFF758FD012813D01C
:101A000022685168094B0B405360226893682A2171
:101A10008B4393602268116801230B431360201CE1
:101A2000FFF796FF00E0012010BDC046FFB7FFFFA3
:101A300010B5041C074B1868FA218900FEF79AFBC1
:101A400000F058FF01204042211C002200F020FF3E
:101A5000002010BD0000002008B5064A1168402390
:101A60000B4313600020FFF7E3FFFFF747F9002067
:101A700008BDC04600200240024A136801331360CB
:101A80007047C04664020020014B18687047C0468A
:101A90006402002010B51D4BDB68F0221A4222D1EF
:101AA0001A4B9B6BDB0005D5194B1A68C0235B01F1
:101AB00013400EE0154A936B802149050B43936355
:101AC000134B1968C0235B010B40946B11492140F3
:101AD0009163C0225201934207D1C0231B02984256
:101AE00005D0002004E0002002E0002000E00120FA
:101AF000094A136801218B430343136013680B40A9
:101B0000834201D0012000E0002010BD00100240FF
:101B100000700040FFFFFFEF0020024070B582B070
:101B2000041C0368DB0761D5C84BDB680C2213403B
:101B3000082B08D0C54BDB6813400C2B0BD1C34BD3
:101B4000DB68DB0307D5C14B1B689B034ED563687D
:101B5000002B4BD13FE2636880225202934206D1B0
:101B6000BA4A1368802149020B4313601EE0A02289
:101B7000D20293420BD1B54B1A688021C9020A43A5
:101B80001A601A68802149020A431A600EE0AF4BBE
:101B90001968AF4A0A401A601968802252020A4046
:101BA0000192019A1968AB4A0A401A606368002BD7
:101BB0000ED0FFF769FF051C05E0FFF765FF401B2E
:101BC000642800D909E2A14B1B689B03F5D50DE001
:101BD000FFF75AFF051C05E0FFF756FF401B64287E
:101BE00000D9FCE1994B1B689B03F5D423689B0744
:101BF00052D5964BDB680C221340042B08D0934B34
:101C0000DB6813400C2B14D1904BDB68DB0310D442
:101C10008E4B1B685B0703D5E368012B00D0E0E126
:101C20008A494A688C4B13402269120213434B6065
:101C300032E0E268002A1CD084490B680920834303
:101C400013430B60FFF720FF051C05E0FFF71CFFA7
:101C5000401B022800D9C6E17C4B1B685B07F5D509
:101C60007A494A687C4B13402269120213434B6045
:101C700012E0764A136801218B431360FFF704FFDB
:101C8000051C05E0FFF700FF401B022800D9ACE16E
:101C90006E4B1B685B07F5D42368DB0600D488E035
:101CA0006A4BDB680C221A424AD1684B1B689B05C1
:101CB00003D5A369002B00D199E1206A634B5A68D0
:101CC000E0231B021340984213D9FFF7E3FE0028DC
:101CD00000D08EE15D494A68604B1340226A13438D
:101CE0004B604B681B021B0AE269120613434B60F0
:101CF00012E056494A68594B1340184348604B68F4
:101D00001B021B0AE269120613434B60206AFFF7AD
:101D1000C1FE002800D06EE1236A5B0B01338022F4
:101D200012029A40131C494AD2681206120F4C49FB
:101D30008A5CD3404B4A13600020FFF779FE38E0FD
:101D4000A369002B22D0414A1368802149000B432C
:101D50001360FFF799FE051C05E0FFF795FE401B99
:101D6000022800D949E1394B1B689B05F5D5374955
:101D70004A683A4B1340226A13434B604B681B027C
:101D80001B0AE269120613434B6012E02F4A1168E6
:101D9000354B0B401360FFF777FE051C05E0FFF79E
:101DA00073FE401B022800D929E1284B1B689B05C4
:101DB000F5D423681B0729D56369002B13D0234A68
:101DC000116D01230B431365FFF75EFE051C05E053
:101DD000FFF75AFE401B022800D912E11B4B1B6D76
:101DE0009B07F5D512E0194A136D01218B4313654A
:101DF000FFF74AFE051C05E0FFF746FE401B0228E0
:101E000000D900E1114B1B6D9B07F5D423685B07DC
:101E100000D490E00D4B9B6BDB0007D40B4A936B17
:101E2000802149050B439363012500E000250F4BFA
:101E30001B68DB0526D40D4A1368802149000B433B
:101E40001360FFF721FE061C18E0C0460010024098
:101E5000FFFFFEFFFFFFFBFFFFE0FFFFFF1FFFFF96
:101E6000FC2A000800000020FFFEFFFF0070004079
:101E7000FFF70AFE801B642800D9C6E06B4B1B6885
:101E8000DB05F5D5A36880225200934206D1684A4B
:101E9000136D802149000B43136524E0002B09D109
:101EA000634B196D634A0A401A65196D624A0A400C
:101EB0001A6518E0A022D20093420BD15C4B1A6D38
:101EC0008021C9000A431A651A6D802149000A431E
:101ED0001A6508E0564B196D564A0A401A65196D85
:101EE000554A0A401A65A368002B0FD0FFF7CCFDB6
:101EF000061C06E0FFF7C8FD801B504B984200D936
:101F000085E04B4B1B6D9B05F4D50DE0FFF7BCFD49
:101F1000061C05E0FFF7B8FD801B484B984278D8B7
:101F2000434B1B6D9B05F5D4012D04D1404A916BA9
:101F3000434B0B409363636A002B6CD03C4AD268DE
:101F40000C210A400C2A68D0022B30D1384A116883
:101F50003C4B0B401360FFF797FD051C04E0FFF7B7
:101F600093FD401B02285AD8314B1B689B01F6D4C5
:101F70002F49C868344B1840A36AE26A1343226BA6
:101F800013430343CB600B688022520413430B605E
:101F9000FFF77AFD041C04E0FFF776FD001B022822
:101FA0003FD8234B1B689B01F6D500203CE0204A1C
:101FB0001168244B0B401360FFF766FD041C04E01E
:101FC000FFF762FD001B02282DD8194B1B689B01EF
:101FD000F6D4002028E0012026E0032024E003209E
:101FE00022E0012020E003201EE003201CE001206D
:101FF0001AE0012018E0012016E0032014E003207D
:1020000012E0032010E003200EE003200CE0032088
:102010000AE0032008E0002006E0012004E003209D
:1020200002E0032000E0032002B070BD0070004019
:1020300000100240FFFEFFFFFFFBFFFF88130000C0
:10204000FFFFFFEFFFFFFFFEFFFF02FF08B51E4B84
:10205000D9680C230B40082B31D00C2B07D0042B54
:1020600023D1194B1B68DB062BD518482AE08B02BD
:102070001B0F174AD05C0902890F0131124BDB6834
:10208000DB0304D5134B5843FEF774F81AE00E4BEC
:102090001B68DB0604D50D4B5843FEF76BF811E0C7
:1020A0000D4B5843FEF766F80CE0074B58680004E8
:1020B000400F013080231B028340181C02E00548BA
:1020C00000E0054808BDC0460010024000093D0080
:1020D000142B000800127A000024F40070B5644B41
:1020E0001B68012213408B420AD2614A1368012403
:1020F000A3430B431360136823408B4200D0A3E03B
:1021000003689B0706D55B4AD368F024A343846821
:102110002343D3600D1C041C0368DB075FD54368B1
:10212000022B04D1534A1268920313D48EE0032B7E
:1021300004D1504A126892010CD489E0012B04D1D9
:102140004C4A1268520705D484E04A4A1268920544
:1021500000D481E04749CA68032082431343CB601F
:10216000FFF792FC061C6368022B0DD105E0FFF718
:102170008BFC801B404B984270D83E4BDB680C2296
:102180001340082BF3D12AE0032B0DD105E0FFF714
:102190007BFC801B384B984262D8364BDB680C22A4
:1021A00013400C2BF3D11AE0012B13D105E0FFF7FC
:1021B0006BFC801B304B984254D82E4BDB680C22B2
:1021C0001340042BF3D10AE0FFF75EFC801B2A4B7F
:1021D000984249D8274BDB680C221A42F4D1244B91
:1021E0001B6801221340AB4209D9214A136801211F
:1021F0008B432B43136013680B40AB4236D12368EB
:102200005B0706D51B4AD1681C4B0B40E1680B43AA
:10221000D36023681B0707D51649CA68184B1340BB
:102220002269D2001343CB60FFF710FF114BDB682C
:102230001B061B0F134AD35CD840134B18600020B9
:10224000FFF7F6FB002012E0012010E001200EE075
:1022500001200CE001200AE0012008E0032006E054
:10226000032004E0032002E0032000E0012070BD11
:10227000002002400010024088130000FFF8FFFF1A
:10228000FFC7FFFFFC2A000800000020014B186870
:102290007047C0460000002008B5FFF7F7FF044B69
:1022A000DB685B055B0F034AD35CD84008BDC046C2
:1022B000001002400C2B000808B5FFF7E7FF044BA5
:1022C000DB689B045B0F034AD35CD84008BDC04663
:1022D000001002400C2B000870B5041C03689B061C
:1022E00000D482E0644B9B6BDB0007D4624A936BA3
:1022F000802149050B439363012500E000255F4BD6
:102300001B68DB0513D45D4A1368802149000B4329
:102310001360FFF7B9FB061C05E0FFF7B5FB801B58
:10232000642800D99FE0554B1B68DB05F5D5524B5F
:102330001A68C0239B031A4061680B4093420AD07D
:10234000C0239B020A1C1A409A4204D14A4B1B68C4
:102350009B0300D589E0484B1A6DC0239B021340B4
:1023600025D0C02292021140994220D023689B06BA
:102370001DD5414B186D424A0240196D8026360327
:10238000314319651E6D3F49314019651A65C30512
:102390000DD5FFF779FB061C05E0FFF775FB801BE9
:1023A000394B984263D8344B1B6D9B05F5D5626859
:1023B000C0239B02111C1940994208D12E48016884
:1023C000324B1940C0239B031A400A4302602A4A39
:1023D000116DC0239B02606803400B431365012D00
:1023E00003D1916B2A4B0B4093632368DB0706D51F
:1023F000214AD36C03218B43A1680B43D364236828
:102400009B0706D51C4AD36C0C218B43E1680B4318
:10241000D36423685B0706D5174AD16C1D4B0B406C
:1024200021690B43D36423681B0706D5124AD16C7C
:10243000194B0B4061690B43D3642368DB0506D558
:102440000D4AD16C0E4B0B40A1690B43D36423683A
:102450001B060ED50849CA6C104B1340E2691343A2
:10246000CB64002006E0032004E0012002E003200A
:1024700000E0002070BDC046001002400070004027
:10248000FFFFFCFFFFFFF7FF88130000FFFFCFFFF8
:10249000FFFFFFEFFFF3FFFFFFCFFFFFFFFFF3FFA4
:1024A00008B5082800D1A6E008D8022866D004287C
:1024B00000D17EE0012800D0D4E041E0202808D0FF
:1024C00080235B00984200D1B4E0102800D0C9E01E
:1024D000A9E07A4B196D1A6DC0239B02134080222C
:1024E0005202934202D18A0500D5BDE080229202B9
:1024F000934202D18A0700D5B9E0C02292029342EA
:1025000000D0B6E06D4B1B689B0300D4B3E06B4B6F
:102510001A68C0239B03134080229203934200D188
:10252000ABE0C0229203934204D080225203934234
:1025300004D101E06248C0E06248BEE06248BCE00D
:102540005E4BDB6C0322134002D1FFF7B5FEB4E013
:10255000022B04D1594A1268520700D58FE0012B93
:1025600002D1FFF773FDA8E0032B00D089E0534BA5
:102570001B6D9B0500D586E000209EE04F4BDB6C79
:102580000C22134002D1FFF787FE96E0082B03D1FF
:102590004A4A1268520779D4042B02D1FFF756FD3C
:1025A0008BE00C2B74D1454B1B6D9B0572D4002026
:1025B00083E0424BDA6CC0231B01134002D1FFF7CA
:1025C0006BFE7AE080221201934203D13B4A1268EB
:1025D000520762D48022D200934202D1FFF736FD27
:1025E0006BE0C0221201934259D1344B1B6D9B0505
:1025F00057D4002061E0314BDA6CC0239B011340BB
:1026000002D1FFF749FE58E080229201934203D1A4
:102610002A4A1268520747D480225201934245D178
:10262000FFF714FD49E0254B9B6B5B0240D5FFF79C
:1026300033FE42E0214BDA6CC0239B02134002D1EF
:10264000FFF72AFE39E080229202934203D11B4A0F
:10265000126852072ED48022520293422CD1FFF7E7
:10266000F5FC2AE0002028E08020000225E0174841
:1026700023E0002021E000201FE015481DE0154860
:102680001BE0002019E08020000216E0114814E051
:10269000002012E0802000020FE00E480DE0002034
:1026A0000BE08020000208E00A4806E0002004E079
:1026B000002002E0074800E0002008BD00100240B2
:1026C00020A1070080841E0000093D0088900000C2
:1026D00040420F000024F400F0B54F464646C0B417
:1026E00083B00023B2E001249C402240914600D1F7
:1026F000ABE04D68022D01D0122D0ED1DD0808355A
:10270000AE00375807251D40AD000F22AA40974361
:102710000A69AA40151C3D4335504D686F1E012FB4
:1027200003D9112D01D0122D13D185685E00032726
:10273000B740BD432F1CCD68B5403D438560476819
:10274000A7434A68D506ED0F2C1C019A94403C43E0
:10275000446005685F000324A446BC40E443254070
:102760002E1C65464A681540BD4035430560C56866
:102770002C408D68BD402C43C4604A68D20064D5AB
:10278000384D6E6B012434436C639C08A51CAD006E
:10279000354EAE5903271F40BD000F27AF40BE4343
:1027A000A027FF05B8421AD0304FB84215D0304F9D
:1027B000B84210D02F4FB8420BD02F4FB84206D09E
:1027C0002E4FB84201D105270AE0062708E004276A
:1027D00006E0032704E0022702E0012700E00027CB
:1027E000AF403D1C35430234A4001F4EA551244C7C
:1027F00025684A46D4432E1C26404A68D20302D597
:102800004A4615432E1C1E4D2E606D682E1C264018
:102810004A68920302D54A4615432E1C184D6E6035
:10282000AD682E1C26404A68D20202D54A4615439E
:102830002E1C134DAE60ED682C404A68920202D502
:102840004A462A43141C0E4AD46001330A68019395
:10285000141CDC4000D046E703B00CBC90469946FF
:10286000F0BDC046001002400000014000040050CE
:1028700000080050000C005000100050001C0050D8
:1028800000040140002A01D0816100E081627047AC
:1028900070B5002816DAC0B20F230340083B9B082E
:1028A0009B00124A944663445A6803242040C000A7
:1028B000FC34251C8540AA438901214081400A43FC
:1028C0005A6011E083080A4CC0339B001A59032553
:1028D0002840C000FC352E1C8640B24389012940A7
:1028E0008140081C1043185170BDC04618ED00E02F
:1028F00000E100E001380A4B98420FD8094A5060C5
:1029000009490B6A1B021B0AC020000603430B6225
:102910000023936007331360002000E0012070471C
:10292000FFFFFF0010E000E000ED00E0042805D10B
:10293000054A116804230B43136004E0024A13683C
:1029400004218B431360704710E000E07047C046DD
:1029500008B5FFF7FBFF08BD104B1A68802149003E
:102960000A431A60D9680E4A0A40DA6019680D4AAB
:102970000A401A609A6801218A439A6019680A4AD3
:102980000A401A60D968094A0A40DA6000221A61CE
:1029900080221205064B9A607047C0460010024024
:1029A0000C40FF88F6FFF6FEFFFFFBFFFFFF02FF74
:1029B00000ED00E00D488546002103E00C4B5B581C
:1029C000435004310B480C4B42189A42F6D30B4A41
:1029D00002E0002313600432094B9A42F9D3FFF757
:1029E000BBFF00F011F8FDF703FFFEE700500020E9
:1029F000302B00080000002004000020040000200C
:102A000068020020FEE700000E4B70B500251E1C7A
:102A10000D4CE41AA410A54204D0AB00F35898471B
:102A20000135F8E700F016F8084B00251E1C084C8D
:102A3000E41AA410A54204D0AB00F358984701351E
:102A4000F8E770BD282B0008282B0008282B000869
:102A50002C2B0008F8B5C046F8BC08BC9E46704751
:0C2A6000F8B5C046F8BC08BC9E467047A4
:102A6C005372632F6D61696E2E6300005372632F76
:102A7C006164632E630000005372632F6932632E0E
:102A8C00630000005372632F7370692E63000000A3
:102A9C005372632F74696D2E630000005372632FA1
:102AAC0075736172742E630060160008741600084A
:102ABC008C160008F0160008C0160008F016000866
:102ACC00F0160008F0160008D816000812170008B7
:102ADC002A17000842170008FC1700087A1700088C
:102AEC00FC170008FC170008FC17000892170008D8
:102AFC0000000000000000000102030406070809A2
:102B0C000000000001020304030406080C10182046
:042B1C003000000085
:082B200078D8FF7F01000000DE
:042B28003901000867
:042B2C000D0100088F
:042B300080841E007F
:04000005080029B511
:00000001FF
