:020000040800F2
:100000000050002081330008210E0008250E000852
:1000100000000000000000000000000000000000E0
:10002000000000000000000000000000290E000891
:1000300000000000000000002D0E0008310E000836
:10004000D1330008D1330008D1330008D133000880
:10005000D1330008D1330008D1330008D133000870
:1000600000000000D1330008D1330008D13300086C
:10007000D1330008D1330008D13300083D0E000809
:10008000D1330008D1330008D1330008000000004C
:10009000D1330008D1330008D1330008D133000830
:1000A000D1330008D1330008D1330008D133000820
:1000B000D1330008D1330008000000000000000028
:1000C00008B5054B054803331B1A062B03D9044B0F
:1000D000002B00D0984708BD140000201400002019
:1000E000000000000648074908B5091A8910CB0F1F
:1000F0005918491003D0044B002B00D0984708BD75
:1001000014000020140000200000000010B5074C6F
:100110002378002B09D1FFF7D3FF054B002B02D02A
:10012000044800E000BF0123237010BD140000202C
:10013000000000002034000808B5094B002B03D054
:100140000848094900E000BF08480368002B02D1B5
:10015000FFF7C8FF08BD064B002BF9D09847F7E71B
:1001600000000000203400081800002014000020C7
:1001700000000000002243088B4274D303098B4225
:100180005FD3030A8B4244D3030B8B4228D3030C67
:100190008B420DD3FF22090212BA030C8B4202D309
:1001A0001212090265D0030B8B4219D300E0090A31
:1001B000C30B8B4201D3CB03C01A5241830B8B423A
:1001C00001D38B03C01A5241430B8B4201D34B0323
:1001D000C01A5241030B8B4201D30B03C01A524188
:1001E000C30A8B4201D3CB02C01A5241830A8B420D
:1001F00001D38B02C01A5241430A8B4201D34B02F6
:10020000C01A5241030A8B4201D30B02C01A524159
:10021000CDD2C3098B4201D3CB01C01A524183090D
:100220008B4201D38B01C01A524143098B4201D347
:100230004B01C01A524103098B4201D30B01C01A72
:100240005241C3088B4201D3CB00C01A52418308EC
:100250008B4201D38B00C01A524143088B4201D319
:100260004B00C01A5241411A00D201465241104679
:100270007047FFE701B5002000F00CF802BDC04652
:100280000029F7D003B5FFF775FF0EBC4243891A6A
:100290001847C0467047C046002B11D1002A0FD125
:1002A000002900D1002802D00021C943081C07B44E
:1002B000024802A14018029003BDC046D9FFFFFFCB
:1002C00003B4684601B5029800F022F8019B9E46EF
:1002D00002B00CBC7047C046F0B583B0161C1F1CA2
:1002E0000090019100F058F8041C0D1C221C2B1CDE
:1002F000301C391C00F026F8009A019B121A8B4121
:100300000899201C0A604B60291C03B0F0BDC04650
:10031000F0B5141C83B01D1C0090019100F034F95D
:10032000221C2B1C061C0F1C00F00CF8009A019BD1
:10033000121A8B410899301C0A604B60391C03B0BB
:10034000F0BDC046F0B54F46464605042D0C2C1CAA
:10035000C0B41704160C3F0C9946030C7C4375433C
:100360005F4373437D19260CAD199C46AF4203D9F8
:1003700080235B029846C4444B46514343432404C4
:100380002E0C240C2D0466442C1959188919201C94
:100390000CBC90469946F0BDF0B544465F465646C3
:1003A0004D46F0B41C1C85B0002900DAA9E00F1CF2
:1003B0000021061C8846101C191C002C00DA97E04E
:1003C000341C3D1C82468946B94273D870D04946D8
:1003D000504600F085F98346391C301C00F080F946
:1003E0005B46181A031C8346203B9C4600D59CE0C4
:1003F00000230022514600920193634699400191E7
:1004000051468140019B0091BB4200D983E000D15D
:100410007EE0009A019B341C3D1CA41A9D4163465A
:10042000002B00DA9AE00026002702960397013697
:100430009E400396012686400296002800D171E076
:100440000099019AD30799464B464E081E43570818
:10045000002301220CE0AF4201D1A6420AD8A41B1E
:10046000BD4124196D410138A4185D41002806D012
:10047000AF42F0D9013824196D410028F8D120226B
:10048000029E039F5B46524236196F4199185AD417
:10049000281CC8402C1C5B46DC40002968DB041C7F
:1004A0008C40231C59468840021CB61A9F4103E029
:1004B000B0428CD90026002741464B1E99410023AB
:1004C00000910193009A019B002554429D41331CE9
:1004D0006340181C3B1C6B40191C009B019CC018FE
:1004E000614105B03CBC90469946A246AB46F0BD82
:1004F0004346DB430C1C9846131C00215842A14183
:100500005EE7002746428F4101214942884652E773
:10051000B14200D87DE70026002702960397002805
:1005200000D08DE7029E039FC6E720215346091A9B
:10053000CB400022191C0023009201934B468340BC
:100540000B4301935CE75A4620239B1A2A1C9A40CE
:10055000201C131C5A46D04018439BE72026002736
:10056000331A0026029603970127DF40039761E7BD
:100570005B4620215D46C91A031CAC40CB40191CC8
:10058000231C0B438EE7C046F0B545464E46574602
:10059000E0B4041C82B00D1C914698468B4262D890
:1005A0005FD04146484600F09BF8291C061C201CE1
:1005B00000F096F82023311A5B428A46C81865D4A9
:1005C0004B4683401F1C4B468B401E1CAF4258D8E5
:1005D00055D0A41BBD41002800DA77E0002200239B
:1005E0000092019301328240019201238B400093DB
:1005F00000293CD0FB079846404672087B0802431E
:10060000012600270CE0AB4201D1A2420AD8A41A6D
:100610009D4124196D410139A4197D41002906D05D
:10062000AB42F0D9013924196D410029F8D12022BB
:100630000098019953465242001969419E183AD4D4
:100640002F1CF7405346DD40002E29DB3C1CB440F4
:10065000231C5446A7403A1C801A994100900191EE
:1006600005E082429DD90023002400930194009864
:10067000019902B01CBC90469946A246F0BDA34227
:10068000A7D90022002300920193B1E720224B4614
:10069000521AD3401A1C43468B401F1C174392E743
:1006A000534620245646E41A3B1CB540E3401C1C2C
:1006B0002B1C2343CDE7524620239B1A2A1C9A4029
:1006C000271C131C5246D7401F43BBE720230022A0
:1006D000581A0023009201930132C240019284E72C
:1006E00010B5002903D100F007F8203002E0081C03
:1006F00000F002F810BDC0461C2101231B049842E3
:1007000001D3000C10391B0A984201D3000A0839A2
:100710001B09984201D30009043902A2105C401859
:100720007047C046040302020101010100000000FD
:1007300000000000FEE7C04600B59BB0294A1168E2
:10074000294B0B40802109010B43136002230D93B9
:10075000012210920F3211921693002317931893CF
:1007600080231B0419930DA801F0B4FE002803D0C8
:100770001E48D921FFF7DEFF0F2308930C3B099396
:100780009D330A9300230B930C9308A8002102F0D9
:1007900081F9002803D01548E721FFF7CBFF0A2392
:1007A000FF3300930023029305930693684602F0FB
:1007B0006FFA002803D00D48F121FFF7BBFF02F0CC
:1007C00041FAFA218900FFF7D5FC02F079FD0420F7
:1007D00002F092FD012040420021002202F034FD8F
:1007E0001BB000BD00700040FFE7FFFF3834000879
:1007F00010B5C0B001F0FEFDFFF79EFF00F078F8E5
:1008000000F0B8F800F010F900F042F900F074F9C7
:1008100000F00AFA00F04AFA2E48012100F058FBD5
:1008200000F0A8FB642001F003FE012000F064FB4F
:1008300000F076FB642001F0FBFD002000F05CFB83
:1008400000F06EFB642001F0F3FD0020002100F0B9
:1008500099FC214C214821686268012300F07CFC4E
:1008600000201E2100F08EFC1D48216862680123D3
:1008700000F072FC00F054FB00F0BEFA00F0A8FAA1
:10088000002400F0BFFA0028FBD000F0AFFA0134DA
:10089000E30FE41801221440E41A002000F02CFBBE
:1008A0000320002100F06EFC002C02D00D4B0093C1
:1008B00005E00D4B1A6800921B796A4613710B4BC9
:1008C000684619685A68012300F046FC00F028FBCE
:1008D000D7E7C046F4080020080000204434000890
:1008E0004C3400086F646400543400080000002099
:1008F000F0B589B01D4BDA6A01252A43DA62DA6A5B
:100900002A400192019ADA6A02210A43DA62DB6A1A
:100910000B400293029B16480D31012202F08EFC1F
:10092000A026F605C0277F01301C391C002202F0EA
:1009300085FC0F23039304950024059406940C482A
:1009400003A902F0A5FBC023DB00039304940594E4
:10095000301C03A902F09CFB0397049505940694B0
:10096000301C03A902F094FB09B0F0BD0010024056
:100970000004005000B583B019481A4B03600023EF
:100980000364C022120642608360C36301220261D5
:10099000C36003624362C362C222FF3282620363A6
:1009A000BE3AFF3A4261436383618363C36100F0EF
:1009B00007FC002803D00C484D21FFF7BBFE0123A4
:1009C000009380235B0101930548694600F0EAFC2F
:1009D000002803D004485621FFF7ACFE03B000BD49
:1009E00048080020002401405C34000800B587B0AE
:1009F00002680B4B9A4210D10A4A536B802189003E
:100A00000B435363012301930233029300230393A7
:100A1000A020C00501A902F03BFB07B000BDC04605
:100A2000002401400010024008B51648164B036030
:100A3000E123DB004360002383600122C260036185
:100A400043618361C361036200F024FE002803D088
:100A50000E484421FFF76EFE0A48002100F062FFB5
:100A6000002803D009484B21FFF764FE0548002108
:100A700000F084FF002803D004485221FFF75AFEFB
:100A800008BDC046F4080020005400406834000847
:100A900008B51648164B0360E123DB0043600023D2
:100AA00083600122C260036143618361C3610362A9
:100AB00000F0F0FD002803D00E486521FFF73AFE54
:100AC0000A48002100F02EFF002803D009486C21BD
:100AD000FFF730FE0548002100F050FF002803D04A
:100AE00004487321FFF726FE08BDC04640090020D8
:100AF000005800406834000808B51648164B0360DB
:100B0000E123DB004360002383600122C2600361B4
:100B100043618361C361036200F0BCFD002803D020
:100B20000E488621FFF706FE0A48002100F0FAFE73
:100B3000002803D009488D21FFF7FCFD054800215E
:100B400000F01CFF002803D004489421FFF7F2FDB9
:100B500008BDC046A808002000780040683400089E
:100B6000F0B587B003682B4A934215D1C0239B0090
:100B7000019312230293113B039302330493013335
:100B80000593254801A902F083FA244A936B80213A
:100B900089030B4393633BE0214A934215D1C02361
:100BA000DB01019312230293113B0393023304935D
:100BB00002330593184801A902F06AFA174A936BA9
:100BC0008021C9030B43936322E0164A93421FD14D
:100BD00080235B00019312270297012603960325C9
:100BE000049507240594A020C00501A902F050FA3D
:100BF000102301930297039604950594064801A9D2
:100C000002F046FA054A936B8021C9050B439363B2
:100C100007B0F0BD00540040000400500010024036
:100C2000005800400078004008B50D480D4B0360A7
:100C300082235B00436000238360C36003614361E0
:100C40008361C3610362436283620733C36200F05E
:100C5000BFFE002803D004484521FFF76BFD08BD07
:100C60008C090020003001407434000800B587B0C2
:100C700002680C4B9A4213D10B4A536B80214901F5
:100C80000B435363F0230193EE3B02930023039342
:100C9000032204920593A020C00501A902F0F8F9EF
:100CA00007B000BD003001400010024008B50C48FC
:100CB0000C4B0360E1235B02436000238360C3604D
:100CC00003610C2242618361C3610362436201F0EC
:100CD00045FB002803D004484421FFF72BFD08BD45
:100CE000E4090020003801408034000800B587B0D6
:100CF00002680C4B9A4212D10B4A536B8021C901F6
:100D00000B435363C0230193BE3B02930023039321
:100D1000032204920593054801A902F0B9F907B02E
:100D200000BDC046003801400010024000040050E1
:100D300000B587B019488023DB050360FA23DB0088
:100D4000436000238360FA229200C260036100F0D6
:100D500007FF002803D012483E21FFF7EBFC802359
:100D60005B0102930D4802A900F020FF002803D088
:100D70000B484421FFF7DEFC002300930193074852
:100D8000694601F03BF8002803D005484B21FFF7E6
:100D9000D1FC024800F0FEFE07B000BD540A00205E
:100DA0008C34000808B502688023DB059A420CD118
:100DB000064A916B01230B4393630F200721002206
:100DC00002F042FA0F2002F071FA08BD0010024052
:100DD00008B5024800F0DEFE08BDC046540A0020F7
:100DE0000122014B1A607047300000200022014BA5
:100DF0001A6070473000002008B5FFF7F7FFFFF7D3
:100E000097FF08BD014B18687047C04630000020AE
:100E1000024A1368013313607047C0463400002053
:100E20007047C046FEE7C0467047C0467047C046A0
:100E300008B501F0EFFA02F071FA08BD08B50248F2
:100E400000F04CFF08BDC046540A002008B50268F7
:100E50008023DB059A4203D1FFF7DAFFFFF7C0FFDB
:100E600008BDC04608B50E4B596B01220A435A63B0
:100E70009A6B802149050A439A630520404200216C
:100E8000002202F0E1F9022040420021002202F09B
:100E9000DBF9012040420021002202F0D5F908BD13
:100EA0000010024000B587B017236B441870074A42
:100EB00010680093012301930933029378210022E3
:100EC000093B00F04BFC07B000BDC04644080020C1
:100ED000054B1860012903D1044A054B1A6002E052
:100EE000044A034B1A607047440800204400002065
:100EF0003800002044040020002309E0064A12685C
:100F0000D218002801D1002100E0FF211170013327
:100F1000024A9342F2D9704738000020FF030000D4
:100F200010B584B000241CE0201C5038C0B2FFF77C
:100F3000B9FF0020FFF7B6FF1020FFF7B3FFE30172
:100F40000A4A10680A4A1268D31800938023019352
:100F50001C3B029378214022633B00F0FFFB0134ED
:100F6000E4B2072CE0D904B010BDC046440800200C
:100F70003800002008B5642001F05AFAAE20FFF7CF
:100F800091FF2020FFF78EFF1020FFF78BFFB0208E
:100F9000FFF788FFC820FFF785FF0020FFF782FFDB
:100FA0001020FFF77FFF4020FFF77CFF8120FFF735
:100FB00079FFFF20FFF776FFA120FFF773FFA62040
:100FC000FFF770FFA820FFF76DFF3F20FFF76AFFD4
:100FD000A420FFF767FFD320FFF764FF0020FFF78F
:100FE00061FFD520FFF75EFFF020FFF75BFFD92000
:100FF000FFF758FF2220FFF755FFDA20FFF752FFD7
:101000001220FFF74FFFDB20FFF74CFF2020FFF7F8
:1010100049FF8D20FFF746FF1420FFF743FFAF2065
:10102000FFF740FF0020FFF767FFFFF779FF044B52
:1010300000221A805A8001325A71012008BDC04630
:101040003C00002043B2002B27DB3F2925D8134B5F
:101050001B79002B02D053425A41D2B2012A0ED141
:10106000CB08DB01C0180E4B1B681818072319406A
:10107000063B8B40191C0378194301700DE0CB0827
:10108000DB01C018064B1B68181807231940063BE4
:101090008B40191C03788B43037070473C00002081
:1010A00038000020F0B55F4656464D464446F0B441
:1010B00083B000910192274A1288CEB292197F2AFA
:1010C0003EDC244A5288694649788A468B46524417
:1010D0003F2A37DC98468146002529E04B46203BD5
:1010E0005A4653435B195B00019A9F5A00241CE047
:1010F0003B1CA3401B040AD5164B188859880019BD
:10110000C0B24919C9B24246FFF79CFF0CE0114B2F
:10111000188859880019C0B24919C9B242465342C9
:101120005A41D2B2FFF78EFF0134A642E0D8013512
:10113000AA45D3D8074B1A8896191E80484602E064
:10114000002000E0002003B03CBC90469946A24637
:10115000AB46F0BD3C00002030B583B0041C0091CC
:1011600001921D1C09E00099019A2B1CFFF79AFFC0
:10117000031C2078834203D1013420780028F2D167
:1011800003B030BD014B1880598070473C000020EF
:1011900010B582B0041C084B18680849FEF7EAFF36
:1011A0004443019402E0019B013B0193019B002B0E
:1011B000F9D102B010BDC0461000002040420F001F
:1011C00038B5002800D1DFE0041C836D002B04D16A
:1011D000C36554228354FFF709FCA36DDB0604D4D6
:1011E0002268936804210B4008D0A26D102313439A
:1011F000A36500225423E2540120C6E0A06D634998
:10120000014002200143A16591680130014001299C
:1012100004D11168C90703D4002102E0002100E0D5
:10122000012100292DD16168C0200006814207D02C
:101230008020C005814203D080200006814209D170
:10124000116989008908116121680A69606802438F
:101250000A610CE011698900890811614C4A106823
:101260004C490140116011686068014311602168B8
:10127000CA6818208243CA602168CA68A06802430D
:10128000CA6043490868444A02400A600868A26B81
:10129000520602430A6022689168C90004D491682A
:1012A00080204005014391602168C8683B4A0240A4
:1012B000CA602068C568E2682169022900D1042358
:1012C0001A43236A59030A43236B59000A43636B89
:1012D0001343A26991030B43E269D20313432B43E7
:1012E000C360A36AC222FF32934205D02268D1684C
:1012F000E06A03430B43D360636A012B11D1236A75
:10130000002B06D12268D368802149020B43D360A9
:1013100007E0A26D20231343A365E26D012313436D
:10132000E365236C012B13D1226811691C4B0B4020
:10133000136122681169636CA06C0343E06C034382
:101340000B4313612268116901230B43136107E00A
:1013500023681A69D20703D51A6901218A431A61E1
:101360002268536907218B43536122685369E16BFB
:101370000B4353610023E365A36D03229343023AB9
:101380001343A365002000E0012038BDFDFEFFFFF0
:1013900008270140FFFFC3FFFFFFFFFD1902FEFF0B
:1013A00003FCFFFF38B55423C35C012B4CD0012252
:1013B0005423C254026893685B0708D5826D2023CA
:1013C0001343836500225423C25401203DE00D1CC9
:1013D000041C1E4B496899421BD0916A2B685B0321
:1013E0005B0B0B4393622B685B0308D5184A1368A9
:1013F000802109040B4313600A20FFF7C9FE2B6804
:101400009B031CD5124A13688021C9030B43136048
:1014100015E0916A2B685B035B0B994391622B6823
:101420005B0304D50A4A11680A4B0B4013602B6812
:101430009B0304D5064A1168074B0B40136000223A
:101440005423E254002000E0022038BD01100000C7
:1014500008270140FFFF7FFFFFFFBFFF03689A6976
:10146000920701D500229A6203689A69D20703D4D1
:10147000996901220A439A617047C046F0B5059CFC
:1014800005686E68670D8020C0003840054F3843FE
:1014900086438905890D12040A431A4314433443D1
:1014A0006C60F0BDFF63FF0370B5041C0E1C151CBF
:1014B00003689B69DB0614D400202DE0731C10D058
:1014C000002E04D000F0AEFF401BB04209D920220C
:1014D0004123E25400232232A354023AA3540320AE
:1014E0001AE023689A699206E8D51022DA61236827
:1014F0002025DD61201CFFF7B1FF22685168074BF2
:101500000B405360042363643D33E55400234222BF
:10151000A354023AA354012070BDC04600E800FE67
:1015200070B5041C0D1C161C1CE0201C291C321C50
:10153000FFF7BAFF00281BD16B1C13D0002D04D07D
:1015400000F070FF801BA8420CD9636C202213436B
:1015500063644123E25400232232A354023AA35489
:10156000032006E023689B699B07DED5002000E08E
:10157000012070BDF8B5061C0C1C171C1D1C13E0C7
:101580006B1C11D0002D05D000F04CFF069BC01A3B
:10159000A84209D920224123F25400232232B35415
:1015A000023AB354032008E033689B6923401B1BB5
:1015B0005A425341BB42E3D00020F8BD70B582B01F
:1015C000041C161C1D1CDAB21D4B009380235B0407
:1015D000FFF754FF201C0699079AFFF7A1FF002888
:1015E00004D0636C042B25D1012026E0012D03D10A
:1015F0002368F6B29E6211E02368320A9A62201CC8
:101600000699079AFFF78CFF002804D0636C042B1F
:1016100012D1012011E02368F6B29E62079B00936D
:10162000201C80210022069BFFF7A4FF002804D085
:10163000032002E0032000E0032002B070BDC0469A
:101640000020008070B5051C0C1C161C1AE0281C1C
:10165000211C321CFFF728FF002819D1002C04D0D0
:1016600000F0E0FE801BA0420CD96B6C20221343DB
:101670006B644123EA5400232232AB54023AAB5448
:10168000032006E02B689B699B06E0D5002000E064
:10169000012070BD10B5002858D0041C4123C35C44
:1016A000002B04D100224033C254FFF759FA242200
:1016B0004123E2542268136801218B43136022689E
:1016C000234B61680B40136122689168214B0B40EA
:1016D0009360E368012B06D1226880231B02A16876
:1016E0000B43936005E0226884231B02A1680B432F
:1016F0009360E368022B03D12368802212015A60B1
:101700002268536814490B4353602268D168114B17
:101710000B40D3602168226963691A43A3691B02E5
:101720001343CB602268E369216A0B43136022688C
:10173000116801230B4313600023636420214122BD
:10174000A15423630132A354002000E0012010BD06
:10175000FFFFFFF0FF7FFFFF00800002F0B587B0C2
:10176000071C0C1C039204930CAB40CB1D88412337
:10177000C35C202B00D0C1E0002E00D1C0E0002DC2
:1017800000D1BFE02033C35C012B00D1BCE00122BB
:101790004023C25400F046FE05900090381C802182
:1017A000090201221923FFF7E5FE002800D0ADE071
:1017B00021224123FA541F320133FA5400237B645F
:1017C0007E627D857B630E9B0093059B0193381C95
:1017D000211C039A049BFFF7F1FE00280CD07B6CC0
:1017E000042B04D100223C33FA54012095E000225E
:1017F0004023FA54032090E07B8D9BB2FF2B0BD942
:10180000FF233B8500230093381C211CFF228023EB
:101810005B04FFF733FE0BE07A8D92B23A85D2B2C9
:1018200000230093381C211C80239B04FFF726FE15
:10183000381C0E99059AFFF773FE002804D07B6CC4
:10184000042B65D1012068E03A687B6A591C7962F3
:101850001B7893627B8D013B9BB27B853B8D013B6B
:101860009BB23B85002B29D17B8D9BB2002B25D0D1
:10187000059B0093381C802100220E9BFFF77AFE07
:10188000002847D17B8D9BB2FF2B0BD9FF233B85D3
:1018900000230093381C211CFF2280235B04FFF7E8
:1018A000EDFD0BE07A8D92B23A85D2B2002300931F
:1018B000381C211C80239B04FFF7E0FD7B8D9BB22D
:1018C000002BB5D1381C0E99059AFFF7BBFE0028F6
:1018D00004D07B6C042B1FD101201EE03B6820222A
:1018E000DA6139684C680E4B23404B604123FA544F
:1018F00000232232BB54023ABB540EE002200CE01B
:1019000001200AE0012008E0022006E0032004E0B4
:10191000032002E0032000E0032007B0F0BDC04632
:1019200000E800FEF0B54123C35C202B20D120331A
:10193000C35C012B1ED040240123035541252422E2
:101940004255066832689A433260066837680A4A28
:101950003A403260026816683143116002681168CB
:101960000B4313602023435500230355002002E05E
:10197000022000E00220F0BDFFEFFFFFF0B54123A1
:10198000C35C202B1ED12033C35C012B1CD0402410
:1019900001230355412524224255066832689A43A3
:1019A000326006683768094A3A40090211433160DB
:1019B000026811680B43136020234355002303552D
:1019C000002002E0022000E00220F0BDFFF0FFFF57
:1019D00038B500283CD0041C5123C35C002B04D133
:1019E00000225033C254FFF741F9512102236354BE
:1019F0002268136840208343136020686368A268EC
:101A00001343E2681343226913436269134380223C
:101A10009200A5692A401343E2691343226A1343E3
:101A2000A26A134303602268638B04200340606A48
:101A3000034353602368E26A1A612268D069054B48
:101A40000340D3610023636501336354002000E049
:101A5000012038BDFFF7FFFF03688022D2059042C6
:101A60000AD01E4A904209D01D4A904208D01D4A11
:101A7000904207D1012206E0012204E0012202E0A7
:101A8000012200E00022002A03D0702293434A681A
:101A900013438022D20590420AD0104A904209D0C6
:101AA0000F4A904208D00F4A904207D1012206E027
:101AB000012204E0012202E0012200E00022002ACB
:101AC00003D0094A1340CA68134303608B68C3629A
:101AD0000B688362012343617047C04600040040E5
:101AE0000008014000140140FFFCFFFF30B5046A0C
:101AF000036A0125AB4303628369EF35AB431201EF
:101B00001A430A239C4321438261016230BDC046CF
:101B100030B5036A1024A34303628569036A054C48
:101B20002C4012032243A024A343090119438261DC
:101B3000016230BDFF0FFFFF836870229343693A53
:101B4000114319438160704730B58568034C2C40C0
:101B50001B021A4311432143816030BDFF00FFFF88
:101B600038B5002814D0041C3523C35C002B04D1E5
:101B700000223433C254FFF715F93525022363558B
:101B8000211C01C9FFF768FF01236355002000E015
:101B9000012038BD0168CA6801231A43CA6002687F
:101BA00011680B43136000207047C04610B5342203
:101BB000825C012A00D184E00B1C041C0121342228
:101BC0008154013101328154016888683E4A0240E3
:101BD0008A601A68402A4FD00AD8102A5BD002D8EF
:101BE000002A53D065E0202A5AD0302A5DD060E028
:101BF000702A14D004D8502A2AD0602A32D058E053
:101C0000802149018A4204D0802189018A4212D070
:101C10004FE02268936807218B43936049E09968FD
:101C20005A68DB682068FFF78FFF22689168772386
:101C30000B4393603DE099685A68DB682068FFF7C2
:101C400083FF226893688021C9010B43936030E0D1
:101C50005968DA682068FFF749FF20685021FFF7CC
:101C60006BFF26E05968DA682068FFF751FF2068AB
:101C70006021FFF761FF1CE05968DA682068FFF710
:101C800035FF20684021FFF757FF12E02068002150
:101C9000FFF752FF0DE020681021FFF74DFF08E02D
:101CA00020682021FFF748FF03E020683021FFF77C
:101CB00043FF01223523E2540022013BE25400207D
:101CC00000E0022010BDC0468800FFFF7047C046FC
:101CD0007047C0467047C0467047C04610B5041CE8
:101CE00003681A69920715D5DA68920712D503229C
:101CF00052421A610123037503689B699B0702D056
:101D0000FFF7E6FF04E0FFF7E1FF201CFFF7E2FF2B
:101D10000023237523681A69520719D5DA68520718
:101D200016D5052252421A610223237523689A6947
:101D3000C0239B001A4203D0201CFFF7C9FF05E017
:101D4000201CFFF7C3FF201CFFF7C4FF00232375EF
:101D500023681A69120717D5DA68120714D5092201
:101D600052421A61042323752368DB699B0703D061
:101D7000201CFFF7ADFF05E0201CFFF7A7FF201C8C
:101D8000FFF7A8FF0023237523681A69D20619D527
:101D9000DA68D20616D5112252421A610823237539
:101DA0002368DA69C0239B001A4203D0201CFFF786
:101DB0008FFF05E0201CFFF789FF201CFFF78AFF3B
:101DC0000023237523681A69D20708D5DA68D20779
:101DD00005D5022252421A61201CFFF737F823680A
:101DE0001A69520608D5DA68520605D541225242D0
:101DF0001A61201CFFF770FF10BDC046F0B53423F8
:101E0000C35C012B1ED034220125855435240223C6
:101E10000355066873687027BB4373600668736870
:101E20000F683B4373600668B3688027BB43B360A9
:101E30000668B7684B683B43B3600555002383547D
:101E4000002000E00220F0BDF8B5051C836802699F
:101E5000134342691343C2691A4301680868BD4BC2
:101E6000034013430B602A685168BB4B0B40E96881
:101E70000B435360AB692A68B8498A4201D0296A8A
:101E80000B439068B64901400B4393602B68B54AF9
:101E9000934214D1B44BDB6C03221340012B08D0C6
:101EA000002B04D0022B4BD0032B04D005E00124DF
:101EB00051E004244FE008244DE010244BE0AB4AED
:101EC000934216D1A84BDB6C0C221340042B0AD092
:101ED00002D8002B05D00AE0082B33D00C2B04D0FD
:101EE00005E0002437E0042435E0082433E0102422
:101EF00031E09F4A934227D09E4A934226D0974A88
:101F0000934225D1984BDA6CC0231B0113408022E9
:101F1000D20093420ED002D8002B09D00EE08022CE
:101F20001201934216D0C0221201934204D005E060
:101F3000002410E004240EE008240CE010240AE041
:101F4000022408E0022406E0002404E0002402E069
:101F5000102400E00224022000F07EFF2E687F4B58
:101F60009E4240D1022C0FD002D8002C08D016E09F
:101F7000042C10D0082C12D100248020000213E081
:101F800000F066FE00240FE0774B1B68DB0609D5E6
:101F90000024794808E000F035FD002404E0012425
:101FA000002001E000247548002800D1F5E06A68AF
:101FB00053009B18834200D9C6E01303834200D22A
:101FC000C4E0070E06025008002180197941002361
:101FD000FEF762F96A4BC2186A4B9A4200D9B7E021
:101FE0002B68D860D9E080231B02EA699A4258D155
:101FF000082C4BD8A400644B1B599F4640006B68CB
:102000005B08C0186968FEF7B5F880B200243FE0AD
:1020100000F02EFE40006B685B08C0186968FEF790
:10202000A9F880B2002433E04F4B1B68DB060AD5C9
:102030006B685808554B9C4660446968FEF79AF8EF
:1020400080B2002424E06B685808514B9C466044E1
:102050006968FEF78FF880B2002419E000F0D2FC26
:1020600040006B685B08C0186968FEF783F880B2AF
:1020700000240DE06B68580880235B029C46604496
:102080006968FEF777F880B2002401E0012400209F
:102090000F23021C9A430007400F10432B68D8609F
:1020A0007BE0082C78D8A4003A4B1B599F4600F0DF
:1020B000CFFD69684B08C018FEF75CF80004000CFF
:1020C000F060002469E000F0D3FD69684B08C01897
:1020D000FEF750F80004000CF06000245DE0224B95
:1020E0001B68DB060BD569684808234B9C46604497
:1020F000FEF740F80004000CF06000244DE0696831
:1021000048081E4B9C466044FEF734F80004000C5F
:10211000F060002441E000F075FC69684B08C018CD
:10212000FEF728F80004000CF060002435E0696830
:10213000480880231B029C466044FEF71BF80004FD
:10214000000CF060002428E0012426E0012424E0B3
:10215000012422E0F369FFEFFFCFFFFF00480040BA
:10216000FFF4FFFF0038014000100240004400402F
:10217000004C00400050004000093D000024F400E5
:1021800000FDFFFFFFFC0F004055000800127A0021
:102190000048E801645500080124201CF8BDC04631
:1021A000436ADB0706D5026851682C4B0B40816AF5
:1021B0000B435360436A9B0706D502685168284B5E
:1021C0000B40C16A0B435360436A5B0706D5026844
:1021D0005168244B0B40016B0B435360436A1B0750
:1021E00006D502685168204B0B40416B0B4353608E
:1021F000436ADB0606D5026891681C4B0B40816B75
:102200000B439360436A9B0606D502689168184B9E
:102210000B40C16B0B439360436A5B0612D50268A7
:102220005168144B0B40016C0B43536080235B03DC
:10223000026C9A4206D1026851680F4B0B40416C08
:102240000B435360436A1B0606D501684A680B4B73
:102250001340826C13434B607047C046FFFFFDFF85
:10226000FFFFFEFFFFFFFBFFFF7FFFFFFFEFFFFF13
:10227000FFDFFFFFFFFFEFFFFFFF9FFFFFFFF7FF06
:10228000F0B5474680B4061C0C1C171C9846069DEA
:102290001DE06B1C1BD0002D05D000F0C3F8434699
:1022A000C01AA84213D9326811680F4B0B40136053
:1022B0003268936801218B43936020236922B354D1
:1022C0000132B35400224833F254032008E033684B
:1022D000DB6923401B1B5A425341BB42D9D000202B
:1022E00004BC9046F0BDC0465FFEFFFF30B583B032
:1022F000041C0023C36600F095F8051C23681B68C6
:102300001B070AD5144B0093201C8021890300224F
:102310002B1CFFF7B5FF002818D123681B685B074B
:102320000AD50D4B0093201C8021C90300222B1CD1
:10233000FFF7A6FF00280BD120236922A354013206
:10234000A35400224833E254002002E0032000E0BE
:10235000032003B030BDC046FFFFFF0110B50028C9
:102360002FD0041C6923C35C002B04D100226833E6
:10237000C254FEF7BBFC24226923E254226813688E
:1023800001218B431360636A002B02D0201CFFF7EE
:1023900007FF201CFFF758FD012813D02268516861
:1023A000094B0B405360226893682A218B4393604A
:1023B0002268116801230B431360201CFFF796FF6E
:1023C00000E0012010BDC046FFB7FFFF10B5041CA0
:1023D000074B1868FA218900FDF7CCFE00F070FF6A
:1023E00001204042211C002200F02EFF002010BDE1
:1023F0001000002008B5064A116840230B43136003
:102400000020FFF7E3FFFEF72DFD002008BDC046CA
:1024100000200240024A1368013313607047C0462F
:102420008C0A0020014B18687047C0468C0A0020B7
:1024300010B582B00190FFF7F5FF041CFFF7F2FF23
:10244000001B019B9842F9D302B010BD10B51D4B83
:10245000DB68F0221A4222D11A4B9B6BDB0005D5B8
:10246000194B1A68C0235B0113400EE0154A936BA9
:10247000802149050B439363134B1968C0235B010B
:102480000B40946B114921409163C0225201934249
:1024900007D1C0231B02984205D0002004E0002091
:1024A00002E0002000E00120094A136801218B436B
:1024B0000343136013680B40834201D0012000E006
:1024C000002010BD0010024000700040FFFFFFEF31
:1024D0000020024070B582B0041C0368DB0761D5A0
:1024E000C84BDB680C221340082B08D0C54BDB68B7
:1024F00013400C2B0BD1C34BDB68DB0307D5C14B5F
:102500001B689B034ED56368002B4BD13FE2636889
:1025100080225202934206D1BA4A136880214902AE
:102520000B4313601EE0A022D20293420BD1B54BA5
:102530001A688021C9020A431A601A688021490278
:102540000A431A600EE0AF4B1968AF4A0A401A609E
:102550001968802252020A400192019A1968AB4A16
:102560000A401A606368002B0ED0FFF75BFF051C62
:1025700005E0FFF757FF401B642800D909E2A14B93
:102580001B689B03F5D50DE0FFF74CFF051C05E02C
:10259000FFF748FF401B642800D9FCE1994B1B68FA
:1025A0009B03F5D423689B0752D5964BDB680C221E
:1025B0001340042B08D0934BDB6813400C2B14D131
:1025C000904BDB68DB0310D48E4B1B685B0703D595
:1025D000E368012B00D0E0E18A494A688C4B134044
:1025E0002269120213434B6032E0E268002A1CD0D9
:1025F00084490B680920834313430B60FFF712FFE4
:10260000051C05E0FFF70EFF401B022800D9C6E1BC
:102610007C4B1B685B07F5D57A494A687C4B1340B5
:102620002269120213434B6012E0764A13680121BB
:102630008B431360FFF7F6FE051C05E0FFF7F2FE83
:10264000401B022800D9ACE16E4B1B685B07F5D438
:102650002368DB0600D488E06A4BDB680C221A4250
:102660004AD1684B1B689B0503D5A369002B00D199
:1026700099E1206A634B5A68E0231B021340984299
:1026800013D9FFF7E3FE002800D08EE15D494A68C8
:10269000604B1340226A13434B604B681B021B0ABA
:1026A000E269120613434B6012E056494A68594BDF
:1026B0001340184348604B681B021B0AE26912066C
:1026C00013434B60206AFFF7C1FE002800D06EE183
:1026D000236A5B0B0133802212029A40131C494A81
:1026E000D2681206120F4C498A5CD3404B4A1360E1
:1026F0000020FFF76BFE38E0A369002B22D0414A8F
:102700001368802149000B431360FFF78BFE051C03
:1027100005E0FFF787FE401B022800D949E1394B4D
:102720001B689B05F5D537494A683A4B1340226A26
:1027300013434B604B681B021B0AE26912061343EA
:102740004B6012E02F4A1168354B0B401360FFF7C6
:1027500069FE051C05E0FFF765FE401B022800D955
:1027600029E1284B1B689B05F5D423681B0729D555
:102770006369002B13D0234A116D01230B431365AA
:10278000FFF750FE051C05E0FFF74CFE401B02283A
:1027900000D912E11B4B1B6D9B07F5D512E0194ABE
:1027A000136D01218B431365FFF73CFE051C05E00B
:1027B000FFF738FE401B022800D900E1114B1B6DCA
:1027C0009B07F5D423685B0700D490E00D4B9B6B0F
:1027D000DB0007D40B4A936B802149050B439363BD
:1027E000012500E000250F4B1B68DB0526D40D4AB0
:1027F0001368802149000B431360FFF713FE061C8A
:1028000018E0C04600100240FFFFFEFFFFFFFBFF85
:10281000FFE0FFFFFF1FFFFF8855000810000020AA
:10282000FFFEFFFF00700040FFF7FCFD801B6428E7
:1028300000D9C6E06B4B1B68DB05F5D5A368802289
:102840005200934206D1684A136D802149000B4320
:10285000136524E0002B09D1634B196D634A0A40CC
:102860001A65196D624A0A401A6518E0A022D20062
:1028700093420BD15C4B1A6D8021C9000A431A6543
:102880001A6D802149000A431A6508E0564B196DFC
:10289000564A0A401A65196D554A0A401A65A368D6
:1028A000002B0FD0FFF7BEFD061C06E0FFF7BAFDB8
:1028B000801B504B984200D985E04B4B1B6D9B050C
:1028C000F4D50DE0FFF7AEFD061C05E0FFF7AAFD0D
:1028D000801B484B984278D8434B1B6D9B05F5D421
:1028E000012D04D1404A916B434B0B409363636AC3
:1028F000002B6CD03C4AD2680C210A400C2A68D0CC
:10290000022B30D1384A11683C4B0B401360FFF763
:1029100089FD051C04E0FFF785FD401B02285AD8FD
:10292000314B1B689B01F6D42F49C868344B1840C3
:10293000A36AE26A1343226B13430343CB600B6821
:102940008022520413430B60FFF76CFD041C04E06B
:10295000FFF768FD001B02283FD8234B1B689B0133
:10296000F6D500203CE0204A1168244B0B40136050
:10297000FFF758FD041C04E0FFF754FD001B02287C
:102980002DD8194B1B689B01F6D4002028E00120AC
:1029900026E0032024E0032022E0012020E00320A1
:1029A0001EE003201CE001201AE0012018E00120B5
:1029B00016E0032014E0032012E0032010E00320BF
:1029C0000EE003200CE003200AE0032008E00020D2
:1029D00006E0012004E0032002E0032000E00320E1
:1029E00002B070BD0070004000100240FFFEFFFF0B
:1029F000FFFBFFFF88130000FFFFFFEFFFFFFFFE5D
:102A0000FFFF02FF08B51E4BD9680C230B40082BB3
:102A100031D00C2B07D0042B23D1194B1B68DB06BC
:102A20002BD518482AE08B021B0F174AD05C0902ED
:102A3000890F0131124BDB68DB0304D5134B58437C
:102A4000FDF798FB1AE00E4B1B68DB0604D50D4B17
:102A50005843FDF78FFB11E00D4B5843FDF78AFB00
:102A60000CE0074B58680004400F013080231B0224
:102A70008340181C02E0054800E0054808BDC04638
:102A80000010024000093D00A055000800127A0025
:102A90000024F40070B5644B1B68012213408B4284
:102AA0000AD2614A13680124A3430B4313601368DD
:102AB00023408B4200D0A3E003689B0706D55B4A06
:102AC000D368F024A34384682343D3600D1C041C03
:102AD0000368DB075FD54368022B04D1534A1268B1
:102AE000920313D48EE0032B04D1504A1268920152
:102AF0000CD489E0012B04D14C4A1268520705D44A
:102B000084E04A4A1268920500D481E04749CA68C5
:102B1000032082431343CB60FFF784FC061C6368E9
:102B2000022B0DD105E0FFF77DFC801B404B984246
:102B300070D83E4BDB680C221340082BF3D12AE0FF
:102B4000032B0DD105E0FFF76DFC801B384B98423D
:102B500062D8364BDB680C2213400C2BF3D11AE001
:102B6000012B13D105E0FFF75DFC801B304B984231
:102B700054D82E4BDB680C221340042BF3D10AE00F
:102B8000FFF750FC801B2A4B984249D8274BDB6843
:102B90000C221A42F4D1244B1B6801221340AB4291
:102BA00009D9214A136801218B432B431360136811
:102BB0000B40AB4236D123685B0706D51B4AD16870
:102BC0001C4B0B40E1680B43D36023681B0707D500
:102BD0001649CA68184B13402269D2001343CB60D0
:102BE000FFF710FF114BDB681B061B0F134AD35C6A
:102BF000D840134B18600020FFF7E8FB002012E0DC
:102C0000012010E001200EE001200CE001200AE08C
:102C1000012008E0032006E0032004E0032002E096
:102C2000032000E0012070BD00200240001002409F
:102C300088130000FFF8FFFFFFC7FFFF885500085B
:102C400010000020014B18687047C046100000209B
:102C500008B5FFF7F7FF044BDB685B055B0F034A22
:102C6000D35CD84008BDC04600100240985500080B
:102C700008B5FFF7E7FF044BDB689B045B0F034AD3
:102C8000D35CD84008BDC0460010024098550008EB
:102C900070B5041C03689B0600D482E0644B9B6BF8
:102CA000DB0007D4624A936B802149050B43936391
:102CB000012500E000255F4B1B68DB0513D45D4A4E
:102CC0001368802149000B431360FFF7ABFB061C20
:102CD00005E0FFF7A7FB801B642800D99FE0554B58
:102CE0001B68DB05F5D5524B1A68C0239B031A40BD
:102CF00061680B4093420AD0C0239B020A1C1A4011
:102D00009A4204D14A4B1B689B0300D589E0484B8B
:102D10001A6DC0239B02134025D0C022920211409D
:102D2000994220D023689B061DD5414B186D424A1D
:102D30000240196D80263603314319651E6D3F49E7
:102D4000314019651A65C3050DD5FFF76BFB061CED
:102D500005E0FFF767FB801B394B984263D8344B83
:102D60001B6D9B05F5D56268C0239B02111C1940A1
:102D7000994208D12E480168324B1940C0239B0369
:102D80001A400A4302602A4A116DC0239B02606800
:102D900003400B431365012D03D1916B2A4B0B406C
:102DA00093632368DB0706D5214AD36C03218B4349
:102DB000A1680B43D36423689B0706D51C4AD36CD8
:102DC0000C218B43E1680B43D36423685B0706D572
:102DD000174AD16C1D4B0B4021690B43D364236808
:102DE0001B0706D5124AD16C194B0B4061690B4386
:102DF000D3642368DB0506D50D4AD16C0E4B0B401E
:102E0000A1690B43D36423681B060ED50849CA6C1D
:102E1000104B1340E2691343CB64002006E003200B
:102E200004E0012002E0032000E0002070BDC04665
:102E30000010024000700040FFFFFCFFFFFFF7FFA3
:102E400088130000FFFFCFFFFFFFFFEFFFF3FFFF3F
:102E5000FFCFFFFFFFFFF3FF08B5082800D1A6E072
:102E600008D8022866D0042800D17EE0012800D0CE
:102E7000D4E041E0202808D080235B00984200D1B4
:102E8000B4E0102800D0C9E0A9E07A4B196D1A6DA2
:102E9000C0239B02134080225202934202D18A0532
:102EA00000D5BDE080229202934202D18A0700D56C
:102EB000B9E0C0229202934200D0B6E06D4B1B688D
:102EC0009B0300D4B3E06B4B1A68C0239B031340F1
:102ED00080229203934200D1ABE0C022920393423E
:102EE00004D080225203934204D101E06248C0E042
:102EF0006248BEE06248BCE05E4BDB6C03221340DC
:102F000002D1FFF7B5FEB4E0022B04D1594A126892
:102F1000520700D58FE0012B02D1FFF773FDA8E027
:102F2000032B00D089E0534B1B6D9B0500D586E039
:102F300000209EE04F4BDB6C0C22134002D1FFF7C8
:102F400087FE96E0082B03D14A4A1268520779D4CB
:102F5000042B02D1FFF756FD8BE00C2B74D1454BAF
:102F60001B6D9B0572D4002083E0424BDA6CC023BA
:102F70001B01134002D1FFF76BFE7AE080221201A1
:102F8000934203D13B4A1268520762D48022D20096
:102F9000934202D1FFF736FD6BE0C022120193424B
:102FA00059D1344B1B6D9B0557D4002061E0314B48
:102FB000DA6CC0239B01134002D1FFF749FE58E0B1
:102FC00080229201934203D12A4A1268520747D4C1
:102FD00080225201934245D1FFF714FD49E0254B71
:102FE0009B6B5B0240D5FFF733FE42E0214BDA6C6E
:102FF000C0239B02134002D1FFF72AFE39E0802252
:103000009202934203D11B4A126852072ED48022A7
:10301000520293422CD1FFF7F5FC2AE0002028E071
:103020008020000225E0174823E0002021E0002056
:103030001FE015481DE015481BE0002019E0802026
:10304000000216E0114814E0002012E08020000287
:103050000FE00E480DE000200BE08020000208E0A9
:103060000A4806E0002004E0002002E0074800E0F3
:10307000002008BD0010024020A1070080841E002F
:1030800000093D008890000040420F000024F40039
:10309000F0B54F464646C0B483B00023B2E00124E9
:1030A0009C402240914600D1ABE04D68022D01D0FA
:1030B000122D0ED1DD080835AE00375807251D400A
:1030C000AD000F22AA4097430A69AA40151C3D4350
:1030D00035504D686F1E012F03D9112D01D0122DCF
:1030E00013D185685E000327B740BD432F1CCD6810
:1030F000B5403D4385604768A7434A68D506ED0F54
:103100002C1C019A94403C43446005685F000324F2
:10311000A446BC40E44325402E1C65464A68154041
:10312000BD4035430560C5682C408D68BD402C43CB
:10313000C4604A68D20064D5384D6E6B01243443B4
:103140006C639C08A51CAD00354EAE5903271F408B
:10315000BD000F27AF40BE43A027FF05B8421AD0DD
:10316000304FB84215D0304FB84210D02F4FB84230
:103170000BD02F4FB84206D02E4FB84201D10527B1
:103180000AE0062708E0042706E0032704E00227F8
:1031900002E0012700E00027AF403D1C3543023428
:1031A000A4001F4EA551244C25684A46D4432E1C2A
:1031B00026404A68D20302D54A4615432E1C1E4DAE
:1031C0002E606D682E1C26404A68920302D54A463E
:1031D00015432E1C184D6E60AD682E1C26404A68A3
:1031E000D20202D54A4615432E1C134DAE60ED683F
:1031F0002C404A68920202D54A462A43141C0E4AC1
:10320000D46001330A680193141CDC4000D046E707
:1032100003B00CBC90469946F0BDC0460010024079
:10322000000001400004005000080050000C005055
:1032300000100050001C005000040140002A01D082
:10324000816100E08162704770B5002816DAC0B273
:103250000F230340083B9B089B00124A944663449B
:103260005A6803242040C000FC34251C8540AA4332
:103270008901214081400A435A6011E083080A4CC9
:10328000C0339B001A5903252840C000FC352E1C72
:103290008640B243890129408140081C10431851DF
:1032A00070BDC04618ED00E000E100E01F231840AB
:1032B0001E3B8340181C014B1860704700E100E082
:1032C00001380A4B98420FD8094A506009490B6AE5
:1032D0001B021B0AC020000603430B6200239360FD
:1032E00007331360002000E001207047FFFFFF005C
:1032F00010E000E000ED00E0042805D1054A116867
:1033000004230B43136004E0024A136804218B4337
:103310001360704710E000E07047C04608B5FFF743
:10332000FBFF08BD104B1A68802149000A431A6050
:10333000D9680E4A0A40DA6019680D4A0A401A60D4
:103340009A6801218A439A6019680A4A0A401A60F9
:10335000D968094A0A40DA6000221A6180221205FF
:10336000064B9A607047C046001002400C40FF8830
:10337000F6FFF6FEFFFFFBFFFFFF02FF00ED00E0A0
:103380000D488546002103E00C4B5B584350043147
:103390000B480C4B42189A42F6D30B4A02E000232A
:1033A00013600432094B9A42F9D3FFF7BBFF00F0D8
:1033B00011F8FDF71DFAFEE700500020BC5500088B
:1033C000000000201400002014000020900A0020BB
:1033D000FEE700000E4B70B500251E1C0D4CE41AD4
:1033E000A410A54204D0AB00F35898470135F8E784
:1033F00000F016F8084B00251E1C084CE41AA41017
:10340000A54204D0AB00F35898470135F8E770BDEA
:10341000B4550008B4550008B4550008B855000864
:10342000F8B5C046F8BC08BC9E467047F8B5C04623
:08343000F8BC08BC9E46704781
:103438005372632F6D61696E2E630000446976656F
:10344800436D700053746172742E2E006576656E3C
:10345800000000005372632F6164632E6300000054
:103468005372632F6932632E630000005372632F17
:103478007370692E630000005372632F7573617255
:10348800742E63005372632F74696D2E63000000FD
:103498000000000000000000000000000000000024
:1034A8000000000000000000000000000000000014
:1034B800000000000000000C000C000C000C000CC8
:1034C800000C000C000C000C000C000C0000000CA0
:1034D800000C0000000000000000001B001B001B87
:1034E800001B001B0000000000000000000000009E
:1034F800000000000000000000000000000080192B
:10350800801980198019C07FC07F80190033C07F5F
:10351800C07F003300330033003300000000000098
:103528000000001E003F807580650074003C001E8E
:1035380000078005806580658075003F001E0004D7
:10354800000400000000007000D840D8C0D880D91E
:1035580000730006000C801BC036C066C046C0065B
:1035680080030000000000000000001E003F003340
:1035780000330033001E000CC03CC06680638061CD
:103588008063C03E801C0000000000000000000CAA
:10359800000C000C000C000C0000000000000000F3
:1035A8000000000000000000000000000000000013
:1035B800800000010003000600060004000C000C57
:1035C800000C000C000C000C0004000600060003B0
:1035D80000018000002000100018000C000C0004FE
:1035E8000006000600060006000600060004000C9F
:1035F800000C0018001000200000000C002D003FF7
:10360800001E003300000000000000000000000061
:1036180000000000000000000000000000000000A2
:103628000000000C000C000C000CC0FFC0FF000CD8
:10363800000C000C000C000000000000000000005E
:103648000000000000000000000000000000000072
:1036580000000000000000000000000C000C000446
:103668000004000800000000000000000000000046
:10367800000000000000001E001E00000000000006
:103688000000000000000000000000000000000032
:103698000000000000000000000000000000000022
:1036A8000000000C000C00000000000000000003F7
:1036B800000300030006000600060006000C000CCC
:1036C800000C000C00180018001800000000000092
:1036D8000000001E003F0033806180618061806DC2
:1036E800806D8061806180610033003F001E0000B2
:1036F8000000000000000006000E001E0036002634
:103708000006000600060006000600060006000681
:1037180000060000000000000000001E003F80734B
:1037280080618061800100030006000C00180030F1
:103738000060807F807F0000000000000000001C07
:10374800003E006300630003000E000E00038001CA
:10375800800180618073003F001E000000000000AF
:1037680000000006000E000E001E001E00160036A7
:1037780000360066807F807F000600060006000095
:10378800000000000000007F007F00600060006013
:10379800006E007F80638001800180618073003F3C
:1037A800001E0000000000000000001E003F8033E3
:1037B80080610060006E007F80738061806180613D
:1037C8008033003F001E0000000000000000807FE2
:1037D800807F80010003000300060006000C000C37
:1037E800000C000800180018001800000000000075
:1037F8000000001E003F8063806180610021001E80
:10380800003F8061806180618061003F001E000090
:10381800000000000000001E003F0073806180610E
:1038280080618073803F801D800180610073003F4C
:10383800001E000000000000000000000000000062
:103848000000000C000C0000000000000000000058
:103858000000000C000C0000000000000000000048
:103868000000000000000000000C000C0000000038
:10387800000000000000000C000C00040004000818
:10388800000000000000000080008003000E0038E7
:1038980000600038000E8003800000000000000077
:1038A8000000000000000000000000000000807F11
:1038B800807F00000000807F807F00000000000003
:1038C80000000000000000000000000000000000F0
:1038D80000400070001C000780010007001C0070F9
:1038E8000040000000000000000000000000001F71
:1038F800803FC071C060C000C00180030007000E97
:10390800000C000C0000000C000C0000000000007F
:103918000000001E003F803180718063806F806DE1
:10392800806D806F806700600032003E001C0000E0
:10393800000000000000000E000E001B001B001B12
:10394800001B80318031803F803F8031C060C06083
:10395800C0600000000000000000007C007E0063E2
:10396800006300630063007E007E00638061806105
:103978008063007F007E0000000000000000001E41
:10398800003F80318061006000600060006000607E
:10399800006080618031003F001E000000000000D0
:1039A8000000007C007F006380638061806180612B
:1039B80080618061806100630063007E007C00009C
:1039C800000000000000807F807F006000600060D1
:1039D8000060007F007F0060006000600060807F02
:1039E800807F0000000000000000807F807F006072
:1039F800006000600060007F007F00600060006081
:103A08000060006000600000000000000000001E70
:103A1800003F8031806100600060006080638063E7
:103A2800806180618031803F001E0000000000003E
:103A38000000806180618061806180618061807F39
:103A4800807F806180618061806180618061000029
:103A5800000000000000003F003F000C000C000CBC
:103A6800000C000C000C000C000C000C000C003FBB
:103A7800003F00000000000000008001800180017C
:103A88008001800180018001800180018061806166
:103A98008073003F001E0000000000000000C060AE
:103AA8008061006300660066006C0078007C006638
:103AB8000066006380618061C06000000000000053
:103AC800000000600060006000600060006000604E
:103AD80000600060006000600060807F807F000000
:103AE800000000000000C071C071C07BC07AC06ACD
:103AF800C06AC06EC064C060C060C060C060C060A2
:103B0800C0600000000000000000807180718079B2
:103B180080798079806D806D806D80658067806731
:103B28008067806380630000000000000000001EC2
:103B3800003F0033806180618061806180618061C5
:103B4800806180610033003F001E0000000000001B
:103B58000000007E007F80638061806180618063F7
:103B6800007F007E00600060006000600060000070
:103B7800000000000000001E003F003380618061EB
:103B88008061806180618061806580670033803FEB
:103B9800401E0000000000000000007E007F8063DF
:103BA800806180618063007F007E0066006300633F
:103BB80080618061C0600000000000000000000E0D
:103BC800001F8031803100300038001E000780035C
:103BD800806180618031003F001E0000000000000D
:103BE8000000C0FFC0FF000C000C000C000C000C13
:103BF800000C000C000C000C000C000C000C000069
:103C08000000000000008061806180618061806147
:103C18008061806180618061806180618073003F24
:103C2800001E0000000000000000C060C060C0600E
:103C3800803180318031001B001B001B001B000EEF
:103C4800000E000E00040000000000000000C0C0CC
:103C5800C0C0C0C0C0C0C0C0C0CC804C804C805E5A
:103C680080528052807380618061000000000000F3
:103C78000000C0C0806080610033003B001E000C63
:103C8800000C001E001F003B80718061C0C0000056
:103C9800000000000000C0C0806180610033003374
:103CA800001E001E000C000C000C000C000C000C88
:103CB800000C0000000000000000803F803F8001F1
:103CC800000300030006000C000C00180018003068
:103CD8000060807F807F000000000000000F000F60
:103CE800000C000C000C000C000C000C000C000C6C
:103CF800000C000C000C000C000C000C000F000F56
:103D08000000001800180018000C000C000C000C33
:103D1800000600060006000600030003000300007A
:103D280000000000001E001E000600060006000637
:103D3800000600060006000600060006000600064B
:103D480000060006001E001E0000000C000C001EED
:103D58000012003300338061806100000000000021
:103D6800000000000000000000000000000000004B
:103D7800000000000000000000000000000000003B
:103D8800000000000000000000000000E0FF00004C
:103D9800000000380018000C0000000000000000BF
:103DA800000000000000000000000000000000000B
:103DB8000000000000000000000000000000001FDC
:103DC800803F80618001801F803F80618063807FA9
:103DD800C0380000000000000000006000600060C3
:103DE8000060006E007F8073806180618061806107
:103DF8008073007F006E00000000000000000000DB
:103E0800000000000000001E003F80738061006019
:103E1800006080618073003F001E00000000000009
:103E280000008001800180018001801D803F807337
:103E380080618061806180618073803F801D0000A7
:103E48000000000000000000000000000000001E4C
:103E5800003F00738061807F807F00608071003F39
:103E6800001E0000000000000000C007C00F000C8A
:103E7800000C807F807F000C000C000C000C000CF4
:103E8800000C000C000C0000000000000000000006
:103E980000000000801D803F807380618061806128
:103EA80080618073803F801D80018063007F003EB9
:103EB80000000060006000600060006F807F80711B
:103EC80080618061806180618061806180610000C3
:103ED8000000000000000006000600000000003E90
:103EE800003E000600060006000600060006000662
:103EF80000060000000000000006000600000000A8
:103F0800003E003E00060006000600060006000609
:103F18000006000600060046007E003C0000006027
:103F2800006000600060806100630066006C007CD7
:103F38000076006300638061C0600000000000003C
:103F48000000003E003E00060006000600060006CF
:103F5800000600060006000600060006000600002F
:103F6800000000000000000000000000000080DDEC
:103F7800C0FFC0CEC0CCC0CCC0CCC0CCC0CCC0CCA4
:103F8800C0CC00000000000000000000000000009D
:103F98000000006F807F8071806180618061806136
:103FA8008061806180610000000000000000000066
:103FB800000000000000001E003F807380618061E7
:103FC800806180618073003F001E000000000000D7
:103FD8000000000000000000006E007F8073806118
:103FE8008061806180618073007F006E0060006086
:103FF800006000600000000000000000801D803F9D
:10400800807380618061806180618073803F801DE2
:104018008001800180018001000000000000000094
:1040280000000067803F0039003000300030003069
:1040380000300030003000000000000000000000E8
:10404800000000000000001E803F80610060007FCB
:10405800803F80018061007F001E0000000000009A
:1040680000000000000800180018007F007F0018FA
:1040780000180018001800180018801F800F000092
:104088000000000000000000000000000000806147
:104098008061806180618061806180618063807FF0
:1040A800803D00000000000000000000000000004B
:1040B8000000C060803180318031001B001B001B74
:1040C800000E000E000600000000000000000000C6
:1040D80000000000000080DD80DD80DD0055005517
:1040E8000055007700770022002200000000000041
:1040F8000000000000000000000080610033003371
:10410800001E000C000C001E00330033806100000C
:1041180000000000000000000000000080618061D5
:10412800803100330033001B001B001B000E000E03
:10413800000E001C007C0070000000000000000061
:104148000000C07FC07F800100030006000C00183B
:104158000030C07FC07F000000000000800380079F
:1041680000060006000600060006000E001C001CE3
:10417800000E000600060006000600068007800301
:1041880000060006000600060006000600060006F7
:1041980000060006000600060006000600060006E7
:1041A800000600060038003C000C000C000C000C57
:1041B800000C000E00070007000E000C000C000C9D
:1041C800000C000C003C003800000000000000005B
:1041D8000000000000008038807F004700000000D9
:1041E80000000000000000000000000000000000C7
:1041F80000000000000000000000000000000000B7
:1042080000000000000000000000000000000000A6
:104218000000000000000000000000000000000096
:10422800E003E003E003E003E003E003E003E0036E
:10423800C003C003C001C001C001C001C00100002B
:1042480000000000E003E003E003000000000000BD
:10425800000000003C1E3C1E3C1E3C1E3C1E3C1E3A
:104268003C1E0000000000000000000000000000EC
:104278000000000000000000000000000000000036
:104288000000000000000000CE01CE03DE039E0304
:104298009C039C07FF3FFF7F3807380F780F780F84
:1042A800780EFFFFFFFFF01EF01CE01CE03CE03D35
:1042B800E03900000000000000000000FC03FE0FD1
:1042C800EE1FE01EE01EE01EE01EE01FE00FE0070C
:1042D800F003FC01FE01FE01FE01FE01FE01FE01EC
:1042E800FE3DFC3FF00FE001E0010000000000008F
:1042F800033E07F78FE78EE79EE3BCE3B8E7F8E7EE
:10430800F0F7E03FC001FF03FF07F307F30FF31EC9
:10431800F33CF338F3787FF03FE000000000000042
:1043280000000000E007F80F780F781F781F781F4B
:10433800780FF00FE00F801FC37FC3FBE7F3F7F19F
:10434800F7F0FFF07FF03EF87F7CFF3FEF1F0000A3
:104358000000000000000000E003E003E003E003C9
:10436800E003C003C00100000000000000000000DE
:104378000000000000000000000000000000000035
:104388000000000000000000000000003F007C006A
:10439800F001E001C003C00780078007800F000F0D
:1043A800000F000F000F000F000F800F800780071D
:1043B800C007C003E001F0017C003F000F000000CF
:1043C800007E001FC007C003E001F001F000F0000C
:1043D800F800780078007800780078007800F80015
:1043E800F000F000F001E001C003C007001F007EEC
:1043F80000780000E003C003C001CE39FF3F7F3FD3
:1044080020037003F807780F3C1F380600000000EF
:104418000000000000000000000000000000000094
:104428000000000000000000000000000000000084
:1044380000000000C001C001C001C001C001C001EE
:10444800C001FFFFFFFFC001C001C001C001C001E2
:10445800C001000000000000000000000000000093
:104468000000000000000000000000000000000044
:104478000000000000000000000000000000E00351
:10448800E003E003E003E001E001E001C001800394
:104498000000000000000000000000000000000014
:1044A800000000000000FE3FFE3F0000000000008A
:1044B80000000000000000000000000000000000F4
:1044C80000000000000000000000000000000000E4
:1044D80000000000000000000000000000000000D4
:1044E800000000000000E003E003E003E003000038
:1044F80000000000000000000F000F001E001E005A
:104508003C003C0078007800F000F000E001E00199
:10451800C003C00380078007000F000F001E001EA5
:10452800003C003C0078007800F00000F007F80F2D
:104538007C1F3E3E1E3C1F7C1F7C0F780F780F7837
:104548000F780F780F780F781F7C1F7C1E3C3E3E3B
:104558007C1FF80FF00700000000000000000000BA
:10456800F000F007F03FF03FF001F001F001F0013A
:10457800F001F001F001F001F001F001F001F001AB
:10458800F001F001F001FF3FFF3F000000000000D4
:1045980000000000E00FF83F7C3C3C003E003E007D
:1045A8003E003C003C007C00F800F001E003C0073E
:1045B8008007000F001E003E003CFE3FFE3F00004B
:1045C8000000000000000000F00FF81F7C1C3E00F7
:1045D8003E003E003C003C00F800F00FF80F7C0065
:1045E8003E001E001E001E001E003E007C1CF81F20
:1045F800E01F000000000000000000007800F80044
:10460800F800F801F803F807F807780F781E781E05
:10461800783C78787878FFFFFFFF7800780078009A
:10462800780078007800000000000000000000001A
:10463800FC1FFC1FFC1F001E001E001E001E001E8B
:10464800E01FF81FFC007C003E003E001E003E00FC
:104658003E003C007C1CF81FE01F0000000000002A
:1046680000000000FC01FE078E0F001F001E003E28
:10467800003C003CF83DFC3F3E7F1F7E0F3C0F3C5A
:104688000F3C0F3C0F3E1F1E3E1FFC0FF0030000A7
:104698000000000000000000FF3FFF3FFF3F0F0049
:1046A8001E001E003C0038007800F000F000E00119
:1046B800E001C003C0038007800F800F000F001FB8
:1046C800001F00000000000000000000F807FC0FB9
:1046D8003E1F1E1E1E3E1E3E1E1E3C1FF80FF007EC
:1046E800F80FFC1E3E3E1F3C1F7C0F7C0F7C1F3CBE
:1046F8003E3FFC1FF0070000000000000000000023
:10470800F007F80F7C1E3E3C1E3C1F7C1F7C1F7C64
:104718001F7C1F3C3F3EFF1FEF071F001E001E00AF
:104728003E003C00F838F03FE01F000000000000A9
:104738000000000000000000000000000000000071
:10474800E003E003E003E0030000000000000000D5
:10475800000000000000E003E003E003E0030000C5
:104768000000000000000000000000000000000041
:1047780000000000E003E003E003E00300000000A5
:1047880000000000000000000000E003E003E00378
:10479800E003E001E001E001C00380030000000045
:1047A800000000000000000003000F003F00FC00B4
:1047B800F003C00F003F00FE003FC00FF003FC00F5
:1047C8003F000F0003000000000000000000000090
:1047D80000000000000000000000000000000000D1
:1047E80000000000FFFFFFFF000000000000FFFFC7
:1047F800FFFF0000000000000000000000000000B3
:1048080000000000000000000000000000000000A0
:1048180000E000F8007E801FE007F8017E001F001E
:104828007E00F801E007801F007E00F800E000002D
:104838000000000000000000F01FFC3F3E381F3859
:104848001F381E001E003C007800F000E001C00385
:10485800C003C007C007000000000000C007C00771
:10486800C00700000000000000000000F803FE0F71
:104878001E1F0F3E7F3CFF78EF79C773C7F38FF396
:104888008FF38FF39FF39FF3FF73FF7BF779003C60
:104898001C1FFC0FF80300000000000000000000CF
:1048A800000000000000E003E003F007F007F00755
:1048B800780F780F7C0E3C1E3C1E3E3CFE3FFF3FAF
:1048C8001F780F780FF007F007F0000000000000D5
:1048D80000000000000000000000F83FFC3F3E3CE4
:1048E8001E3C1E3C1E3C3E3C7C3CF03FF83F7E3C60
:1048F8001F3C1F3C0F3C0F3C1F3CFE3FF83F000095
:104908000000000000000000000000000000FF019F
:10491800FF07871F003E003C007C00780078007885
:1049280000780078007C007C003E003F831FFF0772
:10493800FF0100000000000000000000000000006F
:104948000000F07FFC7F7E781F781F780F780F7843
:104958000F780F780F780F780F780F781F781E78F8
:104968007E78F87FE07F0000000000000000000073
:10497800000000000000FF3FFF3F003E003E003EF9
:10498800003E003E003EFE3FFE3F003E003E003E31
:10499800003E003E003EFF3FFF3F000000000000D9
:1049A80000000000000000000000FF1FFF1F001EA5
:1049B800001E001E001E001E001EFF1FFF1F001EFF
:1049C800001E001E001E001E001E001E001E00000D
:1049D8000000000000000000000000000000FE03CE
:1049E800FF0F871F003E007C007C007800F800F86D
:1049F8007FF87FF80F780F7C0F7C0F3E8F1FFF0F1B
:104A0800FE0300000000000000000000000000009D
:104A180000001F7C1F7C1F7C1F7C1F7C1F7C1F7C51
:104A28001F7CFF7FFF7F1F7C1F7C1F7C1F7C1F7CE0
:104A38001F7C1F7C1F7C000000000000000000009D
:104A4800000000000000FF3FFF3FE003E003E00339
:104A5800E003E003E003E003E003E003E003E00336
:104A6800E003E003E003FF3FFF3F00000000000019
:104A780000000000000000000000FC1FFC1F7C007C
:104A88007C007C007C007C007C007C007C007C003E
:104A98007C007C0078007800F838F03FC03F0000C8
:104AA80000000000000000000000000000001F3CA3
:104AB8001E3C3C3C783CF03CE03DE03FC03F803F42
:104AC800C03FE03FF03DF03C783C7C3C3E3C1F3C26
:104AD8000F3C000000000000000000000000000083
:104AE8000000003E003E003E003E003E003E003E0C
:104AF800003E003E003E003E003E003E003E003EBE
:104B0800003EFF3FFF3F00000000000000000000E3
:104B18000000000000001FF81FFC1FFC3FFE3FFEC6
:104B28003FFE7FFF77FF77FFF7F7E7F7E7F3E7F356
:104B3800C7F307F007F007F007F0000000000000D7
:104B4800000000000000000000000F7C0F7C0F7EBA
:104B58000F7F0F7F8F7F8F7FCF7FEF7BEF79FF797D
:104B6800FF78FF787F783F783F781F781F780000BC
:104B78000000000000000000000000000000F00736
:104B8800FC1F3E3E1F7C0F780F780FF80FF80FF8C8
:104B98000FF80FF80FF80F780F781F7C3E3EFC1FB8
:104BA800F007000000000000000000000000000006
:104BB8000000FC3FFF3F1F3E0F3E0F3E0F3E0F3EE3
:104BC8001F3E3F3EFC3FF03F003E003E003E003EA1
:104BD800003E003E003E0000000000000000000013
:104BE800000000000000F007FC1F3E3E1F7C0F780D
:104BF8000F780FF80FF80FF80FF80FF80FF80F7875
:104C08000F781F7C3E3EFC1FF8077C003F000F001A
:104C180003000000000000000000F03FFC3F7E3C65
:104C28003E3C1E3C1E3C3E3C3C3CFC3CF03FE03FD6
:104C3800F03DF83C7C3C3E3C1E3C1F3C0F3C0000D9
:104C48000000000000000000000000000000FC0759
:104C5800FE1F0E3E003C003C003C003EC01FF80F0B
:104C6800FE037F001F000F000F001F203E3CFC3F8B
:104C7800F01F00000000000000000000000000001D
:104C88000000FFFFFFFFE003E003E003E003E003B1
:104C9800E003E003E003E003E003E003E003E003F4
:104CA800E003E003E0030000000000000000000053
:104CB8000000000000000F7C0F7C0F7C0F7C0F7C35
:104CC8000F7C0F7C0F7C0F7C0F7C0F7C0F7C0F7C84
:104CD8001E3C1E3C3E3EFC1FF0070000000000008A
:104CE8000000000000000000000007F007F007F8CF
:104CF8000F780F7C1E3C1E3C1E3E3C1E3C1F781F3E
:104D0800780FF80FF007F007F007E003E003000062
:104D1800000000000000000000000000000003E0A8
:104D280003F003F007F0E7F3E7F3E7F3E773F77B44
:104D3800F77FFF7F7F7F7F7F7E7F7E3F3E3E3E3EC9
:104D48003E3E0000000000000000000000000000DF
:104D5800000007F80F7C1E3E3E3E3C1FF80FF00790
:104D6800E007E003E003F007F80F7C0F7C1E3E3CF1
:104D78001F780F780FF0000000000000000000000E
:104D880000000000000007F807780F7C1E3C1E3E5C
:104D98003C1F780FF80FF007E003E003E003E0039F
:104DA800E003E003E003E003E0030000000000008C
:104DB80000000000000000000000FF7FFF7F0F00E0
:104DC8001F003E007C00F800F000E001E003C0078F
:104DD800800F000F001E003E007CFF7FFF7F000059
:104DE8000000000000000000FF0780078007800720
:104DF8008007800780078007800780078007800773
:104E08008007800780078007800780078007800762
:104E1800800780078007FF07FF07000000780078F9
:104E2800003C003C001E001E000F000F800780079A
:104E3800C003C003E001E001F000F0007800780052
:104E48003C003C001E001E000F000F000700000081
:104E5800F07FF000F000F000F000F000F000F0004B
:104E6800F000F000F000F000F000F000F000F000BA
:104E7800F000F000F000F000F000F000F000F07F2B
:104E8800F07F0000C000C001C001E003E003F007AC
:104E9800F0077807780F380F3C1E3C1E1E3C1E3C5E
:104EA8000F380F78077800000000000000000000AD
:104EB80000000000000000000000000000000000EA
:104EC80000000000000000000000000000000000DA
:104ED80000000000000000000000000000000000CA
:104EE8000000FFFFFFFF000000000000F0000000CE
:104EF80000000000000000000000000000000000AA
:104F08000000000000000000000000000000000099
:104F18000000000000000000000000000000000089
:104F2800000000000000000000000000F80FFC3F37
:104F38007C3C3E003E003E00FE07FE1F3E3E3E7C9F
:104F48003E783E7C7E7CFF3FCF1F000000000000C3
:104F580000000000003C003C003C003C003C003CE1
:104F6800F83DFE3F3E3F1F3E0F3C0F3C0F3C0F3CC1
:104F78000F3C0F3C1F3C1E3C3E3FFC3FF03B0000FB
:104F88000000000000000000000000000000000019
:104F980000000000FE03FF0F871F003E003E003C9C
:104FA800007C007C007C003C003E003E871FFF0F19
:104FB800FE03000000000000000000001F001F00AA
:104FC8001F001F001F001F00FF07FF1F3F3E1F3C61
:104FD8001F7C1F7C1F7C1F781F781F7C1F7C3F3C19
:104FE8007F3EFF1FDF0F00000000000000000000F0
:104FF800000000000000000000000000F803FC0FA3
:105008003E1F1E3E1F3C1F7CFF7FFF7F007C007CF5
:10501800003C003E071FFF0FFE03000000000000D9
:1050280000000000FF01E103C003C007C007C0077C
:10503800FF7FFF7FC007C007C007C007C007C007C2
:10504800C007C007C007C007C007C007C0070000E7
:105058000000000000000000000000000000000048
:1050680000000000EF07FF1F7F3E1F3C1F7C1F7CD6
:105078001F781F781F781F7C1F7C3F3C7F3EFF1FD7
:10508800DF0F1E001E001E007C38F83F003C003C6D
:10509800003C003C003C003CFC3DFE3F9E3F1F3F67
:1050A8001F3E1F3C1F3C1F3C1F3C1F3C1F3C1F3C1E
:1050B8001F3C1F3C1F3C00000000000000000000D7
:1050C800F001F0010000000000000000E07FE07F38
:1050D800E001E001E001E001E001E001E001E001C0
:1050E800E001E001E001E001E00100000000000053
:1050F80000000000F800F8000000000000000000B8
:10510800F83FF83FF800F800F800F800F800F80059
:10511800F800F800F800F800F800F800F800F800C7
:10512800F800F000F071E07F003C003C003C003CDF
:10513800003C003C1F3C3E3C7C3CF83CF03DE03DE4
:10514800C03FC03FE03FF03DF83C7C3C3E3C1F3C4C
:105158001F3C00000000000000000000F07FF0018C
:10516800F001F001F001F001F001F001F001F001AF
:10517800F001F001F001F001F001F001F001F0019F
:10518800F001F001F0010000000000000000000044
:105198000000000000000000000000009EF7FFFF74
:1051A800FFFFFFFFE7FBE7F9C7F1C7F1C7F1C7F159
:1051B800C7F1C7F1C7F1C7F1C7F10000000000004F
:1051C80000000000000000000000000000000000D7
:1051D800FC3DFE3F9E3F1F3F1F3E1F3C1F3C1F3CA8
:1051E8001F3C1F3C1F3C1F3C1F3C1F3C1F3C00003A
:1051F80000000000000000000000000000000000A7
:1052080000000000F007FC1F3E3E1F3C1F7C0F788B
:105218000F780F780F780F781F7C1F3C3E3EFC1FDD
:10522800F00700000000000000000000000000007F
:105238000000000000000000F83DFE3F3E3F1F3E1A
:105248000F3C0F3C0F3C0F3C0F3C0F3C1F3C1E3EDD
:105258003E3FFC3FF83F003C003C003C003C003C2B
:10526800000000000000000000000000EE07FE1F24
:105278007E3E1E3C1E7C1E781E781E781E781E7888
:105288001E7C3E7C7E3EFE1FDE0F1E001E001E00A2
:105298001E001E00000000000000000000000000CA
:1052A8007F1FFF1FE71FC71F871F001F001F001F4B
:1052B800001F001F001F001F001F001F001F00000D
:1052C80000000000000000000000000000000000D6
:1052D80000000000FC07FE1F0E1E003E003E003FBF
:1052E800E01FFC07FE003E001E001E003E3CFC3F87
:1052F800F01F000000000000000000000000000097
:105308000000800780078007FF7FFF7F80078007F6
:10531800800780078007800780078007800780074D
:10532800C007FF03FF0100000000000000000000AC
:105338000000000000000000000000001E3C1E3CB1
:105348001E3C1E3C1E3C1E3C1E3C1E3C1E3C1E3C85
:105358003E3C7E3CFE3EFE1FDE0F000000000000CB
:105368000000000000000000000000000000000035
:1053780007F00F780F781E3C1E3C1E3E3C1E3C1E5C
:10538800780F780FF00FF007F007E003E003000054
:105398000000000000000000000000000000000005
:1053A8000000000003F0E3F1E3F3E7F3F7F3F7F3AA
:1053B800F77F777F7F7F7F7F7F7F3E3E3E3E3E3E0B
:1053C8003E3E000000000000000000000000000059
:1053D80000000000000000000F7C1E3E3C3E3C1F09
:1053E800F80FF007F007E003F007F807F80F7C1E46
:1053F8003E3E1F3C1F780000000000000000000037
:1054080000000000000000000000000007F80F780E
:105418000F7C1E3C1E3C3C1E3C1E3C1F780FF80FA8
:10542800F007F007E003E003C003C003C0038007F0
:10543800800F007F00000000000000000000000056
:10544800FF3FFF3F1F003E007C00F800F001E00333
:10545800C007800F001F001E003CFF7FFF7F000079
:105468000000000000000000FE01E003C003C003CC
:10547800C003C003E001E001E001C001C003803FB8
:10548800803FC003C001E001E001E001C003C003A8
:10549800C003C003E003FE017E000000C001C0019C
:1054A800C001C001C001C001C001C001C001C001EC
:1054B800C001C001C001C001C001C001C001C001DC
:1054C800C001C001C001C001C001C001C00100008D
:1054D800C03FE003E001E001E001E001C001C003DA
:1054E800C003C001E001FE00FE00E001C001C003EE
:1054F800C003C001E001E001E001E001E003C03FBA
:10550800003F000000000000000000000000000054
:1055180000000000000000000000073FC77FE7739D
:10552800FFF17EF000000000000000000000000015
:105538000000000000000000FC1F00081020000808
:10554800282000088C2000085C2000088C20000817
:105558008C2000088C20000874200008AE20000869
:10556800C6200008DE20000898210008162100083F
:105578009821000898210008982100082E21000889
:1055880000000000000000000102030406070809EB
:105598000000000001020304030406080C10182090
:0455A80030000000CF
:0855AC00ECADFF7F01000000DF
:0455B40039010008B1
:0455B8000D010008D9
:1055BC000B12000098340008101A0000F441000887
:0455CC0080841E00B9
:04000005080033813B
:00000001FF
