:020000040800F2
:10000000005000204D540008ED2E0008F12E00088D
:1000100000000000000000000000000000000000E0
:10002000000000000000000000000000F52E0008A5
:100030000000000000000000F92E0008FD2E00085E
:100040009D5400089D5400089D5400089D540008CC
:100050009D5400089D5400089D5400089D540008BC
:10006000000000009D5400089D5400089D540008A5
:100070009D5400089D5400089D540008092F000855
:100080009D5400089D5400089D5400080000000085
:100090009D5400089D5400089D5400089D5400087C
:1000A0009D5400089D5400089D5400089D5400086C
:1000B0009D5400089D54000800000000000000004E
:1000C00008B5054B054803331B1A062B03D9044B0F
:1000D000002B00D0984708BD780000207800002051
:1000E000000000000648074908B5091A8910CB0F1F
:1000F0005918491003D0044B002B00D0984708BD75
:1001000078000020780000200000000010B5074CA7
:100110002378002B09D1FFF7D3FF054B002B02D02A
:10012000044800E000BF0123237010BD78000020C8
:1001300000000000185D000808B5094B002B03D033
:100140000848094900E000BF08480368002B02D1B5
:10015000FFF7C8FF08BD064B002BF9D09847F7E71B
:1001600000000000185D00087C00002078000020DE
:1001700000000000002243088B4274D303098B4225
:100180005FD3030A8B4244D3030B8B4228D3030C67
:100190008B420DD3FF22090212BA030C8B4202D309
:1001A0001212090265D0030B8B4219D300E0090A31
:1001B000C30B8B4201D3CB03C01A5241830B8B423A
:1001C00001D38B03C01A5241430B8B4201D34B0323
:1001D000C01A5241030B8B4201D30B03C01A524188
:1001E000C30A8B4201D3CB02C01A5241830A8B420D
:1001F00001D38B02C01A5241430A8B4201D34B02F6
:10020000C01A5241030A8B4201D30B02C01A524159
:10021000CDD2C3098B4201D3CB01C01A524183090D
:100220008B4201D38B01C01A524143098B4201D347
:100230004B01C01A524103098B4201D30B01C01A72
:100240005241C3088B4201D3CB00C01A52418308EC
:100250008B4201D38B00C01A524143088B4201D319
:100260004B00C01A5241411A00D201465241104679
:100270007047FFE701B5002000F00CF802BDC04652
:100280000029F7D003B5FFF775FF0EBC4243891A6A
:100290001847C0467047C0468446101C62468C46CC
:1002A000191C634600E0C0461FB500F089FF002816
:1002B00001D40021C8421FBD10B500F0CDFE404260
:1002C000013010BD10B500F07BFF002801DB0020DD
:1002D00010BD012010BDC04610B500F071FF002810
:1002E00001DD002010BD012010BDC04610B500F09A
:1002F000F7FE002801DC002010BD012010BDC04623
:1003000010B500F0EDFE002801DA002010BD01203C
:1003100010BDC046002B11D1002A0FD1002900D1F9
:10032000002802D00021C943081C07B4024802A1DA
:100330004018029003BDC0465DFFFFFF03B468464E
:1003400001B5029800F022F8019B9E4602B00CBC59
:100350007047C046F0B583B0161C1F1C0090019179
:1003600001F058FE041C0D1C221C2B1C301C391CD7
:1003700001F026FE009A019B121A8B410899201C5D
:100380000A604B60291C03B0F0BDC046F0B5141CD8
:1003900083B01D1C0090019101F034FF221C2B1C26
:1003A000061C0F1C01F00CFE009A019B121A8B41D7
:1003B0000899301C0A604B60391C03B0F0BDC04680
:1003C000F0B5454657464E4694464C000A03C90FC1
:1003D000E0B488460E1C1903470FC500480A614661
:1003E000490F01436046520A1743C0005A00640D8A
:1003F000520DDB0F8446984500D1A7E0A01A0028D3
:1004000000DC01E1002A3DD163460B4300D0D4E07B
:100410006B0700D188E00F232B40042B00D183E031
:100420002A1DAA42AD4180236D427F191B043B4027
:100430004646151C002B00D17CE0CC4B01349C427D
:1004400000D1FDE03A1CCA4BED081A405007640584
:1004500052020543120B640D002112030B0D1B0504
:100460006405120B1A436308C24CF60714401C4380
:10047000640064083443281C211C1CBC9046994627
:10048000A246F0BDB94B9C42C2D080231B04194345
:10049000382800DDECE01F2800DD21E120220E1CC1
:1004A0006346121A9640C340334366469640321C58
:1004B000561EB24113430A1CC240EB1A9D42B6417C
:1004C0001D1CBA1A7642971B3B0200D497E07A02B1
:1004D000560A002E00D1B6E0301C01F053FD031C7B
:1004E000083B1F2B00DDB7E09E40371C28262A1C46
:1004F000361AF240161C9D403E439C4200DDB2E09D
:100500001C1B621C1F2A00DDD8E01F23291C1C1B9A
:10051000331CA540A340D1406C1EA541D6401943D1
:100520000D43371C002473E780231B043B404646E1
:1005300000D082E78D4BED0878070543FA089C420E
:1005400032D012036405120B640D85E7A31A002B49
:1005500000DC94E0002A3CD0844A944200D157E762
:10056000802212041143382B00DC05E16346194355
:10057000481E81410022C8B24019A8429B41051C77
:10058000D2195B42D7183B0239D5784B01349C42D3
:1005900000D14CE10120764A6B083A4028401843CC
:1005A000D5070543570833E72B1C134348D0802356
:1005B0001B031A431203120B4EE70138002878D1AF
:1005C0006346EE1AB5429B417A1A5B42D71A351C34
:1005D0007AE7021C0A4300D11AE7013B002B00D046
:1005E000F2E04019A8429B41CA195B42D718051C8A
:1005F000C9E7131C334300D118E1171C351C4646CC
:100600006B0700D007E795E700287AD1621C5205F6
:10061000520D012A00DCFBE06246AA1A9542B6415F
:100620009146781A7242861A320200D493E06246EA
:10063000551BAC458041CF1B40423E1A984648E7C7
:100640000022002508E7281C01F09CFC2030031C38
:10065000083B1F2B00DC47E7283885402E1C00256F
:100660009C4200DC4CE7424AE41A1640371CCFE6B5
:10067000634619434B1E99410022CBB21DE7002B64
:1006800000D0F2E0601C43055B0D012B00DCA4E010
:10069000364B984200D121E163465C19AC429B4144
:1006A000CF195B42FA186408D50725435708041C84
:1006B000AEE62E4B9C4200D0EAE6A9E6211C331C94
:1006C0001F39CB40191C202A00D182E03F231C1B7C
:1006D000A64035436E1EB54100270D4300248EE72A
:1006E000031C0E1C203BDE40202874D040231B1A24
:1006F00099400B1C62461343591E8B410022334321
:10070000DBE6002C50D0194CA24200D1A8E0802496
:10071000240440422743382800DDD9E01F2800DDAB
:1007200039E120243E1C241AA640B0462E1CA146C6
:10073000C640444626434C46A5406C1EA541C740D2
:1007400035436046451BCF1BAC45894149427F1A62
:10075000141C9846B8E64B464D46334300D0B8E6E5
:100760000026002700240025E4E6C046FF0700001D
:10077000FFFF7FFFFFFF0F801F2B5BDC2022081C89
:10078000D21A9040814660469246D8404A4610436D
:100790008146524660469040021C501E82414846A7
:1007A00010430A1CDA40E7E63C1C2C4358D0C043F7
:1007B000002851D16046451BAC458041CF1B4042CB
:1007C0003F1A141C98467FE68F4A944200D0CAE62E
:1007D0001EE600267DE700238CE73B1C2B43002C04
:1007E00000D0BDE0002B00D1F5E063460B4300D103
:1007F0000EE663465B19AB428041CA1940421718A6
:100800003A0200D4FCE0814A1D1C17400134FFE588
:100810003A1C2A43002C51D1002A00D085E06246C0
:100820000A4303D00F1C65469846F1E500260027D1
:1008300000257FE6181C0A1C2038C240202B00D15E
:10084000A7E04020C01A8140081C63461843411E9F
:100850008841104300228FE66B4CA24200D05AE739
:100860000F1C6546141C9846D2E5002C3AD1381C62
:10087000284371D0DB43002B18D0634882426BD0F1
:10088000382B00DD9DE01F2B00DDA7E020203C1C65
:10089000C01A8440A1462C1C8246DC4048460443D2
:1008A00050468540681E8541DF40254365446545C7
:1008B0009B417F185B42FF18141C64E6002A19D183
:1008C00062460A4377D00F1C654698464E4C9FE51A
:1008D0003D436F1EBD410027EDB232E7041C0027E7
:1008E000002527E64848824236D0802000045B423B
:1008F0000743C5E762460A4349D08024ED087807DC
:10090000FA0824032843224209D0CE08264206D101
:1009100062464F07381CD20810439846321CD2005A
:10092000470F1743C500384C72E562460A4300D1B1
:100930006EE56246AE1AB5429241781A5242821A68
:10094000100200D455E66246551BAC458041CA1BD7
:100950004042171A98465BE50F1C6546141C57E584
:10096000002B34D063460B4311D08024ED08780768
:10097000FA08240328432242D1D0CB082342CED107
:1009800062464F07381CD20810431A1CC7E71E4C9A
:100990003EE5002059E7041C3E1C203CE640341C88
:1009A00020282BD04026301A87403D436F1EBD4182
:1009B00000272543C5E680270026FF03124C0025AB
:1009C000B8E53D436F1EBD410027EDB26EE70F1C39
:1009D00065460D4C1CE50F1C654619E51C1C381CB2
:1009E000203CE040041C202B0CD04020C31A9F4028
:1009F0003D436F1EBD410027254357E70027D4E73D
:100A00001D1CFCE50027F3E7FF070000FFFF7FFF49
:100A1000F0B55F4656464D464446F0B40F0387B0E6
:100A200098464D003B0BCC0F061C924681469B46D8
:100A30006D0D01946BD0664B9D4235D080275B468F
:100A40007F031F43F3009946624BFF00400F9C4613
:100A500007430023BB460026654400934246170324
:100A60005000D20F53463F0B400D904600D172E02C
:100A7000574A904267D080235B031F435346554A31
:100A80005B0FFF001F43944653460021DB00604488
:100A90004246624092462D1A0E430F2E00D9A1E025
:100AA0004D48B600805987465B461E4300D076E02D
:100AB00000239B469946023308260093CEE79946C9
:100AC0004346BB4601930091009B022B6BD1019BD7
:100AD0009A46002153460122002789461A403C4B82
:100AE00000213F030C0D24053F0B27433B4C1B0506
:100AF00027401F437F00D2077F0817434846391C11
:100B000007B03CBC90469946A246AB46F0BD0343B5
:100B10003ED05B46002B00D19CE1584601F032FAF2
:100B20002823311C1B1A021C5F46D940083A974003
:100B30000B1C96403B439B46B1460023284D0026A4
:100B40002D1A00938AE7524603213A43A0D1002789
:100B5000002302219CE752463A4315D0002F00D1D2
:100B600085E1381C01F00EFA021C28215046891A32
:100B7000131CC8405146083B99409F400B1C07433B
:100B800017480021801A83E70027002301217FE70F
:100B900000239B4699460133042600935EE7032316
:100BA0000C2600935AE7032B00D13CE2012B00D026
:100BB000BFE11A1C019B1A4000210023002789462F
:100BC0008EE700238027994600223F03004B87E7EA
:100BD000FF07000001FCFFFF305D0008FFFF0F80F2
:100BE0000DFCFFFFBB4500D951E100D14CE14A4665
:100BF000039200225C469046013D180E3F023843A6
:100C00001B020193030C994603041B0C4946061C66
:100C1000201C1F1C0093FFF7ADFA021C7A430290C0
:100C20004946201C171CFFF72BFB039B09041B0CD8
:100C300019438F420CD9029B8919013B8E4200D97E
:100C400052E18F4200D84FE1029B8919023B029387
:100C5000CC1B201C4946FFF78DFA009F8346474373
:100C60004946201CFFF70CFB039A0B041404240CC8
:100C700023439F420DD95A469B19013A9E4200D9FF
:100C800030E19F4200D82DE10222524294469B1946
:100C9000E344029ADB1B17045A463A439346019CED
:100CA000170C220C101C04925A4611042204120C38
:100CB000141C090C7C4305924A4341434743611885
:100CC000100C09188C4203D98020400284466744E6
:100CD0000C0C12040804120C3C198118A34200D217
:100CE000E5E000D1DFE01F1B43465C1AA0459241BE
:100CF0005242BF1AB74200D10EE1381C4946FFF7F5
:100D000039FA009B029043434946381C9846FFF746
:100D1000B7FA230C0F041F43B8450CD9029BBF1927
:100D2000013BBE4200D9FBE0B84500D8F8E0029B89
:100D3000BF19023B02934346FF1A4946381CFFF78E
:100D400019FA009B039043434946381C9846FFF725
:100D500097FA24040904240C214388450CD9039BE9
:100D60008919013B8E4200D9DCE0884500D8D9E0E2
:100D7000039B8919023B03934346C91A029B039ABA
:100D80001B04059C1A43100C13049146221C049F5B
:100D90001B0C5A4344437B437843E318170CDB197D
:100DA0009C4203D980246402A44660441C0C1204B3
:100DB0001B04120C00199B18814200D296E000D14E
:100DC000FCE04A4601231A4391469B4BEB18002B4B
:100DD00000DC99E04A4652070AD00F2249460A40F1
:100DE000042A05D004314945924189465242934430
:100DF0005A46D20106D55A46904B1A408023934654
:100E0000DB00EB188E4A934200DD62E64A46594603
:100E1000D208490711435A468946570251460122D2
:100E20005B053F0B5B0D0A405AE680205A460003E3
:100E3000024208D0074206D107433F0399463F0BC1
:100E40004246804B4CE65F4607433F033F0B221C64
:100E50007C4B45E601F096F8031C2030272800DC87
:100E60005EE6083B9E400023B346994665E6504641
:100E700001F088F8021C2032272A00DC75E657466C
:100E80000838874000237BE6994500D2AFE65A46F2
:100E9000594654084A46C8075208024303924A4634
:100EA000D2079046A9E60027884500D31CE7019F9A
:100EB0005A46BC46E044B845BF417F42BF19FF18BF
:100EC000013ABE4206D2BC425FD800D19FE03F1B30
:100ED000934609E7B742FAD1019B4345F3D9371B43
:100EE000934601E79346D4E60293B1E64A46891950
:100EF000013A8E4218D99146814200D061E7019AA9
:100F00009A4200D05DE760E74F4F7F1B382F13DD1B
:100F1000012253461A404FE601235B42994654E7AB
:100F2000029308E7039327E788423CD874D09146A0
:100F300047E7019B9A4648E71F2F44DC434B4A464C
:100F40009C465B466544FA40AB4013434A46AA4080
:100F5000151C6A1E95415A46FA402B43171C5A0726
:100F600009D00F221A40042A05D01A1D9A429B412B
:100F70005B42FF18131C3A023ED553460122002162
:100F80001A40002701238946AAE502235B429C46BA
:100F9000019AE3449446E04490459B415B429B198F
:100FA000DF193F1BA0E6019F4A467C00BC42BF41BF
:100FB0007F42BF19023AC91901949CE7002B95D1D1
:100FC000002201929BE75A46214B5B1BDA40202FFF
:100FD00027D0204B9C465B466544AB4049460B43BB
:100FE000591E8B411343072200271A4007D00F22B6
:100FF00000271A40042AB8D17A077F023F0BDB088A
:1010000013439946012253461A40002368E541459F
:10101000BBD89346002767E6019C9C42C3D3914608
:101020006DE70023DAE780275B463F031F433F035A
:101030003F0B019A034B53E5FF030000FFFFFFFE48
:10104000FE070000FF07000002FCFFFF1E04000077
:10105000E2FBFFFF3E040000F0B55F464D4644460C
:101060005646F0B41F035C00DB0F99461B4B0E0382
:101070004D00C90F8446360B6D0D8B4690463F0BD5
:10108000640D9D420CD0154B9C4210D00123A5420B
:1010900014D0181C3CBC90469946A246AB46F0BD05
:1010A000311C01230143F4D10C4B9C42EED13A4355
:1010B0000123002AEDD10123A542EAD1BE42E8D1A5
:1010C000C445E6D1CB4506D0002DE2D13043031C08
:1010D000581E8341DDE70023DBE7C046FF07000021
:1010E000F0B5574645464E46E0B40F034E00C90FD3
:1010F0008A4632491D035C0084463F0B760D9046BC
:101100002D0B640DDB0F8E420FD08C4239D0002E98
:1011100010D13843414241418946002C27D12A430E
:1011200025D1002000290ED108E0391C01432ED121
:10113000B44226D0002C0BD09A450DD053465942CC
:1011400001231943081C1CBC90469946A246F0BDD9
:101150002A43F3D09A45F1D1A642EFDC1ADA504681
:1011600041424841012341421943081CEBE74A46EA
:10117000002AE1D058425841012241421143081C43
:10118000E1E7291C114302D1002EC2D0D4E702208E
:101190004042D8E7AF42D1D809D00020AF42D2D2E6
:1011A000504641424841012340421843CBE7C445E1
:1011B000C4D80020C445F3D3C5E7C046FF070000EC
:1011C000F0B55F464D46444656468046F0B4061C90
:1011D0000803000B84462C484C001F035D00C90F18
:1011E000640D8B4691463F0B6D0DDB0F844212D090
:1011F000854225D0002C14D161460E4370424641F1
:10120000002D35D0002E21D05842584101214342B3
:101210000B43181C0EE06146022031430AD1A5425F
:101220000ED0002D12D13A4310D15B465942012312
:101230001943081C3CBC90469946A246AB46F0BDFB
:10124000391C02201143F5D1002CD5D09B45ECD19F
:10125000AC42EADC05DBBC45E7D80FD00020BC453A
:10126000E8D2584641424841414201200843E1E763
:101270003A43C7D10020002EDCD1D6E7C845D4D8E8
:101280000020C845EDD3D5E7FF070000F0B55F4665
:1012900056464D464446F0B4051C061C080387B06C
:1012A00099464F00030BCC0F92469B467F0D01944D
:1012B00067D06C4B9F4236D080205B46400318437A
:1012C000C0006B0F1843684B83469C46002398462A
:1012D000EE00674400934B4649461D03C90F5B006F
:1012E00052462D0B5B0D894600D16EE05D498B4265
:1012F00064D080205C4940038C4600210543ED000A
:10130000500F0543D20063444846FF187B1C9A46A1
:10131000009B604002900B430F2B00D9ACE0534878
:101320009B00C3589F465B461D4300D082E00823C4
:10133000009300239B46023300269846CBE7029B8E
:1013400001934346022B59D1012400250026019B1D
:101350001C40444B00212D030A0D12052D0B154393
:10136000434A1B0515401D436D00E4076D082543E6
:10137000301C291C07B03CBC90469946A246AB469F
:10138000F0BD2B434ED05B46002B00D185E1584683
:1013900000F0F8FD021C2823291C9B1A161C584635
:1013A000D940083EB0400B1CB54003439B462E1C61
:1013B0000023304F0093BF1A98468CE751462943CB
:1013C0002ED10025002202219EE75146294323D039
:1013D000002D00D154E1281C00F0D4FD031C28216D
:1013E0005046C91A1A1CC8405146083A91409540C7
:1013F0000A1C05431F480021C31A85E7032B00D1AF
:10140000C2E1012B00D06DE14446019B00251C4048
:10141000E4B2002300269DE700250022012173E7A6
:10142000032171E70423009300239B460133002628
:10143000984650E70C230093093B98464BE78025DC
:1014400000242D030026074B84E74B46AB46161CB1
:101450000193884675E7029BAB46161C01938846AC
:101460006FE7C046FF07000001FCFFFF705D00084A
:10147000FFFF0F800DFCFFFF330C3604360C9C463B
:10148000331C140C1204120C534398466346534306
:101490009946634663430193331C41466343090CF9
:1014A0004B445B18994505D980204002814601993B
:1014B00049440191190C039141460904090C1B048C
:1014C0005B1804932B0C9846331C2D04290C4B43BA
:1014D000604600934346654658435E43009B4D4338
:1014E0001B0C9946AE194E448446B54203D980235D
:1014F0005B029946CC44350C2B1C0398634484460C
:101500000593009B36041B041B0CF3189C44604697
:10151000039058460504060C280C84465043351C9D
:1015200081466046654344434846000C8346724307
:1015300014195C44A24203D98022520293465D44AE
:10154000220CAD184A461204120C24044046A4187A
:1015500062464A437143464360460096464670439E
:101560008046100C84468844E044414505D98021DA
:1015700049028C4600996144009101980399844680
:10158000614499429B415B42994605984346844693
:101590001204120C1B049B1863449C46AB46834206
:1015A0009B4140460A19CC44A2428941E344CC45C0
:1015B000B6415C46000C8046494276425B42641864
:1015C000334398448C428941AB459B4149425B423D
:1015D00019430D1C009B4544EE187602E50D2E4381
:1015E000B346049B56021E43731E9E415B46D20DBA
:1015F000324366021643DB010AD5012333407608E5
:101600001E435B46DB071E435B465B089B46574613
:10161000634BFB18002B5ADD720709D00F223240B2
:10162000042A05D0321DB242B6417642B344161C9C
:101630005A46D20106D55A465A4B1A408023934641
:10164000DB00FB18584A934234DD0124029B00253D
:101650001C400026554B7DE680205B46000303427C
:1016600008D0054206D105432D032D0B4C46161C10
:101670004E4B6FE65D4605432D032D0B4B4B69E644
:10168000504600F07FFC031C2033272B00DCA6E62D
:101690005546083885400022ACE6281C00F072FC54
:1016A000021C2032272A00DC75E608388540002617
:1016B000AB467DE65A46F608520716435A460124C1
:1016C0005502029A5B052D0B5B0D144042E6384D26
:1016D000ED1B382D0ADD0124029B00251C4000264D
:1016E000002337E6019B5746029391E71F2D25DC27
:1016F000304B321C9C466744BE405B46BB40371CA7
:10170000EA407E1EB74113433B431E1C5B46EB4041
:101710001D1C730709D00F233340042B05D0331D44
:10172000B342B6417642AD191E1C2B0220D50124CE
:10173000029B00251C40002601230BE65A461E4B47
:10174000DB1BDA40131C202D1CD01C4A94465A4641
:101750006744BA40171C3E43721E96411E4307233E
:101760000025334007D00F2300253340042BD6D16A
:101770006B076D022D0B0124F6081E43029B1C40D3
:101780000023E7E50027E6E780255B4601242D03DB
:101790001D43019B2D0323401C1C2D0B034BD9E53E
:1017A000FF030000FFFFFFFEFE070000FF07000031
:1017B00002FCFFFF1E040000E2FBFFFF3E040000EE
:1017C000F0B54D4644465F465646F0B40E1C111C1B
:1017D0003203520A470F1743C5001A035800DB0FA4
:1017E0009946520A4B0F83B01A43CB000193CF4B5B
:1017F0007400F60F640DB046400D984200D1E8E049
:101800000123494659400B1C9E4200D1B1E0261AE3
:10181000002E00DC1CE1002842D1131C01990B436F
:1018200000D0E6E06B0700D18EE00F232B40042BA5
:1018300000D189E02A1DAA42AD41802301264146FC
:101840006D427F191B043B400E40151C002B00D13C
:1018500083E0B64B01349C4200D116E13A1CB44BF4
:10186000ED081A405007640552020543120B640D3F
:10187000002112030B0D1B056405120B1A436308AC
:10188000AC4CF60714401C43640064083443281C25
:10189000211C03B03CBC90469946A246AB46F0BD25
:1018A000A24B9C42BED080231B041A43382E00DD7D
:1018B00003E11F2E00DD3FE12020831B9946131C0E
:1018C00049468B409C46019B6046F3400343019888
:1018D000F2408840011C481E81410B43EB1A9D4297
:1018E00080411D1CBA1A4042171A3B0200D4A8E0DE
:1018F0007A02560A002E00D1CAE0301C00F042FBEA
:10190000031C083B1F2B00DDCBE02822291C121AE8
:10191000D1409E400A1C9D4032439C4200DDC8E0FD
:101920001C1B671C1F2F00DDEDE01F23291C1C1B47
:10193000131CA540A340F9406C1EA541FA40194371
:101940000D43171C00246DE78023012642461B042B
:101950003B401640002B00D07BE7744BED08780726
:101960000543FA089C423BD012036405120B640D38
:101970007EE7231A9A46002B00DCA5E0002844D01D
:101980006A48844200D14DE7802000040243534658
:10199000382B00DC1CE1019B1A43511E8A41D1B255
:1019A00000224919A94280410D1CD2194042171842
:1019B0003B0246D55D4B01349C4200D169E10120D8
:1019C0005B4A6B083A4028401843D507054357083F
:1019D00028E7131C01990B4300D111E74B4613E78D
:1019E0002B1C134351D080231B031A431203120BE9
:1019F0003EE7013E002E00D080E0691A8D429B41F7
:101A0000BA1A5B42D71A0D1C6FE7101C019B1843D2
:101A100000D107E701235B429C46E2445346002B7A
:101A200000D002E1019BD2195919A9429B415B42A6
:101A3000D7180D1CBCE76346034300D128E1071CFF
:101A400065466B0700D0F0E6012643461E4084E75A
:101A5000002E00D081E0601C4005400D012800DC14
:101A600007E10199681A84466545B641B81A76427D
:101A7000861B300200D4A1E08C464D1BAC45894149
:101A8000D21B4942561A984634E700220025EFE659
:101A9000281C00F077FA2030031C083B1F2B00DCC9
:101AA00033E7021C283A95402A1C00259C4200DCA2
:101AB00036E71F4FE41A1740B4E6019B1A43511E44
:101AC0008A41D3B2002209E7002B00D001E1601C5B
:101AD00043055B0D012B00DCB0E0144B984200D1B4
:101AE0001EE1019BD2195919A9429B415B42D218B0
:101AF0004908D5070D435708041C93E60B4B9C423D
:101B000000D0D3E68EE6211C131C1F39CB40191CD4
:101B1000202F00D18EE03F231C1BA24015436A1EDC
:101B2000954100270D4300248BE7C046FF070000C6
:101B3000FFFF7FFFFFFF0F80331C101C203BD840AE
:101B4000202E79D040239B1B9A40131C019A1343EB
:101B5000591E8B4100220343C0E6002C53D0C74CD2
:101B6000A04200D1B0E0802471428946240427437A
:101B70004946382900DDCDE01F2900DD59E1202448
:101B80003E1C611A8E408A46B04649462E1CCE4005
:101B90005146B4468D4064464646494626436C1E2F
:101BA000A541CF4035430199D71B8C464D1BAC4511
:101BB00092415242BF1A041C984696E66346654617
:101BC000334300D096E60026002700240025C4E613
:101BD0001F2B61DC2020C31A9B46131C59468B40E7
:101BE00051469946019BCB409C464B466046034379
:101BF0009C465B46019999406346481E81411943C2
:101C00005346DA40CDE63C1C2C435DD0F143894677
:101C1000002955D10199D21B8C464D1BAC458941F9
:101C20004942571A041C98465FE69448844200D003
:101C3000ADE6F7E5002271E7002387E73B1C2B4365
:101C4000002C00D0DAE0002B00D113E1131C019925
:101C50000B4300D1E6E54919A9429B41D2195B42E9
:101C6000D7183B0200D421E1854B0D1C1F40041CFA
:101C7000D8E5381C2843002C40D1002800D083E050
:101C8000101C0199084303D0171C0D1C9846C9E588
:101C900000260027002560E65046131C2038C3406C
:101CA000181C5346202B00D1C1E0402351465B1A3B
:101CB0009A40019911434A1E91410022014370E666
:101CC0006E4CA04200D053E7171C019D041C98469F
:101CD000A8E5002C28D13C1C2C4300D18AE0DB4332
:101CE0009A46002B00D082E0019BD2199C466544A5
:101CF0009D42894149425718041C59E600285BD18E
:101D0000101C0199084300D1A4E0171C0D1C984633
:101D10005A4C87E53D436F1EBD410027EDB242E7B7
:101D2000041C0027002518E6544CA04262D05346FC
:101D300080245B429A46240427435346382B00DD17
:101D40008EE01F2B00DD9DE02024E31A9B463B1C08
:101D500059468B40514699462B1CCB409C464B46DE
:101D6000644623439C465B469D4063466C1EA541EA
:101D7000CF401D43019BBF189C4665449D42924144
:101D80005242BF18041C13E6101C0199084300D1ED
:101D900048E5681A844685428041BE1A4042301A9E
:101DA000060200D447E68C464D1BAC458941D21B48
:101DB0004942571A984635E5101C0199084334D01A
:101DC00080247807ED08FF0824032843274208D021
:101DD000D608264205D1C90852070A43101C371CF1
:101DE0009846FF00420F1743C500244C1AE5234CC8
:101DF000A042A2D1171C019D041C13E5002B35D075
:101E0000131C01990B4310D080247807ED08FF08BC
:101E1000240328432742E4D0D3082342E1D1C90850
:101E200052070A43101C1F1CDBE7144CFAE4002283
:101E30003FE74C463E1C203CE6404946341C2029E6
:101E400032D04026761AB7403D436F1EBD41002771
:101E50002543A8E680270026FF03084C00257CE5E3
:101E60003D436F1EBD410027EDB283E7171C019D66
:101E7000024CD7E4171C019DD4E4C046FF070000C4
:101E8000FFFF7FFF54463B1C203CE3401C1C534695
:101E9000202B0DD0402351465B1A9F403D436F1EBF
:101EA000BD410027254365E70027CDE70D1CC8E5A8
:101EB0000027F3E70B0330B5134C1A0B4B00051C3E
:101EC0005B0DC90F0020A34210DD104883420EDCD9
:101ED00080200F4C40030243E41A1F2C0ADD0D48FA
:101EE000C31ADA40131C48424340581830BD0A4B0D
:101EF000C818FBE7281CE040084CA44663449A40FD
:101F0000131C0343EFE7C046FE0300001D0400005E
:101F10003304000013040000FFFFFF7FEDFBFFFF11
:101F200010B5041E10D000F02DF8144A121A0A2819
:101F30001ADC0B23211C1B1AD94015300B03520548
:101F400084401B0B520D01E00022002300211B03E3
:101F5000201C1C0B0B0D1B052343094C12052340B1
:101F600013435B00590810BD031C0B3B9C405205FA
:101F700023031B0B520D0024E8E7C0461E0400009B
:101F8000FFFF0F801C2101231B04984201D3000C8A
:101F900010391B0A984201D3000A08391B099842DC
:101FA00001D30009043902A2105C40187047C046F2
:101FB0000403020201010101000000000000000012
:101FC000F0B54F46464605042D0C2C1CC0B4170432
:101FD000160C3F0C9946030C7C4375435F437343D7
:101FE0007D19260CAD199C46AF4203D980235B02B4
:101FF0009846C4444B465143434324042E0C240CBE
:102000002D0466442C1959188919201C0CBC9046C3
:102010009946F0BDF0B544465F4656464D46F0B48D
:102020001C1C85B0002900DAA9E00F1C0021061C49
:102030008846101C191C002C00DA97E0341C3D1C4B
:1020400082468946B94273D870D04946504600F05E
:1020500085F98346391C301C00F080F95B46181A5C
:10206000031C8346203B9C4600D59CE000230022B5
:102070005146009201936346994001915146814037
:10208000019B0091BB4200D983E000D17EE0009A21
:10209000019B341C3D1CA41A9D416346002B00DAB1
:1020A0009AE0002600270296039701369E40039689
:1020B000012686400296002800D171E00099019A1D
:1020C000D30799464B464E081E435708002301226A
:1020D0000CE0AF4201D1A6420AD8A41BBD4124198D
:1020E0006D410138A4185D41002806D0AF42F0D9F7
:1020F000013824196D410028F8D12022029E039F47
:102100005B46524236196F4199185AD4281CC84070
:102110002C1C5B46DC40002968DB041C8C40231C23
:1021200059468840021CB61A9F4103E0B0428CD940
:102130000026002741464B1E994100230091019340
:10214000009A019B002554429D41331C6340181C9A
:102150003B1C6B40191C009B019CC018614105B0E1
:102160003CBC90469946A246AB46F0BD4346DB4395
:102170000C1C9846131C00215842A1415EE7002721
:1021800046428F4101214942884652E7B14200D878
:102190007DE70026002702960397002800D08DE7F0
:1021A000029E039FC6E720215346091ACB40002216
:1021B000191C0023009201934B4683400B4301936B
:1021C0005CE75A4620239B1A2A1C9A40201C131CA9
:1021D0005A46D04018439BE720260027331A002692
:1021E000029603970127DF40039761E75B462021B2
:1021F0005D46C91A031CAC40CB40191C231C0B4381
:102200008EE7C046F0B545464E465746E0B4041C3E
:1022100082B00D1C914698468B4262D85FD04146F1
:10222000484600F09BF8291C061C201C00F096F87C
:102230002023311A5B428A46C81865D44B46834036
:102240001F1C4B468B401E1CAF4258D855D0A41BB8
:10225000BD41002800DA77E00022002300920193BC
:1022600001328240019201238B40009300293CD02F
:10227000FB079846404672087B0802430126002768
:102280000CE0AB4201D1A2420AD8A41A9D41241904
:102290006D410139A4197D41002906D0AB42F0D926
:1022A000013924196D410029F8D1202200980199A3
:1022B00053465242001969419E183AD42F1CF740E8
:1022C0005346DD40002E29DB3C1CB440231C544601
:1022D000A7403A1C801A99410090019105E0824282
:1022E0009DD900230024009301940098019902B025
:1022F0001CBC90469946A246F0BDA342A7D9002235
:10230000002300920193B1E720224B46521AD3409A
:102310001A1C43468B401F1C174392E75346202448
:102320005646E41A3B1CB540E3401C1C2B1C2343BF
:10233000CDE7524620239B1A2A1C9A40271C131CC7
:102340005246D7401F43BBE720230022581A0023E0
:10235000009201930132C240019284E710B5002936
:1023600003D1FFF70FFE203002E0081CFFF70AFE42
:1023700010BDC046FEE7C04600B59BB02A4A1168B2
:102380002A4B0B40802109010B43136002230D935C
:10239000012210920F321192169300231793189373
:1023A00080231B0419930DA802F0FAF8002803D02B
:1023B0001F48EC21FFF7DEFF0F2308930C3B099326
:1023C0009D330A9300230B930C9308A8002102F07D
:1023D000C7FB002803D01648FA21FFF7CBFF0A23DA
:1023E000FF3300930023029305930693684602F09F
:1023F000B5FC002804D00E4882214900FFF7BAFF3F
:1024000002F086FCFA218900FDF7B4FE02F0BEFF5F
:10241000042002F0D7FF012040420021002202F0F8
:1024200079FF1BB000BDC04600700040FFE7FFFF12
:10243000B05D0008F0B5C3B002F042F8FFF79CFFB2
:1024400000F0CCF800F016F900F06EF900F0A0F9F9
:1024500000F0D2F900F068FA574A116840230B43A4
:10246000136000F0A5FA5548012100F097FD00F037
:10247000E7FD642002F042F8012000F0A3FD00F027
:10248000B5FD642002F03AF8002000F09BFD00F05A
:10249000ADFD642002F032F80020002100F0D8FEEB
:1024A000474C484821686268012300F0BBFE0020C9
:1024B0001E2100F0CDFE444821686268012300F02F
:1024C000B1FE00F093FD00F019FB00F003FB00F0FB
:1024D00039FBFA20800002F011F8002500F014FB0F
:1024E0000028FBD000F004FB6B1CDA0F9B180121C5
:1024F0000B409D1A00F056FB00F0ECFC009001919F
:1025000000F0EEFC061C0F1C002000F05BFD032019
:102510001E2100F09DFE002D1FD000980199002281
:102520002A4BFEF775FA00900191301C391C0022ED
:10253000264BFEF76DFA061C0F1C00980199FFF759
:10254000B9FC041C301C391CFFF7B4FC031C02A8A6
:102550001F49221C02F0CAFF1EE0009801990022C8
:102560001A4BFEF755FA00900191301C391C0022DD
:10257000164BFEF74DFA061C0F1C00980199FFF749
:1025800099FC041C301C391CFFF794FC031C02A8A6
:102590001049221C02F0AAFF0F4C02A821686268B1
:1025A000012300F03FFE02A821686268012300F0C9
:1025B00039FE00F01BFD91E700300140A809002022
:1025C00008000020BC5D0008C45D00080000244035
:1025D000CC5D0008D85D000800000020F0B589B08F
:1025E000224BDA6A01252A43DA62DA6A2A4001922A
:1025F000019ADA6A02210A43DA62DB6A0B4002932B
:10260000029B102303930495002405940694A026AE
:10261000F605301C03A902F0A1FD15480F21012287
:1026200002F072FEC0277F01301C391C002202F02C
:102630006BFE0F2303930495059406940C4803A99D
:1026400002F08CFDC023DB00039304940594301C3E
:1026500003A902F083FD0397049505940694301CAA
:1026600003A902F07BFD09B0F0BDC0460010024096
:102670000004005000B583B019481A4B03600023D2
:102680000364C022120642608360C36301220261B8
:10269000C36003624362C362C222FF328262036389
:1026A000BE3AFF3A4261436383618363C36100F0D2
:1026B000EDFD002803D00C484D21FFF75BFE012300
:1026C000009380235B0101930548694600F0D0FE2A
:1026D000002803D004485621FFF74CFE03B000BD8C
:1026E000FC08002000240140E45D000800B587B02C
:1026F00002680B4B9A4210D10A4A536B8021890021
:102700000B4353630123019302330293002303938A
:10271000A020C00501A902F021FD07B000BDC04600
:10272000002401400010024008B51648164B036013
:10273000E123DB004360002383600122C260036168
:1027400043618361C361036201F00AF8002803D08A
:102750000E484421FFF70EFE0A48002101F048F917
:10276000002803D009484B21FFF704FE054800214B
:1027700001F06AF9002803D004485221FFF7FAFD5E
:1027800008BDC046A809002000540040F05D0008C4
:1027900008B51648164B0360E123DB0043600023B5
:1027A00083600122C260036143618361C36103628C
:1027B00000F0D6FF002803D00E486521FFF7DAFDB0
:1027C0000A48002101F014F9002803D009486C21BF
:1027D000FFF7D0FD0548002101F036F9002803D0AD
:1027E00004487321FFF7C6FD08BDC046F409002068
:1027F00000580040F05D000808B51648164B03600D
:10280000E123DB004360002383600122C260036197
:1028100043618361C361036200F0A2FF002803D01B
:102820000E488621FFF7A6FD0A48002101F0E0F8D6
:10283000002803D009488D21FFF79CFD05480021A1
:1028400001F002F9002803D004489421FFF792FD1B
:1028500008BDC0465C09002000780040F05D00081B
:10286000F0B587B003682B4A934215D1C0239B0073
:10287000019312230293113B039302330493013318
:102880000593254801A902F069FC244A936B802135
:1028900089030B4393633BE0214A934215D1C02344
:1028A000DB01019312230293113B03930233049340
:1028B00002330593184801A902F050FC174A936BA4
:1028C0008021C9030B43936322E0164A93421FD130
:1028D00080235B00019312270297012603960325AC
:1028E000049507240594A020C00501A902F036FC38
:1028F000102301930297039604950594064801A9B5
:1029000002F02CFC054A936B8021C9050B439363AD
:1029100007B0F0BD00540040000400500010024019
:10292000005800400078004008B50E480E4B036088
:1029300082235B00436000238360C36003614361C3
:10294000802292008261C361036243628362073323
:10295000C36201F0A3F8002803D004484521FFF723
:1029600009FD08BD400A002000300140FC5D000860
:1029700000B587B002680C4B9A4213D10B4A536BD7
:10298000802149010B435363E0230193DE3B029313
:1029900000230393032204920593A020C00501A9FC
:1029A00002F0DCFB07B000BD003001400010024027
:1029B00008B50C480C4B0360E1235B024360002325
:1029C0008360C36003610C2242618361C36103625F
:1029D000436201F029FD002803D004484421FFF799
:1029E000C9FC08BD980A002000380140085E0008B4
:1029F00000B587B002680C4B9A4212D10B4A536B58
:102A00008021C9010B435363C0230193BE3B029352
:102A100000230393032204920593054801A902F0C1
:102A20009DFB07B000BDC0460038014000100240C9
:102A30000004005000B587B019488023DB0503600F
:102A4000FA23DB00436000238360FA229200C26015
:102A5000036101F0EBF8002803D012483E21FFF794
:102A600089FC80235B0102930D4802A901F004F95F
:102A7000002803D00B484421FFF77CFC002300937F
:102A800001930748694601F01FFA002803D0054862
:102A90004B21FFF76FFC024801F0E2F807B000BDE0
:102AA000080B0020145E000808B502688023DB05CF
:102AB0009A420CD1064A916B01230B4393630F207A
:102AC0000721002202F026FC0F2002F055FC08BD71
:102AD0000010024008B5024801F0C2F808BDC04627
:102AE000080B00200122014B1A607047940000205F
:102AF0000022014B1A6070479400002008B5FFF7D0
:102B0000F7FFFFF797FF08BD014B18687047C046F5
:102B100094000020024A1368013313607047C046D6
:102B200098000020064B9B689B07FBD5044BD860A0
:102B3000034B9B68DB07FBD5014BD868C0B27047DD
:102B400000300140F8B5A024E40580235B03A361B5
:102B50001E20FFF7E7FF1023A361032001F0CEFC46
:102B600001241AE0A027FF0580235B03BB61E0B2CC
:102B700040006038C0B2FFF7D5FF5520FFF7D2FF05
:102B8000074D66000002A8535520FFF7CBFF735B8B
:102B9000181870531023BB610134062CE2DDF8BD18
:102BA000C8000020F0B5474680B48AB00026002354
:102BB000984628E0A025ED0580246403AC614420FC
:102BC000FFF7B0FF1027AF61032001F097FCAC6165
:102BD0000020FFF7A7FF5520FFF7A4FFAB4C000232
:102BE00020605520FFF79EFF23689C46604400024A
:102BF00020605520FFF796FF23689C4660442060C4
:102C0000AF6180440136632ED4DD40466421FDF778
:102C1000B1FA9E4B1860A025ED0580246403AC61D9
:102C20005420FFF77FFF1026AE61032001F066FC01
:102C3000AC610020FFF776FF5520FFF773FF944C3F
:102C4000000220605520FFF76DFF23689C4660441A
:102C5000000220605520FFF765FF23689C46604412
:102C60002060AE61FFF75CF9041C0D1C894E708971
:102C7000FFF756F90022884BFEF708FB021C0B1CDD
:102C8000201C291CFEF79CFD041C0D1C834B1C60A2
:102C90005D60B089FFF744F9021C0B1C201C291C45
:102CA000FEF7F4FA0022FA239B05FEF7EFFA002262
:102CB0007B4BFDF785FB00900191B088FFF730F961
:102CC0000022784BFEF7E2FA029003913089FFF779
:102CD00027F9021C0B1C201C291CFEF7D7FA002226
:102CE000714BFEF7D3FA021C0B1C02980399FDF7F7
:102CF00067FB029003917088FFF712F9002282238C
:102D0000DB05FEF7C3FA04900591F088FFF708F998
:102D1000021C0B1C201C291CFEF7B8FA0022FE2303
:102D20009B05FEF7B3FA021C0B1C04980599FDF7EE
:102D300047FB04900591009E019F301C391C002226
:102D4000574BFDF7DDFA00285CD1201C291C00221E
:102D5000564BFEF79BFA021C0B1C201C291CFEF78D
:102D600095FA0022524BFEF791FA069007910096D1
:102D70000197301C391C0022494BFEF721FD041C31
:102D80000D1C0022494BFEF781FA221C2B1CFEF77A
:102D90007DFA0022FF239B05FEF778FA061C0F1C24
:102DA000201C291C0022434BFEF770FA221C2B1C0E
:102DB000FEF76CFA0022FF239B05FEF767FA041C5E
:102DC0000D1C0098019900223B4BFDF77BFA00286F
:102DD0001ED0009801990022384BFDF7F1FA0890B7
:102DE00009910022314BFEF751FA089A099BFEF730
:102DF0004DFA021C0B1C201C291CFDF7E1FA041CD7
:102E00000D1C05E000260027341C3D1C0696079784
:102E100000980199069A079BFEF7D2FC284B186090
:102E2000596002980399321C3B1CFEF7C9FC061C32
:102E30000F1C244B1E605F6004980599221C2B1CFC
:102E4000FEF7BEFC041C0D1C1F4B1C605D600F4B8D
:102E50001868FFF765F8021C0B1C201C291CFEF7E4
:102E600015FA0022194BFEF711FA321C3B1CFEF733
:102E7000A7FC0022FC239B05FEF708FA144B186000
:102E800059600AB004BC9046F0BDC0469C000020CA
:102E9000B0000020C800002000007040B8000020F2
:102EA00000409F40000010410000A03F000008408B
:102EB0000000E03D00001C40007097C0007097408B
:102EC000A0000020C0000020D80000200000A03E8C
:102ED000A8000020014B186859687047A80000201E
:102EE000014B186859687047A00000207047C04621
:102EF000FEE7C0467047C0467047C04608B501F0BF
:102F0000EFFA02F071FA08BD08B5024800F04CFF74
:102F100008BDC046080B002008B502688023DB0509
:102F20009A4203D1FFF7F6FDFFF7DCFD08BDC0466E
:102F300008B50E4B596B01220A435A639A6B8021E4
:102F400049050A439A63052040420021002202F00D
:102F5000E1F9022040420021002202F0DBF90120C9
:102F600040420021002202F0D5F908BD00100240C5
:102F700000B587B017236B441870074A1068009398
:102F8000012301930933029378210022093B00F0C9
:102F90004BFC07B000BDC046F8080020054B186088
:102FA000012903D1044A054B1A6002E0044A034B8D
:102FB0001A607047F8080020EC000020E0000020B4
:102FC000EC040020002309E0064A1268D218002809
:102FD00001D1002100E0FF2111700133024A934228
:102FE000F2D97047E0000020FF03000010B584B064
:102FF00000241CE0201C5038C0B2FFF7B9FF0020AD
:10300000FFF7B6FF1020FFF7B3FFE3010A4A10688D
:103010000A4A1268D3180093802301931C3B029341
:1030200078214022633B00F0FFFB0134E4B2072C1F
:10303000E0D904B010BDC046F8080020E000002030
:1030400008B5642001F05AFAAE20FFF791FF202066
:10305000FFF78EFF1020FFF78BFFB020FFF788FFF0
:10306000C820FFF785FF0020FFF782FF1020FFF741
:103070007FFF4020FFF77CFF8120FFF779FFFF20D3
:10308000FFF776FFA120FFF773FFA620FFF770FF81
:10309000A820FFF76DFF3F20FFF76AFFA420FFF78E
:1030A00067FFD320FFF764FF0020FFF761FFD52003
:1030B000FFF75EFFF020FFF75BFFD920FFF758FF17
:1030C0002220FFF755FFDA20FFF752FF1220FFF70B
:1030D0004FFFDB20FFF74CFF2020FFF749FF8D203B
:1030E000FFF746FF1420FFF743FFAF20FFF740FF35
:1030F0000020FFF767FFFFF779FF044B00221A80DB
:103100005A8001325A71012008BDC046E4000020F7
:1031100043B2002B27DB3F2925D8134B1B79002B0B
:1031200002D053425A41D2B2012A0ED1CB08DB0160
:10313000C0180E4B1B68181807231940063B8B401C
:10314000191C0378194301700DE0CB08DB01C0188E
:10315000064B1B68181807231940063B8B40191CA7
:1031600003788B4303707047E4000020E0000020E8
:10317000F0B55F4656464D464446F0B483B00091E4
:103180000192274A1288CEB292197F2A3EDC244A45
:103190005288694649788A468B4652443F2A37DC32
:1031A00098468146002529E04B46203B5A4653432A
:1031B0005B195B00019A9F5A00241CE03B1CA34052
:1031C0001B040AD5164B188859880019C0B2491932
:1031D000C9B24246FFF79CFF0CE0114B1888598892
:1031E0000019C0B24919C9B2424653425A41D2B23B
:1031F000FFF78EFF0134A642E0D80135AA45D3D8A7
:10320000074B1A8896191E80484602E0002000E00D
:10321000002003B03CBC90469946A246AB46F0BDA8
:10322000E400002030B583B0041C009101921D1C05
:1032300009E00099019A2B1CFFF79AFF031C2078E4
:10324000834203D1013420780028F2D103B030BD8D
:10325000014B188059807047E400002010B582B0FF
:10326000041C084B18680849FCF784FF4443019488
:1032700002E0019B013B0193019B002BF9D102B0BD
:1032800010BDC0461000002040420F0038B5002895
:1032900000D1DFE0041C836D002B04D1C3655422F0
:1032A0008354FFF723FAA36DDB0604D422689368E6
:1032B00004210B4008D0A26D10231343A365002204
:1032C0005423E2540120C6E0A06D6349014002206E
:1032D0000143A165916801300140012904D11168C1
:1032E000C90703D4002102E0002100E001210029E8
:1032F0002DD16168C0200006814207D08020C00522
:10330000814203D080200006814209D111698900E1
:103310008908116121680A69606802430A610CE04A
:1033200011698900890811614C4A10684C490140B3
:10333000116011686068014311602168CA68182033
:103340008243CA602168CA68A0680243CA604349D0
:103350000868444A02400A600868A26B52060243A9
:103360000A6022689168C90004D4916880204005F1
:10337000014391602168C8683B4A0240CA602068E6
:10338000C568E2682169022900D104231A43236A2F
:1033900059030A43236B59000A43636B1343A26921
:1033A00091030B43E269D20313432B43C360A36A27
:1033B000C222FF32934205D02268D168E06A0343FB
:1033C0000B43D360636A012B11D1236A002B06D112
:1033D0002268D368802149020B43D36007E0A26DC5
:1033E00020231343A365E26D01231343E365236C9C
:1033F000012B13D1226811691C4B0B401361226809
:103400001169636CA06C0343E06C03430B431361CD
:103410002268116901230B43136107E023681A69CD
:10342000D20703D51A6901218A431A6122685369B8
:1034300007218B43536122685369E16B0B4353614E
:103440000023E365A36D03229343023A1343A3656C
:10345000002000E0012038BDFDFEFFFF08270140ED
:10346000FFFFC3FFFFFFFFFD1902FEFF03FCFFFF8D
:1034700038B55423C35C012B4CD001225423C254D1
:10348000026893685B0708D5826D20231343836528
:1034900000225423C25401203DE00D1C041C1E4B8D
:1034A000496899421BD0916A2B685B035B0B0B4305
:1034B00093622B685B0308D5184A136880210904BE
:1034C0000B4313600A20FFF7C9FE2B689B031CD532
:1034D000124A13688021C9030B43136015E0916AF7
:1034E0002B685B035B0B994391622B685B0304D5EC
:1034F0000A4A11680A4B0B4013602B689B0304D5E2
:10350000064A1168074B0B40136000225423E25413
:10351000002000E0022038BD011000000827014013
:10352000FFFF7FFFFFFFBFFF03689A69920701D586
:1035300000229A6203689A69D20703D4996901222A
:103540000A439A617047C046F0B5059C05686E68ED
:10355000670D8020C0003840054F384386438905F9
:10356000890D12040A431A43144334436C60F0BDBE
:10357000FF63FF0370B5041C0E1C151C03689B69D8
:10358000DB0614D400202DE0731C10D0002E04D0D4
:1035900000F0AEFF401BB04209D920224123E25483
:1035A00000232232A354023AA35403201AE02368D2
:1035B0009A699206E8D51022DA6123682025DD6138
:1035C000201CFFF7B1FF22685168074B0B40536086
:1035D000042363643D33E55400234222A354023A9A
:1035E000A354012070BDC04600E800FE70B5041C65
:1035F0000D1C161C1CE0201C291C321CFFF7BAFFF6
:1036000000281BD16B1C13D0002D04D000F070FFDC
:10361000801BA8420CD9636C2022134363644123AE
:10362000E25400232232A354023AA354032006E0BA
:1036300023689B699B07DED5002000E0012070BD58
:10364000F8B5061C0C1C171C1D1C13E06B1C11D0BC
:10365000002D05D000F04CFF069BC01AA84209D9E6
:1036600020224123F25400232232B354023AB354AD
:10367000032008E033689B6923401B1B5A425341D7
:10368000BB42E3D00020F8BD70B582B0041C161C0C
:103690001D1CDAB21D4B009380235B04FFF754FF1F
:1036A000201C0699079AFFF7A1FF002804D0636C3D
:1036B000042B25D1012026E0012D03D12368F6B289
:1036C0009E6211E02368320A9A62201C0699079ACA
:1036D000FFF78CFF002804D0636C042B12D101206B
:1036E00011E02368F6B29E62079B0093201C8021A4
:1036F0000022069BFFF7A4FF002804D0032002E06D
:10370000032000E0032002B070BDC046002000800E
:1037100070B5051C0C1C161C1AE0281C211C321C40
:10372000FFF728FF002819D1002C04D000F0E0FE9C
:10373000801BA0420CD96B6C202213436B64412385
:10374000EA5400232232AB54023AAB54032006E081
:103750002B689B699B06E0D5002000E0012070BD2E
:1037600010B5002858D0041C4123C35C002B04D1A1
:1037700000224033C254FFF773F824224123E2545D
:103780002268136801218B4313602268234B616810
:103790000B40136122689168214B0B409360E368F2
:1037A000012B06D1226880231B02A1680B43936082
:1037B00005E0226884231B02A1680B439360E36841
:1037C000022B03D12368802212015A6022685368B9
:1037D00014490B4353602268D168114B0B40D360EE
:1037E0002168226963691A43A3691B021343CB60F2
:1037F0002268E369216A0B43136022681168012380
:103800000B4313600023636420214122A1542363EE
:103810000132A354002000E0012010BDFFFFFFF0A3
:10382000FF7FFFFF00800002F0B587B0071C0C1C73
:10383000039204930CAB40CB1D884123C35C202B27
:1038400000D0C1E0002E00D1C0E0002D00D1BFE0CB
:103850002033C35C012B00D1BCE001224023C254C1
:1038600000F046FE05900090381C802109020122DC
:103870001923FFF7E5FE002800D0ADE02122412307
:10388000FA541F320133FA5400237B647E627D8533
:103890007B630E9B0093059B0193381C211C039AAC
:1038A000049BFFF7F1FE00280CD07B6C042B04D1A5
:1038B00000223C33FA54012095E000224023FA54C0
:1038C000032090E07B8D9BB2FF2B0BD9FF233B8520
:1038D00000230093381C211CFF2280235B04FFF788
:1038E00033FE0BE07A8D92B23A85D2B20023009378
:1038F000381C211C80239B04FFF726FE381C0E99E0
:10390000059AFFF773FE002804D07B6C042B65D169
:10391000012068E03A687B6A591C79621B789362DF
:103920007B8D013B9BB27B853B8D013B9BB23B85F5
:10393000002B29D17B8D9BB2002B25D0059B0093BA
:10394000381C802100220E9BFFF77AFE002847D109
:103950007B8D9BB2FF2B0BD9FF233B85002300936C
:10396000381C211CFF2280235B04FFF7EDFD0BE0D8
:103970007A8D92B23A85D2B200230093381C211C72
:1039800080239B04FFF7E0FD7B8D9BB2002BB5D11C
:10399000381C0E99059AFFF7BBFE002804D07B6CFB
:1039A000042B1FD101201EE03B682022DA61396818
:1039B0004C680E4B23404B604123FA5400232232C3
:1039C000BB54023ABB540EE002200CE001200AE096
:1039D000012008E0022006E0032004E0032002E0CA
:1039E000032000E0032007B0F0BDC04600E800FE61
:1039F000F0B54123C35C202B20D12033C35C012BC5
:103A00001ED0402401230355412524224255066837
:103A100032689A433260066837680A4A3A40326030
:103A20000268166831431160026811680B43136025
:103A30002023435500230355002002E0022000E02C
:103A40000220F0BDFFEFFFFFF0B54123C35C202B48
:103A50001ED12033C35C012B1CD04024012303550D
:103A6000412524224255066832689A43326006682E
:103A70003768094A3A400902114331600268116807
:103A80000B4313602023435500230355002002E01D
:103A9000022000E00220F0BDFFF0FFFF38B5002853
:103AA0003CD0041C5123C35C002B04D100225033B2
:103AB000C254FEF75DFF512102236354226813684C
:103AC00040208343136020686368A2681343E26860
:103AD0001343226913436269134380229200A5694C
:103AE0002A401343E2691343226A1343A26A134331
:103AF00003602268638B04200340606A03435360C1
:103B00002368E26A1A612268D069054B0340D361D9
:103B10000023636501336354002000E0012038BDB9
:103B2000FFF7FFFF03688022D20590420AD01E4AA9
:103B3000904209D01D4A904208D01D4A904207D1B8
:103B4000012206E0012204E0012202E0012200E05D
:103B50000022002A03D0702293434A681343802234
:103B6000D20590420AD0104A904209D00F4A9042A2
:103B700008D00F4A904207D1012206E0012204E05A
:103B8000012202E0012200E00022002A03D0094ABB
:103B90001340CA68134303608B68C3620B68836277
:103BA000012343617047C046000400400008014003
:103BB00000140140FFFCFFFF30B5046A036A0125D1
:103BC000AB4303628369EF35AB4312011A430A2307
:103BD0009C4321438261016230BDC04630B5036A17
:103BE0001024A34303628569036A054C2C40120329
:103BF0002243A024A343090119438261016230BD1D
:103C0000FF0FFFFF836870229343693A1143194302
:103C10008160704730B58568034C2C401B021A4305
:103C200011432143816030BDFF00FFFF38B50028FC
:103C300014D0041C3523C35C002B04D10022343380
:103C4000C254FEF731FF352502236355211C01C9FB
:103C5000FFF768FF01236355002000E0012038BD15
:103C60000168CA6801231A43CA60026811680B43DD
:103C7000136000207047C04610B53422825C012AD0
:103C800000D184E00B1C041C012134228154013139
:103C900001328154016888683E4A02408A601A688D
:103CA000402A4FD00AD8102A5BD002D8002A53D01D
:103CB00065E0202A5AD0302A5DD060E0702A14D006
:103CC00004D8502A2AD0602A32D058E080214901F5
:103CD0008A4204D0802189018A4212D04FE02268B2
:103CE000936807218B43936049E099685A68DB68C1
:103CF0002068FFF78FFF2268916877230B4393605A
:103D00003DE099685A68DB682068FFF783FF226806
:103D100093688021C9010B43936030E05968DA68E9
:103D20002068FFF749FF20685021FFF76BFF26E06E
:103D30005968DA682068FFF751FF20686021FFF7B3
:103D400061FF1CE05968DA682068FFF735FF2068DA
:103D50004021FFF757FF12E020680021FFF752FFD4
:103D60000DE020681021FFF74DFF08E020682021BA
:103D7000FFF748FF03E020683021FFF743FF0122EF
:103D80003523E2540022013BE254002000E00220EF
:103D900010BDC0468800FFFF7047C0467047C04650
:103DA0007047C0467047C04610B5041C03681A69C6
:103DB000920715D5DA68920712D5032252421A618A
:103DC0000123037503689B699B0702D0FFF7E6FF99
:103DD00004E0FFF7E1FF201CFFF7E2FF002323755B
:103DE00023681A69520719D5DA68520716D50522D1
:103DF00052421A610223237523689A69C0239B00EB
:103E00001A4203D0201CFFF7C9FF05E0201CFFF772
:103E1000C3FF201CFFF7C4FF0023237523681A6922
:103E2000120717D5DA68120714D5092252421A610F
:103E3000042323752368DB699B0703D0201CFFF74D
:103E4000ADFF05E0201CFFF7A7FF201CFFF7A8FF30
:103E50000023237523681A69D20619D5DA68D206B9
:103E600016D5112252421A61082323752368DA6994
:103E7000C0239B001A4203D0201CFFF78FFF05E0F0
:103E8000201CFFF789FF201CFFF78AFF0023237502
:103E900023681A69D20708D5DA68D20705D5022245
:103EA00052421A61201CFFF737F823681A6952063C
:103EB00008D5DA68520605D5412252421A61201C03
:103EC000FFF770FF10BDC046F0B53423C35C012B73
:103ED0001ED034220125855435240223035506685B
:103EE00073687027BB437360066873680F683B4351
:103EF00073600668B3688027BB43B3600668B76821
:103F00004B683B43B360055500238354002000E019
:103F10000220F0BDF8B5051C8368026913434269AD
:103F20001343C2691A4301680868BD4B0340134339
:103F30000B602A685168BB4B0B40E9680B43536028
:103F4000AB692A68B8498A4201D0296A0B43906854
:103F5000B64901400B4393602B68B54A934214D194
:103F6000B44BDB6C03221340012B08D0002B04D090
:103F7000022B4BD0032B04D005E0012451E0042494
:103F80004FE008244DE010244BE0AB4A934216D199
:103F9000A84BDB6C0C221340042B0AD002D8002B58
:103FA00005D00AE0082B33D00C2B04D005E0002408
:103FB00037E0042435E0082433E0102431E09F4A40
:103FC000934227D09E4A934226D0974A934225D1C6
:103FD000984BDA6CC0231B0113408022D20093421D
:103FE0000ED002D8002B09D00EE08022120193429D
:103FF00016D0C0221201934204D005E0002410E044
:1040000004240EE008240CE010240AE0022408E056
:10401000022406E0002404E0002402E0102400E072
:104020000224022000F07EFF2E687F4B9E4240D18A
:10403000022C0FD002D8002C08D016E0042C10D08F
:10404000082C12D100248020000213E000F066FE4C
:1040500000240FE0774B1B68DB0609D50024794864
:1040600008E000F035FD002404E00124002001E018
:1040700000247548002800D1F5E06A6853009B18B9
:10408000834200D9C6E01303834200D2C4E0070E86
:10409000060250080021801979410023FCF73AF903
:1040A0006A4BC2186A4B9A4200D9B7E02B68D860B5
:1040B000D9E080231B02EA699A4258D1082C4BD8D8
:1040C000A400644B1B599F4640006B685B08C018F6
:1040D0006968FCF74FF880B200243FE000F02EFE44
:1040E00040006B685B08C0186968FCF743F880B251
:1040F000002433E04F4B1B68DB060AD56B68580879
:10410000554B9C4660446968FCF734F880B2002443
:1041100024E06B685808514B9C4660446968FCF782
:1041200029F880B2002419E000F0D2FC40006B684E
:104130005B08C0186968FCF71DF880B200240DE028
:104140006B68580880235B029C4660446968FCF7F2
:1041500011F880B2002401E0012400200F23021C8A
:104160009A430007400F10432B68D8607BE0082C6F
:1041700078D8A4003A4B1B599F4600F0CFFD6968E0
:104180004B08C018FBF7F6FF0004000CF060002499
:1041900069E000F0D3FD69684B08C018FBF7EAFF3F
:1041A0000004000CF06000245DE0224B1B68DB067D
:1041B0000BD569684808234B9C466044FBF7DAFF3F
:1041C0000004000CF06000244DE0696848081E4BB4
:1041D0009C466044FBF7CEFF0004000CF060002416
:1041E00041E000F075FC69684B08C018FBF7C2FF9E
:1041F0000004000CF060002435E069684808802362
:104200001B029C466044FBF7B5FF0004000CF06005
:10421000002428E0012426E0012424E0012422E0F7
:10422000F369FFEFFFCFFFFF00480040FFF4FFFFFF
:10423000003801400010024000440040004C0040A3
:104240000050004000093D000024F40000FDFFFF85
:10425000FFFC0F00C87E000800127A000048E80149
:10426000EC7E00080124201CF8BDC046436ADB0731
:1042700006D5026851682C4B0B40816A0B43536092
:10428000436A9B0706D502685168284B0B40C16AF8
:104290000B435360436A5B0706D502685168244BA1
:1042A0000B40016B0B435360436A1B0706D5026842
:1042B0005168204B0B40416B0B435360436ADB0654
:1042C00006D5026891681C4B0B40816B0B439360D1
:1042D000436A9B0606D502689168184B0B40C16B78
:1042E0000B439360436A5B0612D502685168144B16
:1042F0000B40016C0B43536080235B03026C9A42BA
:1043000006D1026851680F4B0B40416C0B43536060
:10431000436A1B0606D501684A680B4B1340826C42
:1043200013434B607047C046FFFFFDFFFFFFFEFFDA
:10433000FFFFFBFFFF7FFFFFFFEFFFFFFFDFFFFF41
:10434000FFFFEFFFFFFF9FFFFFFFF7FFF0B54746BF
:1043500080B4061C0C1C171C9846069D1DE06B1CA7
:104360001BD0002D05D000F0C3F84346C01AA84268
:1043700013D9326811680F4B0B4013603268936891
:1043800001218B43936020236922B3540132B3543B
:1043900000224833F254032008E03368DB692340ED
:1043A0001B1B5A425341BB42D9D0002004BC90464B
:1043B000F0BDC0465FFEFFFF30B583B0041C002394
:1043C000C36600F095F8051C23681B681B070AD517
:1043D000144B0093201C8021890300222B1CFFF723
:1043E000B5FF002818D123681B685B070AD50D4B61
:1043F0000093201C8021C90300222B1CFFF7A6FF7D
:1044000000280BD120236922A3540132A354002297
:104410004833E254002002E0032000E0032003B010
:1044200030BDC046FFFFFF0110B500282FD0041C8F
:104430006923C35C002B04D100226833C254FEF709
:10444000D7FA24226923E2542268136801218B439E
:104450001360636A002B02D0201CFFF707FF201CAB
:10446000FFF758FD012813D022685168094B0B4013
:104470005360226893682A218B43936022681168F5
:1044800001230B431360201CFFF796FF00E001207F
:1044900010BDC046FFB7FFFF10B5041C074B1868DE
:1044A000FA218900FBF766FE00F070FF0120404210
:1044B000211C002200F02EFF002010BD1000002063
:1044C00008B5064A116840230B4313600020FFF72C
:1044D000E3FFFEF72DFD002008BDC046002002408E
:1044E000024A1368013313607047C046400B002036
:1044F000014B18687047C046400B002010B582B0D1
:104500000190FFF7F5FF041CFFF7F2FF001B019B72
:104510009842F9D302B010BD10B51D4BDB68F022F4
:104520001A4222D11A4B9B6BDB0005D5194B1A6836
:10453000C0235B0113400EE0154A936B80214905AF
:104540000B439363134B1968C0235B010B40946BBF
:10455000114921409163C0225201934207D1C023E7
:104560001B02984205D0002004E0002002E0002059
:1045700000E00120094A136801218B4303431360C3
:1045800013680B40834201D0012000E0002010BDE1
:104590000010024000700040FFFFFFEF00200240CB
:1045A00070B582B0041C0368DB0761D5C84BDB68BB
:1045B0000C221340082B08D0C54BDB6813400C2B92
:1045C0000BD1C34BDB68DB0307D5C14B1B689B03D7
:1045D0004ED56368002B4BD13FE2636880225202C4
:1045E000934206D1BA4A1368802149020B431360F3
:1045F0001EE0A022D20293420BD1B54B1A68802153
:10460000C9020A431A601A68802149020A431A60E3
:104610000EE0AF4B1968AF4A0A401A601968802251
:1046200052020A400192019A1968AB4A0A401A6084
:104630006368002B0ED0FFF75BFF051C05E0FFF75A
:1046400057FF401B642800D909E2A14B1B689B035C
:10465000F5D50DE0FFF74CFF051C05E0FFF748FF1F
:10466000401B642800D9FCE1994B1B689B03F5D4DF
:1046700023689B0752D5964BDB680C221340042B12
:1046800008D0934BDB6813400C2B14D1904BDB68A4
:10469000DB0310D48E4B1B685B0703D5E368012B4B
:1046A00000D0E0E18A494A688C4B1340226912022B
:1046B00013434B6032E0E268002A1CD084490B6847
:1046C0000920834313430B60FFF712FF051C05E02D
:1046D000FFF70EFF401B022800D9C6E17C4B1B6888
:1046E0005B07F5D57A494A687C4B13402269120270
:1046F00013434B6012E0764A136801218B43136029
:10470000FFF7F6FE051C05E0FFF7F2FE401B02284E
:1047100000D9ACE16E4B1B685B07F5D42368DB0660
:1047200000D488E06A4BDB680C221A424AD1684BFD
:104730001B689B0503D5A369002B00D199E1206A72
:10474000634B5A68E0231B021340984213D9FFF7CA
:10475000E3FE002800D08EE15D494A68604B1340BB
:10476000226A13434B604B681B021B0AE269120664
:1047700013434B6012E056494A68594B13401843A3
:1047800048604B681B021B0AE269120613434B6028
:10479000206AFFF7C1FE002800D06EE1236A5B0BA0
:1047A0000133802212029A40131C494AD268120631
:1047B000120F4C498A5CD3404B4A13600020FFF72C
:1047C0006BFE38E0A369002B22D0414A1368802198
:1047D00049000B431360FFF78BFE051C05E0FFF754
:1047E00087FE401B022800D949E1394B1B689B0515
:1047F000F5D537494A683A4B1340226A13434B6058
:104800004B681B021B0AE269120613434B6012E05D
:104810002F4A1168354B0B401360FFF769FE051CEA
:1048200005E0FFF765FE401B022800D929E1284B6F
:104830001B689B05F5D423681B0729D56369002BEA
:1048400013D0234A116D01230B431365FFF750FE6C
:10485000051C05E0FFF74CFE401B022800D912E1C1
:104860001B4B1B6D9B07F5D512E0194A136D0121F7
:104870008B431365FFF73CFE051C05E0FFF738FE90
:10488000401B022800D900E1114B1B6D9B07F5D49A
:1048900023685B0700D490E00D4B9B6BDB0007D4D3
:1048A0000B4A936B802149050B439363012500E07C
:1048B00000250F4B1B68DB0526D40D4A13688021A9
:1048C00049000B431360FFF713FE061C18E0C046B7
:1048D00000100240FFFFFEFFFFFFFBFFFFE0FFFFB6
:1048E000FF1FFFFF107F000810000020FFFEFFFFEA
:1048F00000700040FFF7FCFD801B642800D9C6E073
:104900006B4B1B68DB05F5D5A368802252009342F0
:1049100006D1684A136D802149000B43136524E0DA
:10492000002B09D1634B196D634A0A401A65196D52
:10493000624A0A401A6518E0A022D20093420BD1C5
:104940005C4B1A6D8021C9000A431A651A6D8021DB
:1049500049000A431A6508E0564B196D564A0A4049
:104960001A65196D554A0A401A65A368002B0FD0C5
:10497000FFF7BEFD061C06E0FFF7BAFD801B504B9B
:10498000984200D985E04B4B1B6D9B05F4D50DE09B
:10499000FFF7AEFD061C05E0FFF7AAFD801B484BA4
:1049A000984278D8434B1B6D9B05F5D4012D04D15B
:1049B000404A916B434B0B409363636A002B6CD06E
:1049C0003C4AD2680C210A400C2A68D0022B30D114
:1049D000384A11683C4B0B401360FFF789FD051CFA
:1049E00004E0FFF785FD401B02285AD8314B1B68B5
:1049F0009B01F6D42F49C868344B1840A36AE26A79
:104A00001343226B13430343CB600B688022520491
:104A100013430B60FFF76CFD041C04E0FFF768FD17
:104A2000001B02283FD8234B1B689B01F6D50020B2
:104A30003CE0204A1168244B0B401360FFF758FDFF
:104A4000041C04E0FFF754FD001B02282DD8194B6D
:104A50001B689B01F6D4002028E0012026E00320FB
:104A600024E0032022E0012020E003201EE00320B8
:104A70001CE001201AE0012018E0012016E00320CC
:104A800014E0032012E0032010E003200EE00320D6
:104A90000CE003200AE0032008E0002006E00120EB
:104AA00004E0032002E0032000E0032002B070BD18
:104AB0000070004000100240FFFEFFFFFFFBFFFF01
:104AC00088130000FFFFFFEFFFFFFFFEFFFF02FF65
:104AD00008B51E4BD9680C230B40082B31D00C2B8A
:104AE00007D0042B23D1194B1B68DB062BD51848A4
:104AF0002AE08B021B0F174AD05C0902890F013193
:104B0000124BDB68DB0304D5134B5843FBF732FB36
:104B10001AE00E4B1B68DB0604D50D4B5843FBF720
:104B200029FB11E00D4B5843FBF724FB0CE0074B2E
:104B300058680004400F013080231B028340181C7A
:104B400002E0054800E0054808BDC04600100240EC
:104B500000093D00287F000800127A000024F400BC
:104B600070B5644B1B68012213408B420AD2614A24
:104B700013680124A3430B431360136823408B4243
:104B800000D0A3E003689B0706D55B4AD368F024F6
:104B9000A34384682343D3600D1C041C0368DB0714
:104BA0005FD54368022B04D1534A1268920313D491
:104BB0008EE0032B04D1504A126892010CD489E094
:104BC000012B04D14C4A1268520705D484E04A4AAA
:104BD0001268920500D481E04749CA6803208243E5
:104BE0001343CB60FFF784FC061C6368022B0DD1D6
:104BF00005E0FFF77DFC801B404B984270D83E4B90
:104C0000DB680C221340082BF3D12AE0032B0DD1D3
:104C100005E0FFF76DFC801B384B984262D8364B9D
:104C2000DB680C2213400C2BF3D11AE0012B13D1BB
:104C300005E0FFF75DFC801B304B984254D82E4BAB
:104C4000DB680C221340042BF3D10AE0FFF750FC81
:104C5000801B2A4B984249D8274BDB680C221A420A
:104C6000F4D1244B1B6801221340AB4209D9214ADD
:104C7000136801218B432B43136013680B40AB4235
:104C800036D123685B0706D51B4AD1681C4B0B4005
:104C9000E1680B43D36023681B0707D51649CA6830
:104CA000184B13402269D2001343CB60FFF710FF6B
:104CB000114BDB681B061B0F134AD35CD840134B08
:104CC00018600020FFF7E8FB002012E0012010E050
:104CD00001200EE001200CE001200AE0012008E0A4
:104CE000032006E0032004E0032002E0032000E0AC
:104CF000012070BD00200240001002408813000017
:104D0000FFF8FFFFFFC7FFFF107F00081000002023
:104D1000014B18687047C0461000002008B5FFF727
:104D2000F7FF044BDB685B055B0F034AD35CD8409D
:104D300008BDC04600100240207F000808B5FFF7FC
:104D4000E7FF044BDB689B045B0F034AD35CD8404E
:104D500008BDC04600100240207F000870B5041C4A
:104D600003689B0600D482E0644B9B6BDB0007D496
:104D7000624A936B802149050B439363012500E050
:104D800000255F4B1B68DB0513D45D4A1368802147
:104D900049000B431360FFF7ABFB061C05E0FFF770
:104DA000A7FB801B642800D99FE0554B1B68DB05DF
:104DB000F5D5524B1A68C0239B031A4061680B401B
:104DC00093420AD0C0239B020A1C1A409A4204D183
:104DD0004A4B1B689B0300D589E0484B1A6DC023E2
:104DE0009B02134025D0C02292021140994220D04C
:104DF00023689B061DD5414B186D424A0240196D30
:104E000080263603314319651E6D3F4931401965CF
:104E10001A65C3050DD5FFF76BFB061C05E0FFF710
:104E200067FB801B394B984263D8344B1B6D9B0545
:104E3000F5D56268C0239B02111C1940994208D124
:104E40002E480168324B1940C0239B031A400A4385
:104E500002602A4A116DC0239B02606803400B4325
:104E60001365012D03D1916B2A4B0B40936323688B
:104E7000DB0706D5214AD36C03218B43A1680B4382
:104E8000D36423689B0706D51C4AD36C0C218B4343
:104E9000E1680B43D36423685B0706D5174AD16CDE
:104EA0001D4B0B4021690B43D36423681B0706D5B8
:104EB000124AD16C194B0B4061690B43D3642368D0
:104EC000DB0506D50D4AD16C0E4B0B40A1690B4397
:104ED000D36423681B060ED50849CA6C104B1340D7
:104EE000E2691343CB64002006E0032004E00120C4
:104EF00002E0032000E0002070BDC0460010024028
:104F000000700040FFFFFCFFFFFFF7FF8813000069
:104F1000FFFFCFFFFFFFFFEFFFF3FFFFFFCFFFFF1D
:104F2000FFFFF3FF08B5082800D1A6E008D8022843
:104F300066D0042800D17EE0012800D0D4E041E012
:104F4000202808D080235B00984200D1B4E01028CC
:104F500000D0C9E0A9E07A4B196D1A6DC0239B02FD
:104F6000134080225202934202D18A0500D5BDE04F
:104F700080229202934202D18A0700D5B9E0C02272
:104F80009202934200D0B6E06D4B1B689B0300D4A5
:104F9000B3E06B4B1A68C0239B031340802292033B
:104FA000934200D1ABE0C0229203934204D080220E
:104FB0005203934204D101E06248C0E06248BEE07F
:104FC0006248BCE05E4BDB6C0322134002D1FFF76A
:104FD000B5FEB4E0022B04D1594A1268520700D53D
:104FE0008FE0012B02D1FFF773FDA8E0032B00D067
:104FF00089E0534B1B6D9B0500D586E000209EE0A9
:105000004F4BDB6C0C22134002D1FFF787FE96E07A
:10501000082B03D14A4A1268520779D4042B02D1D3
:10502000FFF756FD8BE00C2B74D1454B1B6D9B0598
:1050300072D4002083E0424BDA6CC0231B01134082
:1050400002D1FFF76BFE7AE080221201934203D176
:105050003B4A1268520762D48022D200934202D1A6
:10506000FFF736FD6BE0C0221201934259D1344B59
:105070001B6D9B0557D4002061E0314BDA6CC023D7
:105080009B01134002D1FFF749FE58E080229201B4
:10509000934203D12A4A1268520747D48022520110
:1050A000934245D1FFF714FD49E0254B9B6B5B0212
:1050B00040D5FFF733FE42E0214BDA6CC0239B0260
:1050C000134002D1FFF72AFE39E080229202934278
:1050D00003D11B4A126852072ED4802252029342F7
:1050E0002CD1FFF7F5FC2AE0002028E08020000208
:1050F00025E0174823E0002021E000201FE01548AC
:105100001DE015481BE0002019E08020000216E099
:10511000114814E0002012E0802000020FE00E4849
:105120000DE000200BE08020000208E00A4806E0C5
:10513000002004E0002002E0074800E0002008BD55
:105140000010024020A1070080841E0000093D00DD
:105150008890000040420F000024F400F0B54F4654
:105160004646C0B483B00023B2E001249C402240F4
:10517000914600D1ABE04D68022D01D0122D0ED129
:10518000DD080835AE00375807251D40AD000F2259
:10519000AA4097430A69AA40151C3D4335504D6803
:1051A0006F1E012F03D9112D01D0122D13D1856847
:1051B0005E000327B740BD432F1CCD68B5403D437B
:1051C00085604768A7434A68D506ED0F2C1C019AF5
:1051D00094403C43446005685F000324A446BC40FF
:1051E000E44325402E1C65464A681540BD403543C2
:1051F0000560C5682C408D68BD402C43C4604A687A
:10520000D20064D5384D6E6B012434436C639C0826
:10521000A51CAD00354EAE5903271F40BD000F271A
:10522000AF40BE43A027FF05B8421AD0304FB84266
:1052300015D0304FB84210D02F4FB8420BD02F4F5F
:10524000B84206D02E4FB84201D105270AE0062702
:1052500008E0042706E0032704E0022702E0012714
:1052600000E00027AF403D1C35430234A4001F4E30
:10527000A551244C25684A46D4432E1C26404A6832
:10528000D20302D54A4615432E1C1E4D2E606D6872
:105290002E1C26404A68920302D54A4615432E1C0E
:1052A000184D6E60AD682E1C26404A68D20202D5A9
:1052B0004A4615432E1C134DAE60ED682C404A68DB
:1052C000920202D54A462A43141C0E4AD460013386
:1052D0000A680193141CDC4000D046E703B00CBC04
:1052E00090469946F0BDC0460010024000000140C3
:1052F0000004005000080050000C00500010005046
:10530000001C005000040140002A01D0816100E02F
:105310008162704770B5002816DAC0B20F230340CF
:10532000083B9B089B00124A944663445A68032436
:105330002040C000FC34251C8540AA43890121403F
:1053400081400A435A6011E083080A4CC0339B0035
:105350001A5903252840C000FC352E1C8640B24354
:10536000890129408140081C1043185170BDC04676
:1053700018ED00E000E100E01F2318401E3B8340D1
:10538000181C014B1860704700E100E001380A4B1F
:1053900098420FD8094A506009490B6A1B021B0A40
:1053A000C020000603430B620023936007331360A1
:1053B000002000E001207047FFFFFF0010E000E048
:1053C00000ED00E0042805D1054A116804230B43D1
:1053D000136004E0024A136804218B431360704792
:1053E00010E000E07047C04608B5FFF7FBFF08BDBE
:1053F000104B1A68802149000A431A60D9680E4A86
:105400000A40DA6019680D4A0A401A609A68012158
:105410008A439A6019680A4A0A401A60D968094A98
:105420000A40DA6000221A6180221205064B9A6057
:105430007047C046001002400C40FF88F6FFF6FEA1
:10544000FFFFFBFFFFFF02FF00ED00E00D48854678
:10545000002103E00C4B5B58435004310B480C4BCC
:1054600042189A42F6D30B4A02E00023136004323A
:10547000094B9A42F9D3FFF7BBFF00F011F8FCF794
:10548000D9FFFEE700500020787F000800000020D0
:105490007800002078000020480B0020FEE7000084
:1054A0000E4B70B500251E1C0D4CE41AA410A5422D
:1054B00004D0AB00F35898470135F8E700F02CFC16
:1054C000084B00251E1C084CE41AA410A54204D069
:1054D000AB00F35898470135F8E770BD707F0008BE
:1054E000707F0008707F0008747F00080EB410B54C
:1054F0009DB002A9029008610B488224886048612F
:10550000012040421FABC881084804CBA4000068BA
:1055100001938C8100F06CF80023029A13701DB087
:1055200010BC08BC03B01847FFFFFF7F74000020C9
:10553000F0B58E6885B0071C0C1C03920193B34232
:1055400045D390238A89DB001A423DD0032509699F
:10555000236801985B1A029363695D43EB0F5D1941
:10556000029B6D1001331B189D4200D21D1C381C7C
:1055700053050FD5291C00F025FB061E13D0029AF7
:10558000216900F0BCFAA289184B13408022134312
:10559000A38111E02A1C00F06DFB061E0CD1381C03
:1055A000216900F0C9FA0C23402201203B60A38945
:1055B00040421343A38117E0029B2661F618266040
:1055C0006561019EED1AA560019BB34200D2019E68
:1055D000321C2068039900F09BFA0020A3689B1BF3
:1055E000A36023689E19266005B0F0BD7FFBFFFF16
:1055F000F0B59FB0029005938B890E1C171C1B06FB
:1056000010D50B69002B0DD1402100F0DBFA306082
:105610003061002804D10C23029A01381360D0E0D5
:1056200040237361002306AD6B6120336B7610332A
:10563000AB763C1C2378002B03D1E31B049312D0E0
:1056400003E0252BF9D00134F4E7049B0298311CC8
:105650003A1CFFF76DFF431C00D1ACE06A69049B64
:10566000944663446B612378002B00D1A3E00122B0
:10567000002352426A6002A95432521801342B604E
:10568000EB60AB601370AB654F4F2178381C05227F
:1056900000F02AFA002808D0C01B01278740381CD8
:1056A0002B68013418432860EEE72B68DA0604D52E
:1056B0005322202102A8121811701A0704D5532270
:1056C0002B2102A81218117022782A2A01D0099BD6
:1056D0000EE0059A111D12680591002A01DB09925E
:1056E00004E05242EA60022213432B60013409E0D5
:1056F0002278303A092A04D80A214B4301349B18F6
:10570000F6E7099323782E2B18D163782A2B09D139
:10571000059B02341A1D1B680592002B0DDA01232C
:105720005B420AE0002301342278303A092A04D887
:105730000A214B4301349B18F6E70793234F217846
:10574000381C032200F0D0F9002807D0C01B4027E6
:105750008740381C2B6801341843286021781C4886
:105760000622671C297600F0BFF9002812D0194BD9
:10577000002B06D10722059B07339343083305937B
:1057800014E005AB00930298291C321C124B00E078
:1057900000BF07E005AB00930298291C321C0E4B9A
:1057A00000F08AF80390039B013304D06B69039ADD
:1057B0009B186B613DE7B3890B985B0601D501200F
:1057C00040421FB0F0BDC046337F0008397F00085B
:1057D0003D7F00080000000031550008F7B5171C98
:1057E00001930A698B6800900C1C934200DA131C29
:1057F000221C3B6043321278002A01D001333B6007
:1058000023689B0602D53B6802333B60062523686C
:105810001D401ED0231C43331B785A1E934122681F
:1058200092061CD53020E1184031C870211C5A1C4A
:1058300045310978A21840320233D1700FE0221CA2
:105840000123009801991932089EB047431C0ED0DD
:105850000135E3683A689B1A9D42F0DBDAE7221CC7
:10586000009801994332089DA847431C02D10120AA
:10587000404220E006232068E1683A6803400025A2
:10588000042B03D18D1AEB43DB171D40A36822695B
:10589000934201DD9B1AED180027AF420ADA221C61
:1058A0000123009801991A32089EB047431CDED0AC
:1058B0000137F2E70020FEBDF0B58BB006920A1C5E
:1058C00043320793059004920A7E0C1C109B6E2AAB
:1058D00000D1A8E011D8632A22D009D8002A00D12B
:1058E000B2E0582A00D0C2E045310A707C4A4FE04D
:1058F000642A1DD0692A1BD0B9E0732A00D1A7E021
:1059000009D86F2A29D0702A00D0B0E02022096877
:105910000A43226037E0752A1FD0782A33D0A6E0E8
:105920000E1C1A684236111D196013683370A1E00D
:1059300021681A68080606D4490604D5111D1960A5
:105940000023D55E02E0111D19601568002D3BDAB9
:105950002D23049A6D42137036E021681A680806F8
:1059600006D4490604D51568111D1960ADB202E0D0
:10597000111D196015685A4B227E03930A276F2A5E
:105980001DD108271BE0221C782145321170554A91
:1059900019680392081D226818600D68100602D469
:1059A000500600D5ADB2D30702D520231A4322609A
:1059B0001027002D03D1202322689A432260231C44
:1059C000002243331A7002E00A27454B03936368B1
:1059D000A360002B03DB0422216891432160002D8A
:1059E00002D1049E002B0ED0049E281C391CFAF70D
:1059F00047FC039B013E5B5C281C3370391CFAF7A3
:105A0000B9FB051EF1D1082F09D12368DB0706D5A4
:105A100063682269934202DC3023013E3370049BA9
:105A20009B1B23612BE009681A68080607D4490606
:105A300005D5111D19601368A28A1A8004E0111D92
:105A40001960136862691A600023049E236116E0DE
:105A50001A68111D196016680021301C626800F078
:105A600043F8002801D0801B6060636803E0261CB7
:105A700042363270012323610023049A1370079B7E
:105A800005980093211C069B09AAFFF7A7FE431C5B
:105A900002D10120404221E0236905980699321C79
:105AA000079DA847431CF4D023689B0705D4099B96
:105AB000E068984212DA181C10E00025E368099AA1
:105AC0009B1A9D42F3DA221C01230598069919328C
:105AD000079EB047431CDCD00135EFE70BB0F0BDAB
