:020000040800F2
:100000000050002011240008990C00089D0C0008E5
:1000100000000000000000000000000000000000E0
:10002000000000000000000000000000A10C00081B
:100030000000000000000000A50C0008A90C00084A
:10004000612400086124000861240008612400087C
:10005000612400086124000861240008612400086C
:1000600000000000612400086124000861240008E9
:10007000612400086124000861240008612400084C
:1000800061240008612400086124000800000000C9
:10009000612400086124000861240008612400082C
:1000A000612400086124000861240008612400081C
:1000B0006124000861240008000000000000000026
:1000C00008B5054B054803331B1A062B03D9044B0F
:1000D000002B00D0984708BD040000200400002039
:1000E000000000000648074908B5091A8910CB0F1F
:1000F0005918491003D0044B002B00D0984708BD75
:1001000004000020040000200000000010B5074C8F
:100110002378002B09D1FFF7D3FF054B002B02D02A
:10012000044800E000BF0123237010BD040000203C
:1001300000000000B024000808B5094B002B03D0D4
:100140000848094900E000BF08480368002B02D1B5
:10015000FFF7C8FF08BD064B002BF9D09847F7E71B
:1001600000000000B0240008080000200400002067
:1001700000000000002243088B4274D303098B4225
:100180005FD3030A8B4244D3030B8B4228D3030C67
:100190008B420DD3FF22090212BA030C8B4202D309
:1001A0001212090265D0030B8B4219D300E0090A31
:1001B000C30B8B4201D3CB03C01A5241830B8B423A
:1001C00001D38B03C01A5241430B8B4201D34B0323
:1001D000C01A5241030B8B4201D30B03C01A524188
:1001E000C30A8B4201D3CB02C01A5241830A8B420D
:1001F00001D38B02C01A5241430A8B4201D34B02F6
:10020000C01A5241030A8B4201D30B02C01A524159
:10021000CDD2C3098B4201D3CB01C01A524183090D
:100220008B4201D38B01C01A524143098B4201D347
:100230004B01C01A524103098B4201D30B01C01A72
:100240005241C3088B4201D3CB00C01A52418308EC
:100250008B4201D38B00C01A524143088B4201D319
:100260004B00C01A5241411A00D201465241104679
:100270007047FFE701B5002000F00CF802BDC04652
:100280000029F7D003B5FFF775FF0EBC4243891A6A
:100290001847C0467047C046002B11D1002A0FD125
:1002A000002900D1002802D00021C943081C07B44E
:1002B000024802A14018029003BDC046D9FFFFFFCB
:1002C00003B4684601B5029800F022F8019B9E46EF
:1002D00002B00CBC7047C046F0B583B0161C1F1CA2
:1002E0000090019100F058F8041C0D1C221C2B1CDE
:1002F000301C391C00F026F8009A019B121A8B4121
:100300000899201C0A604B60291C03B0F0BDC04650
:10031000F0B5141C83B01D1C0090019100F034F95D
:10032000221C2B1C061C0F1C00F00CF8009A019BD1
:10033000121A8B410899301C0A604B60391C03B0BB
:10034000F0BDC046F0B54F46464605042D0C2C1CAA
:10035000C0B41704160C3F0C9946030C7C4375433C
:100360005F4373437D19260CAD199C46AF4203D9F8
:1003700080235B029846C4444B46514343432404C4
:100380002E0C240C2D0466442C1959188919201C94
:100390000CBC90469946F0BDF0B544465F465646C3
:1003A0004D46F0B41C1C85B0002900DAA9E00F1CF2
:1003B0000021061C8846101C191C002C00DA97E04E
:1003C000341C3D1C82468946B94273D870D04946D8
:1003D000504600F085F98346391C301C00F080F946
:1003E0005B46181A031C8346203B9C4600D59CE0C4
:1003F00000230022514600920193634699400191E7
:1004000051468140019B0091BB4200D983E000D15D
:100410007EE0009A019B341C3D1CA41A9D4163465A
:10042000002B00DA9AE00026002702960397013697
:100430009E400396012686400296002800D171E076
:100440000099019AD30799464B464E081E43570818
:10045000002301220CE0AF4201D1A6420AD8A41B1E
:10046000BD4124196D410138A4185D41002806D012
:10047000AF42F0D9013824196D410028F8D120226B
:10048000029E039F5B46524236196F4199185AD417
:10049000281CC8402C1C5B46DC40002968DB041C7F
:1004A0008C40231C59468840021CB61A9F4103E029
:1004B000B0428CD90026002741464B1E99410023AB
:1004C00000910193009A019B002554429D41331CE9
:1004D0006340181C3B1C6B40191C009B019CC018FE
:1004E000614105B03CBC90469946A246AB46F0BD82
:1004F0004346DB430C1C9846131C00215842A14183
:100500005EE7002746428F4101214942884652E773
:10051000B14200D87DE70026002702960397002805
:1005200000D08DE7029E039FC6E720215346091A9B
:10053000CB400022191C0023009201934B468340BC
:100540000B4301935CE75A4620239B1A2A1C9A40CE
:10055000201C131C5A46D04018439BE72026002736
:10056000331A0026029603970127DF40039761E7BD
:100570005B4620215D46C91A031CAC40CB40191CC8
:10058000231C0B438EE7C046F0B545464E46574602
:10059000E0B4041C82B00D1C914698468B4262D890
:1005A0005FD04146484600F09BF8291C061C201CE1
:1005B00000F096F82023311A5B428A46C81865D4A9
:1005C0004B4683401F1C4B468B401E1CAF4258D8E5
:1005D00055D0A41BBD41002800DA77E0002200239B
:1005E0000092019301328240019201238B400093DB
:1005F00000293CD0FB079846404672087B0802431E
:10060000012600270CE0AB4201D1A2420AD8A41A6D
:100610009D4124196D410139A4197D41002906D05D
:10062000AB42F0D9013924196D410029F8D12022BB
:100630000098019953465242001969419E183AD4D4
:100640002F1CF7405346DD40002E29DB3C1CB440F4
:10065000231C5446A7403A1C801A994100900191EE
:1006600005E082429DD90023002400930194009864
:10067000019902B01CBC90469946A246F0BDA34227
:10068000A7D90022002300920193B1E720224B4614
:10069000521AD3401A1C43468B401F1C174392E743
:1006A000534620245646E41A3B1CB540E3401C1C2C
:1006B0002B1C2343CDE7524620239B1A2A1C9A4029
:1006C000271C131C5246D7401F43BBE720230022A0
:1006D000581A0023009201930132C240019284E72C
:1006E00010B5002903D100F007F8203002E0081C03
:1006F00000F002F810BDC0461C2101231B049842E3
:1007000001D3000C10391B0A984201D3000A0839A2
:100710001B09984201D30009043902A2105C401859
:100720007047C046040302020101010100000000FD
:100730000000000010B59AB000240D940E940F94A0
:10074000109411941294139414941594169417946D
:1007500018941994089409940A940B940C94009496
:100760000194029403940494059406940794144A03
:100770001168144B0B40802109010B4313601023B7
:100780000D930F3B13931494A0231B0215931694FF
:100790000DA800F041FD0F23089309940A940B94CF
:1007A0000C9408A8002100F0D9FF0A23FF3300931E
:1007B000029405940694684601F0D2F81AB010BD70
:1007C00000700040FFE7FFFF08B500F001FCFFF7F5
:1007D000B1FF00F00FF800F055F800F0B7F800F0A6
:1007E000E1F800F00BF900F0C5F900F00DFAFEE7B2
:1007F0007047C046F0B589B0002403940494059472
:10080000069407941D4BDA6A01252A43DA62DA6AF4
:100810002A400192019ADA6A02210A43DA62DB6A0B
:100820000B400293029B16480D31002201F052FA50
:10083000A026F605C0277F01301C391C002201F0DC
:1008400049FA0F2303930495059406940C4803A9D1
:1008500001F06AF9C023DB00039304940594301C73
:1008600003A901F061F90397049505940694301CDF
:1008700003A901F059F909B0F0BDC04600100240CB
:100880000004005000B583B0002300930193194881
:10089000194A0260C363C022120642608360836308
:1008A00001220261C3601F32835401328354836288
:1008B000C222FF324262963AFF3A8354283A42619A
:1008C000036383614363C36100F018FA002801D019
:1008D000FFF78EFF0123009380235B0101930548FE
:1008E000694600F001FB002801D0FFF781FF03B04B
:1008F00000BDC046200000200024014000B587B0A4
:1009000000230193029303930493059302680D4B14
:100910009A4215D10C4B5A6B802189000A435A63C5
:10092000D96A01221143D962DB6A13400093009B0C
:10093000019203230293A020C00501A901F0F4F85D
:1009400007B000BD002401400010024008B5134864
:10095000134B0360E123DB0043600023836001222B
:10096000C260036143618361C361036200F052FBB3
:10097000002801D0FFF73CFF0848002100F0AEFB43
:10098000002801D0FFF734FF0448002100F0D2FB1B
:10099000002801D0FFF72CFF08BDC046C80000208A
:1009A0000054004008B51348134B0360E123DB00FB
:1009B0004360002383600122C2600361436183615D
:1009C000C361036200F026FB002801D0FFF710FF8F
:1009D0000848002100F082FB002801D0FFF708FF43
:1009E0000448002100F0A6FB002801D0FFF700FF1B
:1009F00008BDC046140100200058004008B5134847
:100A0000134B0360E123DB0043600023836001227A
:100A1000C260036143618361C361036200F0FAFA5B
:100A2000002801D0FFF7E4FE0848002100F056FB43
:100A3000002801D0FFF7DCFE0448002100F07AFB1B
:100A4000002801D0FFF7D4FE08BDC0467C0000207E
:100A500000780040F0B5474680B48AB00023059383
:100A6000069307930893099303683D4A93421DD167
:100A70003C4CE26A02210A43E262E36A0B400193C2
:100A8000019BC0239B00059312230693113B079300
:100A90000233089301330993334805A901F044F860
:100AA000A36B802292031343A36354E02F4A934223
:100AB0001DD12C4CE26A02210A43E262E36A0B4038
:100AC0000293029BC023DB01059312230693113B83
:100AD00007930233089302330993234805A901F0D1
:100AE00023F8A36B8022D2031343A36333E0204A8D
:100AF000934230D11B4CE36A01252B43E362E36A46
:100B00002B400393039BE26A02210A43E262E36AF9
:100B10000B400493049B80235B000593EE3B9846B7
:100B2000069307950327089707260996A020C00576
:100B300005A900F0F9FF1023059343460693079596
:100B400008970996084805A900F0EEFFA36B8022DC
:100B5000D2051343A3630AB004BC9046F0BDC0465F
:100B600000540040001002400004005000580040B3
:100B70000078004008B50C480C4B036082235B00F2
:100B8000436000238360C360036143618361C36189
:100B90000362436283620733C36201F0EFF8002807
:100BA00001D0FFF725FE08BD6001002000300140A4
:100BB00000B587B000230193029303930493059338
:100BC00002680F4B9A4218D10E4B5A6B8021490193
:100BD0000A435A63DA6A01210A43DA62DB6A0B408C
:100BE0000093009BF0230193EE3B029301330493A7
:100BF000A020C00501A900F097FF07B000BDC046C6
:100C0000003001400010024008B50B480B4B036058
:100C1000E1235B02436000238360C36003610C2215
:100C200042618361C3610362436201F08DFB00286E
:100C300001D0FFF7DDFD08BDB801002000380140FC
:100C400000B587B0002301930293039304930593A7
:100C500002680E4B9A4216D10D4B5A6B8021C90186
:100C60000A435A63D96A02221143D962DB6A1340EC
:100C70000093009BC02301930292BD3B049305485F
:100C800001A900F051FF07B000BDC0460038014087
:100C900000100240000400507047C046FEE7C04606
:100CA0007047C0467047C04608B500F0A5F908BDBA
:100CB000054B596B01220A435A639A6B80214905FF
:100CC0000A439A637047C0460010024010B582B0D4
:100CD000041C084B18680849FFF74CFA4443019478
:100CE00002E0019B013B0193019B002BF9D102B073
:100CF00010BDC0460000002040420F0038B500285B
:100D000000D1E3E0041C436D002B04D18365502225
:100D10008354FFF7F3FD636DDB0604D42268936808
:100D200004210B4008D0626D102313436365002239
:100D30005023E2540120CAE0606D65490140022061
:100D400001436165916801300140012904D11168B6
:100D5000C90703D4002102E0002100E0012100299D
:100D60002DD16168C0200006814207D08020C005D7
:100D7000814203D080200006814209D11169890097
:100D80008908116121680A69606802430A610CE000
:100D900011698900890811614E4A10684E49014065
:100DA000116011686068014311602168CA681820E9
:100DB0008243CA602168CA68A0680243CA60454984
:100DC0000868464A02400A600868626B520602439D
:100DD0000A6022689168C90004D4916880204005A7
:100DE000014391602168C8683D4A0240CA6020689A
:100DF000C568E2682169022900D104231A4320232F
:100E0000E35C5B031A432C23E15C49000A43236B38
:100E10001343A26991030B43E269D20313432B43AB
:100E2000C360636AC222FF32934205D02268D16850
:100E3000A06A03430B43D3602123E35C012B12D14F
:100E40001F33E35C002B06D12268D368802149025E
:100E50000B43D36007E0626D202313436365A26DEB
:100E600001231343A365E36B012B13D1226811699E
:100E70001C4B0B40136122681169236C606C0343A7
:100E8000A06C03430B4313612268116901230B43D8
:100E9000136107E023681A69D20703D51A69012193
:100EA0008A431A612268536907218B435361226880
:100EB0005369A16B0B4353610023A365636D032248
:100EC0009343023A13436365002000E0012038BDDC
:100ED000FDFEFFFF08270140FFFFC3FFFFFFFFFDEF
:100EE0001902FEFF03FCFFFF38B55023C35C012B42
:100EF0004CD001225023C254026893685B0708D586
:100F0000426D20231343436500225023C254012025
:100F10003DE00D1C041C1E4B496899421BD0916A90
:100F20002B685B035B0B0B4393622B685B0308D559
:100F3000184A1368802109040B4313600A20FFF745
:100F4000C5FE2B689B031CD5124A13688021C90378
:100F50000B43136015E0916A2B685B035B0B9943AD
:100F600091622B685B0304D50A4A11680A4B0B4057
:100F700013602B689B0304D5064A1168074B0B408E
:100F8000136000225023E254002000E0022038BD0C
:100F90000110000008270140FFFF7FFFFFFFBFFF98
:100FA00010B5041C094B1868FA218900FFF7E2F814
:100FB00000F0C8FE002806D10138211C002200F0F4
:100FC0008FFE002000E0012010BDC0460000002080
:100FD00008B5084A116840230B4313600020FFF74F
:100FE000DFFF002803D1FFF763FE002000E00120AF
:100FF00008BDC04600200240024A13680133136056
:101000007047C04638020020014B18687047C04640
:101010003802002010B5002858D0041C4123C35CBE
:10102000002B04D100224033C254FFF713FD2422C9
:101030004123E2542268136801218B431360226824
:10104000234B61680B40136122689168214B0B4070
:101050009360E368012B06D1226880231B02A168FC
:101060000B43936005E0226884231B02A1680B43B5
:101070009360E368022B03D12368802212015A6037
:101080002268536814490B4353602268D168114B9E
:101090000B40D3602168226963691A43A3691B026C
:1010A0001343CB602268E369216A0B431360226813
:1010B000116801230B431360002363642021412244
:1010C000A15423630132A354002000E0012010BD8D
:1010D000FFFFFFF0FF7FFFFF00800002F0B541231C
:1010E000C35C202B20D12033C35C012B1ED04024B5
:1010F00001230355412524224255066832689A434C
:101100003260066837680A4A3A40326002681668F8
:1011100031431160026811680B431360202343556B
:1011200000230355002002E0022000E00220F0BD71
:10113000FFEFFFFFF0B54123C35C202B1ED120330E
:10114000C35C012B1CD040240123035541252422DC
:101150004255066832689A43326006683768094A21
:101160003A40090211433160026811680B43136071
:101170002023435500230355002002E0022000E015
:101180000220F0BDFFF0FFFF08B51E4BD9680C230D
:101190000B40082B31D00C2B07D0042B23D1194B3B
:1011A0001B68DB062BD518482AE08B021B0F174A59
:1011B000D05C0902890F0131124BDB68DB0304D5D7
:1011C000134B5843FEF7D6FF1AE00E4B1B68DB06A5
:1011D00004D50D4B5843FEF7CDFF11E00D4B58439E
:1011E000FEF7C8FF0CE0074B58680004400F0130C1
:1011F00080231B028340181C02E0054800E00548DC
:1012000008BDC0460010024000093D002825000826
:1012100000127A000024F400F0B583B0002800D159
:101220005CE2041CC04BDA680C251540DE688023A4
:101230005B021E400368DB0758D5082D03D00C2D38
:1012400009D1002E07D0B84B1B689B034ED56368AD
:10125000002B4BD144E2636880225202934206D1B4
:10126000B14A1368802149020B4313601EE0A0229B
:10127000D20293420BD1AC4B1A688021C9020A43B7
:101280001A601A68802149020A431A600EE0A64BD0
:101290001968A64A0A401A601968802252020A4058
:1012A0000192019A1968A24A0A401A606368002BE9
:1012B0000ED0FFF7A9FE071C05E0FFF7A5FEC01B37
:1012C000642800D90EE2984B1B689B03F5D50DE00E
:1012D000FFF79AFE071C05E0FFF796FEC01B642887
:1012E00000D901E2904B1B689B03F5D423689B0750
:1012F00064D5E3689A0605D58B48026820210A4325
:1013000002608B43042D03D00C2D25D1002E23D158
:10131000854A1268520702D5002B00D1E6E1824EC1
:101320007168844A0A40216909020A43726032687E
:1013300009218A4313433360FFF726FFF3681B0636
:101340001B0F7D4AD35CD8407C4B18600020FFF710
:1013500027FE002832D0EEE1002B1CD072490A682B
:101360000920824313430B60FFF74EFE061C05E085
:10137000FFF74AFE801B022800D9B9E16A4B1B68BF
:101380005B07F5D568494A686A4B13402269120227
:1013900013434B6012E0644A136801218B431360CE
:1013A000FFF732FE061C05E0FFF72EFE801B022829
:1013B00000D99FE15C4B1B685B07F5D42368DB0613
:1013C00065D5002D2AD1584B1B689B0503D5A36911
:1013D000002B00D190E154494A68594B1340226ACE
:1013E00013434B604B681B021B0AE269120613434E
:1013F0004B60236A5B0B0133802212029A40131C5C
:10140000CA681206120F4C498A5CD3404B4A1360DB
:101410000020FFF7C5FD002839D08CE1A369002B1F
:1014200022D0414A1368802149000B431360FFF723
:10143000EBFD061C05E0FFF7E7FD801B022800D945
:101440005CE1394B1B689B05F5D537494A683C4B35
:101450001340226A13434B604B681B021B0AE2696C
:10146000120613434B6012E02F4A1168354B0B40B4
:101470001360FFF7C9FD061C05E0FFF7C5FD801BE3
:10148000022800D93CE1284B1B689B05F5D4236852
:101490001B0729D56369002B13D0234A116D012343
:1014A0000B431365FFF7B0FD061C05E0FFF7ACFD2D
:1014B000801B022800D925E11B4B1B6D9B07F5D52E
:1014C00012E0194A136D01218B431365FFF79CFD50
:1014D000061C05E0FFF798FD801B022800D913E1E8
:1014E000114B1B6D9B07F5D423685B0700D491E07B
:1014F0000D4B9B6BDB0007D40B4A936B8021490596
:101500000B439363012600E000260F4B1B68DB05AD
:1015100026D40D4A1368802149000B431360FFF75E
:1015200073FD071C18E0C04600100240FFFFFEFFDD
:10153000FFFFFBFFFFE0FFFF102500080000002079
:10154000FF1FFFFFFFFEFFFF00700040FFF75CFD85
:10155000C01B642800D9D9E0784B1B68DB05F5D5A2
:10156000A36880225200934206D1754A136D8021F0
:1015700049000B43136524E0002B09D1704B196D12
:10158000704A0A401A65196D6F4A0A401A6518E0D8
:10159000A022D20093420BD1694B1A6D8021C90061
:1015A0000A431A651A6D802149000A431A6508E04A
:1015B000634B196D634A0A401A65196D624A0A4005
:1015C0001A65A368002B0FD0FFF71EFD071C06E06D
:1015D000FFF71AFDC01B5D4B984200D998E0584BAD
:1015E0001B6D9B05F4D50EE0FFF70EFD071C06E012
:1015F000FFF70AFDC01B554B984200D98AE0504BBB
:101600001B6D9B05F4D4012E04D14D4A916B504BB8
:101610000B409363636A002B7ED00C2D46D0022BC7
:1016200030D1474A11684B4B0B401360FFF7ECFC7D
:10163000051C04E0FFF7E8FC401B02286ED8404B75
:101640001B689B01F6D43E49C868434B1840A36A07
:10165000E26A1343226B13430343CB600B6880227F
:10166000520413430B60FFF7CFFC041C04E0FFF7A8
:10167000CBFC001B022853D8314B1B689B01F6D5CD
:10168000002058E02E4A1168324B0B401360FFF7E0
:10169000BBFC041C04E0FFF7B7FC001B022841D888
:1016A000274B1B689B01F6D4002044E0012B3BD064
:1016B000234BDA6880235B021340A16A8B4235D149
:1016C000F0239B031340E16A8B4231D1C0231B04FA
:1016D0001A40236B9A422DD001202CE001202AE0F1
:1016E000012028E0032026E0032024E0012022E05E
:1016F000032020E003201EE001201CE003201AE06C
:10170000032018E0032016E0032014E0032012E079
:10171000032010E003200EE000200CE003200AE08C
:10172000032008E0032006E0012004E0012002E09D
:10173000012000E0002003B0F0BDC0460070004072
:1017400000100240FFFEFFFFFFFBFFFF88130000B9
:10175000FFFFFFEFFFFFFFFEFFFF02FF70B5002856
:1017600000D1B3E0644B1B68012213408B420AD2C4
:10177000614A13680124A3430B4313601368234099
:101780008B4200D0A4E003689B0706D55B4AD36870
:10179000F024A34384682343D3600D1C041C036816
:1017A000DB075FD54368022B04D1544A12689203C9
:1017B00013D48FE0032B04D1504A126892010CD449
:1017C0008AE0012B04D14D4A1268520705D485E006
:1017D0004A4A1268920500D482E04849CA68032048
:1017E00082431343CB60FFF70FFC061C6368022B98
:1017F0000DD105E0FFF708FC801B414B984271D8E2
:101800003E4BDB680C221340082BF3D12AE0032B5C
:101810000DD105E0FFF7F8FB801B394B984263D8E8
:10182000364BDB680C2213400C2BF3D11AE0012B52
:1018300013D105E0FFF7E8FB801B314B984255D8E8
:101840002E4BDB680C221340042BF3D10AE0FFF788
:10185000DBFB801B2A4B98424AD8284BDB680C22C2
:101860001A42F4D1244B1B6801221340AB4209D920
:10187000214A136801218B432B43136013680B40EB
:10188000AB4237D123685B0706D51C4AD1681D4B94
:101890000B40E1680B43D36023681B0707D517494A
:1018A000CA68194B13402269D2001343CB60FFF77B
:1018B0006BFC124BDB681B061B0F144AD35CD84031
:1018C000134B18600020FFF76BFB14E0012012E0BF
:1018D000012010E001200EE001200CE001200AE0D0
:1018E000012008E0032006E0032004E0032002E0DA
:1018F000032000E0012070BD0020024000100240E3
:1019000088130000FFF8FFFFFFC7FFFF1025000846
:1019100000000020014B18687047C04600000020FE
:1019200008B5FFF7F7FF044BDB685B055B0F034A65
:10193000D35CD84008BDC0460010024020250008F6
:1019400008B5FFF7E7FF044BDB689B045B0F034A16
:10195000D35CD84008BDC0460010024020250008D6
:1019600070B5041C03689B0600D482E0644B9B6B3B
:10197000DB0007D4624A936B802149050B439363D4
:10198000012500E000255F4B1B68DB0513D45D4A91
:101990001368802149000B431360FFF735FB061CD9
:1019A00005E0FFF731FB801B642800D99FE0554B11
:1019B0001B68DB05F5D5524B1A68C0239B031A4000
:1019C00061680B4093420AD0C0239B020A1C1A4054
:1019D0009A4204D14A4B1B689B0300D589E0484BCF
:1019E0001A6DC0239B02134025D0C02292021140E1
:1019F000994220D023689B061DD5414B186D424A61
:101A00000240196D80263603314319651E6D3F492A
:101A1000314019651A65C3050DD5FFF7F5FA061CA7
:101A200005E0FFF7F1FA801B394B984263D8344B3D
:101A30001B6D9B05F5D56268C0239B02111C1940E4
:101A4000994208D12E480168324B1940C0239B03AC
:101A50001A400A4302602A4A116DC0239B02606843
:101A600003400B431365012D03D1916B2A4B0B40AF
:101A700093632368DB0706D5214AD36C03218B438C
:101A8000A1680B43D36423689B0706D51C4AD36C1B
:101A90000C218B43E1680B43D36423685B0706D5B5
:101AA000174AD16C1D4B0B4021690B43D36423684B
:101AB0001B0706D5124AD16C194B0B4061690B43C9
:101AC000D3642368DB0506D50D4AD16C0E4B0B4061
:101AD000A1690B43D36423681B060ED50849CA6C61
:101AE000104B1340E2691343CB64002006E003204F
:101AF00004E0012002E0032000E0002070BDC046A9
:101B00000010024000700040FFFFFCFFFFFFF7FFE6
:101B100088130000FFFFCFFFFFFFFFEFFFF3FFFF82
:101B2000FFCFFFFFFFFFF3FFF0B54F464646C0B4BF
:101B300083B00023B2E001249C402240914600D1B2
:101B4000ABE04D68022D01D0122D0ED1DD08083515
:101B5000AE00375807251D40AD000F22AA4097431D
:101B60000A69AA40151C3D4335504D686F1E012F70
:101B700003D9112D01D0122D13D185685E000327E2
:101B8000B740BD432F1CCD68B5403D4385604768D5
:101B9000A7434A68D506ED0F2C1C019A94403C439C
:101BA000446005685F000324A446BC40E44325402C
:101BB0002E1C65464A681540BD4035430560C56822
:101BC0002C408D68BD402C43C4604A68D20064D567
:101BD000384D6E6B012434436C639C08A51CAD002A
:101BE000354EAE5903271F40BD000F27AF40BE43FF
:101BF000A027FF05B8421AD0304FB84215D0304F59
:101C0000B84210D02F4FB8420BD02F4FB84206D059
:101C10002E4FB84201D105270AE0062708E0042725
:101C200006E0032704E0022702E0012700E0002786
:101C3000AF403D1C35430234A4001F4EA551244C37
:101C400025684A46D4432E1C26404A68D20302D552
:101C50004A4615432E1C1E4D2E606D682E1C2640D4
:101C60004A68920302D54A4615432E1C184D6E60F1
:101C7000AD682E1C26404A68D20202D54A4615435A
:101C80002E1C134DAE60ED682C404A68920202D5BE
:101C90004A462A43141C0E4AD46001330A68019351
:101CA000141CDC4000D046E703B00CBC90469946BB
:101CB000F0BDC0460010024000000140000400508A
:101CC00000080050000C005000100050001C005094
:101CD00000040140002A01D0816100E08162704768
:101CE00070B5002816DAC0B20F230340083B9B08EA
:101CF0009B00124A944663445A6803242040C00063
:101D0000FC34251C8540AA438901214081400A43B7
:101D10005A6011E083080A4CC0339B001A5903250E
:101D20002840C000FC352E1C8640B2438901294062
:101D30008140081C1043185170BDC04618ED00E0EA
:101D400000E100E001380A4B98420FD8094A506080
:101D500009490B6A1B021B0AC020000603430B62E1
:101D60000023936007331360002000E001207047D8
:101D7000FFFFFF0010E000E000ED00E038B50028B4
:101D80003BD0041C002383625133C35C002B04D17D
:101D900000225033C254FEF70BFF5121022363543B
:101DA0002268136840208343136020686368A26838
:101DB0001343E26813432269134362691343802289
:101DC0009200A5692A401343E2691343226A134330
:101DD000A26A134303602268638B04200340606A95
:101DE000034353602268D069054B0340D36100234D
:101DF000636501336354002000E0012038BDC04614
:101E0000FFF7FFFFF8B5051C8368026913434269B9
:101E10001343C2691A4301680868BF4B0340134368
:101E20000B602A685168BD4B0B40E9680B43536057
:101E3000AB692A68BA498A4201D0296A0B43906883
:101E4000B84901400B4393602B68B74A934214D1C1
:101E5000B64AD26C03210A40012A08D0002A04D0D5
:101E6000022A4BD0032A04D005E0012251E00422CB
:101E70004FE008224DE010224BE0AD4A934216D1CC
:101E8000AA4AD26C0C210A40042A0AD002D8002A9D
:101E900005D00AE0082A33D00C2A04D005E000223D
:101EA00037E0042235E0082233E0102231E0A14A75
:101EB000934227D0A04A934226D0994A934225D1F3
:101EC0009A4AD16CC02212010A408021C9008A427C
:101ED0000ED002D8002A09D00EE0802109018A42E2
:101EE00016D0C02109018A4204D005E0002210E08A
:101EF00004220EE008220CE010220AE0022208E090
:101F0000022206E0002204E0002202E0102200E0AB
:101F1000022283498B4240D1022A0FD002D8002AE4
:101F200008D016E0042A10D0082A12D1802000021E
:101F3000002413E0FFF7F4FC00240FE07B4B1B6848
:101F4000DB0609D57D48002408E0FFF71DF90024D1
:101F500004E00020012401E079480024002800D199
:101F600011E16A6853009B18834200D902E1130310
:101F7000834200D200E1070E0602500800218019BA
:101F800079410023FEF788F96E4BC2186E4B9A42D6
:101F900000D9F3E02B68D860F5E080231B02E969E3
:101FA000994266D1082A53D89200684B9B589F46A5
:101FB000FFF7B6FC40006B685B08C0186968FEF765
:101FC000D9F80004000C002444E0FFF7B9FC4000FD
:101FD0006B685B08C0186968FEF7CCF80004000C59
:101FE000002437E0514B1B68DB060BD56B685808A3
:101FF000574B9C4660446968FEF7BCF80004000C2F
:10200000002427E06B685808524B9C46604469687E
:10201000FEF7B0F80004000C00241BE0FFF7B4F852
:1020200040006B685B08C0186968FEF7A3F80004FD
:10203000000C00240EE06B68580880235B029C466D
:1020400060446968FEF796F80004000C002401E083
:1020500001240020404A031C103B934200D98FE02A
:102060000F22031C93431040400818432B68D8608C
:1020700089E0082A74D89200384B9B589F46FFF796
:102080004FFC6B685B08C0186968FEF773F80004C2
:10209000000C002466E0FFF753FC6B685B08C01877
:1020A0006968FEF767F80004000C00245AE01F4B33
:1020B0001B68DB060BD56B685808204B9C466044B8
:1020C0006968FEF757F80004000C00244AE06B68CA
:1020D00058081B4B9C4660446968FEF74BF80004A7
:1020E000000C00243EE0FFF74FF86B685B08C01857
:1020F0006968FEF73FF80004000C002432E06B68CA
:10210000580880231B029C4660446968FEF732F839
:102110000004000C002425E0F369FFEFFFCFFFFF70
:1021200000480040FFF4FFFF00380140001002406B
:1021300000440040004C00400050004000093D00B9
:102140000024F40000FDFFFFFFFC0F00C82400087E
:1021500000127A000048E801EFFF0000EC240008BC
:10216000012400200A4A031C103B93420AD82B6822
:10217000D86008E0012406E0012404E0012402E024
:10218000012400E0012400232B666B66201CF8BDAF
:10219000EFFF0000436ADB0706D5026851682C4B4D
:1021A0000B40816A0B435360436A9B0706D5026864
:1021B0005168284B0B40C16A0B435360436A5B076D
:1021C00006D502685168244B0B40016B0B435360EA
:1021D000436A1B0706D502685168204B0B40416BD0
:1021E0000B435360436ADB0606D5026891681C4BBB
:1021F0000B40816B0B439360436A9B0606D50268D4
:102200009168184B0B40C16B0B439360436A5B06AC
:1022100012D502685168144B0B40016C0B4353609C
:1022200080235B03026C9A4206D1026851680F4B0F
:102230000B40416C0B435360436A1B0606D5016893
:102240004A680B4B1340826C13434B607047C04687
:10225000FFFFFDFFFFFFFEFFFFFFFBFFFF7FFFFF15
:10226000FFEFFFFFFFDFFFFFFFFFEFFFFFFF9FFF1E
:10227000FFFFF7FFF0B5474680B4061C0C1C171C87
:102280009846069D1BE06B1C19D0FEF7BDFE434629
:10229000C01AA84201D8002D11D1326811680E4B26
:1022A0000B4013603268936801218B4393602023B5
:1022B0007367B36700225033F254032008E0336899
:1022C000DB6923401B1B5A425341BB42DBD0002039
:1022D00004BC9046F0BDC0465FFEFFFF30B583B042
:1022E000041C0023C367FEF78FFE051C23681B68D0
:1022F0001B070AD5134B0093201C80218903002261
:102300002B1CFFF7B7FF002816D123681B685B075B
:102310000AD50C4B0093201C8021C90300222B1CE2
:10232000FFF7A8FF002809D120236367A3670022D5
:102330005033E254002002E0032000E0032003B009
:1023400030BDC046FFFFFF0110B500282DD0041C92
:10235000436F002B04D100227033C254FEF770FC8F
:10236000242363672268136801218B431360201CB8
:10237000FFF748FD012819D0636A002B02D0201C0A
:10238000FFF708FF22685168094B0B405360226831
:1023900093682A218B4393602268116801230B43C1
:1023A0001360201CFFF79AFF00E0012010BDC0461B
:1023B000FFB7FFFF104B1A68802149000A431A60DB
:1023C000D9680E4A0A40DA6019680D4A0A401A6054
:1023D0009A6801218A439A6019680A4A0A401A6079
:1023E000D968094A0A40DA6000221A61802212057F
:1023F000064B9A607047C046001002400C40FF88B0
:10240000F6FFF6FEFFFFFBFFFFFF02FF00ED00E01F
:102410000D488546002103E00C4B5B5843500431C6
:102420000B480C4B42189A42F6D30B4A02E00023A9
:1024300013600432094B9A42F9D3FFF7BBFF00F057
:1024400011F8FEF7C1F9FEE700500020442500080E
:102450000000002004000020040000203C020020B6
:10246000FEE700000E4B70B500251E1C0D4CE41A53
:10247000A410A54204D0AB00F35898470135F8E703
:1024800000F016F8084B00251E1C084CE41AA41096
:10249000A54204D0AB00F35898470135F8E770BD6A
:1024A0003C2500083C2500083C2500084025000884
:1024B000F8B5C046F8BC08BC9E467047F8B5C046A3
:0824C000F8BC08BC9E46704701
:1024C800B01F0008CA1F0008E41F000850200008B9
:1024D8001C20000850200008502000085020000848
:1024E800362000087E20000896200008AE2000084C
:1024F80060210008E620000860210008602100082B
:1025080060210008FE200008000000000000000014
:102518000102030406070809000000000102030481
:0C252800030406080C101820300000000E
:0825340064DEFF7F01000000DE
:04253C003901000859
:042540000D01000881
:042544000000200073
:0400000508002411BA
:00000001FF
